:100000000C9473010C94FC080C941C090C94590A70
:100010000C94F7090C9490010C9490010C949001AD
:100020000C9490010C9490010C94190C0C94900178
:100030000C9490010C9439120C9490010C94900142
:100040000C9490010C9490010C9490010C94540425
:100050000C9490014575726F426F74426F742077F3
:10006000697264206765737461727465740A00490B
:100070006E697469616C6973696572756E67656EC6
:1000800020626567696E6E656E0A005374617274F2
:10009000204372756973650A00202D3E20004C696B
:1000A0006E69656E576572743A20004472697665B0
:1000B00020737472616967687420666F7277617209
:1000C000640A004472697665207269676874206109
:1000D00072630A00447269766520726967687420E9
:1000E0007368617270206172630A00447269766598
:1000F000206C656674206172630A004472697665DB
:10010000206C656674207368617270206172630A86
:10011000004C696E65206C6F73740A004C696E65E3
:1001200020666F756E640A0054686520526F626FB6
:1001300074206E6565647320746F2062652072653B
:10014000736574746564206E6F772E0A0A00596FA8
:1001500075206E65656420746F20636865636B202D
:100160004D6F746F7220617373656D626C792028B6
:100170006F7220796F757220736F66747761726524
:10018000292E0A0A000A0A28732E207461736B5FF5
:100190006D6F746F72436F6E74726F6C2829206676
:1001A000756E6374696F6E20696E205250364C69AB
:1001B0006221290A000A0A232323204D4F544F525B
:1001C000204F56455243555252454E542023232327
:1001D0000A00596F75206E65656420746F2063682E
:1001E00065636B20456E636F6465722F4D6F746F2E
:1001F0007220617373656D626C7920286F7220794B
:100200006F757220736F667477617265292E0A0AA2
:1002100000210A0A28732E207461736B5F6D6F745E
:100220006F72436F6E74726F6C28292066756E63EF
:1002300074696F6E20696E205250364C69622129B4
:100240000A005249474854004C45465400416666EE
:100250006563746564206368616E6E656C3A000A5C
:1002600023232320454E434F44455220284F5220FC
:100270004D4F544F5229204D414C46554E43544901
:100280004F4E21202323230A00232323232320410D
:100290004C4C204F5045524154494F4E53205354DB
:1002A0004F5050454420544F2050524556454E54CF
:1002B00020414E592044414D4147452120232323CD
:1002C00023230A000A0A232323232320454D4552D2
:1002D00047454E43592053485554444F574E2023C9
:1002E000232323230A0011241FBECFE5D8E0DEBF5D
:1002F000CDBF10E0A0E6B0E0ECECF9E202C0059062
:100300000D92A637B107D9F711E0A6E7B0E001C01A
:100310001D92A138B107E1F70E94A1070C94E414E3
:100320000C940000F89480B911B88FEF83B984E081
:1003300086BF8091760081608093760078940895DE
:1003400008959093690080936800089508959093AC
:100350006B0080936A000895DF93CF930F92CDB71F
:10036000DEB786E989838981815089838F5FD9F7D8
:100370000F90CF91DF910895DF93CF930F92CDB778
:10038000DEB706B600FC6EC08091760080FF4EC0DE
:1003900080917D00882309F465C08130C9F486E925
:1003A00089838981815089838F5FD9F792E0909307
:1003B000DB008091780080939B008091790080938E
:1003C0009C001092760085EA86BF90937D004AC01B
:1003D0008230D9F486E989838981815089838F5F4E
:1003E000D9F780917A008F5F8093DB00809178004D
:1003F00081608093780080939B001092760085EA5C
:1004000086BF83E080937D002DC0833059F5109224
:100410007D0080917B0090917C002FEF8F3F9207B1
:1004200009F1E0916800F09169001BC006B600FC7C
:10043000FDCF909177009923A9F010927D008091D3
:1004400076008160809376001092780010927C0094
:1004500010927B0010927A00E0916A00F0916B009C
:10046000892F09950F90CF91DF910895FF920F93F7
:100470001F93182F062FF42E02C00E94BC0106B64F
:1004800000FCFBCF80917D008823B9F782E0809348
:100490007D001093780000937B0010927C00F09216
:1004A0007A001F910F91FF900895EF92FF920F93A2
:1004B0001F93E82E162F042FF22E02C00E94BC01BB
:1004C00006B600FCFBCF80917D008823B9F781E060
:1004D00080937D0010937B0010927C00E092780066
:1004E00000937900F0927A001F910F91FF90EF90A6
:1004F00008959C0106B600FCFDCF8091760080FF38
:100500000CC0ECEAF0E0D90170E06E0F7F1F02C072
:1005100081918D93E617F707D9F7089506B600FC89
:10052000FDCF809177000895FF920F931F93CF9393
:10053000DF93082FF62EEA01122F02C00E94BC01A1
:1005400006B600FCFBCF80917D008823B9F781E0DF
:1005500080937D00009378008FEF9FEF90937C0055
:1005600080937B00F092790010937A0002C00E9481
:10057000BC0106B600FCFBCF80917D008823B9F753
:100580008091760080FF05C01F5FCE01612F0E9421
:100590007902DF91CF911F910F91FF900895EF9213
:1005A000FF920F931F93DF93CF930F92CDB7DEB7D8
:1005B000082F7B01142F02C00E94BC0106B600FC6C
:1005C000FBCF80917D008823B9F786E989838981F3
:1005D000815089838F5FD9F782E080937D000093FB
:1005E00078008FEF9FEF90937C0080937B001093B7
:1005F0007A0002C00E94BC0106B600FCFBCF8091CD
:100600007D008823B9F78091760080FF05C01F5FC9
:10061000C701612F0E9479020F90CF91DF911F9146
:100620000F91FF90EF9008951F93DF93CF930F9258
:10063000CDB7DEB7182F02C00E94BC0106B600FC81
:10064000FBCF80917D008823B9F786E98983898172
:10065000815089838F5FD9F782E080937D0010936A
:1006600078008FEF9FEF90937C0080937B0081E078
:1006700080937A0002C00E94BC0180917D00882393
:10068000D1F78091760080FD02C080E002C08091A9
:10069000AC000F90CF91DF911F9108950F931F939E
:1006A000DF93CF930F92CDB7DEB7182F062F02C07E
:1006B0000E94BC0106B600FCFBCF80917D00882320
:1006C000B9F786E989838981815089838F5FD9F75A
:1006D00082E08093DB0010939B0000939C001092BB
:1006E000760085EA86BF0F90CF91DF911F910F9121
:1006F0000895FF920F931F93DF93CF930F92CDB77F
:10070000DEB7182F062FF42E02C00E94BC0106B6D9
:1007100000FCFBCF80917D008823B9F786E98983AF
:100720008981815089838F5FD9F783E08093DB00D3
:1007300010939B0000939C00F0929D001092760015
:1007400085EA86BF0F90CF91DF911F910F91FF90A7
:100750000895EF92FF920F931F93DF93CF930F9221
:10076000CDB7DEB7182F062FF42EE22E02C00E945E
:10077000BC0106B600FCFBCF80917D008823B9F751
:1007800086E989838981815089838F5FD9F784E0E5
:100790008093DB0010939B0000939C00F0929D00DF
:1007A000E0929E001092760085EA86BF0F90CF916E
:1007B000DF911F910F91FF90EF900895DF92EF92DC
:1007C000FF920F931F93DF93CF930F92CDB7DEB7B6
:1007D000182FF62EE42ED22E02C00E94BC0106B6BF
:1007E00000FCFBCF80917D008823B9F786E98983DF
:1007F0008981815089838F5FD9F785E08093DB0001
:1008000010939B00F0929C00E0929D00D0929E007D
:1008100000939F001092760085EA86BF0F90CF91DB
:10082000DF911F910F91FF90EF90DF900895EF926D
:10083000FF920F931F93DF93CF930F92CDB7DEB745
:10084000082FF62EE72E142F02C00E94BC0106B618
:1008500000FCFBCF80917D008823B9F786E989836E
:100860008981815089838F5FD9F7412F4F5F4093F2
:10087000DB0000939B00ACE9B0E08F2D9E2D9C0126
:10088000F90102C081918D938E2F8F198417D0F3B7
:100890001092760085EA86BF0F90CF91DF911F916D
:1008A0000F91FF90EF9008951F920F920FB60F9245
:1008B00011242F933F938F939F93EF93FF9381B1D5
:1008C0008832C9F0893240F4803199F0883199F04A
:1008D000883009F04BC00DC0803441F1813420F4E0
:1008E000883309F043C03DC08035A9F08835F1F563
:1008F0002BC010929A0090919A008091DB0098177B
:1009000050F5E92FF0E0E556FF4F808183B99F5FF6
:1009100090939A0017C080919A0093B1E82FF0E06D
:10092000E555FF4F90838F5F80939A0020919A0046
:1009300030E08091DB0090E001972817390714F42C
:1009400085EC18C085E816C083B1E0919A00F0E00C
:10095000E555FF4F8083809176008160809376001B
:1009600008C081B18093770085EA04C081B180938B
:10097000770084E986BFFF91EF919F918F913F911E
:100980002F910F900FBE0F901F90189580918300AC
:10099000843009F46FC0853048F4823061F18330CF
:1009A00008F050C0813009F0B3C00AC0863009F4A5
:1009B00087C0863008F467C0873009F0A9C0A2C09C
:1009C00088E280937E00809180008C7F8560809398
:1009D000800020919900243018F08CED90E002C046
:1009E00080EA90E0909382008093810082E080937F
:1009F00083002E5F62C02091800022FD89C08EE1BD
:100A000080937E0080919900843060F084E690E0CD
:100A10009093820080938100236020938000109245
:100A200099000AC02C7F22602093800086E490E029
:100A300090938200809381008091800088608093F1
:100A400080005CC088E280937E00809180008C7F73
:100A500085608093800020919900243018F08EEBFF
:100A600090E002C086E990E090938200809381003C
:100A700084E020C09091800092FD4AC08EE1809376
:100A80007E009B6026C088E280937E00809180007B
:100A90008C7F85608093800020919900243018F02D
:100AA0008EEB90E002C086E990E090938200809304
:100AB000810086E0809383002F5F20939900089542
:100AC0009091800092FD24C08EE180937E009C7FF7
:100AD0009A609093800080919900843048F08EE66F
:100AE00090E090938200809381001092990006C05C
:100AF00080E590E0909382008093810087E080936E
:100B000083000895809180008C7011F4109283000E
:100B100008958091F80090915501882351F0992310
:100B200011F081E00DC080918300823059F083E0A4
:100B300007C0992339F080918300823019F085E055
:100B400080938300809125018F7E809325010895F5
:100B500080918F00823009F47AC0833030F488238A
:100B600051F0813009F0B6C04DC08330C9F08530F6
:100B700009F0B0C09DC090914001992331F080915F
:100B80003701882311F083E03AC080913701882330
:100B900011F082E034C0992309F49CC081E02FC099
:100BA00090916700937080918C008C7F892B80934B
:100BB0008C008EE180938A0080938B0080913701B6
:100BC000882309F087C080914001882309F082C002
:100BD00080919800843038F01092980010922D0186
:100BE00010922C0106C080E991E090932D01809332
:100BF0002C018091250188608093250185E08093F8
:100C00008F00089580918C008C7F80938C0089E107
:100C100080938A0088E280938B0080914001882332
:100C200031F080913701882381F083E00CC084EF9C
:100C300091E090932D0180932C0180912501886093
:100C40008093250185E080938F0083E029C0809107
:100C50008C008C7F80938C0088E280938A0089E1ED
:100C600080938B0080914001882339F08091370177
:100C7000882319F083E080938F00809137018823C7
:100C800071F484EF91E090932D0180932C01809179
:100C9000250188608093250185E080938F0082E0A4
:100CA00080936700809198008F5F809398000895EB
:100CB00080912C0190912D01895E934058F0809194
:100CC0002501877F8093250110922D0110922C0120
:100CD00010928F000895809166008823A1F0809182
:100CE000250184FD10C08BE890E00E94201282E371
:100CF0008093600010922F0110922E0180912501A7
:100D0000806180932501089580919700882361F088
:100D100080919500813021F08CE191E00E942012B9
:100D200081E0809395000AC080919500813021F088
:100D300081E191E00E94201210929500809195002F
:100D4000813009F050C0809192008C7F8093920096
:100D500088E2809390008093910040919700242F27
:100D600030E040FD06C0C90186709070892B51F4B7
:100D700016C08BEF90E00E942012809192008C7F31
:100D800082601BC08BEE90E00E9420128091900048
:100D9000845180939000809191008C5E1DC047FD2E
:100DA00005C020763070232B59F419C084ED90E0F3
:100DB0000E94201280919200836080939200089597
:100DC00083EC90E00E942012809190008C5E8093D2
:100DD00090008091910084518093910008958BEA56
:100DE00090E00E94201208951F93CF93DF93EC01AF
:100DF0004B815C816A814115510521F163FF06C079
:100E00006370888120E00E94F81019C062FF17C04B
:100E1000162F1370BA0180E090E00E94BD132FE8F6
:100E200032EC45E75EE30E9429130E9491139B0177
:100E3000AC018881612FA90120E00E947B111C82F6
:100E40001B8213C0862F8C7049F4862F83700E94FA
:100E50005109888169810E94420907C00E948D0959
:100E6000882319F08A81837F8A83DF91CF911F9134
:100E700008950E94C6040E94A8050E9484060E944C
:100E80006B0680918300882319F08EE790E017C0ED
:100E900080918F00882319F08AE890E010C080913B
:100EA0009500882319F080E990E009C080916600E0
:100EB000882319F081E690E002C084E890E00E9467
:100EC000F4060895DF93CF9300D0CDB7DEB78091BD
:100ED0002801909129018536910570F18CE760E138
:100EE000AE014F5F5F4F22E00E9494029A8190937F
:100EF0009700809196009817B9F08EE990E00E94D3
:100F000020128091960090E06AE00E94C81289E960
:100F100090E00E9420128091970090E06AE00E9489
:100F2000C8128AE00E941212809197008093960066
:100F300010922901109228010F900F90CF91DF910C
:100F400008950E94010E8FE30E94490884EC99E005
:100F50000E94E70D84E20E9449088FE690E00E941B
:100F6000201280E20E94920189E895E00E946908BF
:100F700082ED97E00E94850A0E94FE0B0E94F40B0E
:100F80008091250182608093250184E590E00E9494
:100F900020120E94EF100E94BC010E9462070E9472
:100FA0003907F7CF20913701222341F0809140018A
:100FB000882321F084E28093F70002C01092F700AA
:100FC000922F91709295907F8091F7008F7E892B60
:100FD0008093F70030E0222309F431E0330F330F20
:100FE000330F8091F700857F20914001922F9170FF
:100FF000990F832B892B8093F70090E0222309F42B
:1010000091E08091F7008E7F892B8093F7000E94FA
:101010001A08809125018F7E809325010895809183
:101020000C01843010F010920C01089584E080933C
:101030000C01089587B38C7787BB88B38C7788BB06
:101040008091F70083FF02C0BF9AC79A84FF02C055
:10105000B99AC19A85FF02C0B89AC09A84B38F78B2
:1010600084BB85B38F7885BB94B32091F700822F22
:1010700082958077982B94BB95B3892B85BB809103
:101080000C01882319F4822F211181E080930C0137
:1010900008958093F7000E941A080895C098B898A0
:1010A000000096B38091F70085FF02C0B89AC09AFD
:1010B000892F81700895AE98A698000093B380910F
:1010C000F70082FF02C0A69AAE9A892F8074089515
:1010D0000895909374008093730008951F938091F6
:1010E00044018333C8F00E944E08182F0E945B0809
:1010F000982F8091F800811721F48091550189176C
:1011000049F01093F80090935501E0917300F0912D
:1011100074000995109244011F910895369B03C0F5
:1011200020E030E009C0806487B986ED86B9369941
:10113000FECF349A24B135B1C9010895806487B9CE
:1011400086ED86B90895369956C02091ED0023307A
:1011500039F1243028F4213099F02230C8F408C045
:10116000253089F1253020F1263009F041C033C007
:1011700084B195B1909359018093580186E41FC0C2
:1011800084B195B190935E0180935D0185E417C0B1
:1011900084B195B190934F0180934E0183E40FC0C9
:1011A00084B195B1909318018093170182E407C030
:1011B00084B195B190933E0180933D0180E487B95D
:1011C00086ED86B915C084B195B190934C0180939A
:1011D0004B0181E4F4CF84B195B1909316018093D3
:1011E000150187E487B986ED86B91092ED00089560
:1011F0002F5F2093ED0008951F920F920FB60F926C
:1012000011248F939F9380915301909154010196E3
:1012100090935401809353018091490190914A0128
:10122000019690934A01809349019F918F910F906D
:101230000FBE0F901F9018951F920F920FB60F922E
:1012400011248F939F9380914501909146010196BF
:10125000909346018093450180911F019091200158
:1012600001969093200180931F019F918F910F9081
:101270000FBE0F901F901895089590937200809361
:1012800071000895893C08F088EC8093FD0010926D
:10129000FE00693C08F068EC6093FB001092FC00D3
:1012A0000895282F8093E0001092DC008150823056
:1012B00018F481E08093DC00213021F080E090E0A0
:1012C000233011F481E090E08093DD0008959C01CB
:1012D0001092DC0097FF03C081E08093DC00109245
:1012E000DD0077FF03C081E08093DD001216130656
:1012F00014F4822F03C0822F81956195893C08F0F8
:1013000088EC8093FD001092FE00693C08F068ECC8
:101310006093FB001092FC00089590E08091F6002D
:10132000837009F491E0892F08951092FE001092C5
:10133000FD001092FC001092FB0010920801109228
:10134000070110924301109242018091F6008C7FB8
:101350008093F60080935701E0917100F091720044
:1013600009950895633D08F062ED60931D011092A8
:101370001E01833D08F082ED80930D0110920E0155
:1013800008958093DE006093DF008093DC0060931B
:10139000DD00882311F0AA9A01C0AA98662311F0F3
:1013A000AB9A0895AB980895982F03C089B78068C9
:1013B00089BF809102018823C9F7892F90E08F733C
:1013C000907026E0880F991F2A95E1F7262F30E0CC
:1013D0002F733070822B932B906390932201809314
:1013E00021018091010180648093010108951F9281
:1013F0000F920FB60F9211242F938F939F9380918A
:101400006C008230B0F52091EC002223C1F02C3327
:1014100038F480913B0190913C0196FF07C008C0D1
:1014200080913B0190913C0196FF02C0979803C0C8
:1014300082B3805882BB21502093EC0032C080914F
:1014400002018823A1F0979880913B0190913C0183
:10145000880F991F90933C0180933B0188E780930C
:10146000EC00809102018150809302011AC097988C
:1014700018C080910601882391F08091010180FDC0
:1014800005C088B390E4892788BB03C085B3805822
:1014900085BB8091060181508093060102C0C69AE7
:1014A000AF9A9F918F912F910F900FBE0F901F9029
:1014B00018951F920F920FB60F9211248F9380915F
:1014C0006C00833011F0863069F48091010184FD55
:1014D00009C085FF07C0B29905C0809156018F5F92
:1014E0008093560186B3809101018D7F8093010125
:1014F0008F910F900FBE0F901F90189508959093A5
:101500006E0080936D00089508959093700080930D
:101510006F0008958091190190911A01029708F4C3
:101520003BC19091010194FD16C180916C00823005
:1015300009F467C0833030F4882371F0813009F0FA
:1015400010C111C0853009F4ACC0863009F4C1C0A7
:10155000833009F006C16DC089B78F7789BF97982E
:10156000C69AAF9AFEC080910201882341F596FF8A
:1015700014C0809121019091220190933C018093AD
:101580003B018EE080930201809101018F7B80936B
:10159000010189B7806889BF06C089B78F7789BF85
:1015A0009798C69AAF9A8091EB008F5F8093EB007B
:1015B0008150843138F082E080936C0003C089B799
:1015C000806889BF8091010183FFCBC0E0916D00ED
:1015D000F0916E0080915A0190915B010995809184
:1015E0005A0190915B0190930A0180930901109236
:1015F0005B0110925A0180910101877F8093010164
:10160000B0C089B78F7789BF9798C69AAF9A109262
:101610000601109256011092EA001092E9008091A2
:1016200001018E7F80628093010183E08093EB0053
:1016300075C080910601882381F48091EB008F5F53
:101640008093EB008150833040F089B7806889BF78
:1016500088E2809306011092EB0080913701882385
:1016600021F080915601823020F48091560186301D
:1016700038F01092560181E08093370185E04EC02A
:101680008091E9009091EA0001969093EA0080939E
:10169000E90001970E9708F464C01092370185E0C5
:1016A0004FC089B78F7789BF9798C69AAF9A109223
:1016B0000601109256011092EA001092E900809102
:1016C000010181628093010183E08093EB0086E059
:1016D00025C080910601882381F48091EB008F5F03
:1016E0008093EB008150833040F089B7806889BFD8
:1016F00088E2809306011092EB00809140018823DC
:1017000021F080915601823020F48091560186307C
:1017100040F01092560181E08093400180936C006C
:1017200020C08091E9009091EA0001969093EA0030
:101730008093E90001970E97A0F01092400181E09C
:1017400080936C0089B78F7789BF9798C69AAF9AB4
:101750001092060106C01092EA001092E900109261
:10176000EB00209137018091E800821731F49091CD
:10177000E70080914001981759F02093E80080918C
:1017800040018093E700E0916F00F09170000995AF
:1017900010921A0110921901089510926C0089B7E5
:1017A0008F7789BF9798C69AAF9A1092400110928E
:1017B0003701089589B78F7789BF9798C69AAF9AEE
:1017C000109240011092370181E080936C000895DF
:1017D0008E989698BB98C398C698AF9808958E9A9D
:1017E000969ABB98C39808958E989698BB9AC39A78
:1017F00008958E9A969ABB9AC39A0895C49A809136
:101800000C01843018F483E080930C010895C4988F
:1018100080910C01843060F4882331F420E030E0C2
:101820008091F700882311F021E030E020930C0133
:1018300008951F920F920FB60F9211242F933F938A
:101840004F935F936F937F938F939F93AF93BF93C8
:101850008091F4009091F50001969093F5008093AB
:10186000F40080914D018F5F80934D018091500174
:101870008F5F809350018150893008F447C1809177
:10188000250180FF09C080912601909127010196D2
:1018900090932701809326018091250181FF09C043
:1018A00080912801909129010196909329018093BC
:1018B00028018091250182FF09C080912A01909121
:1018C0002B01019690932B0180932A018091250191
:1018D00083FF09C080912C0190912D010196909376
:1018E0002D0180932C018091250184FF09C08091F6
:1018F0002E0190912F01019690932F0180932E013C
:101900008091250185FF09C08091300190913101BE
:10191000019690933101809330018091250186FFDB
:1019200009C0809132019091330101969093330167
:10193000809332018091250187FF09C08091340195
:1019400090913501019690933501809334018091F7
:1019500041018F5F809341018150893CE8F0809183
:101960001F01909120019093520180935101809129
:10197000490190914A019093100180930F011092B8
:10198000200110921F0110924A011092490181E03A
:1019900080930B011092410140910C01433008F0FB
:1019A00052C0423081F58091F700882301F5809183
:1019B000E5009091E6009C012F5F3F4F3093E600D9
:1019C0002093E50068EC70E00E946A14892BD9F539
:1019D000215A3F4028F0B998C19810920C0129C0B3
:1019E00087B3842787BB88B3842788BB2CC084FD3A
:1019F00002C0B998C1981092E6001092E50081E00B
:101A000080930C0120C08091E5009091E6002EE2C9
:101A1000813E920798F0413049F410920C01809178
:101A2000F70084FD06C0B998C19803C082E0809396
:101A30000C011092E6001092E50005C0019690930B
:101A4000E6008093E5008091190190911A010397B7
:101A500048F48091190190911A01019690931A010E
:101A60008093190180913901873318F48F5F809337
:101A7000390180914401843328F4809144018F5FBF
:101A80008093440180913F018F5F80933F0181509B
:101A90008330D0F180913A01482F50E020911D0110
:101AA00030911E014217530759F04217530714F49F
:101AB0008F5F01C0815080933A0180913A018ABDC5
:101AC00080915C01482F50E020910D0130910E0172
:101AD0004217530759F04217530714F48F5F01C0A0
:101AE000815080935C0180915C0188BD80915C0194
:101AF000882321F480913A01882319F082EA8FBD6E
:101B000001C01FBC10923F01109250018091010151
:101B100083FD46C02091E1003091E2004091E30056
:101B20004F5F4093E300463190F036FD09C035FF2A
:101B300007C030935B0120935A01886080930101B4
:101B4000809101018F7E8093010120E030E090912F
:101B5000E40086B3892782FF1FC090959093E4002C
:101B6000473040F4809101018F7E8093010120E095
:101B700030E005C02115310511F04F3068F080913B
:101B8000010180618093010136FD02C0220F331FE5
:101B900092FF21601092E3003093E2002093E10075
:101BA000BF91AF919F918F917F916F915F914F9175
:101BB0003F912F910F900FBE0F901F901895982F67
:101BC00010924D0180914D018917E0F308959C0119
:101BD00008C010924D0180914D018A30E0F32150F0
:101BE000304021153105A9F7089502C00000019782
:101BF0000097E1F70895D49ADC9A0895DC98D49878
:101C000008951BBA18BA15BA81E082BB1ABA88E5E2
:101C100087BB8CE884BB82EF81BBF894C598BD9AE2
:101C200087B397980E94E80B10BC8CE089B91BB869
:101C300086E880BD88E98AB917B886E186B910BE02
:101C400085E085BF80EE8BBF14BE8AE083BF83E64C
:101C50008CBF82EA8FBD81E18EBD82ED90E097BDA1
:101C600086BD1ABC18BC80E060E00E94C10989E012
:101C700085BD8EE683BD82E089BF809101018160D0
:101C80008093010181E080936C00789408951F9304
:101C9000182FF89497980E94E80B10920E0110925A
:101CA0000D0110921E0110921D0110920801109258
:101CB0000701109243011092420110925C011092B0
:101CC0003A011ABC18BC1FBC0E94070C84EC92E0BD
:101CD0000E94201289E892E00E942012812F8150F8
:101CE0008230C0F48FE592E00E9420128DE492E0F1
:101CF0000E942012113019F488E492E002C082E4BC
:101D000092E00E94201281E192E00E94201282ED76
:101D100091E00CC0133061F485EB91E00E94201239
:101D200085E891E00E9420128EE491E00E9420124A
:101D300088E291E00E94201216E31093F7000E94BF
:101D40001A082AE008C0000001973FEF8F3F930771
:101D5000D1F7215019F080E090E8F6CF1092F7000B
:101D60000E941A082AE005C000000197E9F72150F7
:101D700021F380E090E0F9CF80913901823308F4BB
:101D80007CC01092390180913601882309F041C04E
:101D900080915D0190915E018350934038F4809171
:101DA0004E0190914F0183509340F0F080913801A3
:101DB0008F5F809338018AE08093360110920E0184
:101DC00010920D0110921E0110921D011092080137
:101DD0001092070110924301109242018091F60087
:101DE00084608093F60008958091F6008B7F809345
:101DF000F60080910301853628F010923801109288
:101E0000030107C080913801833018F083E00E94FD
:101E1000470E80915D0190915E018639910598F49D
:101E200080910F0190911001892B69F48091FD0040
:101E30009091FE00892B39F080915C01873918F070
:101E400081E00E94470E80914E0190914F018639AA
:101E5000910598F48091510190915201892B69F478
:101E60008091FB009091FC00892B39F080913A0120
:101E7000873918F082E00E94470E80910B01882379
:101E800009F49FC180913601882309F095C18091A2
:101E90003801882331F0809103018F5F8093030123
:101EA00002C0109203014091F60041FF38C020911A
:101EB0005301309154018091F9009091FA00281754
:101EC000390780F01092FE001092FD001092080178
:101ED0001092070110920E0110920D014D7F409358
:101EE000F6001DC0209153013091540180911101E1
:101EF000909112012817390790F08091FD00909180
:101F0000FE00969587959093FE008093FD0046977E
:101F100030F486E190E09093FE008093FD004091C4
:101F2000F60040FF38C02091450130914601809174
:101F30001B0190911C012817390780F01092FC00BA
:101F40001092FB00109243011092420110921E0168
:101F500010921D014E7F4093F6001DC02091450157
:101F60003091460180914701909148012817390727
:101F700090F08091FB009091FC009695879590934E
:101F8000FC008093FB00469730F486E190E090934C
:101F9000FC008093FB004091DC008091DE0048173C
:101FA00039F49091DD008091DF00981709F455C055
:101FB0002091FD003091FE002115310531F4809112
:101FC000FB009091FC00892B21F1309300012093BC
:101FD000FF008091FB009091FC009093140180938E
:101FE00013011092FE001092FD001092FC0010925E
:101FF000FB0010921E0110921D0110920E01109212
:102000000D011092080110920701109243011092E5
:1020100042018FB5882309F5842F6091DD000E946D
:10202000C1098091FF00909100019093FE00809380
:10203000FD0020911301309114013093FC00209396
:10204000FB0096958795909308018093070136953C
:10205000279530934301209342014091FD00509118
:10206000FE0080910F01909110019A01281B390BFD
:10207000C9012091070130910801820F931F9093AD
:10208000080180930701855A914034F084EA91E079
:1020900090930801809307018091070190910801B6
:1020A0008C559E4F34F48CE59EEF909308018093FD
:1020B000070180910F0190911001892B31F4452B7C
:1020C00021F410920801109207018091070190916C
:1020D000080162E070E00E947E1470930E0160932C
:1020E0000D01633D710534F082ED90E090930E0197
:1020F00080930D0180910D0190910E0197FF04C016
:1021000010920E0110920D014091FB005091FC00C5
:1021100080915101909152019A01281B390BC901FC
:102120002091420130914301820F931F909343010C
:1021300080934201855A914034F084EA91E0909373
:1021400043018093420180914201909143018C555B
:102150009E4F34F48CE59EEF9093430180934201AF
:102160008091510190915201892B31F4452B21F43A
:1021700010924301109242018091420190914301DB
:1021800062E070E00E947E1470931E0160931D0156
:10219000633D710534F082ED90E090931E018093D1
:1021A0001D0180911D0190911E0197FF08C01092A2
:1021B0001E0110921D0103C08150809336011092C0
:1021C0000B019091F60080915701891739F0909397
:1021D0005701E0917100F0917200099508950E94F5
:1021E000A3080E948A0A0E946E080E94BC0E0895ED
:1021F000FF920F931F93CF93DF93182F062FF22E8A
:102200008091F60083608093F60060E070E0CB017F
:10221000BA0120EB32E040E050E00E944B1424E68B
:1022200030E040E050E00E949114E901C901845679
:1022300090409093480180934701909312018093BE
:10224000110130931C0120931B013093FA0020935D
:10225000F90028323105B0F484E190E090931C013C
:1022600080931B019093FA008093F9008AE090E03C
:10227000909348018093470190931201809311013C
:10228000C8E2D0E0193C18F018EC88EC01C0812FAE
:102290008093FD001092FE001093FB001092FC0052
:1022A000802F0E94510910925401109253011092F4
:1022B000460110924501D0932401C0932301D0938D
:1022C0000501C09304018091F60080935701E091CD
:1022D0007100F09172000995FF2019F406C00E9468
:1022E000EF108091F6008370D1F7DF91CF911F91AD
:1022F0000F91FF9008951F93CF93DF93382FEA013A
:10230000122F8091F60083608093F60010924801AE
:10231000109247011092120110921101373180F092
:1023200086EF9FEF831B9109880F991F840F951FDC
:10233000909348018093470190931201809311017B
:10234000CE01029790931C0180931B019093FA0099
:102350008093F900C832D105B8F484E190E09093FD
:102360001C0180931B019093FA008093F9008AE08E
:1023700090E09093480180934701909312018093DD
:102380001101C8E2D0E004C021E0C039D20798F4BE
:10239000393288F0CE0196958795969587959E015E
:1023A000281B390B309348012093470130931201C9
:1023B0002093110138E210925401109253011092AF
:1023C000460110924501393C18F038EC88EC01C008
:1023D000832F8093FD001092FE003093FB0010923B
:1023E000FC00862F0E945109D0932401C093230141
:1023F000D0930501C09304018091F60080935701AA
:10240000E0917100F09172000995112319F406C052
:102410000E94EF108091F6008370D1F7DF91CF9189
:102420001F9108955D9BFECF8CB90895FC0104C0F7
:102430005D9BFECF31968CB980818823C9F70895C2
:1024400003C05D9BFECF2CB9FC0101962491222391
:10245000C1F70895FC01E40FF11D05C05D9BFECF9F
:1024600031968CB961508081882311F06623B1F7D1
:1024700008951F920F920FB60F9211242F938F93EE
:102480009F93EF93FF932091F1008091F000922FA2
:10249000981B9032A8F48091EF00E82FF0E09CB1F7
:1024A000E05AFE4F90838F5F8093EF002F5F209361
:1024B000F100813210F01092EF0010925F0106C01F
:1024C0008CB18093F30081E080935F01FF91EF91E5
:1024D0009F918F912F910F900FBE0F901F90189585
:1024E00010925F019091F0008091F100891711F432
:1024F000E0E013C09F5F9093F0008091EE00813286
:1025000010F01092EE008091EE00E82FF0E0E05A1B
:10251000FE4FE0818F5F8093EE008E2F0895109222
:102520005F01DC0120E014C09F5F9093F000809178
:10253000EE00E82FF0E0E05AFE4F90819C938F5F11
:102540008093EE00813210F01092EE002F5F119612
:102550009091F0008091F100891711F0261720F377
:10256000822F08958091F1009091F000891B0895C9
:1025700057988CB18093F2001092EE001092EF0009
:102580001092F0001092F10010925F01579A089596
:102590000F931F93DF93CF93CDB7DEB761970FB63D
:1025A000F894DEBF0FBECDBF462F8E010F5F1F4FC9
:1025B000B80150E00E94B314C8010E94161261963F
:1025C0000FB6F894DEBF0FBECDBFCF91DF911F9144
:1025D0000F910895FF920F931F93DF93CF93CDB781
:1025E000DEB761970FB6F894DEBF0FBECDBF262FC2
:1025F000F42E8E010F5F1F4FB801422F50E00E9452
:10260000B314F80101900020E9F73197E01BF10BBA
:102610004F2D4E1B141664F480E341505D9BFECF9A
:102620008CB94423D1F7CE0101960E94161205C041
:102630004195C8016F2D0E942A1261960FB6F89439
:10264000DEBF0FBECDBFCF91DF911F910F91FF90E5
:1026500008950CD0E6C0DED040F0D5D030F021F4A3
:102660005F3F19F0C7C0511110C1CAC0EBD098F339
:102670009923C9F35523B1F3951B550BBB27AA2703
:1026800062177307840738F09F5F5F4F220F331F75
:10269000441FAA1FA9F333D00E2E3AF0E0E830D041
:1026A00091505040E695001CCAF729D0FE2F27D044
:1026B000660F771F881FBB1F261737074807AB0712
:1026C000B0E809F0BB0B802DBF01FF2793585F4F87
:1026D0002AF09E3F510568F08DC0D7C05F3FECF3F4
:1026E000983EDCF3869577956795B795F7959F5F4C
:1026F000C9F7880F911D9695879597F90895E1E0A0
:10270000660F771F881FBB1F621773078407BA07FE
:1027100020F0621B730B840BBA0BEE1F88F7E09559
:10272000089598D088F09F5790F0B92F9927B75106
:10273000A0F0D1F0660F771F881F991F1AF0BA9585
:10274000C9F712C0B13081F09FD0B1E008959CC0AC
:10275000672F782F8827B85F39F0B93FCCF386957B
:1027600077956795B395D9F73EF4909580957095D8
:1027700061957F4F8F4F9F4F0895E89409C097FB55
:102780003EF490958095709561957F4F8F4F9F4F48
:102790009923A9F0F92F96E9BB279395F69587958C
:1027A00077956795B795F111F8CFFAF4BB0F11F44F
:1027B00060FF1BC06F5F7F4F8F4F9F4F16C08823F6
:1027C00011F096E911C0772321F09EE8872F762F2C
:1027D00005C0662371F096E8862F70E060E02AF06D
:1027E0009A95660F771F881FDAF7880F9695879559
:1027F00097F9089597F99F6780E870E060E0089581
:102800009FEF80EC089500240A9416161706180608
:102810000906089500240A941216130614060506E4
:102820000895092E0394000C11F4882352F0BB0F75
:1028300040F4BF2B11F460FF04C06F5F7F4F8F4FD8
:102840009F4F089557FD9058440F551F59F05F3F13
:1028500071F04795880F97FB991F61F09F3F79F0C2
:1028600087950895121613061406551FF2CF469544
:10287000F1DF08C0161617061806991FF1CF8695C6
:102880007105610508940895E894BB2766277727AA
:10289000CB0197F90895629FD001739FF001829F49
:1028A000E00DF11D649FE00DF11D929FF00D839FDF
:1028B000F00D749FF00D659FF00D9927729FB00D7C
:1028C000E11DF91F639FB00DE11DF91FBD01CF018F
:1028D00011240895AA1BBB1B51E107C0AA1FBB1FEF
:1028E000A617B70710F0A61BB70B881F991F5A959C
:1028F000A9F780959095BC01CD01089597FB092E0D
:1029000007260AD077FD04D0E5DF06D000201AF4B0
:10291000709561957F4F0895F6F7909581959F4F3B
:102920000895A1E21A2EAA1BBB1BFD010DC0AA1F10
:10293000BB1FEE1FFF1FA217B307E407F50720F028
:10294000A21BB30BE40BF50B661F771F881F991FA3
:102950001A9469F760957095809590959B01AC01EC
:10296000BD01CF010895FB019F01E8944230C4F0FE
:102970004532B4F44A3029F497FB1EF490958195C2
:102980009F4F642F77270E946A14805D8A330CF072
:10299000895D8193CB010097A1F716F45DE2519315
:1029A0001082C9010C94D414DC01FC01672F7191D1
:1029B0007723E1F7329704C07C916D937083629125
:0C29C000AE17BF07C8F30895F894FFCFCE
:1029CC003232320000003202A001A601017E0A84DC
:0629DC000A3C0968080036
:00000001FF
