:100000000C94C2010C94B90A0C94D90A0C94160CE5
:100010000C94B40B0C94DF010C94DF010C94DF0101
:100020000C94DF010C94DF010C94D60D0C94DF01CD
:100030000C94DF010C94F6130C94DF010C94DF0197
:100040000C94DF010C94DF010C94DF010C94A304E9
:100050000C94DF014575726F426F74426F742077A4
:10006000697264206765737461727465740A00490B
:100070006E697469616C6973696572756E67656EC6
:1000800020626567696E6E656E0A005374617274F2
:10009000204372756973650A00202D3E20004C696B
:1000A0006E69656E576572743A20000A00203A2026
:1000B00000446F7070656C6C696E6965204E4943D1
:1000C000485420676566756E64656E3A20000A00C4
:1000D000203A2000446F7070656C6C696E69652011
:1000E000676566756E64656E3A20706F733A0033AB
:1000F0002D576567652D4B7265757A756E6720653E
:10010000726B616E6E7420284C696E6B73202B20AD
:10011000476572616465617573290A00332D5765FF
:1001200067652D4B7265757A756E672065726B61B8
:100130006E6E742028526563687473202B204765A7
:1001400072616465617573290A005265636874732E
:100150002D20756E64204C696E6B736B75727665BD
:1001600020676566756E64656E0A005361636B6730
:10017000617373652065726B616E6E740A00342D55
:10018000576567652D4B7265757A756E6720657268
:100190006B616E6E740A00332D576567652D4B7267
:1001A00065757A756E672065726B616E6E74202856
:1001B000526563687473202B2047657261646561C2
:1001C0007573290A0054686520526F626F74206E3F
:1001D0006565647320746F20626520726573657451
:1001E000746564206E6F772E0A0A00596F75206E51
:1001F00065656420746F20636865636B204D6F7460
:100200006F7220617373656D626C7920286F722044
:10021000796F757220736F667477617265292E0A23
:100220000A000A0A28732E207461736B5F6D6F7465
:100230006F72436F6E74726F6C28292066756E63DF
:1002400074696F6E20696E205250364C69622129A4
:100250000A000A0A232323204D4F544F52204F56A1
:10026000455243555252454E54202323230A0059E8
:100270006F75206E65656420746F20636865636BBD
:1002800020456E636F6465722F4D6F746F722061CD
:100290007373656D626C7920286F7220796F757247
:1002A00020736F667477617265292E0A0A00210A2D
:1002B0000A28732E207461736B5F6D6F746F7243C5
:1002C0006F6E74726F6C28292066756E6374696F27
:1002D0006E20696E205250364C696221290A005204
:1002E00049474854004C454654004166666563746E
:1002F0006564206368616E6E656C3A000A2323238F
:1003000020454E434F44455220284F52204D4F54D4
:100310004F5229204D414C46554E4354494F4E2192
:10032000202323230A00232323232320414C4C2072
:100330004F5045524154494F4E532053544F505003
:10034000454420544F2050524556454E5420414E6E
:10035000592044414D414745212023232323230A8B
:10036000000A0A232323232320454D455247454EA7
:1003700043592053485554444F574E202323232399
:10038000230A000011241FBECFE5D8E0DEBFCDBF99
:1003900010E0A0E6B0E0E6E4FDE202C005900D92B8
:1003A000A637B107D9F711E0A6E7B0E001C01D926A
:1003B000AA38B107E1F70E9459090C94A1160C94D0
:1003C0000000F89480B911B88FEF83B984E086BF3C
:1003D00080917600816080937600789408950895E6
:1003E00090936900809368000895089590936B003E
:1003F00080936A000895DF93CF930F92CDB7DEB755
:1004000086E989838981815089838F5FD9F70F902D
:10041000CF91DF910895DF93CF930F92CDB7DEB7E1
:1004200006B600FC6EC08091760080FF4EC08091C1
:100430007D00882309F465C08130C9F486E9898389
:100440008981815089838F5FD9F792E09093E4008E
:10045000809178008093A400809179008093A5001A
:100460001092760085EA86BF90937D004AC0823064
:10047000D9F486E989838981815089838F5FD9F78F
:1004800080917A008F5F8093E40080917800816092
:10049000809378008093A4001092760085EA86BF4E
:1004A00083E080937D002DC0833059F510927D004C
:1004B00080917B0090917C002FEF8F3F920709F194
:1004C000E0916800F09169001BC006B600FCFDCF0A
:1004D000909177009923A9F010927D008091760089
:1004E0008160809376001092780010927C001092C8
:1004F0007B0010927A00E0916A00F0916B00892FE6
:1005000009950F90CF91DF910895FF920F931F935C
:10051000182F062FF42E02C00E940B0206B600FC14
:10052000FBCF80917D008823B9F782E080937D0026
:100530001093780000937B0010927C00F0927A0078
:100540001F910F91FF900895EF92FF920F931F93C9
:10055000E82E162F042FF22E02C00E940B0206B6C0
:1005600000FCFBCF80917D008823B9F781E0809368
:100570007D0010937B0010927C00E0927800009345
:100580007900F0927A001F910F91FF90EF900895FB
:100590009C0106B600FCFDCF8091760080FF0CC068
:1005A000E5EBF0E0D90170E06E0F7F1F02C0819192
:1005B0008D93E617F707D9F7089506B600FCFDCF2F
:1005C000809177000895FF920F931F93CF93DF934D
:1005D000082FF62EEA01122F02C00E940B0206B667
:1005E00000FCFBCF80917D008823B9F781E08093E8
:1005F0007D00009378008FEF9FEF90937C008093B5
:100600007B00F092790010937A0002C00E940B02E6
:1006100006B600FCFBCF80917D008823B9F780915E
:10062000760080FF05C01F5FCE01612F0E94C802C7
:10063000DF91CF911F910F91FF900895EF92FF925C
:100640000F931F93DF93CF930F92CDB7DEB7082F91
:100650007B01142F02C00E940B0206B600FCFBCFE8
:1006600080917D008823B9F786E98983898181504B
:1006700089838F5FD9F782E080937D0000937800B3
:100680008FEF9FEF90937C0080937B0010937A0014
:1006900002C00E940B0206B600FCFBCF80917D00D9
:1006A0008823B9F78091760080FF05C01F5FC701DE
:1006B000612F0E94C8020F90CF91DF911F910F917F
:1006C000FF90EF9008951F93DF93CF930F92CDB7D4
:1006D000DEB7182F02C00E940B0206B600FCFBCF4B
:1006E00080917D008823B9F786E9898389818150CB
:1006F00089838F5FD9F782E080937D001093780023
:100700008FEF9FEF90937C0080937B0081E080933C
:100710007A0002C00E940B0280917D008823D1F7ED
:100720008091760080FD02C080E002C08091B5001B
:100730000F90CF91DF911F9108950F931F93DF9337
:10074000CF930F92CDB7DEB7182F062F02C00E94AD
:100750000B0206B600FCFBCF80917D008823B9F721
:1007600086E989838981815089838F5FD9F782E007
:100770008093E4001093A4000093A50010927600EB
:1007800085EA86BF0F90CF91DF911F910F91089559
:10079000FF920F931F93DF93CF930F92CDB7DEB7E6
:1007A000182F062FF42E02C00E940B0206B600FC82
:1007B000FBCF80917D008823B9F786E98983898101
:1007C000815089838F5FD9F783E08093E400109391
:1007D000A4000093A500F092A6001092760085EA8E
:1007E00086BF0F90CF91DF911F910F91FF900895D9
:1007F000EF92FF920F931F93DF93CF930F92CDB79A
:10080000DEB7182F062FF42EE22E02C00E940B0234
:1008100006B600FCFBCF80917D008823B9F786E9FE
:1008200089838981815089838F5FD9F784E08093A0
:10083000E4001093A4000093A500F092A600E092BB
:10084000A7001092760085EA86BF0F90CF91DF91C6
:100850001F910F91FF90EF900895DF92EF92FF921A
:100860000F931F93DF93CF930F92CDB7DEB7182F5F
:10087000F62EE42ED22E02C00E940B0206B600FC19
:10088000FBCF80917D008823B9F786E98983898130
:10089000815089838F5FD9F785E08093E4001093BE
:1008A000A400F092A500E092A600D092A7000093C9
:1008B000A8001092760085EA86BF0F90CF91DF9155
:1008C0001F910F91FF90EF90DF900895EF92FF92AC
:1008D0000F931F93DF93CF930F92CDB7DEB7082FFF
:1008E000F62EE72E142F02C00E940B0206B600FC63
:1008F000FBCF80917D008823B9F786E989838981C0
:10090000815089838F5FD9F7412F4F5F4093E40077
:100910000093A400A5EAB0E08F2D9E2D9C01F90163
:1009200002C081918D938E2F8F198417D0F310926E
:10093000760085EA86BF0F90CF91DF911F910F91CE
:10094000FF90EF9008951F920F920FB60F9211240F
:100950002F933F938F939F93EF93FF9381B18832AF
:10096000C9F0893240F4803199F0883199F08830AB
:1009700009F04BC00DC0803441F1813420F488333C
:1009800009F043C03DC08035A9F08835F1F52BC092
:100990001092A3009091A3008091E400981750F565
:1009A000E92FF0E0EC55FF4F808183B99F5F909372
:1009B000A30017C08091A30093B1E82FF0E0EC549E
:1009C000FF4F90838F5F8093A3002091A30030E0BE
:1009D0008091E40090E001972817390714F485EC22
:1009E00018C085E816C083B1E091A300F0E0EC5494
:1009F000FF4F80838091760081608093760008C0ED
:100A000081B18093770085EA04C081B1809377003B
:100A100084E986BFFF91EF919F918F913F912F9134
:100A20000F900FBE0F901F90189580918400843016
:100A300009F46FC0853048F4823061F1833008F0EA
:100A400050C0813009F0B3C00AC0863009F487C0B5
:100A5000863008F467C0873009F0A9C0A2C088E2D8
:100A600080937F00809181008C7F856080938100DE
:100A70002091A200243018F08CED90E002C080EAB2
:100A800090E0909383008093820082E080938400C2
:100A90002E5F62C02091810022FD89C084E1809395
:100AA0007F008091A200843060F084E690E0909313
:100AB0008300809382002360209381001092A20023
:100AC0000AC02C7F22602093810086E490E09093FE
:100AD00083008093820080918100886080938100F0
:100AE0005CC088E280937F00809181008C7F85606C
:100AF000809381002091A200243018F08EEB90E0CA
:100B000002C086E990E0909383008093820084E0A5
:100B100020C09091810092FD4AC084E180937F00C3
:100B20009B6026C088E280937F00809181008C7F4B
:100B30008560809381002091A200243018F08EEB14
:100B400090E002C086E990E0909383008093820059
:100B500086E0809384002F5F2093A20008959091F7
:100B6000810092FD24C084E180937F009C7F9A6085
:100B7000909381008091A200843048F08EE690E04E
:100B800090938300809382001092A20006C080E5BB
:100B900090E0909383008093820087E080938400AC
:100BA0000895809181008C7011F410928400089552
:100BB0008091010190915E01882351F0992311F0F9
:100BC00081E00DC080918400823059F083E007C03D
:100BD000992339F080918400823019F085E0809368
:100BE000840080912E018F7E80932E010895809144
:100BF0009000823009F47AC0833030F4882351F0B9
:100C0000813009F0B6C04DC08330C9F0853009F09D
:100C1000B0C09DC090914901992331F0809140016D
:100C2000882311F083E03AC080914001882311F0BD
:100C300082E034C0992309F49CC081E02FC09091D8
:100C40006700937080918D008C7F892B80938D003D
:100C500084E180938B0080938C00809140018823F5
:100C600009F087C080914901882309F082C08091F2
:100C7000A100843038F01092A10010923601109239
:100C8000350106C080E991E09093360180933501EB
:100C900080912E01886080932E0185E080939000E2
:100CA000089580918D008C7F80938D0084E18093E6
:100CB0008B0088E280938C0080914901882331F079
:100CC00080914001882381F083E00CC084EF91E0A3
:100CD000909336018093350180912E018860809336
:100CE0002E0185E08093900083E029C080918D00E3
:100CF0008C7F80938D0088E280938B0084E18093C9
:100D00008C0080914901882339F08091400188232B
:100D100019F083E08093900080914001882371F462
:100D200084EF91E0909336018093350180912E01FC
:100D3000886080932E0185E08093900082E080930C
:100D400067008091A1008F5F8093A100089580913A
:100D5000350190913601895E934058F080912E01C3
:100D6000877F80932E0110923601109235011092E8
:100D700090000895109291001092920010929300AA
:100D8000109299000895089580919100833039F16F
:100D9000843028F4813041F0823059F520C084300D
:100DA00081F0853031F51BC084EB90E09093980082
:100DB00080939700809196008B608093960084E0EA
:100DC00023C088E290E090939800809397008091F0
:100DD00096008C7F84608093960083E015C08AE53E
:100DE00090E09093980080939700809196008B609C
:100DF00008C010929800109297008091960083602E
:100E0000837F8093960081E0809399000895FC0190
:100E10008091A00090E020E030E060E070E0AC0164
:100E200041705070959587952230310599F02330A7
:100E30003105D1F02130310531F04130510579F4DF
:100E400021E030E00CC0452B51F47183608322E037
:100E500030E005C04130510511F423E030E06F5F10
:100E60007F4F68307105D9F6C901089580916600F9
:100E70008823A1F080912E0184FD10C08BE890E0C2
:100E80000E94DD1388E28093600010923801109276
:100E9000370180912E01806180932E010895809109
:100EA0002F0190913001895E934038F010929100AB
:100EB000109292001092930009C0809191008823B3
:100EC00041F0809196008C7009F09BC010929900BF
:100ED000089540919200413061F580919300909186
:100EE0007E00882371F4292F30E0C901807390704F
:100EF000892B09F076C02C703070232B09F071C05B
:100F000077C0892F90E085FF6CC084FF0AC083FF03
:100F100008C082FF06C083E08093910087E991E0DA
:100F20001CC082FF5EC088719070892B09F059C087
:100F300062C060917E00862F90E0AC0140725070DC
:100F400065FF0EC064FF0CC063FF0AC062FF08C0EB
:100F500081E0809391008BE691E00E94DD1341C017
:100F60009C012074307086FF1CC041155105C9F0EA
:100F700082FF17C081FF15C08AE491E00E94DD1353
:100F800086E080939900809196008C7F80939600F4
:100F900088E2809394008093950081E08093920092
:100FA00020C067FF0AC0232B41F0452B31F085E0BC
:100FB000809391008CE191E0D0CF80FF0AC081FF47
:100FC00008C082FF06C084E0809391008FEE90E01D
:100FD000C4CF109291001092920010929300109240
:100FE000990080919100882361F00E94C4060895C1
:100FF00040939300F6CF82E0809391008EE791E0DA
:10100000ACCF08951F93CF93DF93EC014B815C81AC
:101010006A814115510521F163FF06C06370888123
:1010200020E00E94B51219C062FF17C0162F13707E
:10103000BA0180E090E00E947A152FE832EC45E793
:101040005EE30E94E6140E944E159B01AC0188816C
:10105000612FA90120E00E9438131C821B8213C05B
:10106000862F8C7049F4862F83700E940E0B888126
:1010700069810E94FF0A07C00E944A0B882319F069
:101080008A81837F8A83DF91CF911F9108950F9387
:101090001F93DF93CF9300D0CDB7DEB78091A00030
:1010A000882321F081E080939F0002C010929F006E
:1010B00080919F00813009F086C080919C008C7FD8
:1010C00080939C0088E280939A0080939B00CE01DD
:1010D00001960E9407078C018330910589F584ED04
:1010E00090E00E94DD1389819A816AE00E94851454
:1010F00080ED90E00E94DD138091A00090E06AE016
:101100000E9485148EEC90E00E94DD1389819A8103
:1011100083309105A1F1843091053CF48130910533
:1011200031F1029709F04FC027C08530910509F4CD
:1011300042C08530910584F1069709F044C03EC055
:1011400081EB90E00E94DD13C8016AE00E948514E3
:101150008DEA90E00E94DD138091A00090E06AE0AB
:101160000E9485148BEA90E00E94DD132CC08091D0
:101170009C008C7F826025C010929A0024C010923F
:10118000300110922F0180919A008D5080939A0027
:1011900080919B00835F0CC01092300110922F0150
:1011A00080919A00835F80939A0080919B008D507C
:1011B00080939B0008C010929B0005C080919C000A
:1011C000836080939C000F900F90CF91DF911F91CF
:1011D0000F9108950E9415050E94F7050E94470887
:1011E0000E94360780918400882319F08FE790E0F1
:1011F0001EC080919000882319F08BE890E017C002
:1012000080919900882319F084E990E010C08091C2
:101210009F00882319F08AE990E009C08091660058
:10122000882319F081E690E002C085E890E00E94F2
:1012300002080895DF93CF9300D0CDB7DEB7809139
:101240003101909132018536910570F18CE760E1B2
:10125000AE014F5F5F4F22E00E94E3029A819093BC
:10126000A00080917E009817B9F08EE990E00E946E
:10127000DD1380917E0090E06AE00E94851489E988
:1012800090E00E94DD138091A00090E06AE00E944F
:1012900085148AE00E94CF138091A00080937E0085
:1012A00010923201109231010F900F90CF91DF9187
:1012B00008950E94BE0F8FE30E94060A84EC99E015
:1012C0000E94A40F84E20E94060A8FE690E00E942A
:1012D000DD1380E20E94E10188ED95E00E94260A7C
:1012E0008FE899E00E94420C0E94BB0D0E94B10D54
:1012F00080912E01816080932E0180912E01826069
:1013000080932E0184E590E00E94DD130E94AC12D0
:101310000E940B020E941A090E94EA08F7CF20914E
:101320004001222341F080914901882321F084E289
:101330008093000102C010920001922F917092954B
:10134000907F809100018F7E892B8093000130E097
:10135000222309F431E0330F330F330F8091000162
:10136000857F20914901922F9170990F832B892BB2
:101370008093000190E0222309F491E08091000124
:101380008E7F892B809300010E94D70980912E01C6
:101390008F7E80932E01089580911501843010F086
:1013A00010921501089584E080931501089587B384
:1013B0008C7787BB88B38C7788BB8091000183FFD3
:1013C00002C0BF9AC79A84FF02C0B99AC19A85FF2A
:1013D00002C0B89AC09A84B38F7884BB85B38F78E3
:1013E00085BB94B320910001822F82958077982B42
:1013F00094BB95B3892B85BB80911501882319F483
:10140000822F211181E080931501089580930001BE
:101410000E94D7090895C098B898000096B38091AB
:10142000000185FF02C0B89AC09A892F8170089583
:10143000AE98A698000093B38091000182FF02C08D
:10144000A69AAE9A892F8074089508959093740097
:101450008093730008951F9380914D018333C8F0EA
:101460000E940B0A182F0E94180A982F80910101E0
:10147000811721F480915E01891749F010930101D1
:1014800090935E01E0917300F091740009951092C1
:101490004D011F910895369B03C020E030E009C044
:1014A000806487B986ED86B93699FECF349A24B127
:1014B00035B1C9010895806487B986ED86B908956C
:1014C000369956C02091F600233039F1243028F4A3
:1014D000213099F02230C8F408C0253089F1253038
:1014E00020F1263009F041C033C084B195B190930A
:1014F00062018093610186E41FC084B195B190932D
:1015000067018093660185E417C084B195B190931B
:1015100058018093570183E40FC084B195B1909333
:1015200021018093200182E407C084B195B190939A
:1015300047018093460180E487B986ED86B915C0DE
:1015400084B195B1909355018093540181E4F4CF17
:1015500084B195B190931F0180931E0187E487B9F0
:1015600086ED86B91092F60008952F5F2093F6005D
:1015700008951F920F920FB60F9211248F939F938D
:1015800080915C0190915D01019690935D01809343
:101590005C01809152019091530101969093530107
:1015A000809352019F918F910F900FBE0F901F90CB
:1015B00018951F920F920FB60F9211248F939F933D
:1015C00080914E0190914F01019690934F0180932D
:1015D0004E01809128019091290101969093290153
:1015E000809328019F918F910F900FBE0F901F90B5
:1015F0001895089590937200809371000895893C26
:1016000008F088EC8093060110920701693C08F00D
:1016100068EC60930401109205010895282F8093CF
:10162000E9001092E5008150823018F481E0809347
:10163000E500213021F080E090E0233011F481E0DA
:1016400090E08093E60008959C011092E50097FFDA
:1016500003C081E08093E5001092E60077FF03C0AD
:1016600081E08093E6001216130614F4822F03C063
:10167000822F81956195893C08F088EC8093060162
:1016800010920701693C08F068EC60930401109225
:101690000501089590E08091FF00837009F491E0C6
:1016A000892F0895109207011092060110920501EA
:1016B00010920401109211011092100110924C012D
:1016C00010924B018091FF008C7F8093FF008093EC
:1016D0006001E0917100F091720009950895633DF9
:1016E00008F062ED6093260110922701833D08F017
:1016F00082ED809316011092170108958093E70000
:101700006093E8008093E5006093E600882311F081
:10171000AA9A01C0AA98662311F0AB9A0895AB98D3
:101720000895982F03C089B7806889BF80910B0105
:101730008823C9F7892F90E08F73907026E0880F77
:10174000991F2A95E1F7262F30E02F733070822BF6
:10175000932B906390932B0180932A0180910A012F
:10176000806480930A0108951F920F920FB60F9222
:1017700011242F938F939F9380916C008230B0F54A
:101780002091F5002223C1F02C3338F480914401DC
:101790009091450196FF07C008C080914401909147
:1017A000450196FF02C0979803C082B3805882BB60
:1017B00021502093F50032C080910B018823A1F0C5
:1017C00097988091440190914501880F991F9093BB
:1017D00045018093440188E78093F50080910B01D7
:1017E000815080930B011AC0979818C080910F0107
:1017F000882391F080910A0180FD05C088B390E4B0
:10180000892788BB03C085B3805885BB80910F01B1
:10181000815080930F0102C0C69AAF9A9F918F9119
:101820002F910F900FBE0F901F9018951F920F923F
:101830000FB60F9211248F9380916C00833011F0BA
:10184000863069F480910A0184FD09C085FF07C0D4
:10185000B29905C080915F018F5F80935F0186B36D
:1018600080910A018D7F80930A018F910F900FBEA6
:101870000F901F901895089590936E0080936D00BF
:10188000089508959093700080936F00089580915B
:10189000220190912301029708F43BC190910A0123
:1018A00094FD16C180916C00823009F467C08330CA
:1018B00030F4882371F0813009F010C111C08530F7
:1018C00009F4ACC0863009F4C1C0833009F006C108
:1018D0006DC089B78F7789BF9798C69AAF9AFEC0B7
:1018E00080910B01882341F596FF14C080912A0155
:1018F00090912B0190934501809344018EE0809359
:101900000B0180910A018F7B80930A0189B780685F
:1019100089BF06C089B78F7789BF9798C69AAF9A53
:101920008091F4008F5F8093F4008150843138F00F
:1019300082E080936C0003C089B7806889BF809182
:101940000A0183FFCBC0E0916D00F0916E008091A1
:101950006301909164010995809163019091640104
:10196000909313018093120110926401109263010D
:1019700080910A01877F80930A01B0C089B78F7771
:1019800089BF9798C69AAF9A10920F0110925F0183
:101990001092F3001092F20080910A018E7F806213
:1019A00080930A0183E08093F40075C080910F0159
:1019B000882381F48091F4008F5F8093F40081503C
:1019C000833040F089B7806889BF88E280930F0137
:1019D0001092F40080914001882321F080915F01F2
:1019E000823020F480915F01863038F010925F01E0
:1019F00081E08093400185E04EC08091F20090919B
:101A0000F30001969093F3008093F20001970E97F4
:101A100008F464C01092400185E04FC089B78F7709
:101A200089BF9798C69AAF9A10920F0110925F01E2
:101A30001092F3001092F20080910A01816280936B
:101A40000A0183E08093F40086E025C080910F01B5
:101A5000882381F48091F4008F5F8093F40081509B
:101A6000833040F089B7806889BF88E280930F0196
:101A70001092F40080914901882321F080915F0148
:101A8000823020F480915F01863040F010925F0137
:101A900081E08093490180936C0020C08091F20026
:101AA0009091F30001969093F3008093F2000197D8
:101AB0000E97A0F01092490181E080936C0089B7E5
:101AC0008F7789BF9798C69AAF9A10920F0106C078
:101AD0001092F3001092F2001092F4002091400155
:101AE0008091F100821731F49091F00080914901CA
:101AF000981759F02093F100809149018093F000EC
:101B0000E0916F00F09170000995109223011092FE
:101B10002201089510926C0089B78F7789BF97983A
:101B2000C69AAF9A1092490110924001089589B760
:101B30008F7789BF9798C69AAF9A109249011092F1
:101B4000400181E080936C0008958E989698BB9830
:101B5000C398C698AF9808958E9A969ABB98C398E2
:101B600008958E989698BB9AC39A08958E9A969ADD
:101B7000BB9AC39A0895C49A80911501843018F4D1
:101B800083E0809315010895C498809115018430F5
:101B900060F4882331F420E030E080910001882354
:101BA00011F021E030E02093150108951F920F926B
:101BB0000FB60F9211242F933F934F935F936F9320
:101BC0007F938F939F93AF93BF938091FD009091EC
:101BD000FE0001969093FE008093FD0080915601D7
:101BE0008F5F80935601809159018F5F80935901D7
:101BF0008150893008F447C180912E0180FF09C0CF
:101C000080912F0190913001019690933001809343
:101C10002F0180912E0181FF09C0809131019091A7
:101C200032010196909332018093310180912E010F
:101C300082FF09C080913301909134010196909305
:101C400034018093330180912E0183FF09C080917C
:101C500035019091360101969093360180933501BC
:101C600080912E0184FF09C0809137019091380145
:101C70000196909338018093370180912E0185FF62
:101C800009C08091390190913A01019690933A01EF
:101C90008093390180912E0186FF09C080913B011C
:101CA00090913C01019690933C0180933B0180917F
:101CB0002E0187FF09C080913D0190913E01019660
:101CC00090933E0180933D0180914A018F5F809304
:101CD0004A018150893CE8F08091280190912901C6
:101CE00090935B0180935A0180915201909153012E
:101CF00090931901809318011092290110922801E4
:101D0000109253011092520181E0809314011092BD
:101D10004A0140911501433008F052C0423081F52C
:101D200080910001882301F58091EE009091EF00F1
:101D30009C012F5F3F4F3093EF002093EE0068EC43
:101D400070E00E942716892BD9F5215A3F4028F0D0
:101D5000B998C1981092150129C087B3842787BB11
:101D600088B3842788BB2CC084FD02C0B998C19871
:101D70001092EF001092EE0081E08093150120C0D8
:101D80008091EE009091EF002EE2813E920798F054
:101D9000413049F4109215018091000184FD06C084
:101DA000B998C19803C082E0809315011092EF00AA
:101DB0001092EE0005C001969093EF008093EE0024
:101DC0008091220190912301039748F48091220190
:101DD0009091230101969093230180932201809199
:101DE0004201873318F48F5F8093420180914D0147
:101DF000843328F480914D018F5F80934D01809151
:101E000048018F5F8093480181508330D0F18091E9
:101E10004301482F50E020912601309127014217BD
:101E2000530759F04217530714F48F5F01C08150D4
:101E300080934301809143018ABD80916501482FC1
:101E400050E020911601309117014217530759F0C5
:101E50004217530714F48F5F01C0815080936501CE
:101E60008091650188BD80916501882321F480916E
:101E70004301882319F082EA8FBD01C01FBC109274
:101E800048011092590180910A0183FD46C02091BA
:101E9000EA003091EB004091EC004F5F4093EC0082
:101EA000463190F036FD09C035FF07C0309364011C
:101EB00020936301886080930A0180910A018F7EDC
:101EC00080930A0120E030E09091ED0086B38927ED
:101ED00082FF1FC090959093ED00473040F48091B1
:101EE0000A018F7E80930A0120E030E005C02115B1
:101EF000310511F04F3068F080910A0180618093C4
:101F00000A0136FD02C0220F331F92FF216010929A
:101F1000EC003093EB002093EA00BF91AF919F91CA
:101F20008F917F916F915F914F913F912F910F9082
:101F30000FBE0F901F901895982F10925601809108
:101F400056018917E0F308959C0108C010925601CC
:101F5000809156018A30E0F321503040211531053F
:101F6000A9F7089502C0000001970097E1F70895CE
:101F7000D49ADC9A0895DC98D49808951BBA18BABC
:101F800015BA81E082BB1ABA88E587BB8CE884BBAE
:101F900082EF81BBF894C598BD9A87B397980E9449
:101FA000A50D10BC8CE089B91BB886E880BD88E916
:101FB0008AB917B886E186B910BE85E085BF80EE84
:101FC0008BBF14BE8AE083BF83E68CBF82EA8FBDDD
:101FD00081E18EBD82ED90E097BD86BD1ABC18BC34
:101FE00080E060E00E947E0B89E085BD8EE683BDC7
:101FF00082E089BF80910A01816080930A0181E0BB
:1020000080936C00789408951F93182FF8949798F4
:102010000E94A50D1092170110921601109227012F
:1020200010922601109211011092100110924C0191
:1020300010924B0110926501109243011ABC18BC1A
:102040001FBC0E94C40D81E693E00E94DD1386E26E
:1020500093E00E94DD13812F81508230C0F48CEF19
:1020600092E00E94DD138AEE92E00E94DD131130AF
:1020700019F485EE92E002C08FED92E00E94DD132C
:102080008EEA92E00E94DD138FE692E00CC01330DE
:1020900061F482E592E00E94DD1382E292E00E9408
:1020A000DD138BEE91E00E94DD1385EC91E00E9440
:1020B000DD1316E3109300010E94D7092AE008C03F
:1020C000000001973FEF8F3F9307D1F7215019F0A0
:1020D00080E090E8F6CF109200010E94D7092AE034
:1020E00005C000000197E9F7215021F380E090E05E
:1020F000F9CF80914201823308F47CC010924201F2
:1021000080913F01882309F041C080916601909140
:1021100067018350934038F48091570190915801A2
:1021200083509340F0F0809141018F5F8093410193
:102130008AE080933F0110921701109216011092CD
:102140002701109226011092110110921001109295
:102150004C0110924B018091FF0084608093FF003E
:1021600008958091FF008B7F8093FF0080910C0188
:10217000853628F01092410110920C0107C0809121
:102180004101833018F083E00E94041080916601C1
:10219000909167018639910598F48091180190918A
:1021A0001901892B69F48091060190910701892B0F
:1021B00039F080916501873918F081E00E940410A0
:1021C00080915701909158018639910598F480913A
:1021D0005A0190915B01892B69F4809104019091DF
:1021E0000501892B39F080914301873918F082E08D
:1021F0000E94041080911401882309F49FC18091EA
:102200003F01882309F095C180914101882331F075
:1022100080910C018F5F80930C0102C010920C0121
:102220004091FF0041FF38C020915C0130915D0179
:1022300080910201909103012817390780F01092D4
:1022400007011092060110921101109210011092D4
:102250001701109216014D7F4093FF001DC0209181
:102260005C0130915D0180911A0190911B0128174A
:10227000390790F080910601909107019695879516
:102280009093070180930601469730F486E190E031
:1022900090930701809306014091FF0040FF38C0F2
:1022A00020914E0130914F018091240190912501A0
:1022B0002817390780F0109205011092040110923E
:1022C0004C0110924B0110922701109226014E7F73
:1022D0004093FF001DC020914E0130914F0180912D
:1022E0005001909151012817390790F08091040115
:1022F000909105019695879590930501809304012F
:10230000469730F486E190E09093050180930401B4
:102310004091E5008091E700481739F49091E6007C
:102320008091E800981709F455C02091060130917A
:1023300007012115310531F48091040190910501C7
:10234000892B21F130930901209308018091040128
:102350009091050190931D0180931C01109207013B
:1023600010920601109205011092040110922701AB
:10237000109226011092170110921601109211016D
:102380001092100110924C0110924B018FB58823CE
:1023900009F5842F6091E6000E947E0B8091080170
:1023A00090910901909307018093060120911C01EF
:1023B00030911D0130930501209304019695879576
:1023C00090931101809310013695279530934C011D
:1023D00020934B0140910601509107018091180113
:1023E000909119019A01281B390BC9012091100104
:1023F00030911101820F931F90931101809310016E
:10240000855A914034F084EA91E0909311018093D1
:10241000100180911001909111018C559E4F34F460
:102420008CE59EEF9093110180931001809118012B
:1024300090911901892B31F4452B21F4109211014F
:1024400010921001809110019091110162E070E0F2
:102450000E943B167093170160931601633D71054E
:1024600034F082ED90E090931701809316018091F3
:1024700016019091170197FF04C010921701109256
:102480001601409104015091050180915A019091EB
:102490005B019A01281B390BC90120914B01309136
:1024A0004C01820F931F90934C0180934B01855AEE
:1024B000914034F084EA91E090934C0180934B0179
:1024C00080914B0190914C018C559E4F34F48CE5DA
:1024D0009EEF90934C0180934B0180915A01909113
:1024E0005B01892B31F4452B21F410924C011092A1
:1024F0004B0180914B0190914C0162E070E00E9491
:102500003B167093270160932601633D710534F0FB
:1025100082ED90E09093270180932601809126011F
:102520009091270197FF08C0109227011092260171
:1025300003C0815080933F01109214019091FF00DD
:1025400080916001891739F090936001E0917100EA
:10255000F0917200099508950E94600A0E94470C4C
:102560000E942B0A0E9479100895FF920F931F93E7
:10257000CF93DF93182F062FF22E8091FF008360F8
:102580008093FF0060E070E0CB01BA0120EB32E005
:1025900040E050E00E94081624E630E040E050E0C1
:1025A0000E944E16E901C901845690409093510152
:1025B0008093500190931B0180931A013093250161
:1025C0002093240130930301209302012832310526
:1025D000B0F484E190E090932501809324019093DE
:1025E0000301809302018AE090E09093510180936F
:1025F000500190931B0180931A01C8E2D0E0193C6E
:1026000018F018EC88EC01C0812F8093060110921D
:1026100007011093040110920501802F0E940E0BF8
:1026200010925D0110925C0110924F0110924E01C8
:10263000D0932D01C0932C01D0930E01C0930D01B6
:102640008091FF0080936001E0917100F091720031
:102650000995FF2019F406C00E94AC128091FF007A
:102660008370D1F7DF91CF911F910F91FF90089563
:102670001F93CF93DF93382FEA01122F8091FF0031
:1026800083608093FF0010925101109250011092CC
:102690001B0110921A01373180F086EF9FEF831BE8
:1026A0009109880F991F840F951F90935101809372
:1026B000500190931B0180931A01CE0102979093D1
:1026C0002501809324019093030180930201C83275
:1026D000D105B8F484E190E0909325018093240122
:1026E00090930301809302018AE090E0909351015E
:1026F0008093500190931B0180931A01C8E2D0E0AF
:1027000004C021E0C039D20798F4393288F0CE01F4
:1027100096958795969587959E01281B390B309342
:1027200051012093500130931B0120931A0138E28C
:1027300010925D0110925C0110924F0110924E01B7
:10274000393C18F038EC88EC01C0832F80930601E7
:10275000109207013093040110920501862F0E9408
:102760000E0BD0932D01C0932C01D0930E01C0937A
:102770000D018091FF0080936001E0917100F09164
:1027800072000995112319F406C00E94AC128091C1
:10279000FF008370D1F7DF91CF911F9108955D9B6A
:1027A000FECF8CB90895FC0104C05D9BFECF31962D
:1027B0008CB980818823C9F7089503C05D9BFECF43
:1027C0002CB9FC01019624912223C1F70895FC0144
:1027D000E40FF11D05C05D9BFECF31968CB96150B1
:1027E0008081882311F06623B1F708951F920F921C
:1027F0000FB60F9211242F938F939F93EF93FF9314
:102800002091FA008091F900922F981B9032A8F441
:102810008091F800E82FF0E09CB1E759FE4F9083DB
:102820008F5F8093F8002F5F2093FA00813210F0C1
:102830001092F8001092680106C08CB18093FC00E1
:1028400081E080936801FF91EF919F918F912F918B
:102850000F900FBE0F901F901895109268019091E5
:10286000F9008091FA00891711F4E0E013C09F5F2E
:102870009093F9008091F700813210F01092F700E8
:102880008091F700E82FF0E0E759FE4FE0818F5F7D
:102890008093F7008E2F089510926801DC0120E0EC
:1028A00014C09F5F9093F9008091F700E82FF0E04B
:1028B000E759FE4F90819C938F5F8093F7008132A0
:1028C00010F01092F7002F5F11969091F90080910F
:1028D000FA00891711F0261720F3822F08958091AE
:1028E000FA009091F900891B089557988CB1809354
:1028F000FB001092F7001092F8001092F90010926D
:10290000FA0010926801579A08950F931F93DF936E
:10291000CF93CDB7DEB761970FB6F894DEBF0FBE89
:10292000CDBF462F8E010F5F1F4FB80150E00E94B0
:102930007016C8010E94D31361960FB6F894DEBFDB
:102940000FBECDBFCF91DF911F910F910895FF92E0
:102950000F931F93DF93CF93CDB7DEB761970FB679
:10296000F894DEBF0FBECDBF262FF42E8E010F5F71
:102970001F4FB801422F50E00E947016F8010190DD
:102980000020E9F73197E01BF10B4F2D4E1B141679
:1029900064F480E341505D9BFECF8CB94423D1F7B2
:1029A000CE0101960E94D31305C04195C8016F2D39
:1029B0000E94E71361960FB6F894DEBF0FBECDBF3D
:1029C000CF91DF911F910F91FF9008950CD0E6C039
:1029D000DED040F0D5D030F021F45F3F19F0C7C011
:1029E000511110C1CAC0EBD098F39923C9F35523F4
:1029F000B1F3951B550BBB27AA27621773078407F2
:102A000038F09F5F5F4F220F331F441FAA1FA9F3A7
:102A100033D00E2E3AF0E0E830D091505040E69599
:102A2000001CCAF729D0FE2F27D0660F771F881FFA
:102A3000BB1F261737074807AB07B0E809F0BB0BE9
:102A4000802DBF01FF2793585F4F2AF09E3F51050D
:102A500068F08DC0D7C05F3FECF3983EDCF38695FD
:102A600077956795B795F7959F5FC9F7880F911D83
:102A70009695879597F90895E1E0660F771F881F6F
:102A8000BB1F621773078407BA0720F0621B730B22
:102A9000840BBA0BEE1F88F7E095089598D088F064
:102AA0009F5790F0B92F9927B751A0F0D1F0660F3A
:102AB000771F881F991F1AF0BA95C9F712C0B13055
:102AC00081F09FD0B1E008959CC0672F782F8827B0
:102AD000B85F39F0B93FCCF3869577956795B39594
:102AE000D9F73EF490958095709561957F4F8F4F03
:102AF0009F4F0895E89409C097FB3EF49095809508
:102B0000709561957F4F8F4F9F4F9923A9F0F92FB3
:102B100096E9BB279395F695879577956795B79531
:102B2000F111F8CFFAF4BB0F11F460FF1BC06F5F17
:102B30007F4F8F4F9F4F16C0882311F096E911C029
:102B4000772321F09EE8872F762F05C0662371F04A
:102B500096E8862F70E060E02AF09A95660F771F5E
:102B6000881FDAF7880F9695879597F9089597F952
:102B70009F6780E870E060E008959FEF80EC089523
:102B800000240A941616170618060906089500244C
:102B90000A9412161306140605060895092E0394C6
:102BA000000C11F4882352F0BB0F40F4BF2B11F43A
:102BB00060FF04C06F5F7F4F8F4F9F4F089557FD99
:102BC0009058440F551F59F05F3F71F04795880F9B
:102BD00097FB991F61F09F3F79F087950895121632
:102BE00013061406551FF2CF4695F1DF08C01616DE
:102BF00017061806991FF1CF86957105610508948F
:102C00000895E894BB2766277727CB0197F90895A5
:102C1000629FD001739FF001829FE00DF11D649FC0
:102C2000E00DF11D929FF00D839FF00D749FF00D4C
:102C3000659FF00D9927729FB00DE11DF91F639FED
:102C4000B00DE11DF91FBD01CF0111240895AA1B8C
:102C5000BB1B51E107C0AA1FBB1FA617B70710F087
:102C6000A61BB70B881F991F5A95A9F780959095B9
:102C7000BC01CD01089597FB092E07260AD077FDE8
:102C800004D0E5DF06D000201AF4709561957F4FDF
:102C90000895F6F7909581959F4F0895A1E21A2E19
:102CA000AA1BBB1BFD010DC0AA1FBB1FEE1FFF1FF0
:102CB000A217B307E407F50720F0A21BB30BE40B40
:102CC000F50B661F771F881F991F1A9469F7609587
:102CD0007095809590959B01AC01BD01CF01089541
:102CE000FB019F01E8944230C4F04532B4F44A300D
:102CF00029F497FB1EF4909581959F4F642F7727B9
:102D00000E942716805D8A330CF0895D8193CB0188
:102D10000097A1F716F45DE251931082C9010C945B
:102D20009116DC01FC01672F71917723E1F732974F
:102D300004C07C916D9370836291AE17BF07C8F396
:062D40000895F894FFCF96
:102D46002828280000002802EF01F501013B0C416C
:062D56000CF90A250A0039
:00000001FF
