:100000000C944B0A0C94730A0C94730A0C94730AA4
:100010000C94730A0C94730A0C94730A0C94730A6C
:100020000C94730A0C94730A0C94730A0C94F90AD6
:100030000C94730A0C94730A0C94730A0C94730A4C
:100040000C94730A0C94730A0C945F160C94730A44
:100050000C94730A0C94730A0C94730A0C94730A2C
:100060000C94CC150C94730ABF0CD50C380D560D9E
:10007000FD0C1A0DBF0CD50CFD0C00000000007C1F
:10008000DAF2DA7C7CD6F2D67C387C3E7C38183CBE
:100090007E3C1838EABEEA38387AFE7A3800183CD6
:1000A0001800FFE7C3E7FF0018241800FFE7DBE7AD
:1000B000FF0C125C607064949E946402FEA0A0E049
:1000C00002FEA0A4FC5A3CE73C5AFE7C38381010D3
:1000D00038387CFE2844FE4428FAFA00FAFA609088
:1000E000FE80FE006691A95606060606062945FF13
:1000F000452910207E201008047E04081010543872
:10010000101038541010780808080830783078300B
:100110000C1C7C1C0C60707C7060000000000000F7
:1001200000FA000000E000E00028FE28FE28245429
:10013000FE5448C4C81026466C926A040A0010E0B7
:10014000C000003844820000824438005438FE3831
:100150005410107C101000010E0C00101010101024
:10016000000006060004081020407C8A92A27C0051
:1001700042FE02004E92929262848292B2CC182881
:1001800048FE08E4A2A2A29C3C5292928C828488EF
:1001900090E06C9292926C629292947800002800A7
:1001A0000000022C0000001028448228282828285B
:1001B000008244281040809A90607C82BA9A723EF5
:1001C0004888483EFE9292926C7C82828244FE82F3
:1001D00082827CFE92929282FE909090807C8282BB
:1001E0008ACEFE101010FE0082FE8200040282FC05
:1001F00080FE10284482FE02020202FE403840FEC9
:10020000FE201008FE7C8282827CFE909090607CB2
:10021000828A847AFE90989462649292924CC08012
:10022000FE80C0FC020202FCF8040204F8FC021C7E
:1002300002FCC6281028C6C0201E20C0869A92B292
:10024000C200FE828282402010080400828282FE68
:100250002040804020020202020200C0E0100004A0
:100260002A2A1E02FE1422221C1C222222141C22D4
:100270002214FE1C2A2A2A1800107E9040182525D8
:10028000391EFE1020201E0022BE0200040202BC05
:1002900000FE081422000082FE02003E201E201EE6
:1002A0003E1020201E1C2222221C3F182424181835
:1002B0002424183F3E10202010122A2A2A2420200D
:1002C000FC22243C0202043E38040204383C020CA6
:1002D000023C2214081422320909093E22262A323D
:1002E0002200106C82000000EE000000826C100002
:1002F00040804020403C64C4643C78858586485CEE
:100300000202045E1C2A2AAA9A84AAAA9E82842A2D
:100310002A1E8284AA2A1E02042AAA9E0230784A31
:100320004E489CAAAAAA9A9C2A2A2A9A9CAA2A2AB5
:100330001A0000A23E820040A2BE420080A23E02FD
:100340000F9424940F0F14A4140F3E2AAAA20004A1
:100350002A2A3E2A3E5090FE924C9292924C4C1287
:1003600012124C4C5212120C5C8282845E5C42026D
:10037000041E00B90505BE9C2222229CBC0202027A
:10038000BC3C24FF2424127E92C266D4F43FF4D4F1
:10039000FF90946F0403117E90C0042A2A9E82006D
:1003A0000022BE820C1212524C1C0202445E005EFD
:1003B00050504EBEB0988CBE649494F414649494DF
:1003C00094640C12B202041C1010101010101010C3
:1003D0001CF40813355DF408142C5F0000DE0000E7
:1003E000102854284444285428105500AA00555574
:1003F000AA55AA55AA55AA55AA000000FF00080848
:1004000008FF00282828FF000808FF00FF08080F41
:10041000080F2828283F002828EF00FF0000FF00D1
:10042000FF28282F203F2828E808F80808F808F8AF
:10043000282828F8000808080F00000000F808081D
:100440000808F8080808080F08000000FF08080856
:10045000080808080808FF08000000FF280000FF3F
:1004600000FF0000F808E800003F202F2828E808D7
:10047000E828282F202F0000FF00EF282828282810
:100480002828EF00EF282828E8280808F808F82886
:1004900028282F2808080F080F0000F808F8000087
:1004A00000F8280000003F2800000F080F0808FF90
:1004B00008FF282828FF28080808F8000000000F77
:1004C00008FFFFFFFFFF0F0F0F0F0FFFFFFF0000E1
:1004D000000000FFFFF0F0F0F0F01C22221C223E92
:1004E00054547C287E40406060407E407E40C6AAD6
:1004F0009282C61C22223C20027E04780460407E48
:10050000404099A5E7A5993854925438324E804E10
:10051000320C52B2B20C0C121E120C3D465A62BC86
:100520007C929292007E8080807E54545454542257
:1005300022FA2222028A5222020222528A02000057
:10054000FF80C00701FF00001010D6D6106C486C69
:10055000246C60F090F0600000181800000008089B
:10056000000C02FF808000F88080780098B8E8488E
:10057000003C3C3C3C830583058305B706FD0B002E
:1005800000B205C506C506C506B706FD0B0000B2DC
:1005900005C5069F057505C506B20D0000B7059196
:1005A00005AD057505C5060A0C0000BC059F05BB19
:1005B000057505C506F30BB006C105AD05C9057582
:1005C00005C506F30BB206CC05BB05D7057505C5F9
:1005D00006F30BAE06D605C905E5057505C506F398
:1005E0000BA206E305D705F3057505C506F30BA4B5
:1005F00006EF05E50501067505C506F30BA606FC25
:1006000005F3050F067505C506F30BB406090601CB
:10061000061D067505C506F30BB60616060F06B7CA
:10062000067505C506F10B96062306C50639066351
:1006300006C506190C000029062B0647066306C5E9
:1006400006F10B9C062E06390655066306C506F113
:100650000B9E0637064706C5066306C506F10BA0C6
:10066000063F06C5068D06B7065506F10B00004786
:1006700006C5067F068D06C506F10B00004C067107
:1006800006C5068D06C506F10B0000560663069BDF
:1006900006B7067F06F10B00005F068D06A906B7B8
:1006A00006C506F10B000069069B06C506B706C520
:1006B00006F10B000076061D06C5067505A906F1B4
:1006C0000B00008306000000000000000000000096
:1006D000000000000000000000000000000000001A
:1006E000000000000000000000000000000000000A
:1006F00000000000000000000000000000000000FA
:1007000000000000000000000000000000000000E9
:1007100000000000000000000000000000000000D9
:1007200000000000000000000000000000000000C9
:1007300000000000000000000000000000000000B9
:1007400000000000000000000000000000000000A9
:100750000000000000000000000000000000000099
:100760000000000000000000000000000000000089
:100770000000000000000000000000000000000079
:100780000000000000000000000000000000000069
:100790000000000000000000000000000000000059
:1007A0000000000000000000000000000000000049
:1007B0000000000000000000000000000000000039
:1007C00000000000000000000000008080800000A9
:1007D0000000000000008080800000000000000099
:1007E0000080808000000000000000000000000089
:1007F0000000070F0F0F07000000000000070F0F99
:100800000F07000000000000070F0F0F0700000097
:1008100000000000000000000000000080C0C0E0F8
:10082000E0E0F0F0F0F0F0F0F0F0F0F0E0E0E0C048
:100830008080000000000000000000000000C0F008
:10084000F8FEFEFFFF7F3F1F0F07070703030303A9
:10085000030707070F1F3F7FFFFFFFFEFCF0E000CD
:100860000000000000FEFFFFFFFFFFFF030000008D
:100870000000000000000000000000000000000078
:10088000011FFFFFFFFFFFFFF000000000073F7F99
:10089000FFFFFFFFFEF0E0C0C0808000000000000E
:1008A00000000080808080C0C0E0FFFFFFFFFFFFEE
:1008B000FF00000000000000010307070F1F1F1FBB
:1008C0003F3F3F3F3F3F3F3F3F3F3F1F1F1F0F0FF8
:1008D00007F7FFFFFFFFFFFF070000000000000019
:1008E0000000000000000000000000000000000008
:1008F0000000000080C0F0F8FFFFFFFF7F1F07002F
:1009000000000000000000000000FCFCFCF8F8F80B
:10091000F8F8F8F8F8FCFCFCFEFE7F7F3F3F1F0F65
:1009200007070100000000000000000000000000B8
:1009300000000101010101010101010101010000AB
:1009400000000000000000000000000000000000A7
:10095000000000000000000000008080C0C0E0E057
:10096000E0F0F0F0F0F0F0F0F0F0F0F0E0E0E0E0D7
:10097000C0C08000000000000000000000C0F8FCC3
:10098000FEFFFFFF3F1F0F070303030101010101EA
:100990000101030303070F1F7FFFFFFFFEFCF8E0C9
:1009A00000000000001F7FFFFFFFFFFFF8E0C08096
:1009B000800000000000000000000000000000C0F7
:1009C000F0FFFFFFFFFF3F0F0000000000000000EE
:1009D0000183C7CFEFFFFFFF7F7F7F7E7EFEFCFCA2
:1009E000F8F8F8FCFCFEFFFFCFCF87830100000082
:1009F00000000000C0F0FCFEFFFFFF3F0F030100FE
:100A000000000000000000000101030303070F0FB6
:100A10003FFFFFFFFFFEFCF0C00000003FFFFFFFB5
:100A2000FFFFFFF080000000000000000000000059
:100A3000000000000000000080E0FFFFFFFFFFFF5C
:100A40003F000000000103070F1F3F7F7FFFFEFCF8
:100A5000FCF8F8F0F0F0F0F0F0F0F8F8F8FCFC7EBC
:100A60007F3F3F1F0F070300000000000000000051
:100A7000000000000000000000010101010101016F
:100A80000101010100000000000000000000000062
:100A90000000000000E0E0E0E0E0E0E0E0E0E0E0B6
:100AA000E0E0E0E0E0E0E0E0E0E0E0E0E0E0E0E046
:100AB000E0E0E0E0E0E0E0E0000000000007070721
:100AC00007070707070707070707070707070707B6
:100AD0000707070707070787E7FFFFFFFFFFFF3F3E
:100AE0000000000000000000000000000000000006
:100AF0000000000000000000000000C0E0F8FEFF61
:100B0000FFFFFF3F0F030000000000000000000097
:100B1000000000000000000000000000000000C015
:100B2000F0FCFFFFFFFFFF3F0F030000000000008D
:100B300000000000000000000000000000000000B5
:100B4000000000C0F0FCFFFFFFFFFF3F0F030000AD
:100B50000000000000000000000000000000000095
:100B600000000000000080E0F8FCFFFFFFFF7F1F97
:100B7000070100000000000000000000000000006D
:100B80000000000000000000000080E0F8FEFFFF11
:100B9000FFFF7F1F070100000000000000000000B1
:100BA0000000000000000000000000000000000045
:100BB0000000000000000000000000000000000035
:100BC0000000000000000000000000000000000025
:100BD0000000000000000000000000000000000015
:100BE0008080C0C0E0E0E0E0F0F0F0F0F0F0F0F085
:100BF000F0F0F0E000000000000000000000000045
:100C000000C0E0F0FCFCFEFFFF3F1F1F0F0F0707B7
:100C100007030303030303030307070700000000A0
:100C2000000000000000E0FCFFFFFFFFFF1F0701C6
:100C30000000008080808080808080808080000034
:100C400000000000000000000000000000FEFFFFA8
:100C5000FFFFFFFFFD7C7E3E3F3F3F1F1F1F1F1F0B
:100C60001F1F1F3F3F7F7FFFFFFEFCFCF8F0E0806F
:100C70000000000000FFFFFFFFFFFFFF000000007B
:100C80000000000000000000000000000000000064
:100C9000030FFFFFFFFFFFFFFC00000000011F7FAD
:100CA000FFFFFFFFFFF0C080000000000000000019
:100CB0000000000000000080C0F8FFFFFFFFFF7F82
:100CC0000F0000000000000001070F1F3F3F7FFFE3
:100CD000FFFEFCFCFCF8F8F8F8F8F8FCFCFEFF7FDF
:100CE0007F3F1F1F0F0301000000000000000000F5
:100CF00000000000000000000000010101010101EE
:100D000001010101000000000000000000000000DF
:100D1000000000000000000000F0F0F0F0F0F0F043
:100D2000F0F0F0F0F0F0F0F0F0F0F0F0F0F0F0F0C3
:100D3000F0F0F0F0F0F0F0F0F00000000000000043
:100D400000FFFFFFFFFFFFFF030303030303030392
:100D50000303030303030303030303030303030363
:100D6000030000000000000000FFFFFFFFFFFFFF87
:100D70000000000000000000000000000000000073
:100D80000000000000000000000000000000000063
:100D9000007F7F7F7F7F3F3F3F3F3F3F3F3F3F3F62
:100DA0003F7F7F7F7FFEFEFEFCFCF8F8F0E0C00096
:100DB0000000000000000000000000000000000033
:100DC0000000000000000000000000000000010121
:100DD000071FFFFFFFFFFFFFF8000000000000807B
:100DE0008000000000000000000000000000000083
:100DF0000000000000000080C0F8FFFFFFFFFF7F41
:100E00000F0000000000003F7F7F7FFEFEFEFCFC25
:100E1000FCFCF8F8F8F8F8F8F8FCFCFCFEFEFF7FA4
:100E20007F3F1F1F0F0301000000000000000000B3
:100E300000000000000000010101010101010101A9
:100E4000010101010000000000000000000000009E
:100E50000000000000000000000000000000000092
:100E60000000000000000000000080C0E0E0E0E0C2
:100E7000E0E0E000000000000000000000000000D2
:100E8000000000000000000000000080C0E0F0F85A
:100E9000FEFF7F3FFFFFFFFFFFFFFF00000000009E
:100EA0000000000000000000000000000080E0F0F2
:100EB000F8FCFE7F3F1F0F0701000000FFFFFFFF50
:100EC000FFFFFF000000000000000000000080C0E5
:100ED000E0F8FCFEFF7F1F0F070301000000000089
:100EE00000000000FFFFFFFFFFFFFF000000000009
:100EF00000000000FEFFFFFFFFF7F3F1F0F0F0F05D
:100F0000F0F0F0F0F0F0F0F0F0F0F0F0FFFFFFFFA5
:100F1000FFFFFFF0F0F0F0F0F0F0F0000303030348
:100F20000303030303030303030303030303030391
:100F300003030303FFFFFFFFFFFFFF03030303039D
:100F40000303030000000000000000000000000098
:100F5000000000000000000000000000FFFFFFFF95
:100F6000FFFFFF0000000000000000000000000084
:100F70000000000000000000000000000000000071
:100F80000000000000000000000000000000000061
:100F90000000000000000080C0C0C0E0E0E0E0E031
:100FA000F0F0F0F0F0F0F0F0F0F0F0F0E0E0E0C0A1
:100FB000C080800000000000000000000000003F32
:100FC0003F1F1F0F0F0F0707070703030303030349
:100FD00003030707070F1F7FFFFFFFFFFEFCF00063
:100FE0000000000000000000000000000000000001
:100FF00000000000000000000000000080C0E0F8D9
:10100000FFFFFFFF7F3F0F00000000000000000017
:10101000000000000000000000007E7E7E7E7E7EDC
:101020007F7FFFFFFFF7F7F7E3E1C180800000005B
:1010300000000000000000000000000000000000B0
:101040000000000000000000000000000001030795
:101050001FFFFFFFFFFFFCF000000000000080808A
:101060000000000000000000000000000000000080
:1010700000000000000080C0F8FFFFFFFFFFFF1F1F
:101080000000000000003F7F7F7FFEFEFEFCFCFCB6
:10109000FCF8F8F8F8F8F8F8FCFCFCFEFEFF7F7F9F
:1010A0003F3F1F0F0703000000000000000000008A
:1010B0000000000000000001010101010101010127
:1010C000010101000000000000000000000000001D
:1010D0000000000000000080C0C0C0E0E0E0E0F0E0
:1010E000F0F0F0F0F0F0F0F0F0F0F0E0E0E0C0C090
:1010F0008000000000000000000000000000003F31
:101100001F1F1F0F0F070707070303030303030333
:101110000707070F1F3FFFFFFFFFFEFCF8C000009F
:1011200000000000000000000000000000000000BF
:101130000000000000000000000000000000C0FFF0
:10114000FFFFFFFFFF7F0000000000000000000025
:10115000000000000000000000000000000000008F
:1011600080C0E0F0FCFEFFFFFF7F1F0F03000000C8
:10117000000000000000000000000000000000006F
:1011800080C0C0E0F0F8FCFEFF7F3F1F0F070301A7
:1011900000000000000000000000000000000080CF
:1011A000C0C0E0F0F8FCFEFF7F3F1F1F0F070301E8
:1011B000000000000000000000000000000000002F
:1011C000000000000000FFFFFFFFFFFFFFFFFDFC2E
:1011D000FCFCFCFCFCFCFCFCFCFCFCFCFCFCFCFC4F
:1011E000FCFCFCFCFCFCFCFC00000000000000001F
:1011F00000000000000000000000000000000000EF
:1012000000000000000000000000000000000000DE
:1012100000000000000000000000000000000000CE
:101220000000000000E0E0E0E0E0E000000000007E
:1012300000000000000000000000000000000000AE
:1012400000F0F0F0F0F0F8F8F8F8FCFEFFFFFFFF18
:10125000FFFFFF0000000000000000000000000091
:101260000000000000000000000101010101010177
:1012700001010101FFFFFFFFFFFFFF000000000071
:10128000000000000000000000000000000000005E
:10129000000000000000000000000000FFFFFFFF52
:1012A000FFFFFF0000000000000000000000000041
:1012B000000000000000000000000000000000002E
:1012C00000000000FFFFFFFFFFFFFF000000000025
:1012D000000000000000000000000000000000000E
:1012E000000000000000000000000000FFFFFFFF02
:1012F000FFFFFF00000000000000000000000000F1
:10130000000000000000000000F8F8F8F8F8F8F815
:10131000F8F8F8F8FFFFFFFFFFFFFFF8F8F8F8F81C
:10132000F8F8F8F8F80000000000000000000000E5
:1013300000000000000000000000000000000000AD
:10134000000000000000000000000000000000009D
:1013500000000000000000000000000080C0C0E0AD
:10136000E0E0F0F0F0F0F0F0F0F0F0F0E0E0C0C01D
:10137000800000000000000000000000000000C02D
:10138000F0FCFEFFFFFF7F1F0F07070303030303AC
:10139000030307070F1F7FFFFFFFFEFCF0C00000E5
:1013A0000000000000E0FEFFFFFFFFFF3F01000024
:1013B000000000000000000000000000000000012C
:1013C0003FFFFFFFFFFFFEE00000000000FFFFFF08
:1013D000FFFFFFFF00000000000000000000000011
:1013E000000000000000000000FFFFFFFFFFFFFF04
:1013F0000000000000FFFFFFFFFFFFFF8000000074
:1014000000000000000000000000000000000000DC
:1014100080FFFFFFFFFFFFFF0000000000001F7FB5
:10142000FFFFFFFFFFF0C000000000000000000011
:10143000000000000000C0F0FFFFFFFFFF7F1F0063
:10144000000000000000000003070F1F3F7F7FFF28
:10145000FEFCFCF8F8F8F8F8F8F8FCFCFEFF7F7FDB
:101460003F1F0F0701000000000000000000000007
:101470000000000000000000000101010101010165
:101480000101010100000000000000000000000058
:1014900000000000841111241FBECFEFD8E0DEBF92
:1014A000CDBF16E0A0E0B1E0ECE7F6E302C00590A6
:1014B0000D92AC38B107D9F727E0ACE8B6E001C02F
:1014C0001D92A235B207E1F71AE0CBE4DAE004C0DE
:1014D0002197FE010E94EC16CA34D107C9F70E9479
:1014E000F30D0C943C1B0C940000FC01A081B18115
:1014F0008C91228190E0022E02C0959587950A94E6
:10150000E2F780FD03C08381863000F18C9190E08A
:1015100002C0959587952A95E2F780FF04C08381E4
:10152000811117C003C08381811107C08581882381
:1015300099F0158281E084830895863068F0858172
:10154000813051F081E08583848308958F5F8383A8
:10155000DDCF81508383E7CF0895FC018481882308
:1015600031F0148281E09581911101C080E00895ED
:10157000FC018481882329F0148281E095819111F6
:1015800080E00895DC01FB0111967C936E93129626
:101590004C931297818121E030E002C0220F331F6B
:1015A0004A95E2F7922F9095892381838281282B97
:1015B000228314961C920895E0E8F0E08081816017
:1015C0008083E1E8F0E080818061808380818360B6
:1015D00080838DE790E0909389008093880083E872
:1015E0009FEF909385008093840082E080936F004A
:1015F00008951F920F920FB60F9211248F9381E0DE
:1016000080938C068F910F900FBE0F901F901895AE
:101610006623ECF14034D8F52223E9F0242F2695F7
:101620002695269550E8259F90011124260F311DFF
:10163000FC01E20FF31F50E040955095477055278D
:1016400081E090E002C0880F991F4A95E2F79081EF
:10165000892B80830895242F26952695269530E89A
:10166000239FF0011124E60FF11DE80FF91F50E050
:10167000409550954770552781E090E002C0880F53
:10168000991F4A95E2F78095908189238083089578
:1016900030E0F901EE0FFF1FEE0FFF1FE20FF31F07
:1016A000E658FF4F55E0560F9C0170E8479F200D0C
:1016B000311D11249491D901A60FB11D9C936F5F28
:1016C00031966513F7CF0895DF92EF92FF920F9353
:1016D0001F93CF93DF937C01C62FD42F8901D12C88
:1016E00011C04D2F6C2FC7010E94480BCA5F6C2F91
:1016F00070E06A5F7F4F6038710514F0DF5FCD2DB9
:10170000D83028F4F80121918F012111EACFDF911F
:10171000CF911F910F91FF90EF90DF900895282FA8
:1017200040918D0660918E068091BF069091C00613
:101730000E94480B80918E068A5F80938E0680E01F
:1017400090E008958F929F92AF92BF92CF92DF92D6
:10175000EF92FF920F931F93CF93DF936C01D62FDD
:10176000862F90E04C01820E911C88159905ACF0F3
:101770001FC0CF2D2E2D4C2F6D2FC6010E94080BA0
:10178000CF5FEC2FF0E0E017F107A4F3DF5F8D2FC0
:1017900090E08815990544F00BC0A42EB12CC5012A
:1017A000800F911D8C01F42EA016B10614F3EECF1C
:1017B000DF91CF911F910F91FF90EF90DF90CF902D
:1017C000BF90AF909F908F90089520E034E0FC018F
:1017D000A901119241505040E1F7089586E091E04F
:1017E000089581E00895823031F484E080931501FA
:1017F00081E08093160181E00895CF93C1E0C0930A
:1018000015018FE391E00E94E50BC093160181E082
:10181000CF910895CF93823049F4C1E0C093150170
:101820008FE391E00E94E50BC093160181E0CF9118
:1018300008958230B1F460E070E080919406909158
:1018400095060E94E011BC01809194069091950646
:101850000E94E011BC0180919406909195060E942F
:101860000D1281E008950F931F93CF93DF93EC0146
:1018700060938D0610928E06E0919406F091950685
:10188000808191818C179D0761F4909399068093D4
:10189000980683E595E09F938F930E9450180F90D0
:1018A0000F908CE080938E06BE01809194069091FB
:1018B00095060E94AE119F938F938FE495E09F93BE
:1018C0008F930E945018BE018091940690919506C6
:1018D0000E94ED110F900F900F900F90855C964035
:1018E00061F08EE680938E0682E595E09F938F935C
:1018F0000E9450180F900F90F6C0BE018091940680
:10190000909195060E94BB11892B09F4ECC086E5E5
:1019100080938E06809115018430C9F4E09194067D
:10192000F0919506008111810C171D0781F48EE35B
:1019300090E00E946618B8018091940690919506F7
:101940000E94BB1190939B0680939A0604C080E28C
:1019500090E00E946618BE018091940690919506D1
:101960000E94BB11DC01EC918E2F90E08930910533
:1019700008F0B9C0FC01EC5CFF4F0C94EC16BE0102
:1019800080919406909195060E94BB11FC01818183
:101990001F928F9386E595E09F938F930E94501836
:1019A0000F900F900F900F909EC0BE0180919406F3
:1019B000909195060E94BB11DC0111968C918823B1
:1019C0006CF01F928F938AE595E09F938F930E940E
:1019D00050180F900F900F900F9085C090E09A953F
:1019E0009F938F938AE595E09F938F930E94501861
:1019F0000F900F900F900F9076C0BE0180919406CB
:101A0000909195060E94BB11FC018181882349F0C9
:101A10008EE595E09F938F930E9450180F900F9042
:101A200062C083E695E09F938F930E9450180F90B9
:101A30000F9059C0BE0180919406909195060E9426
:101A4000BB11DC0111968C91882349F089E695E061
:101A50009F938F930E9450180F900F9044C08FE671
:101A600095E09F938F930E9450180F900F903BC06A
:101A7000BE0180919406909195060E94BB11DC01F5
:101A80001196EC91F0E0EE0FFF1FE455F94F8181C4
:101A90008F9380818F9386E795E09F938F930E9429
:101AA00050180F900F900F900F901DC0BE018091A5
:101AB0009406909195060E94BB11DC011196EC9161
:101AC000F0E0EE0FFF1FE855F94F81818F93808181
:101AD0008F938AE795E09F938F930E9450180F9001
:101AE0000F900F900F90DF91CF911F910F9108955C
:101AF0001092A7061092A50681E08093A306089590
:101B000083E090E00E94EB1A8093B70682E090E0B9
:101B10000E94EB1A8093B50681E090E00E94EB1AD8
:101B20008093B30680E090E00E94EB1A8093B106A8
:101B300008956091B70683E090E00E94F31A6091E7
:101B4000B50682E090E00E94F31A6091B30681E04E
:101B500090E00E94F31A6091B10680E090E00E944C
:101B6000F31A0895823011F40E94990D81E00895CE
:101B7000CF93DF93E2ECF6E08AEB96E091838083EB
:101B800089EB96E09383828388EB96E09583848348
:101B9000A7EBB6E0B783A68365EB76E07187608735
:101BA00043EB56E05387428721EB36E035872487A5
:101BB00087E996E097878687C9E2D0E0D18BC08B12
:101BC000EAEEF6E0C3E9D6E0D183C083B783A6830B
:101BD00071876087538742873587248797878687F1
:101BE000DF91CF910895CDB7DEB7A497DEBFCDBF0B
:101BF00099E288E10FB6F894A895809360000FBE33
:101C000090936000A895F8940E94800D0E94780D32
:101C1000389A8091B306882311F0409A01C0409809
:101C20000E94EE0B90934F0780934E078FE391E055
:101C30009093C0068093BF060E9447160E94DC0A5C
:101C400045E069E270E0CE014F960E94C20A46E08C
:101C500069E270E0CE0149960E94C20A43E069E25F
:101C600070E0CE0143960E94C20A44E069E270E04F
:101C7000CE010D960E94C20A42E069E270E0CE01F8
:101C800007960E94C20A47E069E270E0CE01019621
:101C90000E94C20A89E20E94BC150E94B80D0E94EF
:101CA000FC148FEA0E94E61484EA0E94E61480E1A4
:101CB0000E9475150E94541586E090E00E9423173B
:101CC0008C0165EC76E00E94A411109395060093B8
:101CD000940682E00E94FD0BA8958FE391E00E949C
:101CE000E50B00E010E00F2EF6E4DF2EF02D0F2EB6
:101CF000FEE7EF2EF5E0FF2EF02DD0928E0600933A
:101D00008D061F930F93FF92EF920E9450180F5F62
:101D10001F4F0F900F900F900F900830110569F72B
:101D20008FE391E00E94801578949FE088E10FB6E0
:101D3000F894A895809360000FBE909360000F2EDA
:101D4000F0E12F2EFEE03F2E412C512CF02D0F2ED6
:101D5000F0E18F2EFEE09F2EF02D0F2EF0EAAF2E39
:101D6000F6E0BF2EF02D0F2EFEE9CF2EF6E0DF2E8F
:101D7000F02D0F2EFCE9EF2EF6E0FF2EF02D0F2EAA
:101D8000FEEA6F2EF6E07F2EF02DA89580918C064E
:101D9000882309F481C210928C06CE014F960E94CE
:101DA000750ACE0149960E94750ACE0143960E949B
:101DB000750ACE010D960E94750ACE0107960E9403
:101DC000750ACE0101960E94750ACE014F960E94B7
:101DD000AD0A882309F44EC087E895E00E94961664
:101DE00080911501823099F460E070E08091940652
:101DF000909195060E94C811BC0180919406909123
:101E000095060E940D1281E08093930633C08430C2
:101E100089F5E0919A06F0919B068081823081F0ED
:101E200028F08330C9F0863010F504C081818F5FBF
:101E300081831DC081E09181911180E0818317C071
:101E4000E181F0E0EE0FFF1FE455F94F80819181B1
:101E50000196918380830BC0E181F0E0EE0FFF1FBC
:101E6000E855F94F8081918101969183808381E0CB
:101E700080939306CE0149960E94AD0A882309F407
:101E80004EC08BE895E00E94961680911501823035
:101E900099F460E070E080919406909195060E941C
:101EA000D511BC0180919406909195060E940D1267
:101EB00081E08093930633C0843089F5E0919A06DF
:101EC000F0919B068081823081F028F08330C9F048
:101ED000863010F504C08181815081831DC081E06E
:101EE0009181911180E0818317C0E181F0E0EE0FD4
:101EF000FF1FE455F94F8081918101979183808381
:101F00000BC0E181F0E0EE0FFF1FE855F94F808133
:101F1000918101979183808381E080939306CE0124
:101F200043960E94AD0A882309F44AC081E995E0EE
:101F30000E94961680911501823099F460E070E05D
:101F400080919406909195060E94E011BC018091C9
:101F50009406909195060E940D1281E0809393065D
:101F60002FC0843069F5E0919A06F0919B0680813C
:101F7000823061F028F08330A9F08630F0F404C09C
:101F800081818A50818319C0118217C0E181F0E0FC
:101F9000EE0FFF1FE455F94F808191810A979183DD
:101FA00080830BC0E181F0E0EE0FFF1FE855F94F91
:101FB000808191810A979183808381E08093930649
:101FC000CE010D960E94AD0A882309F442C087E92C
:101FD00095E00E94961680911501823051F480910F
:101FE0009406909195060E943A1281E080939306A0
:101FF00030C0843071F5E0919A06F0919B068081A3
:10200000823069F028F08330B1F08630F8F404C0F3
:102010008181865F81831AC081E0818317C0E1815D
:10202000F0E0EE0FFF1FE455F94F808191810A9691
:10203000918380830BC0E181F0E0EE0FFF1FE85534
:10204000F94F808191810A969183808381E080930A
:102050009306CE0107960E94AD0A8823A9F18EE966
:1020600095E00E94961680911501843049F482E033
:10207000809315018093920681E08093930624C09B
:10208000823051F480919406909195060E943A1204
:1020900081E08093930618C08FE391E00E94E50BE6
:1020A0008FE391E00E94801567EB76E080919406C3
:1020B000909195060E940D1282E080931501809305
:1020C000920681E080939306CE0101960E94B80AA1
:1020D0008823A9F082EA95E00E94961629EA35E065
:1020E00040E060E08FE391E00E94640B8FE391E0B9
:1020F0000E94801581E080939706809393068091DB
:10210000BD069091BE0601969093BE068093BD06D3
:10211000893E934028F480911601811105C0BCC00E
:1021200080911601882319F0109216010DC01092AB
:10213000BE061092BD068091BB069091BC0601962A
:102140009093BC068093BB060091BB061091BC0621
:10215000B80180E090E020E831E541E050E00E94E5
:10216000CD16A20191010E94CD16E22F2093BA064E
:10217000C801B4010E94A5169C01A9E8B8E80E9414
:10218000F216AC0156954795529542954F704527EA
:102190005F7045274093B90698010E94F216969504
:1021A0008795929582958F7089279F7089275CE328
:1021B000589F9001599F300D1124021B130B00935F
:1021C000B806D5011196EC93F6014183D70111961B
:1021D0000C938091980690919906B6E085359B07FF
:1021E00059F0E6E087349E0739F0F6E089339F071F
:1021F00019F08B52964049F481E0809393068091C8
:102200001501813009F04DC005C080911501813064
:1022100009F042C0D30111968C91882361F180911D
:102220009106882351F080918F0690919006019736
:102230009093900680938F0609C080918F069091AD
:10224000900601969093900680938F0660918F067A
:10225000709190066D34B4E07B071CF081E08093B0
:102260009106683C710514F4109291068FE391E099
:102270000E947C140DC0E091A306F0E0EE0FFF1F5A
:10228000E855F94F608171818FE391E00E947C14E1
:102290008FE391E00E94801580919306882309F4D2
:1022A00074CD109293068FE391E00E94E50B80912C
:1022B000B306882311F0409A01C04098809115011F
:1022C000823071F44091140163E37CE080919406C4
:1022D000909195060E94A7128FE391E00E948015CD
:1022E00080911501843009F032CD4091140163E3EF
:1022F0007CE080919406909195060E94A7128FE34E
:1023000091E00E94801523CD1092B60681E0809363
:10231000B40684E08093B20695E09093B006809373
:10232000AE0682E08093A60683E08093A4068093A5
:10233000A20686E08093A00680939E0680939C066A
:1023400088E0809396060895FC017183608385EC94
:1023500096E0938382839583848308956115710544
:1023600029F4DC01ED91FC913C9602C0FB013C9606
:102370008591949108956115710529F4DC01ED9121
:10238000FC913A9602C0FB013A968591949108958A
:102390006115710529F4DC01ED91FC91329602C0C2
:1023A000FB0132968591949108956115710521F490
:1023B000DC01ED91FC9101C0FB01859194910895A0
:1023C0006115710529F4DC01ED91FC91349602C090
:1023D000FB0134968591949108956115710529F456
:1023E000DC01ED91FC91369602C0FB013696859199
:1023F00094910895DC01ED91FC91309751F038965D
:10240000259134912115310531F0862FF901099577
:10241000089581E0089581E008950F931F93CF936D
:10242000DF936115710509F126E0653C7207E9F05B
:102430008B01EC01688179810E94E011081719076E
:1024400051F468E0CE010E94FA1125EC36E03D839C
:102450002C83882351F0888199819B838A831983F7
:10246000088361E0CE010E94FA11DF91CF911F91A4
:102470000F910895CF93DF93EC0162E00E94FA116F
:1024800060E070E0CE010E94ED11009749F026E077
:10249000853C920729F0BC01CE010E940D1204C0B8
:1024A00064E0CE010E94FA11DF91CF910895EF927E
:1024B000FF920F931F93CF93DF938C017B0160E01A
:1024C00070E00E94E011BC01C8010E94ED11BC0146
:1024D000009749F126E0853C920741F1009749F1C8
:1024E000FC0180819181855C964031F1C1E0D0E0B2
:1024F00001C0C42F6E157F0509F4DC2FC8010E94AE
:10250000D511BC010097D1F026E0853C9207B1F0CF
:102510000097A1F041E04C0FFC0120813181255C46
:10252000364039F70BC0C0E0D0E008C0C0E0D0E0D2
:1025300005C0C0E0D0E002C0C0E0D0E08C2F9D2FED
:10254000DF91CF911F910F91FF90EF9008958F929F
:102550009F92AF92BF92CF92DF92EF92FF920F9332
:102560001F93CF93DF93FC01208131812115310529
:1025700009F466C0F6E0253C3F0709F461C0C42FAA
:102580004B017C01C42ED12C5601B594A794B901FE
:102590000E945712492F50E0282F30E02A193B099A
:1025A000421753071CF0082F0C1B04C0092F0A19EF
:1025B000C0FD015000230CF400E060E070E0C701B2
:1025C0000E94E011BC01C7010E94ED11EC010097CF
:1025D000B9F126E0853C920799F1892B89F1888130
:1025E0009981855C964061F1A02EB12C88279927AE
:1025F0008A199B098C159D051CF510E007C0212F39
:1026000030E02A193B092C153D05D4F4101728F0A9
:10261000612F601BCE01F40109951F5FBE01C70148
:102620000E94D511EC01009759F0F6E0853C9F0718
:1026300039F0892B29F088819981855C9640F9F6DB
:10264000DF91CF911F910F91FF90EF90DF90CF908E
:10265000BF90AF909F908F9008952F923F924F928E
:102660005F926F927F928F929F92AF92BF92CF9222
:10267000DF92EF92FF920F931F93CF93DF93CDB72B
:10268000DEB72F970FB6F894DEBF0FBECDBFEE209A
:1026900009F476C00D8339019C838B83EA948E2DD7
:1026A00090E01C012FEF221A320A00E010E09D8119
:1026B000892F90E09F838E8344244394512C8D81F5
:1026C000815090E0FC013196F987E887242F30E0B3
:1026D0003B872A87862F90E0AC01461957095D8712
:1026E0004C878C2D90E09A83898320C0EE85FF85EE
:1026F000849190E08C219D21892B51F029813A8190
:10270000A401BF016A0D7B1D8B819C810E94080B77
:102710002E853F852F5F3F4F3F872E872E153F0524
:1027200029F70F5F1F4F0215130551F13D81332328
:10273000C1F3202F2695269526954E815F81249FF3
:10274000C001259F900D1124202F2770620102C027
:10275000CC0CDD1C2A95E2F7F301E80FF91FE884A1
:10276000F984E80EF91EE60CF71C8A849B84800E1F
:10277000911EAC84BD84A81AB90AFF87EE87B6CF34
:102780002F960FB6F894DEBF0FBECDBFDF91CF916D
:102790001F910F91FF90EF90DF90CF90BF90AF907F
:1027A0009F908F907F906F905F904F903F902F9071
:1027B0000895CF92EF920F93E62FF0E0EE0FFF1FF8
:1027C000E95EFE4F208131816CE2469F602D11242D
:1027D000CC24C3946894EE24E6F808E240E00E941A
:1027E0002D130F91EF90CF900895EF92FF920F93DA
:1027F0001F93CF93DF937C01EB010E94E50BC93E51
:1028000083E0D80700F19E013695279536952795E8
:1028100036952795A5ECB0E20E94F2169295829526
:102820008F7089279F70892748EE53E0849F90011D
:10283000859F300D949F300D1124CE01821B930B88
:10284000EC01C851DC4F9E013695279536952795AA
:10285000ABE7B4E10E94F2168C01169507950115BD
:10286000110529F040E0602FC7010E94D913C8016B
:10287000880F991F000F111F000F111F000F111F4C
:10288000080F191F9E01ADECBCEC0E94F216969544
:1028900087959695879596958795BC01601B710BDA
:1028A00019F4C436D10520F041E0C7010E94D913C4
:1028B0009E01ADECBCEC0E94F2169695879596951C
:1028C0008795969587959C01220F331F880F991F36
:1028D000880F991F880F991F820F931FBE01681BD5
:1028E000790B42E0C7010E94D913DF91CF911F916C
:1028F0000F91FF90EF900895CF92DF92EF92FF92A9
:102900000F931F93CF93DF936C01EB010E94E50BB4
:10291000DD230CF04EC0D195C195D109EE24E3948E
:10292000F12C06E010E026E130E04EE150E06AE0F4
:1029300070E0C6010E94A20BC436D1052CF040E025
:102940006BE0C6010E94D913CE016AE070E00E94DC
:10295000B916AB019B01ADECBCEC0E94F21696954A
:10296000879596958795969587959C01220F331F9D
:10297000880F991F880F991F880F991F820F931F27
:102980009A01281B390BC901009719F4CA30D105E7
:102990002CF041E0682FC6010E94D913CE016AE0F5
:1029A00070E00E94B91642E0682FC6010E94D91358
:1029B00004C0BE01C6010E94F513DF91CF911F91A3
:1029C0000F91FF90EF90DF90CF900895289827E027
:1029D00030E090E02D98AC01022E02C0559547954D
:1029E0000A94E2F740FF02C02B9A01C02B982D9A5F
:1029F0002150310978F70895239A259A209A219A2F
:102A0000229A2A9829982FEF89E698E12150804050
:102A10009040E1F700C00000299A82EA0E94E61483
:102A200080EA0E94E61480EC0E94E61480E40E9492
:102A3000E6148CE20E94E6142FEF80E792E021502A
:102A400080409040E1F700C000008EE20E94E61452
:102A50002FEF80E792E0215080409040E1F700C0E6
:102A600000008FE20E94E6148FE39CE90197F1F7E2
:102A700000C0000086E20E94E6140895289A27E02C
:102A800030E090E02D98AC01022E02C0559547959C
:102A90000A94E2F740FF02C02B9A01C02B982D9AAE
:102AA0002150310978F708951F93CF93DF9310E0F9
:102AB000D0E0812F806B0E94E614CD2F8C2F8F7079
:102AC0000E94E6148C2F82958F7080610E94E6141C
:102AD0008D2F0E943E15CF5FC13881F71F5F1830E0
:102AE00041F7DF91CF911F910895CF93C82F81E8CF
:102AF0000E94E6148C2F8F730E94E614CF910895E4
:102B0000CF92DF92EF92FF920F931F93CF93DF93B9
:102B10000F2EFFE3EF2EF5E0FF2EF02DEC010F2E30
:102B2000FFE4CF2EF5E0DF2EF02DF7018081F2E0FB
:102B3000EF0EF11C806B0E94E61480E00E94E61408
:102B400080E10E94E61480EE0E94E6148E01005897
:102B50001F4F89910E943E15C017D107D1F7E80198
:102B6000EC14FD0411F7DF91CF911F910F91FF90AD
:102B7000EF90DF90CF900895880F8093BA00ECEB30
:102B8000F0E080818F7D80838081856480838FEFFA
:102B90008093C106789408951F920F920FB60F92FA
:102BA00011248F939F93EF93FF938091B900887FB7
:102BB000803881F018F4803631F05DC0883AB9F180
:102BC000883BA9F158C085EC8093BC008FEF8093BF
:102BD000C10654C08091BB009091C1069F3F59F43B
:102BE000853118F48093C10602C01092C10685ECAD
:102BF0008093BC0043C0E091C106F0E0EE0FFF1FE0
:102C0000E651F94F0190F081E02D80838091C1065B
:102C10008F5F8093C1068091C106833120F485ECDB
:102C20008093BC002BC085E88093BC0027C08091B6
:102C3000C1068F3F11F41092C106E091C106F0E089
:102C4000EE0FFF1FEE53F94F0190F081E02D8081D0
:102C50008093BB008091C1068F5F8093C1068091F5
:102C6000C106833120F485EC8093BC0007C085E861
:102C70008093BC0003C085EC8093BC00FF91EF9172
:102C80009F918F910F900FBE0F901F90189586E126
:102C900097E0909315078093140790931307809300
:102CA00012071092C50089E18093C400E2ECF0E0C5
:102CB00080818660808388E98093C10008951F9297
:102CC0000F920FB60F9211242F938F939F93EF9330
:102CD000FF93E0911207F09113078091C600808363
:102CE0008091120790911307019627E0883492078C
:102CF00029F0909313078093120706C086E197E0AE
:102D00009093130780931207FF91EF919F918F91FA
:102D10002F910F900FBE0F901F901895E0ECF0E0F0
:102D2000908195FFFDCF8093C6000895CF93DF93E8
:102D3000EC018881882331F021960E948E168991BA
:102D40008111FBCFDF91CF910895AA1BBB1B51E1ED
:102D500007C0AA1FBB1FA617B70710F0A61BB70B0B
:102D6000881F991F5A95A9F780959095BC01CD01B0
:102D7000089597FB072E16F4009407D077FD09D02D
:102D80000E94A51607FC05D03EF4909581959F4FB3
:102D90000895709561957F4F0895052E97FB1EF459
:102DA00000940E94E41657FD07D00E94011707FC0B
:102DB00003D04EF40C94E41650954095309521952F
:102DC0003F4F4F4F5F4F0895909580957095619557
:102DD0007F4F8F4F9F4F0895EE0FFF1F0590F49187
:102DE000E02D0994A29FB001B39FC001A39F700D75
:102DF000811D1124911DB29F700D811D1124911D03
:102E00000895A1E21A2EAA1BBB1BFD010DC0AA1F2B
:102E1000BB1FEE1FFF1FA217B307E407F50720F043
:102E2000A21BB30BE40BF50B661F771F881F991FBE
:102E30001A9469F760957095809590959B01AC0107
:102E4000BD01CF010895CF93DF938230910510F437
:102E500082E090E0E0914A07F0914B0720E030E0FB
:102E6000C0E0D0E0309711F14081518148175907F7
:102E7000C0F04817590761F482819381209719F0B7
:102E80009B838A832BC090934B0780934A0726C06D
:102E90002115310519F04217530718F49A01BE01A4
:102EA000DF01EF010280F381E02DDCCF2115310538
:102EB00009F1281B390B2430310590F412968D91BD
:102EC0009C9113976115710521F0FB019383828317
:102ED00004C090934B0780934A07FD01329644C08B
:102EE000FD01E20FF31F81939193225031092D933D
:102EF0003C933AC02091480730914907232B41F475
:102F00002091020130910301309349072093480733
:102F100020910001309101012115310541F42DB7B7
:102F20003EB74091040150910501241B350BE091FF
:102F30004807F0914907E217F307A0F42E1B3F0B57
:102F40002817390778F0AC014E5F5F4F241735071B
:102F500048F04E0F5F1F50934907409348078193F5
:102F6000919302C0E0E0F0E0CF01DF91CF910895AE
:102F70000F931F93CF93DF93009709F48CC0FC014C
:102F800032971382128200914A0710914B07011564
:102F9000110581F420813181820F931F2091480710
:102FA000309149072817390779F5F0934907E093DD
:102FB000480771C0D80140E050E0AE17BF0750F499
:102FC00012962D913C911397AD012115310509F110
:102FD000D901F3CF9D01DA013383228360817181AE
:102FE000860F971F8217930769F4EC0128813981B6
:102FF000260F371F2E5F3F4F318320838A819B81AD
:1030000093838283452B29F4F0934B07E0934A077F
:1030100042C01396FC93EE931297ED01499159919A
:103020009E01240F351FE217F30771F4808191810F
:10303000840F951F029611969C938E9382819381A3
:1030400013969C938E931297E0E0F0E0D8011296CD
:103050008D919C911397009719F0F8018C01F6CF90
:103060008D919C9198012E5F3F4F820F931F20916D
:103070004807309149072817390769F4309729F430
:1030800010924B0710924A0702C0138212821093CB
:10309000490700934807DF91CF911F910F91089541
:1030A000A0E0B0E0E6E5F8E10C94151BAE014B5F43
:1030B0005F4FFA0161917191AF0180914E0790913C
:1030C0004F070E946D18E2E00C94311B60914E078F
:1030D00070914F070E94551A0895ACE0B0E0E3E705
:1030E000F8E10C94051B7C016B018A01FC0117823D
:1030F0001682838181FFBDC1CE0101964C01F7018B
:103100009381F60193FD859193FF81916F0188234F
:1031100009F4ABC1853239F493FD859193FF819118
:103120006F01853229F4B70190E00E94551AE7CF6C
:10313000512C312C20E02032A0F48B3269F030F495
:10314000803259F0833269F420612CC08D3239F01D
:10315000803339F4216026C02260246023C02860B7
:1031600021C027FD27C030ED380F3A3078F426FF14
:1031700006C0FAE05F9E300D1124532E13C08AE082
:10318000389E300D1124332E20620CC08E3221F473
:1031900026FD6BC1206406C08C3611F4206802C085
:1031A000883641F4F60193FD859193FF81916F017B
:1031B0008111C1CF982F9F7D9554933028F40C5FD7
:1031C0001F4FFFE3F9830DC0833631F0833771F071
:1031D000833509F05BC022C0F801808189830E5FCE
:1031E0001F4F44244394512C540115C03801F2E080
:1031F0006F0E711CF801A080B18026FF03C0652D01
:1032000070E002C06FEF7FEFC5012C870E944A1A61
:103210002C0183012C852F77222E17C03801F2E074
:103220006F0E711CF801A080B18026FF03C0652DD0
:1032300070E002C06FEF7FEFC5012C870E943F1A3C
:103240002C012C852068222E830123FC1BC0832D9A
:1032500090E048165906B0F4B70180E290E00E9471
:10326000551A3A94F4CFF50127FC859127FE8191F8
:103270005F01B70190E00E94551A31103A94F1E0D5
:103280004F1A51084114510471F7E5C0843611F00A
:10329000893639F5F80127FF07C060817181828185
:1032A00093810C5F1F4F08C060817181072E000C55
:1032B000880B990B0E5F1F4F2F76722E97FF09C058
:1032C00090958095709561957F4F8F4F9F4F2068A7
:1032D000722E2AE030E0A4010E948D1AA82EA818B0
:1032E00044C0853729F42F7EB22E2AE030E025C075
:1032F000F22FF97FBF2E8F36C1F018F4883579F0A0
:10330000B4C0803719F0883721F0AFC02F2F20616B
:10331000B22EB4FE0DC08B2D8460B82E09C024FFE0
:103320000AC09F2F9660B92E06C028E030E005C085
:1033300020E130E002C020E132E0F801B7FE07C032
:1033400060817181828193810C5F1F4F06C0608113
:10335000718180E090E00E5F1F4FA4010E948D1AE2
:10336000A82EA818FB2DFF777F2E76FE0BC0372DD9
:103370003E7FA51450F474FE0AC072FC08C0372DBD
:103380003E7E05C0BA2C372D03C0BA2C01C0B52C27
:1033900034FF0DC0FE01EA0DF11D8081803311F470
:1033A000397E09C032FF06C0B394B39404C0832FA2
:1033B000867809F0B39433FD13C030FF06C05A2C51
:1033C000B31418F4530C5B18B32CB31468F4B7019E
:1033D00080E290E03C870E94551AB3943C85F5CF7B
:1033E000B31410F43B1801C0312C34FF12C0B701E4
:1033F00080E390E03C870E94551A3C8532FF17C05D
:1034000031FD03C088E790E002C088E590E0B70195
:103410000CC0832F867859F031FF02C08BE201C0C7
:1034200080E237FD8DE2B70190E00E94551AA514A5
:1034300038F4B70180E390E00E94551A5A94F7CF10
:10344000AA94F401EA0DF11D8081B70190E00E9479
:10345000551AA110F5CF332009F451CEB70180E2FF
:1034600090E00E94551A3A94F6CFF7018681978131
:1034700002C08FEF9FEF2C96E2E10C94211BFC0120
:103480000590615070400110D8F7809590958E0F8F
:103490009F1F0895FC016150704001900110D8F702
:1034A000809590958E0F9F1F08950F931F93CF9334
:1034B000DF93FB01238121FD03C08FEF9FEF28C025
:1034C00022FF16C046815781248135814217530758
:1034D00044F4A081B1819D012F5F3F4F3183208350
:1034E0008C93268137812F5F3F4F3783268310C00F
:1034F000EB01092F182F0084F185E02D0995892B08
:10350000E1F68E819F8101969F838E83812F902F7C
:10351000DF91CF911F910F910895FA01AA272830CA
:1035200051F1203181F1E8946F936E7F6E5F7F4F90
:103530008F4F9F4FAF4FB1E03ED0B4E03CD0670F0C
:10354000781F891F9A1FA11D680F791F8A1F911D5F
:10355000A11D6A0F711D811D911DA11D20D009F4AF
:1035600068943F912AE0269F11243019305D3193F1
:10357000DEF6CF010895462F4770405D4193B3E0DA
:103580000FD0C9F7F6CF462F4F70405D4A3318F081
:10359000495D31FD4052419302D0A9F7EACFB4E032
:1035A000A6959795879577956795BA95C9F70097EA
:1035B0006105710508959B01AC010A2E069457958B
:1035C000479537952795BA95C9F7620F731F841FE2
:1035D000951FA01D0895F999FECF92BD81BDF89A5F
:1035E000992780B50895262FF999FECF92BD81BD08
:1035F000F89A019700B4021639F01FBA20BD0FB631
:10360000F894FA9AF99A0FBE08952F923F924F922A
:103610005F926F927F928F929F92AF92BF92CF9262
:10362000DF92EF92FF920F931F93CF93DF93CDB76B
:10363000DEB7CA1BDB0B0FB6F894DEBF0FBECDBFE3
:1036400009942A88398848885F846E847D848C84B4
:103650009B84AA84B984C884DF80EE80FD800C81BD
:103660001B81AA81B981CE0FD11D0FB6F894DEBFA0
:0C3670000FBECDBFED010895F894FFCF10
:10367C0000005207200000000002000000008F0B29
:10368C000000000008010153131312D310930F53C1
:10369C000E130DD30B930A53091308D306D306D379
:1036AC0006D306D306D306D306D306D306D3060019
:1036BC0000000000000000000000000000000000FE
:1036CC0000000000000000000000000000000000EE
:1036DC0000000000000000000000000000000000DE
:1036EC0000000000000000000000000000000000CE
:1036FC0000000000000000000000000000000000BE
:10370C0000000000000000000000000000000000AD
:10371C00000000000000000000000000000000009D
:10372C00000000000000000000000000000000008D
:10373C00000000000000000000000000000000007D
:10374C00000003070F1F1F3F3F3F3F070000000013
:10375C00000000000000000000000000000000005D
:10376C00000000000000000000000000000000004D
:10377C00007F3F000000000000000000000000007F
:10378C00001F3F70700000000000000000000000EF
:10379C00000000000000000006060000000303000B
:1037AC000000000000000000000000000000001FEE
:1037BC001F1F1F1F1F1F1F1F1F1F1F1F0F07070765
:1037CC003FFFFFFFFFFFFEFFFFFFFFFF3E0000007C
:1037DC00000000000000000000000000000F3F701F
:1037EC0060606060307F3F00001F3F706060606011
:1037FC0039FFFF00061F3960606060303F7F0000BA
:10380C0060FFFF6060007F7F70606040007F7F0022
:10381C000000007F7F0000007F7F000060FFFF60E2
:10382C0060000000000000000000000000000080AC
:10383C00F8FCFEFEFFFFFFFFFFFFFFEFE7E7E3F300
:10384C00F9FFFFFFF7071FFFFFFFFFFFFF7FFF7F62
:10385C007F7F7F7F7F3F3F1F0F0703000000C0E08B
:10386C0060202060E0E0E0000080C0E0602060604C
:10387C00E0E0E0000080C06060206060E0E00000FC
:10388C0000E0E0000000E0E0000000000080E060EC
:10389C00606060E080000000E0E0000000E0E0001C
:1038AC00000000000000000000000000000000000C
:1038BC00000003071F9FFFFFFFFFFFFFFDF1E3E386
:1038CC00CFFFFFFFFFF0FC7F3F3F3F3F7FFFFFFF3E
:1038DC00FFFFFFFFFFFFFEFCF0E0800000000C1C70
:1038EC0000000000000000000000000000000000CC
:1038FC0000000000007F7F000000000000000000BE
:10390C00000000000000000000000000070700009D
:10391C0000000000000000001C0C00000000000073
:10392C00000000000000000000000000000000008B
:10393C0007FFFFFFFFFFFFFFFFFEFEFEFEFCF8F898
:10394C00F0FEFFFFFF7F3FFFFFFFFFFFFFFF1F00AA
:10395C000000000000000000000000000000FFFF5D
:10396C00000000FFFFE0C0C0C0FF7F00001E7FE131
:10397C00C0C0C0C061FFFF0000FEFF01000000FFDF
:10398C00FF000021F9F8DCCCCF0700C0FFFFC0809E
:10399C0000FFFFC0C0800000FFFF00001F7FF9C8C0
:1039AC00C8C8C87939000071F9D8CCCE47030000DB
:1039BC0000000080800000000000000000000000FB
:1039CC00000080C0E0F0F8F8FCFCFCFCF8F0C00053
:1039DC000000000000000000000000000000C0C05B
:1039EC00000000C0C000000000C0C000000080C08B
:1039FC00C0C0C0C080C0C000000080C0C0C0C0C07B
:103A0C0080000080C0C0C0C0C0000000C0C000006A
:103A1C0000C0800000000000C0C000000080C0C0DA
:103A2C00C0C0C08080000080C0C0C0C0800000004A
:103A3C00000000000000000000000000000000007A
:103A4C00000000000000000000000000000000006A
:103A5C00000000000000000000000000000000005A
:103A6C00000000000000000000000000000000004A
:103A7C00000000000000000000000000000000003A
:103A8C00000000000000000000000000000000002A
:103A9C00000000000000000000000000000000001A
:103AAC000000000000000000000000000000000703
:103ABC0000060005000400030002000100000025C0
:103ACC007300203E3E002534750025346900747265
:103ADC0075650066616C736500677265656E006F75
:103AEC0072616E67650025367500253669006C6954
:103AFC006E653A2025690055500A00444F574E0A0E
:103B0C00004C4546540A0052494748540A004F4B52
:103B1C000A0053544152540A005354415254202029
:103B2C002000657869740053617665004578697486
:103B3C00005465616D2D636F6C6F72004261636B35
:103B4C006C69676874005465737420436F756E7488
:103B5C00657200546573742050756E6B74650054F7
:103B6C0065737420456469745331360054657374FD
:103B7C00204564697455313600546573742045646E
:103B8C00697420533800546573742045646974203B
:103B9C005538005374617274004261636B00536555
:103BAC006B756E64656E004D696E7574656E005351
:103BBC0074756E64656E005A656974004368303ABA
:103BCC005363616C65004368303A5669657700430E
:103BDC0068616E6E656C20300043616C6962726165
:103BEC0074652048690043616C6962726174652078
:0C3BFC004C6F0053657474696E677300B1
:00000001FF
