:020000040800F2
:10000000680500203946000801450008034500083E
:1000100000000000000000000000000000000000E0
:10002000000000000000000000000000074500087C
:100030000000000000000000094500080B45000812
:10004000FB1C00086B1D0008D3300008A337000814
:10005000DF370008E3370008EF43000813450008C6
:10006000074600081346000861460008634600087A
:100070006546000867460008000000001F450008AC
:1000800000000000694600080000000000000000B9
:100090003345000800000000294500086B460008B1
:1000A0006D4600086F460008714600087346000858
:1000B0007546000877460008794600087B46000828
:1000C000C84908607047C8490860704710B5040007
:1000D000A8212000C0B200F0C3FE10BD10B504007E
:1000E000B8212000C0B200F0BBFE10BDF1B582B057
:1000F0000C0000266846BD4909786A46127A891ABA
:10010000491E017000270020B9490870FFB2002F76
:1001100003D001F07DFB0020070000200500B3485C
:10012000007885421CD20020B24948550020B149D0
:100130004919C8700020AF49491988710020AD499C
:10014000491948720020CD494919C8700020CB498F
:10015000491988710020C949491948726D1CDEE7A8
:100160002000401E07D0401E0FD0401E03D015387F
:1001700001280AD914E02100202008439D496A463D
:10018000127888540320060014E021002020084340
:1001900098496A4612788918C8700220060009E05A
:1001A00021002020084393496A46127889188871F3
:1001B0000120060001F02AFB012007008C4800788E
:1001C0000028A0D10320F6B2801B0500042D0BD21D
:1001D000AA48032169434118864803226A438018CC
:1001E00001F0EBFA6D1CF1E7A44869460978401864
:1001F000C0780004A1496A461278891889790902F1
:1002000001439E486A4612788018407A084301905C
:1002100001F0FEFA0198FEBDF8B5060073480078BB
:10022000801B471E0025002071490870EDB2002D8B
:1002300003D001F0EDFA00200500002004006B4817
:100240000078844214D200206A4908550020694988
:100250000919C87000206749091988710020874969
:100260000919C8700020854909198871641CE6E7DE
:10027000D0206049FFB2C85501F0C8FA012005003E
:100280005B4800780028CED100200400032C0BD25C
:100290007A4803216143411856480322624380187B
:1002A00001F08BFA641CF1E77448FFB2C019C07802
:1002B00000027249FFB2C91989790843694608806A
:1002C00001F0A6FA68460088F2BD10B504000021CE
:1002D0002000C0B200F0C4FD10BDF5B581B00E0025
:1002E00000274248007869460979401A451E0020D7
:1002F0006946087000203E4908706846007800286A
:1003000004D001F085FA002069460870002004003E
:1003100036480078844210D2002036490855002023
:1003200034490919C8700020324909198871002020
:10033000304909194872641CEAE73000012806D0E8
:10034000022817D0032802D0182813D020E030004C
:100350002849EDB248550298000C2649EDB24919DA
:10036000C8700298000A2349EDB249198871032028
:10037000070014E030001F49EDB24919C870029817
:10038000000A1C49EDB2491988710220070006E0F5
:1003900030001849EDB24919887101200700029810
:1003A0001449EDB24919487201F030FA012069464A
:1003B00008700F48007800289CD10320FFB2C01BB2
:1003C0000400042C0BD22D48032161434118094835
:1003D00003226243801801F0F0F9641CF1E701F098
:1003E00017FAF7BDFC060020F80600200E070020D3
:1003F0000F070020E006002010B50400B048008878
:10040000C0B201F007FA01F07DFB002803D0802084
:10041000000200F002FDAA480088C0B201F0E2FA32
:10042000A7480088C0B201F036FB012001F0E8F9CE
:10043000002C05D1A2480088C0B200F0B5FD05E04F
:1004400021009F480088C0B200F03EFD9C48008813
:10045000C0B2FFF73BFE9A480088C0B2FFF7DCFE4F
:1004600097480088401C9649088010BDC349C0B217
:10047000282250430818008B70470000EC0600202B
:10048000F8B506000D0029003000C0B2FFF72EFEBF
:1004900004002800401E09D0801E07D0801F0CD009
:1004A000801F012815D9001F0DD018E0200000F092
:1004B000A5FC01F093FB070015E02000C0B201F09D
:1004C000E7FB07000FE02000C0B201F0EDFB0700E2
:1004D00009E02000C0B201F0F3FB070003E02000B8
:1004E00001F088FB07003800F2BDA449C0B2282201
:1004F00050430818008C7047A049C0B228225043CE
:100500000818408B70479D49C0B2282250430818F4
:100510002421405C70479949C0B2282250430818F2
:100520002321405C7047D1487047D148704710B5CF
:10053000040003212000C0B2FFF7D8FD00F05EFCEC
:1005400010BD8E49C0B2282250430818808B7047D6
:100550008A49C0B2282250430818C08B7047D74838
:100560000078704710B5040001212000C0B2FFF7E9
:10057000BDFD00F043FC10BD70B504001621200045
:10058000C0B2FFF7B3FD4007400F082101430E0042
:10059000F6B2082E07D015D30A2E0AD006D30C2E99
:1005A0000DD009D30EE0002005000DE0012005006C
:1005B0000AE00220050007E00320050004E0042013
:1005C000050001E0FE2005002800C0B270BD6B49A7
:1005D000C0B22822504308182521405C704710B54E
:1005E000040000212000C0B200F011F810BD38B5A1
:1005F000040003212000C0B2FFF778FD00F0FEFBED
:10060000050029002000C0B200F001F831BDF8B5A6
:1006100004000D005948E4B2282161434018242108
:10062000405C082803D02000C0B200F04BF8012144
:100630002000C0B2FFF75AFD00F0E0FB4F49E4B2E2
:1006400028226243891848604C48E4B2282161435B
:1006500040184068281A0600002E08D44748E4B223
:1006600028216143401846610120070008E07042DC
:100670004249E4B2282262438918486100200700F9
:10068000002E1BD001203D49E4B228226243891884
:10069000222288543900C9B22000C0B200F038FAD2
:1006A0003648E4B228216143401841692000C0B2B5
:1006B00000F02CFB2000C0B200F032FEF1BD0000C3
:1006C0000807002010B504002C48E4B2282161433B
:1006D00040182521405C002822D12000C0B201F042
:1006E000C1F908202549E4B228226243891824224E
:1006F000885403202149E4B2282262438918222227
:1007000088549B481D49E4B22822624389184861F5
:1007100000201A49E4B2282262438918088403E0C1
:100720002000C0B200F001F810BD10B50400200098
:10073000C0B201F097F92000C0B2FFF7C7FC082053
:100740000E49E4B2282262438918242288540320E7
:100750000A49E4B228226243891822228854844834
:100760000649E4B2282262438918486100200349FF
:10077000E4B2282262438918088410BD680500206D
:1007800070B504000D0016007A48E4B228216143D8
:1007900040182421405C082803D02000C0B2FFF795
:1007A00091FF002E29D07348E4B2282161434018FC
:1007B000466101206F49E4B228226243891822224F
:1007C000885401212000C0B2FFF790FC00F016FB16
:1007D0006849E4B228226243891848602900C9B2F6
:1007E0002000C0B200F094F931002000C0B200F047
:1007F0008DFA2000C0B200F093FD70BDC3480088A0
:10080000704710B5040019212000C0B2FFF76EFC3C
:1008100080B210BD10B504002000C0B201F03BF959
:1008200010BD10B504002000C0B201F03EF910BDAB
:1008300010B500200400200020490978C0B2884289
:1008400013D22000C0B2FFF770FF2000C0B2FFF744
:10085000E8FF012000F0D4FF2000C0B201F01BF936
:10086000012000F0CDFF641CE5E710BD0009010088
:100870000000002038B505000C003E48EDB22821EC
:10088000694340182421405C082803D02800C0B2E6
:10089000FFF718FF2100C9B22800C0B200F038F9F4
:1008A00000203449EDB228226A4389182222885454
:1008B0002800C0B200F034FD31BD00000E0700205A
:1008C000F8B504000D00EDB2002D05D0022D09D0C1
:1008D00005D3032D09D00BE0082006000AE009200B
:1008E000060007E00A20060004E00B20060001E0F5
:1008F0000C2006002000C0B2FFF717FF16212000D1
:10090000C0B2FFF7F3FBF82101400F00FFB2F6B2CF
:1009100032003A4316212000C0B2FFF7DEFC20006F
:10092000C0B200F00FF90120F2BD10B502000020A6
:1009300089B2002919D00F4BD2B2282454431B1975
:1009400024241B5D082B08D00A4BD2B22824544320
:100950001B1922241B5D002B07D1064BD2B2282481
:1009600054431B19198301231800C0B210BD0000A5
:10097000FFFFFF7F68050020FEB507000E00140092
:1009800001252000002101F0A5F906D2012E04D096
:10099000032E02D00020050092E03000401E34D02B
:1009A000401E09D0401E30D0801F57D0801F012824
:1009B0006ED9001F5FD078E02000002101F09EF981
:1009C0001CD02000B24901F0A9F914D901200190EE
:1009D0000720009016210020FFF788FB4107490FF0
:1009E0000098411A0198884001F0F8F801002000B1
:1009F00001F070F902D20020050005E0200001F0AE
:100A0000A1F9C005C00D029051E02000CA210906DD
:100A100001F084F91FD820009E4901F05BF91AD239
:100A20002000002101F07AF906D8200001F08AF9AF
:100A30008002800A029010E08020C0030090200015
:100A400080210906484001F07DF98102890A009859
:100A5000401A029001E00020050028E02000A8498B
:100A600001F05CF902D80020050003E0200001F04D
:100A70007DF902901BE02000A24901F04FF902D855
:100A80000020050003E0200001F084F902900EE050
:100A900020009D4901F042F902D80020050003E042
:100AA000200001F08BF9029001E000200500EDB27A
:100AB000002D05D0029A31003800C0B2FFF70DFCBE
:100AC0002800C0B2FEBD10B50200002089B2002986
:100AD00019D0C94BD2B2282454431B1924241B5DBE
:100AE000082B08D0C44BD2B2282454431B1922240B
:100AF0001B5D002B07D1C04BD2B2282454431B19D5
:100B0000598301231800C0B210BD0000080700205F
:100B100038B505000C00B848EDB2282169434018EB
:100B20002421405C08280CD1B348EDB22821694348
:100B30004018232144542100C9B22800C0B200F05B
:100B4000BEFF31BD10B50400002201212000C0B25B
:100B5000FFF7C3FB10BD00B50100C9B2042906DAD6
:100B60000020BC4A1080BC480170012000E0002039
:100B700000BD38B5040001212000C0B2FFF7B6FA6D
:100B800005002A0003212000C0B2FFF7A6FB31BDFB
:100B900030B50200002089B2022927DB89B2AF4BB1
:100BA000994223DA0B00944CD2B22825554364199C
:100BB000E48B9BB2A34219D38F4BD2B22824544367
:100BC0001B1924241B5D082B08D08B4BD2B2282480
:100BD00054431B1922241B5D002B07D1864BD2B234
:100BE000282454431B19998301231800C0B230BD37
:100BF00010B50200002089B2022927DB89B2974B89
:100C0000994223DA7C4BD2B2282454431B199B8B84
:100C10000C00A4B2A34219D3774BD2B22824544378
:100C20001B1924241B5D082B08D0734BD2B2282437
:100C300054431B1922241B5D002B07D16E4BD2B2EB
:100C4000282454431B19D98301231800C0B210BDB6
:100C5000694AC0B228234343D2182523D154704790
:100C600010B501000020644AC9B228234B43D218B2
:100C70002423D25C082A09D002225F4BC9B228245F
:100C80004C431B1922241A5501221000C0B210BD7A
:100C90000180FF43F9FFFF4910B504002000C0B2F6
:100CA000FFF731FC0828F9D110BD38B505000C005C
:100CB000A4B2022C01DA02200400A4B267488442E4
:100CC00001DBB84804004C48EDB2282169434018C4
:100CD0000484EDB2002D03D0022D0BD005D30EE01D
:100CE000200080B200F02AFE09E0200080B200F06F
:100CF00041FE04E0200080B200F058FEFFE731BD65
:100D000001007A450180BB4501008042FEB5040028
:100D10000D0068463849E4B2282262438918C98B1D
:100D200081803548E4B2282161434018808B6946B0
:100D30008988401A06003048E4B2282161434018EF
:100D4000808B6946898840184643370030002A491D
:100D5000E4B2282262438918098B01F059F8060091
:100D6000760838002449E4B2282262438918498B66
:100D700001F04EF807007F08F01985422DD21E4879
:100D8000E4B2282161434018408B00901A48E4B235
:100D9000282161434018008B029000986843029913
:100DA000009A891801F034F80700022F06D3781E44
:100DB0000600002E04D10120060001E000200600FC
:100DC0000D48E4B228216143401886600A48E4B225
:100DD00028216143401807610DE00748E4B228214B
:100DE000614340188660E81B401E0349E4B2282294
:100DF000624389180861F7BD6805002000B502004C
:100E0000910208D5D1430A00521C9102890A0800B8
:100E10004142080000E0100000BD10B504009948F0
:100E20000068002805D0200080B2964909688847EC
:100E300000E0FEE710BD80B593480068002808D0A8
:100E400001209249087090480068804700208F492F
:100E5000087001BD080700200E07002011270000C0
:100E6000F8B507000E00684689490978C91B491E74
:100E700001700025002087490870EDB2002D03D0D5
:100E800000F0C6FC00200500002004008048007827
:100E9000844205D20020804909194872641CF5E794
:100EA0007D48694609784018467200F0AFFC012081
:100EB0000500784800780028DCD17849784800F0AF
:100EC0007CFC00F0A5FCF1BD38B505000C002088C5
:100ED0007449EDB228226A438918088360887149F1
:100EE000EDB228226A4389184883A0886D49EDB283
:100EF00028226A4389188883E0886A49EDB228224B
:100F00006A438918C88300206649EDB228226A43E3
:100F1000885000206349EDB228226A43891848604E
:100F200000206049EDB228226A43891888600020B9
:100F30005C49EDB228226A438918C86000205949EB
:100F4000EDB228226A438918086100205549EDB2A4
:100F500028226A438918486100205249EDB22822AC
:100F60006A438918088403204E49EDB228226A4357
:100F700089182222885401204A49EDB228226A4366
:100F800089182322885408204649EDB228226A4352
:100F900089182422885421002800C0B200F084F867
:100FA00031BD00001027000010B50400A0203D490D
:100FB000E4B22822624389180883A0203949E4B2A8
:100FC0002822624389184883C820C0003549E4B20A
:100FD0002822624389188883C82080003149E4B2FE
:100FE000282262438918C88300202E49E4B22822AF
:100FF0006243885000202B49E4B2282262438918BA
:10100000486000202749E4B228226243891888609A
:1010100000202449E4B2282262438918C8600020D5
:101020002049E4B2282262438918086100201D4942
:10103000E4B2282262438918486100201949E4B2C9
:10104000282262438918088403201649E4B2282222
:10105000624389182222885401201249E4B22822CE
:10106000624389182322885408200E49E4B22822BA
:1010700062438918242288542000C0B200F06BF823
:1010800010BD0000FC060020F8060020100700201C
:101090000E0700200F070020E0060020F5060020C4
:1010A000E90600206805002038B505000C00002284
:1010B00001212800C0B2FFF710F900220221280008
:1010C000C0B2FFF70AF9002203212800C0B2FFF7DF
:1010D00004F9A26809212800C0B2FFF74DFC607D29
:1010E000227D02430E212800C0B2FFF7F6F8A26964
:1010F0000F212800C0B2FFF73FFCE2691021280051
:10110000C0B2FFF739FCE26813212800C0B2FFF734
:1011100033FCA07CE27C024316212800C0B2FFF71A
:10112000DCF8A26A17212800C0B2FFF7D6F8242005
:10113000205C617C0143227C0A432220205E80B235
:1011400002432020205E80B2024318212800C0B252
:10115000FFF7C3F831BD10B50400002201212000C3
:10116000C0B2FFF7BAF8002202212000C0B2FFF798
:10117000B4F8002203212000C0B2FFF7AEF8E4B2B9
:10118000002C04D0022C00D187E043D3C7E0804874
:1011900000F0ECFDC0B2020009212000C0B2FFF750
:1011A0009CF835220E212000C0B2FFF796F879484E
:1011B00000F004FE0200D2B20F212000C0B2FFF7FF
:1011C0008CF8754800F0FAFDC0B202001021200032
:1011D000C0B2FFF782F8012213212000C0B2FFF74E
:1011E0007CF88C2216212000C0B2FFF776F8CF22BF
:1011F00017212000C0B2FFF770F8B2229201182127
:101200002000C0B2FFF769F800212000C0B2FFF74C
:101210001FFD84E05E4800F0A9FDC0B20200092174
:101220002000C0B2FFF759F835220E212000C0B2CD
:10123000FFF753F8574800F0C1FDC0B202000F217C
:101240002000C0B2FFF749F8534800F0B7FDC0B224
:10125000020010212000C0B2FFF73FF80122132145
:101260002000C0B2FFF739F88C2216212000C0B24E
:10127000FFF733F8CF2217212000C0B2FFF72DF877
:10128000B222920118212000C0B2FFF726F80021F7
:101290002000C0B2FFF7DCFC41E03D4800F066FDF5
:1012A000C0B2020009212000C0B2FFF716F83522B3
:1012B0000E212000C0B2FFF710F8364800F07EFD86
:1012C000C0B202000F212000C0B2FFF706F832487A
:1012D00000F074FDC0B2020010212000C0B2FEF781
:1012E000FCFF012213212000C0B2FEF7F6FF8C2282
:1012F00016212000C0B2FEF7F0FFCF2217212000F8
:10130000C0B2FEF7EAFFB222920118212000C0B25B
:10131000FEF7E3FF00212000C0B2FFF799FC10BDEB
:1013200010B504002000C0B2FEF7D8FE1B48E4B29E
:101330002821614340188068002808D00020174900
:10134000E4B22822624389182422885407E002204C
:101350001249E4B2282262438918242288540020CA
:101360000E49E4B228226243885000200B49E4B2BF
:10137000282262438918C8600848E4B228216143E2
:101380004018C18B2000C0B2FFF78FFC10BD0000D9
:1013900000007A43000040400000A841680500209A
:1013A000FEB504000120914908709148E4B228215B
:1013B00061434018C068401C8D49E4B22822624352
:1013C0008918C8608A48E4B2282161434018242162
:1013D000405C002806D0022800D12DE1032800D16E
:1013E000BBE0E6E18248E4B2282161434018C068CE
:1013F00001907F48E4B22821614340188068029040
:101400007B48E4B2282161434018058C7848E4B257
:10141000282161434018008B07047548E4B2282155
:10142000614340182221405C022811D07048E4B288
:101430002821614340182221405C002817D00198E0
:101440006B49E4B2282262438918096988420ED1A7
:1014500002206749E4B22822624389182422885472
:1014600000206349E4B228226243885074E02800D7
:101470005F49E4B2282262438918898B80B288428E
:101480000CD25B48E4B22821614340182221405C21
:1014900000280CD001980299884208D103205449B1
:1014A000E4B22822624389182422885454E000269A
:1014B000ADB2002D01D1012005004D48E4B2282134
:1014C0006143415800913800ADB2290000F0A0FC02
:1014D000009908184649E4B22822624388504448DB
:1014E000E4B22821614340588021490288420FD349
:1014F0003F48E4B2282161434058BB4940183C4969
:10150000E4B22822624388506D1C01200600E6E701
:10151000F6B2002E20D03648E4B2282161434018AC
:10152000808B290089B2884206D23148E4B2282152
:1015300061434018808B05002D48E4B228216143A7
:10154000401805842A48E4B2282161434018018CE0
:101550002000C0B2FFF7A9FB2BE12548E4B2282107
:1015600061434018808B2249E4B2282262438918E3
:10157000C9681F4AE4B228236343D2182223D25CED
:10158000022A23D01A4AE4B228236343D218222322
:10159000D25C002A07D0164AE4B228236343D2184B
:1015A0001269914212D2124AE4B228236343D2183C
:1015B0002223D25C002A1DD102000D4BE4B2282563
:1015C00065435B191B8C92B29A4213D20222084BDC
:1015D000E4B2282565435B1924255A550022044BA3
:1015E000E4B2282565435A5125E000BF10070020CA
:1015F000680500207D4AE4B228236343D2182223E1
:10160000D25C002A17D1794AE4B228236343D21866
:10161000128C03009BB29A420DD20022734BE4B2AB
:10162000282565435B1924255A5500226F4BE4B2E7
:10163000282565435A51BCE06C48E4B22821614337
:101640004018C06801906948E4B2282161434018FD
:10165000058C6648E4B2282161434018408B07049A
:101660006248E4B22821614340182221405C0228EC
:1016700009D15E48E4B2282161434018C08B29009B
:1016800089B2884211D25948E4B2282161434018F6
:101690002221405C00280DD001985449E4B2282250
:1016A000624389184969884204D32000C0B2FFF719
:1016B00009F87DE04D48E4B2282161434018222119
:1016C000405C002812D14948E4B228216143401807
:1016D000808B290089B2884208D303204349E4B2B1
:1016E0002822624389182422885461E03F48E4B2EA
:1016F000282161434018C08B290089B2884257D203
:101700000026ADB2002D01D1012005003748E4B21A
:1017100028216143415800913800ADB2290000F002
:1017200077FB009908183149E4B2282262438850B7
:101730002E48E4B228216143405880214902884262
:1017400012D32A48E4B22821614340582649401860
:101750002649E4B2282262438850ADB2022D00DB54
:101760006D1E01200600E3E7F6B2002E20D028000F
:101770001E49E4B2282262438918C98B80B288428C
:1017800006D21A48E4B2282161434018C08B0500F4
:101790001648E4B228216143401805841348E4B296
:1017A000282161434018018C2000C0B2FFF77DFA68
:1017B000FFE700200E490870F7BD38B504000D00A2
:1017C0000C4802782900200000F0CCF9002802D053
:1017D0000948FFF722FB06480078002802D00120C4
:1017E0000649087031BD00000000FFFF68050020B9
:1017F000100700200E070020018000000F070020C6
:1018000010B50400200000F05AFB10BD72B67047FE
:1018100062B6704710B586B00400E4B2002C5CD10B
:10182000B748006804210143B5480160B448006826
:101830000421084000900098B1480068012101434C
:10184000AF480160AE4800680100C907C90F0091A8
:101850000098AB48006802210143A9480160A848EC
:10186000006802210840009000988020C00001908C
:10187000BB480290012003900120049001A9A02000
:10188000C00500F029FB00220521072000F0B8FC6C
:10189000072000F0BFFC40200190012002900020B2
:1018A00003900120049001A9C34800F015FB012218
:1018B0004021C14800F007FC8020800001900120F9
:1018C0000290002003900120049001A9A020C005EF
:1018D00000F002FB002000F0E8F8E4B2002C03D096
:1018E000022C1DD00FD327E0802040000190012062
:1018F0000290002003900120049001A9A020C005BF
:1019000000F0EAFA18E02020019001200290002067
:1019100003900120049001A9A74800F0DDFA0BE034
:1019200010200190012002900020039001200490DB
:1019300001A9A14800F0D0FA06B010BD70B50600AC
:1019400001F058F804002000B6B28021C9007143AC
:1019500000F05EFA05006D1E98480068C562974861
:10196000C56068089549096888630421934801F0B7
:101970003AF970BD70B5060001F03CF80400200093
:10198000B6B28021C900714300F042FA05006D1E15
:101990008B480068C5628A48C5606808884909683C
:1019A00088630421864801F01EF970BD70B50600F9
:1019B00001F020F804002000B6B280210901714333
:1019C00000F026FA05006D1E7E480068C5627D485D
:1019D000C56068087B49096848630021794801F0BF
:1019E00002F970BD70B586B00500EDB2280001287F
:1019F00008D002280ED071480400734820600420EB
:101A000006000DE06E4804008020C0052060042020
:101A1000060005E06B4804006C48206000200600CA
:101A20006B4860600020A0600020E0600020206122
:101A3000200001F0A3F86020029000200390002015
:101A4000049000200590320002A9200001F0A7F9BF
:101A500000200090002001906946200001F00BFB5F
:101A600006B070BD10B50400E4B2002C03D0022C07
:101A70000BD005D30EE00421504801F09BF809E09B
:101A800004214F4801F096F804E000214D4801F090
:101A900091F8FFE710BD10B50400012280218900F4
:101AA000A020C00500F00FFB10BD10B504000022FF
:101AB00080218900A020C00500F005FB10BD38B5CD
:101AC00004000D00E4B2002C11D0022C01D007D389
:101AD00015E02A00D2B21021374800F0F4FA0EE0E7
:101AE0002A00D2B22021344800F0EDFA07E02A00A3
:101AF000D2B280214900A020C00500F0E4FA31BD37
:101B00002C10024010B53348334908602020324978
:101B1000C86100203049886001202F4948610220B7
:101B20002D49086100202C49886207202A49C86293
:101B300000202949C86000202749086280208000D1
:101B400025498861002024494862822040002249BA
:101B50004860214801F0BEFA04002000C0B210BD68
:101B600000002110F0B583B005000C001700002222
:101B70004021114800F0A7FA00200600FFB2BE4243
:101B800012D2802040010090012322002900124837
:101B900001F0EAFA6946087168460079002803D125
:101BA0006D1C641C761CE9E701224021024800F00C
:101BB0008AFA68460079FEBD00040050380600200D
:101BC00070060020A8060020001401400008014013
:101BD000FF03000000300140E00500209D210200CD
:101BE0000AD5F446524200F007F80122D20710430A
:101BF000604700009D2102000AD002D4491E9218BD
:101C0000FCD5C905100A1206524100D3012A4841E9
:101C10007047F8B401684218436859085118009198
:101C20008168DB0701D54B46C918009B9A4202D157
:101C30000C30F2BC70471378521C032403261E405C
:101C400002D11678F61C521C1D090F2D07D11578EC
:101C50000F35521C03E01778521C0F70491C761E7A
:101C6000F9D1002DE1D01678521C9B081C40032CA2
:101C700001D11478521C2302F3185C420B19AD1CDD
:101C8000D3D01C785B1C0C70491C6D1ECDD0F8E7BE
:101C900080B5C0B2401CFFF7A1FF024901F09EFCD5
:101CA00002BD00BF0000FA4180B5C0B2401CFFF782
:101CB00095FF024901F092FC02BD00BF0080BB43CA
:101CC00080B5C0B2401CFFF789FFFC21890501F0F7
:101CD00085FC02BD0CB4012212060318DA4207D8B3
:101CE0004B18DA4204D802000A43921802D2884202
:101CF0000CBC7047FCD08142FAE7FEE79446020034
:101D00000A43921808D0884206D101221206001810
:101D1000D042084600D88042624670470CB4012287
:101D200012060318DA4207D84B18DA4204D8020028
:101D30000A43921802D281420CBC7047FCD0884200
:101D40000CBC704700180ED2010E7F390BD44942EB
:101D50001F3105D4C0010122D2071043C84070478B
:101D60000020401E704700207047FEE780B50749FD
:101D700001F08CFC064901F031FCFC21890501F0E1
:101D800085FC01F00FFDC0B202BD00BF0000FAC12A
:101D90006F12033D80B5074901F078FC064901F058
:101DA0001DFCFC21890501F071FC01F0FBFCC0B2B7
:101DB00002BD00BF0080BBC30FB82E3B80B5BF2162
:101DC000090601F063FC8021C90501F007FCFC2134
:101DD000890501F05BFC01F0E5FCC0B202BDF446F0
:101DE000002804D4494200F013F8404260474042C2
:101DF000002905D45FD000F00BF84042494260470B
:101E0000494200F005F84942604703460B43E6D4D7
:101E10000022030A8B420BD203098B4219D24308DA
:101E20008B422ED2411A00D20146524110467047D1
:101E3000FF2209023FD012068B4205D3121209027B
:101E40008B4201D31212090203098B4219D300E01D
:101E5000090AC3098B4201D3CB01C01A524183093D
:101E60008B4201D38B01C01A524143098B4201D3EB
:101E70004B01C01A524103098B4201D30B01C01A16
:101E80005241C3088B4201D3CB00C01A5241830890
:101E90008B4201D38B00C01A524143088B4201D3BD
:101EA0004B00C01A5241884200D3401A5241CFD24F
:101EB00001461046704708B501F092FC08BD11B507
:101EC00081B0002401F08EFC040001F08BFC001BAB
:101ED00001998842F9D313BDF0B502000023002414
:101EE00000250868D840002800D1DDE008680126F8
:101EF0009E4006403400002C00D1D3E04868022800
:101F000002D0486812281BD1D80804267043101844
:101F1000006A05000F201E007607760F04277E4317
:101F2000B040854308691E007607760F04277E437C
:101F3000B04028430500D8080426704310180562F5
:101F40004868012808D04868022805D04868112848
:101F500002D0486812281CD19068050003201E009A
:101F600002277E43B0408543C8681E0002277E4397
:101F7000B040284305009560506805000120984056
:101F8000854348680600F606F60F9E402E4335004E
:101F900055601068050003201E0002277E43B040F4
:101FA000854308798007800F1E0002277E43B040DA
:101FB000284305001560D068050003201E00022795
:101FC0007E43B040854388681E0002277E43B040B0
:101FD00028430500D5604868C00063D54A480068BA
:101FE000012606434848066048489E0804277E4369
:101FF000805905000F201E00B607B60F04277E4348
:10200000B0408543A020C005824201D1002014E0E9
:102010003F48824201D101200FE03E48824201D177
:1020200002200AE03C48824201D1032005E03B48FF
:10203000824201D1052000E006201E00B607B60F3F
:1020400004277E43B0402843050030489E080427FB
:102050007E438551324800680500A5434868C003A7
:1020600000D525432E4805602E4800680500A5438D
:102070004868800300D525432A4805602A4800683F
:102080000500A5434868C00200D5254326480560E1
:10209000264800680500A5434868800200D525430E
:1020A000224805605B1C1CE7F0BD00B50200136907
:1020B00089B20B40002B02D00123180001E000235D
:1020C0001800C0B200BD00B5D2B2002A02D089B259
:1020D000816101E089B2816200BD426989B24A40F2
:1020E0004261704710B5040011480068A4B2204056
:1020F000002806D0A4B20E480460200080B201F08F
:1021000083FC10BD000000003410024008000140B4
:102110000004005000080050000C0050001C00504B
:102120000004014004040140080401400C04014083
:102130001404014000B540B2002805D40121C206B4
:10214000D20E91403A4A116000BDF0B540B200286D
:102150001BD4384A40B2830804246343D258FF2377
:102160008407A40F08256C43A3409A438B01DBB27C
:102170008407A40F08256C43A34013432D4A40B2A3
:10218000840804256C43135120E02B4C40B2020715
:10219000120F083A950804225543274A40B2030714
:1021A0001B0F083B9B0804267343D258FF23860766
:1021B000B60F08277E43B3409A438B01DBB28607F4
:1021C000B60F08277E43B34013436351F0BD10B5EB
:1021D0000400601E80214904884201D301200EE0E2
:1021E000601E1649086003210020C043FFF7ADFFC1
:1021F000002013490860072012490860002010BD24
:1022000070B504000D0016002900200040B2FFF751
:102210009CFF70BD10B50400200040B2FFF78AFF9C
:1022200010BD10B504002000FFF7D1FF10BD000065
:1022300000E100E000E400E01CED00E014E000E05C
:1022400018E000E010E000E070B582B00400002566
:102250002078C0076BD5B44800680C2101400829DC
:1022600009D0B14800680C2101400C290CD1AE48BE
:102270000068C00308D5AD480068800357D5606882
:10228000002854D10120BDE26068802149028842C3
:1022900007D1A6480068802149020143A348016094
:1022A00026E06068A021C90288420ED19F480068DC
:1022B0008021C90201439D4801609C48006880213B
:1022C000490201439948016012E098480068C549F5
:1022D0000140964801609548006880214902084005
:1022E0000090009891480068BF4901408F48016004
:1022F000606800280DD001F075FA05008B48006871
:10230000800314D401F06EFA401B6528F6D3032035
:1023100078E201F067FA050084480068800306D57A
:1023200001F060FA401B6528F6D303206AE22078AA
:10233000800759D57C4800680C210140042909D048
:10234000794800680C2101400C2916D176480068B4
:10235000C00312D475480068400704D5E06801281E
:1023600001D001204EE2BA480068BA490140206914
:1023700000020843B649086036E0E06800281FD034
:102380006A48006809218843E168014367480160A1
:1023900001F028FA050065480068400706D401F0FE
:1023A00021FA401B0328F6D303202BE2A84800683B
:1023B000A8490140206900020843A549086013E0CC
:1023C0005A480068012188435849086001F00AFA18
:1023D000050056480068400706D501F003FA401B87
:1023E0000328F6D303200DE22078C00600D49FE036
:1023F0004D4800680C210140002957D14B48006826
:10240000800504D5E069002801D10120FAE1904857
:102410000068E02109020140606A814218D2606AC6
:1024200000F052FB002801D00120EBE18848006851
:10243000C5490140606A08438549086084480068CE
:102440000002000A216A090601438148016017E081
:102450007F480068BC490140606A08437C490860C5
:102460007B4800680002000A216A09060143784897
:102470000160606A00F028FB002801D00120C1E162
:102480000120616A490B491C8840802109024843A8
:10249000AE49254A126812091207120F895CC8401A
:1024A000AB490860032001F0B9FA41E0E069002877
:1024B00026D01E4800688021490001431B48016066
:1024C00001F090F9050019480068800506D401F074
:1024D00089F9401B0328F6D3032093E15C48006888
:1024E00099490140606A08435949086058480068A2
:1024F0000002000A216A090601435548016017E0FD
:102500000A480068C04901400848016001F06AF9C2
:1025100005000648006880050AD501F063F9401BF4
:102520000328F6D303206DE10C1002400010024096
:10253000207800072AD56069002813D0B3480068C6
:1025400001210143B148016001F04CF90500AF4899
:10255000006880071AD401F045F9401B0328F6D320
:1025600003204FE1A948006801218843A74908607A
:1025700001F038F90500A5480068800706D501F08C
:1025800031F9401B0328F6D303203BE120784007B4
:1025900000D497E000269E480068C00008D49C48FC
:1025A0000068802149050143994801600120060027
:1025B00098480068C00519D49648006880214900F1
:1025C00001439448016001F00DF90500914800684D
:1025D000C0050BD401F006F9401B6528F6D3032093
:1025E00010E100BFFFFFFEFFFFFFFBFFA06880219F
:1025F0004900884207D1854800688021490001438D
:102600008248016034E0A06800280CD17F4800684F
:102610007D4901407D4801607C4800687E49014059
:102620007A48016024E0A068A021C900884213D143
:10263000764800688021C9000143744801607348EE
:1026400000688021490001437048016010E000BF2C
:1026500004100240FFE0FFFF6C4800686A49014037
:102660006A480160694800686B4901406748016039
:10267000A06800280ED001F0B5F805006348006896
:10268000800516D401F0AEF8401B64498842F5D3AA
:102690000320B7E001F0A6F805005C48006880055B
:1026A00007D501F09FF8401B5C498842F5D3032011
:1026B000A8E0F6B2012E05D15548006858490140FE
:1026C000534801602078800644D5A069002820D0B6
:1026D0005448006801210143524801605248006893
:1026E0000121014350480160504800688021890160
:1026F00001434E48016001F075F805004948006843
:10270000800727D401F06EF8401B0328F6D303207E
:1027100078E0444800680121884342490860434802
:102720000068AE4901404148016001F05BF80500D6
:102730003C48006880070DD501F054F8401B032881
:10274000F6D303205EE000BFFF1FFFFF284600080E
:1027500064010020A06A002853D0A14800680C2121
:1027600001400C294BD0A06A022834D19F48006850
:102770009C4901409D48016001F034F805009B48E8
:102780000068800106D501F02DF8401B0328F6D320
:10279000032037E09248006893490140E06A08430B
:1027A000216B0143606B08438D4908608F480068C6
:1027B0008021490401438D48016001F013F80500B0
:1027C0008A48006880011CD401F00CF8401B0328E3
:1027D000F6D3032016E0854800688249014083480B
:1027E000016000F0FFFF050080480068800108D507
:1027F00000F0F8FF401B0328F6D3032002E001207D
:1028000000E0002076BD00BFFFFEFFFF5010024039
:102810003810024000700040FFFBFFFF89130000EA
:10282000FFFFFFEF0810024034100240200001407B
:1028300070B505000C0000266D4800680100C9074E
:10284000C90FA1420FD26A48006801218843204382
:1028500067490860664800680100C907C90FA142BE
:1028600001D00120B8E02878800707D55C480068CF
:10287000F0218843A9680143594801602878C007BE
:102880006CD56868022805D158480068800319D4BF
:102890000120A1E06868032805D154480068800140
:1028A00010D4012098E06868012805D14F480068DD
:1028B000400707D401208FE04C480068800501D410
:1028C000012089E046480068032188436968014384
:1028D0004348016000F086FF0600686802280DD1B9
:1028E0003F4800680C210140082937D000F07AFFEA
:1028F000801B6F498842F3D303206DE0686803288A
:102900000DD1374800680C2101400C2926D000F079
:1029100069FF801B66498842F3D303205CE0686846
:1029200001280DD12E4800680C210140042915D042
:1029300000F058FF801B5E498842F3D303204BE030
:10294000274800680C210140002907D000F04AFF09
:10295000801B57498842F3D303203DE02448006898
:102960000100C907C90F8C420FD22148006801211C
:10297000884320431E4908601D4800680100C907BC
:10298000C90FA14201D0012026E02878400707D5D1
:102990001348006847490140E86808431049086047
:1029A0002878000708D50E48006843490140286987
:1029B000C00008430A49086000F01CF83F49084A73
:1029C000126812091207120F895CC8403C4908605E
:1029D000032001F023F8002070BD0000FFDFFFFF9F
:1029E0000C100240FFFFFFFEFFFF02FF001002403D
:1029F00000200240FCB500200090002400250026A5
:102A00000020019000272F480068009000980C21BA
:102A10000140042904D008290CD00C290DD037E03E
:102A20004B480068C00602D54A48070001E04A4802
:102A300007003BE04948070038E049480099890C05
:102A40000907090F405C04000098800D8007800F83
:102A5000401C05001B480068C00306D53F48604382
:102A60002900FFF7D5F9060010E039480068C006D4
:102A700006D5384860432900FFF7CAF9060005E08B
:102A8000354860432900FFF7C3F9060037000DE021
:102A900034480068400B4007400F01900120019925
:102AA000491C884080210902484307003800F6BDD0
:102AB00089130000FFF8FFFFFFC7FFFF284600084B
:102AC000640100200C10024010B501000022002318
:102AD00025480068F0240440002C27D124480068D1
:102AE000C00006D523480068C024640104402200C9
:102AF00012E01F4800688024640504431C480460F9
:102B00001C480068C0246401044022001848006882
:102B1000194C044016480460C0204001824205D18F
:102B2000C0200002814201D1012003000F4800684B
:102B30000124A04318430D4C20600C480068040099
:102B4000E407E40F9C4201D0012000E0002010BD0A
:102B50000010024000093D000024F40000127A0039
:102B600048460008041002400C10024000200240B9
:102B70003810024000700040FFFFFFEF10B5040066
:102B8000002C01D1012014E03520205C002805D163
:102B9000002034216054200000F082FE0220352104
:102BA0006054211D206800F07FF901203521605418
:102BB000002010BD38B504000D0000222900206857
:102BC00000F04AFA2068006A22490140002905D134
:102BD00020680068012188432168086001203521B0
:102BE0006054002032BD38B504000D0028000028D4
:102BF00006D004280BD0082810D00C2815D01BE0D4
:102C00002068C068022101432068C16014E0206888
:102C1000C068042101432068C1600DE02068C068DD
:102C2000082101432068C16006E02068C0681021C7
:102C300001432068C160FFE701222900206800F0FD
:102C40000BFA206800680121014320680160002020
:102C500032BD00001111000010B5040020680069A9
:102C600080071BD52068C068800717D50220C043A5
:102C70002168086101202075206880698007800F25
:102C8000002803D0200000F0DDFE05E0200000F069
:102C9000DAFE200000F06BFE00202075206800693D
:102CA00040071CD52068C068400718D50420C043E1
:102CB000216808610220207520688069C021890090
:102CC0000140002903D0200000F0BCFE05E02000F8
:102CD00000F0B9FE200000F04AFE002020752068B8
:102CE000006900071BD52068C068000717D50820B9
:102CF000C04321680861042020752068C0698007EE
:102D0000800F002803D0200000F09CFE05E020008A
:102D100000F099FE200000F02AFE002020752068B7
:102D20000069C0061CD52068C068C00618D51020F0
:102D3000C04321680861082020752068C069C0214F
:102D400089000140002903D0200000F07BFE05E04F
:102D5000200000F078FE200000F009FE0020207521
:102D600020680069C0070AD52068C068C00706D57A
:102D70000120C04321680861200000F065FE206842
:102D8000006940060AD52068C068400606D5402084
:102D9000C04321680861200000F057FE10BD70B5E7
:102DA00004000D0016003420205C012801D102200F
:102DB00076E0012034216054022035216054300037
:102DC000002806D004281BD0082832D00C2847D071
:102DD0005FE02900206800F09EF8206880690821E3
:102DE000014320688161206880690421884321684B
:102DF000886120688069E96801432068816148E052
:102E00002900206800F0A8F8206880698021090165
:102E1000014320688161206880692249014020685F
:102E2000816120688069E968090201432068816145
:102E30002FE02900206800F0B4F82068C06908215C
:102E400001432068C1612068C0690421884321686A
:102E5000C8612068C069E96801432068C16118E061
:102E60002900206800F0C1F82068C06980210901AC
:102E700001432068C1612068C0690A490140206897
:102E8000C1612068C069E968090201432068C16125
:102E9000FFE70120352160540020342160540020D8
:102EA00070BD0000FFFBFFFF00B5002203681A00A1
:102EB0008023DB05984205D05F4B984202D05F4BE0
:102EC000984201D1012300E00023DBB2002B04D0A3
:102ED00070239A4313004A681A438023DB05984203
:102EE00005D0554B984202D0544B984201D1012352
:102EF00000E00023DBB2002B05D01300504A1A403B
:102F00001300CA681A4302608B68C3620B6883624D
:102F10000123436100BD70B4002200230024056A30
:102F20000126B5430562056A2B0045682C008569BA
:102F30002A007025AA430325AA4315000A682A43DC
:102F40000225AB431D008B682B43446082614D68B2
:102F50004563036270BC704770B4002200230024F4
:102F6000056A1026B5430562056A2B0045682C00EA
:102F700085692A001500334A2A401500304A2A4044
:102F800015000A6812022A432025AB431D008B68F6
:102F90001B012B43446082614D688563036270BCF2
:102FA000704770B4002200230024056A264E2E408C
:102FB0000662056A2B0045682C00C5692A00702549
:102FC000AA430325AA4315000A682A431D001F4B84
:102FD0002B401D008B681B022B434460C2614D686F
:102FE000C563036270BC7047000070B40022002308
:102FF0000024056A164E2E400662056A2B004568BD
:103000002C00C5692A0015000E4A2A4015000C4AFA
:103010002A4015000A6812022A431D000D4B2B405E
:103020001D008B681B032B434460C2614D6805641F
:10303000036270BC704700000008014000140140AA
:10304000FFFCFFFFFF8FFFFFFFFEFFFFFFFDFFFF06
:10305000FFEFFFFFFFDFFFFF30B4002301248C40B0
:103060002300046A9C430462046A15008D402543D2
:10307000056230BC704700B502003420105C0128A6
:1030800001D1022024E001203423D0540220352332
:10309000D0541068406870239843136858601068D3
:1030A00040680B68034310684360106880688023A1
:1030B000984313689860106880684B6803431068F1
:1030C000836001203523D05400203423D0540020C5
:1030D00000BDFEE710B50400002C01D101203FE047
:1030E0005120205C002805D1002050216054200090
:1030F00000F07EFB022051216054206800684021CE
:103100008843216808606068A1680143E06808435B
:103110002169014360690843A1698022920011403E
:103120000143E0690843216A0143A06A084321681A
:103130000860A069000C04210840616A014320680E
:103140004160E06A216808612068C0690549014062
:103150002068C16100206065012051216054002079
:1031600010BD0000FFF7FFFFF2B582B004001700AA
:103170001E00089D0020694608805120205C01281F
:1031800004D05120205C222800D0A7E1029800281A
:1031900004D0002F02D0B6B2002E01D101209EE152
:1031A0005020205C012801D1022098E1012050210B
:1031B00060545120205C012802D1322051216054FA
:1031C00000206065A763A687E68702982063A6862D
:1031D000E6860020A0640020E064A06A80218901C6
:1031E00088420CD120680068BD4901402068016018
:1031F00020680068802189010143206801602068FF
:103200000068400605D4206800684021014320681A
:103210000160E06880210901884200D08CE060688C
:10322000002807D060688221490088420CD1E08ED6
:10323000012809D1206B00882168C860206B801CA0
:103240002063E08E401EE086E08E002820D1A06A38
:1032500080218901884206D12068006880214901C7
:103260000143206801602B0000220121200000F0B2
:1032700039F9002801D0032031E12068C068A16B32
:103280000880A06B801CA063E08F401EE087D7E021
:10329000E08E002837D02B0000220221200000F011
:1032A00021F9002801D0032019E1206B0088216852
:1032B000C860206B801C2063E08E401EE086E08E9C
:1032C00000280BD1A06A80218901884206D120689C
:1032D0000068802149010143206801602B00002221
:1032E0000121200000F0FEF8002801D00320F6E0C4
:1032F0002068C068A16B0880A06B801CA063E08F71
:10330000401EE087C4E76068002800D098E02B00EA
:1033100000220121200000F0E5F8002801D0032060
:10332000DDE02068C068A16B0880A06B801CA063F2
:10333000E08F401EE08783E06068002807D0606867
:103340008221490088420BD1E08E012808D1206BF0
:10335000411C216300782168C860E08E401EE08631
:10336000E08E00281DD1A06A80218901884206D103
:1033700020680068802149010143206801602B001A
:1033800000220121200000F0ADF8002801D0032028
:10339000A5E02068C068A16B0870E08F401EE08740
:1033A0004EE0E08E002835D02B00002202212000C4
:1033B00000F098F8002801D0032090E0206B411C19
:1033C000216300782168C860E08E401EE086E08EB0
:1033D00000280BD1A06A80218901884206D120688B
:1033E0000068802149010143206801602B00002210
:1033F0000121200000F076F8002801D003206EE0C3
:10340000A06B411CA1632168C9680170E08F401E58
:10341000E087C6E76068002812D12B000022012156
:10342000200000F05FF8002801D0032057E0A06BD7
:10343000411CA1632168C9680170E08F401EE087CC
:10344000A06A80218901884213D12B00002201212A
:10345000200000F047F8002805D0606D02210143EC
:10346000616503203BE02068C068694608806846C3
:1034700000882B0001228021200000F033F8002872
:1034800005D0606D202101436165032027E0012004
:1034900051216054A06A80218901884219D1206895
:1034A0008068C00615D5606D022101436165206802
:1034B00000680B4901402068016020680068802195
:1034C00089010143206801600020502160540120DF
:1034D00005E0002050216054002000E00220FEBDE5
:1034E000FFDFFFFFF4B504000F001D00002600F011
:1034F00079F9060068460078002835D12068806890
:103500003840B84266D00020C0438542F6D0002D36
:1035100004D000F067F9801B8542EFD22068406834
:10352000E021884321684860206800684021884382
:1035300021680860A06A8021890188420CD1206836
:1035400000682549014020680160206800688021EA
:10355000890101432068016001205121605400204D
:1035600050216054032036E0206880683840B8421B
:1035700030D10020C0438542F6D0002D04D000F0A9
:1035800031F9801B8542EFD220684068E0218843F2
:1035900021684860206800684021884321680860ED
:1035A000A06A8021890188420CD1206800680A49FC
:1035B0000140206801602068006880218901014382
:1035C0002068016001205121605400205021605486
:1035D000032000E00020F2BDFFDFFFFF30B4050054
:1035E0004D400122D20715404B180418240E2ED04E
:1035F0001B0E32D0FF2C34D0FF2B3AD0E41800023F
:10360000090210431143000A090A9446C2B24A4310
:10361000000AC3B24B43000A4843110A5B181A431D
:10362000D2B2190A091801D44918641E080A7F3C4D
:1036300023DBFE2C08DAE4050906114363469941B1
:103640006041284330BC7047FF20C005F9E72800DF
:103650001B0EFF2BF6D1D043F4E72800FF2CF1D14D
:10366000F9E74002F7D1FF2B01D14902F3D1E00580
:10367000E7E7D8054902E4D0EDE743020020641CE7
:10368000DFD15B129B1CDCD9D805DAE70122D20717
:1036900003004B402ED4431A01D2C01AC91830B4CB
:1036A0004B180418240E1B0E22D0FF2C20D0E31A36
:1036B000182B1DDC09021143C40D641E00021043C7
:1036C00094461925ED1A0A00AA40D940451801D39D
:1036D0006D08A41CE405D209280A2D062A43654674
:1036E000AA41604103181B0EFF2B01D3C00DC0057A
:1036F00030BC7047514001E05140CCE7431A03D23F
:10370000C01AC9185040514030B44B180902114337
:103710000418240E1B0E40D0FF2C3AD025009D41EA
:103720000BD31ED8C50D4002401A0BD3ED05010086
:10373000400AC90591416841DAE7C50D40024918C0
:10374000401AD5D001214008491C0018FCD58C42F4
:1037500004D36D1A000AED054019C9E7E8051040C9
:10376000C6E7182DC4DCAC1C0D00E140E5414D401E
:10377000012D4941C40D00021043451A01D46D19B1
:103780009543641EE405280A2D069541604130BC2E
:103790007047FF2BACD1D843AAE72442A8D1002020
:1037A000A6E7FEE70122D2070118090E7F3910D4DF
:1037B00049421F310FD4001805D2C0011043C84040
:1037C00000D5D0437047C0011043C84005D44042E3
:1037D0007047002070470042F3D510007047FEE7A5
:1037E0007047FEE701480068704700BF04070020EB
:1037F00010B586B0040020687B4988424ED17B48D2
:10380000006801210143794801607848006801009F
:10381000C907C90F0091009874480068012101434D
:1038200072480160714800680100C907C90F009122
:1038300000986E480068012101436C4801606B48A4
:1038400000680100C907C90F009100986848006826
:103850008021490101436648016020200190022037
:10386000029000200390012004900020059001A9FF
:10387000A020C005FEF730FB4020019000200590FD
:1038800001A9A020C005FEF727FB802001900020A1
:10389000059001A9A020C005FEF71EFB06B010BDD3
:1038A00010B586B004002068524988421CD15048A7
:1038B0000068202101434E480160802000900220D2
:1038C000019000200290002003900020049069469F
:1038D0004948FEF701FB002204211620FEF790FC68
:1038E0001620FEF797FC40E020688021C905884239
:1038F0001CD1424800680121014340480160082072
:1039000000900220019000200290002003900220ED
:10391000049069463A48FEF7DFFA002204210F209E
:10392000FEF76EFC0F20FEF775FC1EE0206835499F
:1039300088421AD12E480068042101432C480160B6
:103940008020C00000900120019000200290002003
:10395000039069462A48FEF7BFFA0022032114208B
:10396000FEF74EFC1420FEF755FC06B010BD10B556
:10397000040020681F4988420AD1207D022807D10F
:10398000002000F01BF9082802D0002000F0CEFA39
:1039900020688021C90588420AD1207D022807D1EC
:1039A000012000F00BF9082802D0012000F0BEFA37
:1039B00020681449884216D1207D012813D1802126
:1039C000C9000F48FEF789FB022000F0F7F808282D
:1039D00009D08021C9000A48FEF767FB012802D1FF
:1039E000022000F0A3FA10BD003001402C1002406C
:1039F000341002400014014000080050381002400A
:103A0000000400500008014010B50400A4B280205A
:103A1000C000844201D100F070F810BD10B5040060
:103A200007480068FA218900FEF7F2F9FEF7F9FB72
:103A3000002221000020C043FEF7E2FB002010BD61
:103A400064010020704770477047704710B504004C
:103A50008248006800280AD08048006880680028F2
:103A600005D020007D4909688968884702E08948B7
:103A700000F016F810BD10B5040078480068002862
:103A80000AD076480068C068002805D02000734935
:103A90000968C968884702E08A4800F001F810BD4B
:103AA00010B504006D48006800280DD06B48006810
:103AB000F0214058002807D0200080B267490968EB
:103AC000F0228958884700E0FEE710BD38B50500B0
:103AD0000C009548006800280AD0934800680068E8
:103AE000002805D02000904909680968884703E04C
:103AF00080200001FFF7D4FF31BD80B55748006832
:103B0000002809D0554800684069002804D053486F
:103B100000684069804702E08F48FFF7C1FF01BDA0
:103B200038B5040000254D48006800280CD04B48EB
:103B300000688069002807D02000C0B247490968A2
:103B400089698847050002E08448FFF7A9FF28003B
:103B500080B232BD38B50400002540480068002816
:103B60000CD03E480068C069002807D02000C0B2D1
:103B70003A490968C9698847050002E07848FFF7B3
:103B80008FFF280080B232BD38B5040000253348CD
:103B9000006800280CD031480068006A002807D06F
:103BA0002000C0B22D490968096A8847050002E073
:103BB0007948FFF775FF280080B232BD38B50400A0
:103BC00008252648006800280CD024480068406A70
:103BD000002807D02000C0B220490968496A8847F8
:103BE000050002E07C48FFF75BFF2800C0B232BD51
:103BF00038B5040000251948006800280CD0174883
:103C00000068006B002807D02000C0B21349096883
:103C1000096B8847050002E09548FFF741FF28003F
:103C200080B232BD38B5040000250C480068002879
:103C30000CD00A480068406B002807D02000C0B2B2
:103C400006490968496B8847050002E09848FFF774
:103C500027FF280080B232BD0000000000070020CE
:103C600038B5040000253048006800280CD02E48E4
:103C70000068806B002807D02000C0B22A4909687C
:103C8000896B8847050002E09948FFF709FF280083
:103C900032BD00000208000010B504002248006890
:103CA00000280BD020480068C06B002806D02000F8
:103CB000C0B21D490968C96B884702E09A48FFF7FE
:103CC000EFFE10BD0308000010B5040016480068A0
:103CD00000280BD014480068006C002806D0200093
:103CE000C0B211490968096C884703E081200001CE
:103CF000FFF7D6FE10BD000038B505000C000A48DD
:103D0000006800280CD008480068406C002807D0E4
:103D100021002800C0B2044A1268526C904702E0A9
:103D20009848FFF7BDFE31BD0007002010B5040024
:103D30009548006800280BD093480068806C0028E4
:103D400006D02000C0B290490968896C884702E01B
:103D50008E48FFF7A5FE10BD05080000060800000C
:103D60000708000038B505000C00874800680028E7
:103D70000DD085480068406D002808D02100C9B2E8
:103D80002800C0B2804A1268526D904702E08E4807
:103D9000FFF786FE31BD00000808000070B5040082
:103DA0000E0000257848006800280ED0764800688C
:103DB000806D002809D0310089B22000C0B2724A5B
:103DC0001268926D9047050002E08048FFF768FE98
:103DD0002800C0B270BD00000908000070B50400E2
:103DE0000E0000256848006800280ED0664800686C
:103DF000C06D002809D0310089B22000C0B2624AEB
:103E00001268D26D9047050002E07148FFF748FE46
:103E10002800C0B270BD000010B504005A48006808
:103E200000280BD058480068006E002806D02000FB
:103E3000C0B255490968096E884702E06548FFF736
:103E40002FFE10BD10B504004F48006800280BD0AD
:103E50004D480068406E002806D02000C0B24A4994
:103E60000968496E884702E05B48FFF719FE10BDFC
:103E70000C08000070B504000E00002542480068E0
:103E800000280ED040480068806E002809D031001C
:103E900089B22000C0B23C4A1268926E9047050079
:103EA00002E04E48FFF7FCFD2800C0B270BD0000E4
:103EB0000D08000070B504000E00002532480068AF
:103EC00000280ED030480068C06E002809D03100AC
:103ED00089B22000C0B22C4A1268D26E9047050009
:103EE00002E04F48FFF7DCFD2800C0B270BD0000C3
:103EF0000E08000038B5040000252348006800289B
:103F00000CD021480068006F002807D02000C0B204
:103F10001D490968096F8847050002E04148FFF71D
:103F2000BFFD2800C0B232BD0F08000010B504006C
:103F30001548006800280BD013480068406F00281F
:103F400006D02000C0B210490968496F884702E0D6
:103F50003548FFF7A5FD10BD10B504000A480068FC
:103F600000280BD008480068806F002806D0200089
:103F7000C0B205490968896F884702E02B48FFF7FE
:103F80008FFD10BD1108000000070020120800007E
:103F900038B5040000252648006800280ED02448C3
:103FA000006888214058002808D02000C0B220496D
:103FB0000968882289588847050002E01D48FFF7F4
:103FC0006FFD280080B232BD150800001608000001
:103FD0001708000018080000190800001A0800005F
:103FE00070B504000E00002511480068002810D0AC
:103FF0000F480068A021405800280AD03100C9B2FB
:104000002000C0B20A4A1268A023D2589047050087
:1040100002E00948FFF744FD2800C0B270BD00006F
:104020001B0800001C0800001D0800001E080000FE
:1040300000070020220800002808000070B50500D5
:104040000C00384805800026ADB23748854204D1BF
:10405000FCF76BFA354908604AE0ADB2012D04D196
:1040600000F070F83149086042E0ADB23048854256
:1040700004D100F069F82D49086039E0ADB2C220E2
:104080004001854204D100F061F8284908602FE022
:10409000ADB2DC2D04D100F05BF82449086027E0C4
:1040A000ADB22448854203D0ADB22348854204D145
:1040B00000F050F81D4908601AE0ADB21F48854273
:1040C00003D0ADB21E48854204D100F045F817492F
:1040D00008600DE0ADB2F02D02D0ADB2FA2D04D1E2
:1040E00000F03CF81149086002E000200F49086028
:1040F0000E480068002812D00C480068A221490030
:10410000405800280BD0E4B2002C08D02000C0B2E8
:1041100006490968A22252008958884706003000E3
:10412000C0B270BD0C0700204A1900000007002033
:104130003E18000046190000481900005019000000
:10414000521900000020704700207047002070477F
:104150000020704700207047002070470020704703
:10416000F8B500F033F900F043F902219048FFF769
:1041700065FF00218E48FFF7A9FC00218C48FFF75E
:10418000A5FC8C48FFF777FC8B48FFF75FFC00200D
:10419000FFF742FE0120FFF73FFEC8210901002082
:1041A000FFF7AAFD0020FFF7D7FE0020FFF758FD1C
:1041B0000500C8200001854206D129000120FFF733
:1041C0009BFD0120FFF7C8FEFA20C000FDF777FE37
:1041D0000120FFF737FE79490120FFF78DFD01200F
:1041E000FFF7BAFE0120FFF73BFD0500734885424B
:1041F00006D129000020FFF77FFD0020FFF7ACFE6D
:10420000FA20C000FDF75BFE0020FFF71BFE002038
:10421000FFF742FD0120FFF73FFD0020FFF79CFE66
:104220000120FFF799FEFA20C000FDF748FE0020AC
:10423000FFF74AFD0120FFF747FD0020FFF78CFE46
:104240000120FFF789FEFA20C000FDF738FE0121AA
:104250000020FFF787FD0020FFF7CAFC04000020C4
:10426000FFF778FCA042FAD1610889B20120FFF77C
:1042700001FE01210120FFF775FD0120FFF76AFC17
:1042800061088842F9D14E48FDF719FE0020FFF77A
:1042900031FE0020FFF760FE0120FFF747FD0120FF
:1042A000FFF75AFEFA20C000FDF709FE0020FFF7D5
:1042B000F3FC0120FFF7F0FC0020FFF74DFE01208A
:1042C000FFF74AFEFA20C000FDF7F9FD0020FFF7D6
:1042D00027FC07000020FFF757FC06000020FFF72F
:1042E000A1FC009000210120FFF77AFE210989B28C
:1042F0000120FFF7BFFD0098010989B20120FFF7F7
:10430000D9FDBFB238001021FDF77FFD010089B251
:104310000120FFF743FDB6B230001021FDF775FD17
:10432000010089B20120FFF759FDC8214901002091
:10433000FFF7E2FC23490120FFF7DEFC0020FFF736
:104340000BFE0120FFF708FEFA20C000FDF7B7FDC5
:104350000020FFF777FD0120FFF774FD1848FDF7F7
:10436000AEFD0020FFF7B0FC0120FFF7ADFC002000
:10437000FFF7F2FD0120FFF7EFFD0020FFF78CFCB7
:104380000120FFF789FC0020FFF7E6FD0120FFF781
:10439000E3FDE6E710B50020FFF7FAFD0400012079
:1043A000FFF7F6FD040010BD00B507490880FEE7E1
:1043B0004A19000095430008A943000880F3FFFF55
:1043C0008813000070FEFFFF0A07002080B5064832
:1043D000006802210143044801600320FFF71EFB2F
:1043E00000F004F8002002BD002002407047FEE704
:1043F00000B593B01F4800688021490501431D485E
:1044000001601D4800681D490140802000010843EB
:1044100019490860022005900020069001200890AC
:1044200002200F90002010908020C0021190802068
:10443000C00312901020099005A8FDF705FF002881
:1044400002D00020FFF7B0FF0F2000900320019062
:104450000020029000200390002004900121684673
:10446000FEF7E6F9002802D00120FFF79DFF13B008
:1044700000BD00BF3810024000700040FFE7FFFFA2
:10448000164800688021490001431448016014481F
:104490000068144901401248016010480068124940
:1044A00001400E48016011480068012188430F490E
:1044B00008600A4800680E49014008480160084841
:1044C00000680C4901400648016000200A49086064
:1044D0008020000509490860704700000010024074
:1044E0000C1002400C40FF88F6FFF6FE0810024058
:1044F000FFFFFBFFFFFF02FF1010024008ED00E08E
:10450000704700B5FEE77047704780B500F01EF8B1
:1045100001BD80B58020C000FDF7E4FD01BD80B580
:104520000748FEF799FB01BD80B50648FEF794FBEE
:1045300001BD80B50448FEF78FFB01BD00000000FF
:104540007006002038060020A806002002480068F7
:10455000401C0149086070470407002070B4012125
:10456000002213E00468001D0C4202D04D466D1E6F
:1045700064192260241D1B1F042BFAD225009E07FC
:1045800001D52280AD1C0B4000D02A700368001DAD
:10459000002BE7D170BC704710B50749794418313A
:1045A000064C7C44163404E0081D0A6889188847C4
:1045B0000100A142F8D110BD080000002400000055
:1045C0009DFFFFFFAC010000680500200000000017
:1045D00043D6FFFFA80000008C010000000000206F
:1045E00000F00BF8002801D0FFF7D6FF002000BF35
:1045F00000BFFFF7B5FD00F002F80120704780B55D
:1046000000F002F801BDFEE70746384600F002F868
:10461000FBE7FEE780B500BF00BF024A110018208B
:10462000ABBEFBE726000200000000000000000017
:1046300001020304060708090148804701480047B2
:104640008144000855460008030406080C10182091
:104650003000000000BF00BF00BF00BFFFF7C0FF79
:10466000FEE7FEE7FEE7FEE7FEE7FEE7FEE7FEE722
:10467000FEE7FEE7FEE7FEE7FEE7FEE7100BF903C5
:104680000008FD070008C1000008C704120001105F
:1046900007370E00086D040008EB0412F90410033C
:1046A000070500082704122F0412430412510412B4
:1046B000650412DF0412EF0410030F060008C5049E
:1046C0001281481003310800087504132B0950109B
:1046D000060A0008450B0008730412910412F10445
:1046E0001007610C0008A1130008990812CD701280
:1046F000DD0412ED04100319020008CB0412DB04E0
:1047000012034012150412230412C10443110B9822
:10471000A101F3012B0714E101F3015F0524F30D5F
:104720001B0E3812519892CF3812790CF30D1705E1
:10473000341257A01279F0F3058104280002808416
:024740001E0059
:040000050800465554
:00000001FF
