:020000040800F2
:100000006805002001470008AD450008AF4500081D
:1000100000000000000000000000000000000000E0
:10002000000000000000000000000000B3450008D0
:100030000000000000000000B5450008B7450008BA
:10004000FF1C0008000000006F1D00083F30000882
:10005000DF3700081B3800081F380008BF450008BC
:100060000000000017450008AF460008BB46000826
:100070001D4700081F470008214700080000000036
:10008000D54500082347000800000000CB450008C4
:10009000DF450008254700082747000829470008D2
:1000A0002B4700082D4700082F470008314700085C
:1000B00033470008C84908607047C849086070475E
:1000C00010B50400A8212000C0B200F0C3FE10BD8E
:1000D00010B50400B8212000C0B200F0BBFE10BD76
:1000E000F1B582B00C0000266846BD4909786A4621
:1000F000127A891A491E017000270020B949087038
:10010000FFB2002F03D001F07DFB0020070000208C
:100110000500B348007885421CD20020B2494855FA
:100120000020B1494919C8700020AF4949198871A8
:100130000020AD49491948720020CD494919C870BD
:100140000020CB49491988710020C94949194872D2
:100150006D1CDEE72000401E07D0401E0FD0401E61
:1001600003D0153801280AD914E0210020200843C3
:100170009D496A46127888540320060014E0210045
:100180002020084398496A4612788918C8700220CE
:10019000060009E021002020084393496A461278AE
:1001A000891888710120060001F02AFB0120070050
:1001B0008C4800780028A0D10320F6B2801B0500EF
:1001C000042D0BD2AA480321694341188648032213
:1001D0006A43801801F0EBFA6D1CF1E7A448694608
:1001E00009784018C0780004A1496A461278891835
:1001F0008979090201439E486A4612788018407A3C
:100200000843019001F0FEFA0198FEBDF8B5060022
:1002100073480078801B471E002500207149087034
:10022000EDB2002D03D001F0EDFA00200500002012
:1002300004006B480078844214D200206A490855B3
:10024000002069490919C870002067490919887197
:10025000002087490919C87000208549091988714B
:10026000641CE6E7D0206049FFB2C85501F0C8FA27
:10027000012005005B4800780028CED10020040052
:10028000032C0BD27A4803216143411856480322BC
:100290006243801801F08BFA641CF1E77448FFB2E6
:1002A000C019C07800027249FFB2C91989790843A0
:1002B0006946088001F0A6FA68460088F2BD10B5CC
:1002C000040000212000C0B200F0C4FD10BDF5B54F
:1002D00081B00E0000274248007869460979401A2B
:1002E000451E00206946087000203E490870684697
:1002F0000078002804D001F085FA002069460870D3
:100300000020040036480078844210D2002036498C
:100310000855002034490919C870002032490919CC
:1003200088710020304909194872641CEAE73000DE
:10033000012806D0022817D0032802D0182813D08D
:1003400020E030002849EDB248550298000C2649BB
:10035000EDB24919C8700298000A2349EDB2491953
:1003600088710320070014E030001F49EDB24919DD
:10037000C8700298000A1C49EDB249198871022020
:10038000070006E030001849EDB2491988710120D4
:10039000070002981449EDB24919487201F030FA89
:1003A0000120694608700F48007800289CD103207E
:1003B000FFB2C01B0400042C0BD22D480321614363
:1003C0004118094803226243801801F0F0F9641CC7
:1003D000F1E701F017FAF7BD200700201C07002005
:1003E00032070020330700200407002010B5040066
:1003F000B0480088C0B201F007FA01F081FB002884
:1004000003D08020000200F002FDAA480088C0B29C
:1004100001F0E7FAA7480088C0B201F03AFB0120DA
:1004200001F0E8F9002C05D1A2480088C0B200F024
:10043000B5FD05E021009F480088C0B200F03EFDF8
:100440009C480088C0B2FFF73BFE9A480088C0B2C3
:10045000FFF7DCFE97480088401C9649088010BDD5
:10046000C349C0B2282250430818008B70470000CF
:1004700010070020F8B506000D0029003000C0B2BA
:10048000FFF72EFE04002800401E09D0801E07D072
:10049000801F0CD0801F012815D9001F0DD018E037
:1004A000200000F0A5FC01F09BFB070015E02000F8
:1004B000C0B201F0EFFB07000FE02000C0B201F076
:1004C000F5FB070009E02000C0B201F0FBFB0700CC
:1004D00003E0200001F090FB07003800F2BDA449C2
:1004E000C0B2282250430818008C7047A049C0B2FF
:1004F000282250430818408B70479D49C0B22822DB
:10050000504308182421405C70479949C0B2282202
:10051000504308182321405C7047D1487047D148A8
:10052000704710B5040003212000C0B2FFF7D8FDCA
:1005300000F05EFC10BD8E49C0B22822504308185E
:10054000808B70478A49C0B2282250430818C08B5C
:100550007047D7480078704710B50400012120008B
:10056000C0B2FFF7BDFD00F043FC10BD70B5040044
:1005700016212000C0B2FFF7B3FD4007400F08214D
:1005800001430E00F6B2082E07D015D30A2E0AD06A
:1005900006D30C2E0DD009D30EE0002005000DE08F
:1005A000012005000AE00220050007E00320050005
:1005B00004E00420050001E0FE2005002800C0B290
:1005C00070BD6B49C0B22822504308182521405CF9
:1005D000704710B5040000212000C0B200F011F8EF
:1005E00010BD38B5040003212000C0B2FFF778FD2C
:1005F00000F0FEFB050029002000C0B200F001F869
:1006000031BDF8B504000D005948E4B2282161431A
:1006100040182421405C082803D02000C0B200F01C
:100620004BF801212000C0B2FFF75AFD00F0E0FBBB
:100630004F49E4B228226243891848604C48E4B22A
:100640002821614340184068281A0600002E08D46B
:100650004748E4B228216143401846610120070061
:1006600008E070424249E4B2282262438918486196
:1006700000200700002E1BD001203D49E4B22822B3
:1006800062438918222288543900C9B22000C0B2BE
:1006900000F038FA3648E4B2282161434018416935
:1006A0002000C0B200F02CFB2000C0B200F032FEEF
:1006B000F1BD00002C07002010B504002C48E4B266
:1006C0002821614340182521405C002822D12000C8
:1006D000C0B201F0C5F908202549E4B228226243DE
:1006E00089182422885403202149E4B22822624335
:1006F0008918222288549B481D49E4B2282262436B
:100700008918486100201A49E4B2282262438918F6
:10071000088403E02000C0B200F001F810BD10B55D
:1007200004002000C0B201F09BF92000C0B2FFF726
:10073000C7FC08200E49E4B228226243891824220B
:10074000885403200A49E4B22822624389182222ED
:10075000885484480649E4B22822624389184861D3
:1007600000200349E4B2282262438918088410BD9E
:100770006805002070B504000D0016007A48E4B248
:100780002821614340182421405C082803D0200020
:10079000C0B2FFF791FF002E29D07348E4B22821A0
:1007A00061434018466101206F49E4B22822624348
:1007B00089182222885401212000C0B2FFF790FC42
:1007C00000F016FB6849E4B22822624389184860A9
:1007D0002900C9B22000C0B200F094F93100200015
:1007E000C0B200F08DFA2000C0B200F093FD70BDE1
:1007F000C3480088704710B5040019212000C0B21A
:10080000FFF76EFC80B210BD10B504002000C0B22E
:1008100001F03FF910BD10B504002000C0B201F096
:1008200042F910BD10B500200400200020490978CD
:10083000C0B2884213D22000C0B2FFF770FF200080
:10084000C0B2FFF7E8FF012000F0D4FF2000C0B2E3
:1008500001F01FF9012000F0CDFF641CE5E710BD99
:10086000000901000000002038B505000C003E48DA
:10087000EDB22821694340182421405C082803D0A8
:100880002800C0B2FFF718FF2100C9B22800C0B28B
:1008900000F038F900203449EDB228226A43891863
:1008A000222288542800C0B200F034FD31BD00007F
:1008B00032070020F8B504000D00EDB2002D05D080
:1008C000022D09D005D3032D09D00BE00820060026
:1008D0000AE00920060007E00A20060004E00B20D9
:1008E000060001E00C2006002000C0B2FFF717FF51
:1008F00016212000C0B2FFF7F3FBF82101400F00E2
:10090000FFB2F6B232003A4316212000C0B2FFF720
:10091000DEFC2000C0B200F00FF90120F2BD10B5DE
:100920000200002089B2002919D00F4BD2B228242E
:1009300054431B1924241B5D082B08D00A4BD2B248
:10094000282454431B1922241B5D002B07D1064B7E
:10095000D2B2282454431B19198301231800C0B2B2
:1009600010BD0000FFFFFF7F68050020FEB50700F7
:100970000E00140001252000002101F0ADF906D27F
:10098000012E04D0032E02D00020050092E030009A
:10099000401E34D0401E09D0401E30D0801F57D09A
:1009A000801F01286ED9001F5FD078E02000002151
:1009B00001F0A6F91CD02000B24901F0B1F914D918
:1009C000012001900720009016210020FFF788FBEE
:1009D0004107490F0098411A0198884001F000F939
:1009E0000100200001F078F902D20020050005E0A6
:1009F000200001F0A9F9C005C00D029051E02000CF
:100A0000CA21090601F08CF91FD820009E4901F087
:100A100063F91AD22000002101F082F906D82000E3
:100A200001F092F98002800A029010E08020C00359
:100A30000090200080210906484001F085F98102DC
:100A4000890A0098401A029001E00020050028E081
:100A50002000A84901F064F902D80020050003E055
:100A6000200001F085F902901BE02000A24901F06E
:100A700057F902D80020050003E0200001F08CF9AE
:100A800002900EE020009D4901F04AF902D80020B2
:100A9000050003E0200001F093F9029001E000203E
:100AA0000500EDB2002D05D0029A31003800C0B229
:100AB000FFF70DFC2800C0B2FEBD10B502000020FB
:100AC00089B2002919D0C94BD2B2282454431B192A
:100AD00024241B5D082B08D0C44BD2B228245443D5
:100AE0001B1922241B5D002B07D1C04BD2B2282436
:100AF00054431B19598301231800C0B210BD0000D4
:100B00002C07002038B505000C00B848EDB22821AC
:100B1000694340182421405C08280CD1B348EDB249
:100B2000282169434018232144542100C9B22800D8
:100B3000C0B200F0C2FF31BD10B504000022012197
:100B40002000C0B2FFF7C3FB10BD00B50100C9B261
:100B5000042906DA0020BC4A1080BC48017001203C
:100B600000E0002000BD38B5040001212000C0B223
:100B7000FFF7B6FA05002A0003212000C0B2FFF7F4
:100B8000A6FB31BD30B50200002089B2022927DB67
:100B900089B2AF4B994223DA0B00944CD2B228258C
:100BA00055436419E48B9BB2A34219D38F4BD2B245
:100BB000282454431B1924241B5D082B08D08B4B7D
:100BC000D2B2282454431B1922241B5D002B07D1C9
:100BD000864BD2B2282454431B1999830123180051
:100BE000C0B230BD10B50200002089B2022927DB57
:100BF00089B2974B994223DA7C4BD2B228245443D2
:100C00001B199B8B0C00A4B2A34219D3774BD2B211
:100C1000282454431B1924241B5D082B08D0734B34
:100C2000D2B2282454431B1922241B5D002B07D168
:100C30006E4BD2B2282454431B19D98301231800C8
:100C4000C0B210BD694AC0B228234343D21825233D
:100C5000D154704710B501000020644AC9B228235E
:100C60004B43D2182423D25C082A09D002225F4BBE
:100C7000C9B228244C431B1922241A550122100002
:100C8000C0B210BD0180FF43F9FFFF4910B5040059
:100C90002000C0B2FFF731FC0828F9D110BD38B5EB
:100CA00005000C00A4B2022C01DA02200400A4B258
:100CB0006748844201DBB84804004C48EDB2282163
:100CC000694340180484EDB2002D03D0022D0BD0EF
:100CD00005D30EE0200080B200F02FFE09E02000D6
:100CE00080B200F046FE04E0200080B200F05DFE1D
:100CF000FFE731BD01007A450180BB45010080421C
:100D0000FEB504000D0068463849E4B2282262436B
:100D10008918C98B81803548E4B228216143401885
:100D2000808B69468988401A06003048E4B2282141
:100D300061434018808B69468988401846433700D4
:100D400030002A49E4B2282262438918098B01F055
:100D500048F80600760838002449E4B228226243A5
:100D60008918498B01F03DF807007F08F01985428A
:100D70002DD21E48E4B2282161434018408B0090D8
:100D80001A48E4B2282161434018008B0290009871
:100D900068430299009A891801F023F80700022F8E
:100DA00006D3781E0600002E04D10120060001E0C3
:100DB000002006000D48E4B22821614340188660F7
:100DC0000A48E4B228216143401807610DE0074852
:100DD000E4B22821614340188660E81B401E0349A5
:100DE000E4B22822624389180861F7BD6805002033
:100DF00000B50200910208D5D1430A00521C9102AD
:100E0000890A08004142080000E0100000BD10B54A
:100E1000040099480068002805D0200080B2964957
:100E20000968884700E0FEE710BD80B59348006878
:100E3000002808D001209249087090480068804737
:100E400000208F49087001BD2C07002032070020C8
:100E500011270000F8B507000E0068468949097897
:100E6000C91B491E01700025002087490870EDB29A
:100E7000002D03D000F0C6FC002005000020040077
:100E800080480078844205D20020804909194872C0
:100E9000641CF5E77D48694609784018467200F001
:100EA000AFFC01200500784800780028DCD17849A3
:100EB000784800F07CFC00F0A5FCF1BD38B50500D9
:100EC0000C0020887449EDB228226A4389180883EF
:100ED00060887149EDB228226A4389184883A08846
:100EE0006D49EDB228226A4389188883E0886A49EF
:100EF000EDB228226A438918C88300206649EDB202
:100F000028226A43885000206349EDB228226A43B0
:100F10008918486000206049EDB228226A43891888
:100F2000886000205C49EDB228226A438918C860B5
:100F300000205949EDB228226A438918086100202F
:100F40005549EDB228226A43891848610020524968
:100F5000EDB228226A438918088403204E49EDB275
:100F600028226A4389182222885401204A49EDB276
:100F700028226A4389182322885408204649EDB262
:100F800028226A4389182422885421002800C0B2EC
:100F900000F084F831BD00001027000010B50400F7
:100FA000A0203D49E4B22822624389180883A0208A
:100FB0003949E4B22822624389184883C820C00016
:100FC0003549E4B22822624389188883C82080000A
:100FD0003149E4B2282262438918C88300202E498F
:100FE000E4B228226243885000202B49E4B2282230
:100FF00062438918486000202749E4B228226243EE
:101000008918886000202449E4B2282262438918A4
:10101000C86000202049E4B2282262438918086190
:1010200000201D49E4B2282262438918486100204B
:101030001949E4B22822624389180884032016491A
:10104000E4B22822624389182222885401201249DE
:10105000E4B22822624389182322885408200E49CA
:10106000E4B2282262438918242288542000C0B2A6
:1010700000F06BF810BD0000200700201C070020C6
:101080003407002032070020330700200407002027
:10109000190700200D0700206805002038B505005D
:1010A0000C00002201212800C0B2FFF710F9002235
:1010B00002212800C0B2FFF70AF90022032128000C
:1010C000C0B2FFF704F9A26809212800C0B2FFF7F7
:1010D0004DFC607D227D02430E212800C0B2FFF747
:1010E000F6F8A2690F212800C0B2FFF73FFCE269C1
:1010F00010212800C0B2FFF739FCE2681321280054
:10110000C0B2FFF733FCA07CE27C0243162128002A
:10111000C0B2FFF7DCF8A26A17212800C0B2FFF7BF
:10112000D6F82420205C617C0143227C0A432220E3
:10113000205E80B202432020205E80B2024318214C
:101140002800C0B2FFF7C3F831BD10B5040000227B
:1011500001212000C0B2FFF7BAF8002202212000CE
:10116000C0B2FFF7B4F8002203212000C0B2FFF79D
:10117000AEF8E4B2002C04D0022C00D187E043D3B7
:10118000C7E0804800F0F4FDC0B202000921200051
:10119000C0B2FFF79CF835220E212000C0B2FFF745
:1011A00096F8794800F00CFE0200D2B20F21200020
:1011B000C0B2FFF78CF8754800F002FEC0B2020022
:1011C00010212000C0B2FFF782F801221321200075
:1011D000C0B2FFF77CF88C2216212000C0B2FFF7C6
:1011E00076F8CF2217212000C0B2FFF770F8B222A4
:1011F000920118212000C0B2FFF769F800212000F9
:10120000C0B2FFF71FFD84E05E4800F0B1FDC0B240
:10121000020009212000C0B2FFF759F835220E2143
:101220002000C0B2FFF753F8574800F0C9FDC0B224
:1012300002000F212000C0B2FFF749F8534800F028
:10124000BFFDC0B2020010212000C0B2FFF73FF87E
:10125000012213212000C0B2FFF739F88C22162199
:101260002000C0B2FFF733F8CF2217212000C0B210
:10127000FFF72DF8B222920118212000C0B2FFF72B
:1012800026F800212000C0B2FFF7DCFC41E03D4819
:1012900000F06EFDC0B2020009212000C0B2FFF7CD
:1012A00016F835220E212000C0B2FFF710F836489C
:1012B00000F086FDC0B202000F212000C0B2FFF78F
:1012C00006F8324800F07CFDC0B202001021200078
:1012D000C0B2FEF7FCFF012213212000C0B2FEF7CE
:1012E000F6FF8C2216212000C0B2FEF7F0FFCF22BD
:1012F00017212000C0B2FEF7EAFFB22292011821A6
:101300002000C0B2FEF7E3FF00212000C0B2FFF7CB
:1013100099FC10BD10B504002000C0B2FEF7D8FE45
:101320001B48E4B22821614340188068002808D097
:1013300000201749E4B228226243891824228854E5
:1013400007E002201249E4B22822624389182422CD
:10135000885400200E49E4B22822624388500020BD
:101360000B49E4B2282262438918C8600848E4B2F5
:10137000282161434018C18B2000C0B2FFF78FFCC9
:1013800010BD000000007A43000040400000A8416A
:1013900068050020FEB504000120914908709148BD
:1013A000E4B2282161434018C068401C8D49E4B272
:1013B000282262438918C8608A48E4B22821614320
:1013C00040182421405C002806D0022800D12DE1DD
:1013D000032800D1BBE0E6E18248E4B22821614362
:1013E0004018C06801907F48E4B22821614340184A
:1013F000806802907B48E4B2282161434018058C44
:101400007848E4B2282161434018008B07047548EE
:10141000E4B22821614340182221405C022811D007
:101420007048E4B22821614340182221405C002822
:1014300017D001986B49E4B22822624389180969E0
:1014400088420ED102206749E4B2282262438918FB
:101450002422885400206349E4B228226243885041
:1014600074E028005F49E4B2282262438918898B1E
:1014700080B288420CD25B48E4B228216143401814
:101480002221405C00280CD001980299884208D1A2
:1014900003205449E4B22822624389182422885444
:1014A00054E00026ADB2002D01D1012005004D48C9
:1014B000E4B228216143415800913800ADB22900BF
:1014C00000F08FFC009908184649E4B228226243D4
:1014D00088504448E4B228216143405880214902A1
:1014E00088420FD33F48E4B2282161434058BB49AA
:1014F00040183C49E4B22822624388506D1C012008
:101500000600E6E7F6B2002E20D03648E4B22821E5
:1015100061434018808B290089B2884206D2314845
:10152000E4B2282161434018808B05002D48E4B2C5
:1015300028216143401805842A48E4B228216143E8
:101540004018018C2000C0B2FFF7A9FB2BE1254811
:10155000E4B2282161434018808B2249E4B228225A
:1015600062438918C9681F4AE4B228236343D2182A
:101570002223D25C022A23D01A4AE4B228236343EE
:10158000D2182223D25C002A07D0164AE4B22823BC
:101590006343D2181269914212D2124AE4B228234C
:1015A0006343D2182223D25C002A1DD102000D4BC6
:1015B000E4B2282565435B191B8C92B29A4213D280
:1015C0000222084BE4B2282565435B1924255A55AD
:1015D0000022044BE4B2282565435A5125E000BFA0
:1015E00034070020680500207D4AE4B228236343C5
:1015F000D2182223D25C002A17D1794AE4B22823D8
:101600006343D218128C03009BB29A420DD200227F
:10161000734BE4B2282565435B1924255A550022F3
:101620006F4BE4B2282565435A51BCE06C48E4B2E4
:10163000282161434018C06801906948E4B228211C
:1016400061434018058C6648E4B228216143401884
:10165000408B07046248E4B22821614340182221EC
:10166000405C022809D15E48E4B228216143401859
:10167000C08B290089B2884211D25948E4B228218E
:10168000614340182221405C00280DD00198544944
:10169000E4B22822624389184969884204D32000B1
:1016A000C0B2FFF709F87DE04D48E4B2282161435C
:1016B00040182221405C002812D14948E4B2282178
:1016C00061434018808B290089B2884208D30320E7
:1016D0004349E4B22822624389182422885461E0F5
:1016E0003F48E4B2282161434018C08B290089B2E9
:1016F000884257D20026ADB2002D01D1012005004D
:101700003748E4B228216143415800913800ADB216
:10171000290000F066FB009908183149E4B228223C
:10172000624388502E48E4B228216143405880210A
:101730004902884212D32A48E4B228216143405822
:10174000264940182649E4B2282262438850ADB2A7
:10175000022D00DB6D1E01200600E3E7F6B2002E2D
:1017600020D028001E49E4B2282262438918C98B80
:1017700080B2884206D21A48E4B228216143401858
:10178000C08B05001648E4B2282161434018058447
:101790001348E4B2282161434018018C2000C0B2F4
:1017A000FFF77DFAFFE700200E490870F7BD38B556
:1017B00004000D000C4802782900200000F0D2F946
:1017C000002802D00948FFF722FB064800780028CD
:1017D00002D001200649087031BD00000000FFFF63
:1017E0006805002034070020320700200180000037
:1017F0003307002010B50400200000F049FB10BDA5
:1018000072B6704762B6704710B586B00400E4B295
:10181000002C61D1B9480068802109030143B74811
:101820000160B648006880210903084000900098D4
:10183000B2480068802189020143B0480160AF4886
:10184000006880218902084000900098AB48006839
:101850008021C9020143A9480160A848006880218D
:10186000C9020840009000988020C0000190BC4848
:101870000290012003900120049001A99020C0054E
:1018800000F016FB00220521072000F0A3FC072032
:1018900000F0AAFC4020019001200290002003905B
:1018A0000120049001A9C44800F002FB012240215C
:1018B000C14800F0F6FB80208000019001200290DA
:1018C000002003900120049001A99020C00500F0A1
:1018D000EFFA002000F0E7F8E4B2002C03D0022C6D
:1018E0001DD00FD327E080204000019001200290FE
:1018F000002003900120049001A99020C00500F071
:10190000D7FA18E0202001900120029000200390D7
:101910000120049001A9A84800F0CAFA0BE01020A9
:10192000019001200290002003900120049001A961
:10193000A14800F0BDFA06B010BD70B5060000F079
:101940008BFF04002000B6B28021C900714300F073
:1019500048FA05006D1E99480068C5629748C56041
:1019600068089649096888630421944801F032F8B0
:1019700070BD70B5060000F06FFF04002000B6B225
:1019800080210901714300F02CFA05006D1E8C487E
:101990000068C5628A48C560680889490968486363
:1019A0000021874801F016F870BD70B5060000F000
:1019B00053FF04002000B6B280210901714300F0FA
:1019C00010FA05006D1E7F480068C5627D48C5603D
:1019D00068087C490968486300217A4800F0FAFFEA
:1019E00070BD70B58AB00500EDB22800012808D09E
:1019F00002280DD0714804007348206004200600BE
:101A00000CE06F480400714820600020060005E0EB
:101A10006C4804006E482060002006006D4860603D
:101A20000020A0600020E06000202061200000F085
:101A30006BFF6020029000200390002004900020A3
:101A40000690320002A9200001F0E7F80020009083
:101A5000002001906946200001F0F2FA0AB070BD42
:101A600010B50400E4B2002C03D0022C0BD005D337
:101A70000EE00421514800F063FF09E000215048C6
:101A800000F05EFF04E000214E4800F059FFFFE740
:101A900010BD10B504000122802189009020C005EE
:101AA00000F0FFFA10BD10B504000022802189006B
:101AB0009020C00500F0F5FA10BD38B504000D0007
:101AC000E4B2002C11D0022C01D007D315E02A007B
:101AD000D2B21021384800F0E4FA0EE02A00D2B267
:101AE0002021354800F0DDFA07E02A00D2B280213B
:101AF00049009020C00500F0D4FA31BD1410024016
:101B000010B535483549086020203449C8610020A7
:101B10003249886001203149486102202F4908611B
:101B200000202E49886207202C49C862E020C000AE
:101B30002A49C8600020294908628020800027497E
:101B4000886100202549486282204000234948607E
:101B5000224801F0A3FA04002000C0B210BD00002A
:101B600000002110F0B583B005000C001700002222
:101B70004021114800F095FA00200600FFB2BE4255
:101B800012D2802040010090012322002900134836
:101B900001F0F6FA6946087168460079002803D119
:101BA0006D1C641C761CE9E701224021024800F00C
:101BB00078FA68460079FEBD00040048440600201B
:101BC00084060020C40600200004004000200040DD
:101BD00000400140FF03000000300140E00500200C
:101BE0009D2102000AD5F446524200F007F8012276
:101BF000D2071043604700009D2102000AD002D4A2
:101C0000491E9218FCD5C905100A1206524100D38C
:101C1000012A48417047F8B40168421843685908DE
:101C2000511800918168DB0701D54B46C918009B0C
:101C30009A4202D10C30F2BC70471378521C032434
:101C400003261E4002D11678F61C521C1D090F2DCA
:101C500007D115780F35521C03E01778521C0F700E
:101C6000491C761EF9D1002DE1D01678521C9B0834
:101C70001C40032C01D11478521C2302F3185C423F
:101C80000B19AD1CD3D01C785B1C0C70491C6D1E4D
:101C9000CDD0F8E780B5C0B2401CFFF7A1FF0249E4
:101CA00001F0BAFC02BD00BF0000FA4180B5C0B22D
:101CB000401CFFF795FF024901F0AEFC02BD00BFDA
:101CC0000080BB4380B5C0B2401CFFF789FFFC21F8
:101CD000890501F0A1FC02BD0CB401221206031813
:101CE000DA4207D84B18DA4204D802000A439218A5
:101CF00002D288420CBC7047FCD08142FAE7FEE772
:101D0000944602000A43921808D0884206D1012264
:101D100012060018D042084600D88042624670473A
:101D20000CB4012212060318DA4207D84B18DA4223
:101D300004D802000A43921802D281420CBC7047B8
:101D4000FCD088420CBC704700180ED2010E7F39BF
:101D50000BD449421F3105D4C0010122D2071043E0
:101D6000C84070470020401E704700207047FEE7C3
:101D700080B5074901F0A8FC064901F04DFCFC21A3
:101D8000890501F0A1FC01F02BFDC0B202BD00BF2E
:101D90000000FAC16F12033D80B5074901F094FCC1
:101DA000064901F039FCFC21890501F08DFC01F0A8
:101DB00017FDC0B202BD00BF0080BBC30FB82E3BF1
:101DC00080B5BF21090601F07FFC8021C90501F023
:101DD00023FCFC21890501F077FC01F001FDC0B274
:101DE00002BD0022030A8B420BD203098B4219D297
:101DF00043088B422ED2411A00D20146524110466E
:101E00007047FF2209023FD012068B4205D31212FF
:101E100009028B4201D31212090203098B4219D322
:101E200000E0090AC3098B4201D3CB01C01A524119
:101E300083098B4201D38B01C01A524143098B4263
:101E400001D34B01C01A524103098B4201D30B014C
:101E5000C01A5241C3088B4201D3CB00C01A524171
:101E600083088B4201D38B00C01A524143088B4236
:101E700001D34B00C01A5241884200D3401A52414C
:101E8000CFD201461046704708B501F0C7FC08BD27
:101E900031B501F0C5FC0400009D0020C04385421F
:101EA00000D06D1C01F0BCFC001BA842FAD331BD70
:101EB000F8B502000023002400250868D840002857
:101EC00000D1DFE0086801269E4006403400002C67
:101ED00000D1D5E04868022802D0486812281BD1FA
:101EE000D808042670431018006A05000F201E0051
:101EF0007607760F04277E43B040854308691E00AD
:101F00007607760F04277E43B04028430500D808A3
:101F100004267043101805621068050003201E0097
:101F200002277E43B040854308798007800F1E005A
:101F300002277E43B0402843050015604868012809
:101F400008D04868022805D04868112802D048689F
:101F500012281CD19068050003201E0002277E4332
:101F6000B0408543C8681E0002277E43B040284326
:101F70000500956050680500012098408543486839
:101F80000600F606F60F9E402E4335005560D068D9
:101F9000050003201E0002277E43B0408543886869
:101FA0001E0002277E43B04028430500D5604868E4
:101FB000C00065D54A4800680126064348480660C7
:101FC000474800680600F607F60F00960098454857
:101FD0009E0804277E43805905000F201E00B60787
:101FE000B60F04277E43B04085439020C00582424F
:101FF00001D100200FE03C48824201D101200AE0DB
:102000003A48824201D1022005E03948824201D19A
:10201000032000E005201E00B607B60F04277E430C
:10202000B040284305002F489E0804277E43855171
:10203000304800680500A5434868C00300D5254323
:102040002C4805602C4800680500A54348688003BB
:1020500000D5254328480560284800680500A543A9
:102060004868C00200D5254324480560244800681C
:102070000500A5434868800200D525432048056037
:102080005B1C1AE7F1BD00B50200136989B20B4071
:10209000002B02D00123180001E000231800C0B279
:1020A00000BD00B5D2B2002A02D089B2816101E040
:1020B00089B2816200BD426989B24A40426170477B
:1020C00010B504000F480068A4B22040002806D0D4
:1020D000A4B20C480460200080B201F0DBFC10BD0B
:1020E00018100240080001400004004800080048A1
:1020F000000C0048000401400404014008040140B1
:102100000C0401401404014000B540B2002805D47D
:102110000121C206D20E91403A4A116000BDF0B5CD
:1021200040B200281BD4384A40B2830804246343D9
:10213000D258FF238407A40F08256C43A3409A4379
:102140008B01DBB28407A40F08256C43A340134323
:102150002D4A40B2840804256C43135120E02B4CD7
:1021600040B20207120F083A950804225543274A45
:1021700040B203071B0F083B9B0804267343D25849
:10218000FF238607B60F08277E43B3409A438B018F
:10219000DBB28607B60F08277E43B3401343635173
:1021A000F0BD10B50400601E80214904884201D3AF
:1021B00001200EE0601E1649086003210020C04384
:1021C000FFF7ADFF0020134908600720124908609F
:1021D000002010BD70B504000D001600290020007D
:1021E00040B2FFF79CFF70BD10B50400200040B264
:1021F000FFF78AFF10BD10B504002000FFF7D1FFE4
:1022000010BD000000E100E000E400E01CED00E093
:1022100014E000E018E000E010E000E070B582B0EB
:10222000040000252078C00770D5AB4800680C2159
:102230000140042909D0A84800680C210140082960
:102240000CD1A5480068C00308D5BB4800688003CE
:102250005CD56068002859D1012033E2606801280C
:1022600007D1B5480068802149020143B2480160A6
:102270002DE0606800280CD1AF480068AF490140EC
:10228000AD480160AC480068AD490140AA48016012
:102290001DE0606805280ED1A74800688021C902AA
:1022A0000143A5480160A448006880214902014318
:1022B000A14801600BE0A0480068A04901409E4889
:1022C00001609D4800689E4901409B48016060682C
:1022D00000280DD001F0A4FA05009748006880039B
:1022E00014D401F09DFA401B6528F6D30320E9E1E0
:1022F00001F096FA050090480068800306D501F0C9
:102300008FFA401B6528F6D30320DBE12078800795
:1023100057D5714800680C210140002909D06E484A
:1023200000680C210140082916D16B480068C003E1
:1023300012D481480068800704D5E068012801D0E4
:102340000120BFE17C480068F82188432169C90069
:1023500001437948016034E0E06800281DD07648E8
:102360000068012101437448016001F059FA050039
:1023700071480068800706D401F052FA401B032818
:10238000F6D303209EE16C480068F8218843216958
:10239000C90001436848016013E0674800680121F3
:1023A00088436549086001F03BFA0500624800680F
:1023B000800706D501F034FA401B0328F6D303202A
:1023C00080E1207800072AD5E069002813D0BE48B4
:1023D000006801210143BC48016001F021FA0500B9
:1023E000B948006880071AD401F01AFA401B032884
:1023F000F6D3032066E1B448006801218843B2495E
:10240000086001F00DFA0500AF480068800706D5A6
:1024100001F006FA401B0328F6D3032052E120788E
:10242000400700D497E00026A8480068C0000FD4F9
:10243000A6480068802149050143A4480160A348DB
:10244000006880214905084000900098012006009E
:102450009F480068C00514D49D4800688021490049
:1024600001439B48016001F0DBF9050098480068D2
:10247000C00506D401F0D4F9401B6528F6D303202B
:1024800020E1A068012806D192480068012101439B
:10249000904801602EE0A06800280CD18D480068AB
:1024A000012188438B4908608A48006804218843D9
:1024B000884908601EE0A06805280FD1854800689B
:1024C00004210143834801608248006801210143DF
:1024D000804801600EE000BF041002407D480068A3
:1024E000012188437B4908607A48006804218843B9
:1024F00078490860A06800280ED001F091F9050025
:102500007448006880071DD401F08AF9401B7249A5
:102510008842F5D30320D5E001F082F905006D482B
:10252000006880070ED501F07BF9401B6A4988429C
:10253000F5D30320C6E000BF00100240FFFFFEFFFE
:10254000FFFFFBFFF6B2012E05D16048006863492A
:1025500001405E4801602078C00655D560690128B9
:1025600023D15F480068042101435D4801605C4855
:102570000068012101435A48016001F051F905004A
:1025800057480068800706D401F04AF9401B032829
:10259000F6D3032096E052480068F8218843A169E9
:1025A000C90001434E4801602EE060690421C9431F
:1025B00088420FD14A48006804218843484908608E
:1025C00047480068F8218843A169C900014344488D
:1025D000016019E04248006804210143404801605D
:1025E0003F480068012188433D49086001F018F91F
:1025F00005003B480068800706D501F011F9401B33
:102600000328F6D303205DE0206A002859D08D48C6
:1026100000680C210140082951D0206A02283AD1D3
:1026200089480068894901408748016001F0F8F84D
:10263000050085480068800106D501F0F1F8401BCF
:102640000328F6D303203DE0814800680F2188432A
:10265000E16A01437E4801607A4800687D49014093
:10266000A06A0843616A01437648016076480068C1
:102670008021490401437448016001F0D1F805004C
:102680007148006880011CD401F0CAF8401B03287F
:10269000F6D3032016E06C4800686C4901406A4894
:1026A000016001F0BDF8050067480068800108D5A9
:1026B00001F0B6F8401B0328F6D3032002E0012006
:1026C00000E0002076BD0000241002401C100240F3
:1026D000007000402010024089130000FFFFFFEF50
:1026E0003410024070B505000C0000267B480068DD
:1026F0000100C907C90FA1420FD278480068012123
:102700008843204375490860744800680100C90780
:10271000C90FA14201D0012092E02878800707D597
:1027200048480068F0218843A96801434548016092
:102730002878C00752D56868012805D1424800684A
:10274000800310D401207BE06868022805D13E4850
:102750000068800107D4012072E03B4800688007D0
:1027600001D401206CE03748006803218843696880
:1027700001433448016001F053F8060068680128FD
:102780000DD1304800680C210140042926D001F009
:1027900047F8801B52498842F3D3032050E0686811
:1027A00002280DD1274800680C210140082915D0C6
:1027B00001F036F8801B4A498842F3D303203FE0FA
:1027C000204800680C210140002907D001F028F8BA
:1027D000801B43498842F3D3032031E03F4800681F
:1027E0000100C907C90F8C420FD23C480068012183
:1027F0008843204339490860384800680100C90708
:10280000C90FA14201D001201AE02878400707D55E
:102810000C48006833490140E868084309490860EA
:1028200000F01AF83049074A126812091207120F0D
:10283000895CC8402D490860032001F035F900206B
:1028400070BD00000410024000100240FFFFFFFEB8
:102850002C100240FFFFC2FFF0B589B005A8254942
:10286000102201F033F901A82349102201F02EF9BA
:102870000024002000900025002600271C48006846
:1028800004000C202040042802D0082803D01DE0BA
:102890001A4807001CE005A8A10C0907090F405CB5
:1028A000060001A8164909680907090F405C009055
:1028B000E00306D511480099FFF793FA704305002D
:1028C00002E01048704305002F0001E00B480700AC
:1028D000380009B0F0BD054800687047002002408C
:1028E00089130000FFF8FFFFF04600086401002094
:1028F00004100240D0460008E046000800127A00AA
:102900002C10024000093D0010B50400002C01D13C
:10291000012014E03D20205C002805D100203C214E
:102920006054200000F0E4FF02203D216054211D8E
:10293000206800F0F7F901203D216054002010BD0F
:1029400038B504000D0000222900206800F068FB63
:1029500020684C4988420BD020684B49884207D0F8
:1029600020684A49884203D020681949884201D129
:10297000012000E00020C0B2002811D02068006AC9
:102980003E49014000290BD12068006A40490140BE
:10299000002905D12068406C394901402068416414
:1029A0002068006A3549014000290BD12068006A7F
:1029B00037490140002905D120680068012188437A
:1029C0002168086001203D216054002032BD0000D4
:1029D0000048014038B504000D002800002806D04A
:1029E00004280BD0082810D00C2815D01BE0206834
:1029F000C068022101432068C16014E02068C068FB
:102A0000042101432068C1600DE02068C0680821EE
:102A100001432068C16006E02068C06810210143BE
:102A20002068C160FFE701222900206800F0F8FA61
:102A30002068144988420BD020681349884207D087
:102A400020681249884203D020681249884201D187
:102A5000012000E00020C0B2002806D02068406CB1
:102A60008021090201432068416420680068012137
:102A7000014320680160002032BD000011110000F8
:102A8000FF7FFFFF002C0140004001400044014057
:102A9000440400000048014010B5040020680069AB
:102AA00080071BD52068C068800717D50220C04367
:102AB0002168086101202077206880698007800FE5
:102AC000002803D0200001F01BF805E0200001F0F1
:102AD00018F8200000F08AFF0020207720680069A5
:102AE00040071CD52068C068400718D50420C043A3
:102AF000216808610220207720688069C021890050
:102B00000140002903D0200000F0FAFF05E020007A
:102B100000F0F7FF200000F069FF00202077206818
:102B2000006900071BD52068C068000717D508207A
:102B3000C04321680861042020772068C0698007AD
:102B4000800F002803D0200000F0DAFF05E020000D
:102B500000F0D7FF200000F049FF00202077206818
:102B60000069C0061CD52068C068C00618D51020B2
:102B7000C04321680861082020772068C069C0210F
:102B800089000140002903D0200000F0B9FF05E0D2
:102B9000200000F0B6FF200000F028FF0020207782
:102BA00020680069C0070AD52068C068C00706D53C
:102BB0000120C04321680861200000F0A3FF2068C5
:102BC000006900060AD52068C068000606D5802086
:102BD000C04321680861200000F095FF206800696B
:102BE00040060AD52068C068400606D54020C0438C
:102BF00021680861200000F087FF206800698006D6
:102C00000AD52068C068800606D52020C043216808
:102C10000861200000F079FF10BD70B504000D00C0
:102C200016003C20205C012801D1022076E0012022
:102C30003C21605402203D2160543000002806D021
:102C400004281BD0082832D00C2847D05FE0290088
:102C5000206800F0A9F820688069082101432068F5
:102C60008161206880690421884321688861206827
:102C70008069296901432068816148E02900206852
:102C800000F0DDF820688069802109010143206897
:102C90008161206880692249014020688161206843
:102CA0008069296909020143206881612FE02900B8
:102CB000206800F00DF92068C069082101432068F0
:102CC000C1612068C069042188432168C861206807
:102CD000C069296901432068C16118E029002068A2
:102CE00000F04CF92068C069802109010143206887
:102CF000C1612068C0690A4901402068C16120683B
:102D0000C0692969090201432068C161FFE7012008
:102D10003D21605400203C216054002070BD000023
:102D2000FFFBFFFF00B5002203681A008D4B98429D
:102D300002D08D4B984204D170239A4313004A6805
:102D40001A43884B98420ED0874B98420BD0874B42
:102D5000984208D0864B984205D0864B984202D0C4
:102D6000A24B984205D11300834A1A401300CA6847
:102D70001A4380239A4313004A691A4302608B68FE
:102D8000C3620B688362774B984208D0784B9842B5
:102D900005D0784B984202D0944B984201D10B69F0
:102DA00003630123436100BD70B5002200230024AA
:102DB000056A0126B5430562056A2B0045682C00AB
:102DC00085692A007025AA430325AA4315000A68CD
:102DD0002A430225AB431D008B682B43614DA8425B
:102DE00008D0634DA84205D0624DA84202D07F4D65
:102DF000A84206D10825AB431D00CB682B43042510
:102E0000AB43584DA84208D0594DA84205D0594D62
:102E1000A84202D0754DA8420BD12500744C2C401D
:102E20002500754C2C4025004C692C4325008C69ED
:102E30002C43446082614D684563036270BD70B588
:102E4000002200230024056A1026B5430562056AA6
:102E50002B0045682C0085692A001500654A2A4028
:102E60001500454A2A4015000A6812022A43202507
:102E7000AB431D008B681B012B433A4DA84207D181
:102E80008025AB431D00CB681B012B434025AB4382
:102E9000344DA84208D0364DA84205D0354DA84241
:102EA00002D0524DA8420DD12500544C2C40250093
:102EB000534C2C4025004C69A4002C4325008C6900
:102EC000A4002C43446082614D688563036270BD39
:102ED00070B5002200230024056A454E2E4006628C
:102EE000056A2B0045682C00C5692A007025AA4395
:102EF0000325AA4315000A682A431D003E4B2B40B8
:102F00001D008B681B022B43164DA84209D11D00E2
:102F10003B4B2B401D00CB681B022B431D00374B46
:102F20002B40104DA84208D0114DA84205D0114D9C
:102F3000A84202D02D4DA8420DD12500314C2C4085
:102F40002500314C2C4025004C6924012C432500E0
:102F50008C6924012C434460C2614D68C5630362DF
:102F600070BD0000002C0140000400400020004023
:102F70000040014000440140FFFCFFFF70B500220B
:102F800000230024056A1F4E2E400662056A2B00AE
:102F900045682C00C5692A001500164A2A4015000C
:102FA0001A4A2A4015000A6812022A431D00164BCD
:102FB0002B401D008B681B032B43154DA84208D0E6
:102FC000144DA84205D0144DA84202D0074DA84286
:102FD00006D12500114C2C4025004C69A4012C433E
:102FE0004460C2614D680564036270BD00480140E1
:102FF000FFFEFFFFFF8FFFFFFFFDFFFFFFFBFFFF58
:10300000FFF7FFFFFFEFFFFFFFDFFFFFFFFCFFFF0B
:10301000002C01400040014000440140FFBFFFFF81
:1030200030B4002301248C402300046A9C430462D2
:10303000046A15008D402543056230BC7047FEE7E9
:1030400000B502003C20105C012801D1022024E0E0
:1030500001203C23D05402203D23D0541068406806
:103060007023984313685860106840680B680343E6
:1030700010684360106880688023984313689860E4
:10308000106880684B6803431068836001203D230B
:10309000D05400203C23D054002000BD38B504009B
:1030A000002C01D1012065E0606A00280020A062A8
:1030B0005D20205C002805D100205C2160542000A8
:1030C00000F0B4FB02205D216054206800684021BC
:1030D000884321680860E0682749884202D30020BD
:1030E000050002E0802040010500E068F0210901B0
:1030F000884206D0E068E021C900884201D0002063
:10310000A062206B002808D1E0681B49884202D3E6
:103110000220206301E0012020636068A168014370
:103120002069084361690143A06980229200104030
:103130000843E1690143206A0843A16A014320680A
:103140000160A069000C04210840616A0143606BC2
:103150000843E16801432943206841602068C06951
:10316000064901402068C1610020206601205D21E0
:103170006054002032BD000001070000FFF7FFFF90
:10318000F8B584B004000D00160000200290002065
:103190000390002001900127002069460870E06834
:1031A000A949884203D26846008A0228FFD35C20DE
:1031B000205C012801D1022044E101205C216054FF
:1031C00000F02EFB01905D20205C0290606803906F
:1031D000029801280ED0039882214900884205D127
:1031E000A068002802D10298042803D00220694672
:1031F00008701FE1002D05D0002E03D06846008A1C
:10320000002803D101206946087013E15D20205C8D
:10321000042802D005205D21605400202066266429
:103220006846008A462160526846008A44216052FE
:10323000A5636846008AE0876846008AA087002068
:10324000E06400202065E0687F49884203D2462080
:10325000205A022808D320684068024901402068AB
:10326000416008E0FFEFFFFF2068406880214901CE
:1032700001432068416020680068400605D420684A
:1032800000684021014320680160E0686E4988427F
:1032900049D36068002802D0E08F012806D1288831
:1032A0002168C860AD1CE08F401EE087E08F0028D9
:1032B00004D14620205A002800D1ACE0002F0FD0C6
:1032C000E08F00280CD020688068800708D5288807
:1032D0002168C860AD1CE08F401EE0870020070019
:1032E0004620205A00280ED020688068C0070AD5E2
:1032F0002068C0683080B61C4620205A401E4621F7
:103300006052012007000A980021C9438842CDD0AD
:1033100000F086FA0199401A0A998842C6D3032020
:103320006946087086E06068002802D0E08F0128B6
:1033300011D1E08F022807D328882168C860AD1C0E
:10334000E08F801EE08706E02878216808736D1CF6
:10335000E08F401EE087E08F002803D14620205AEE
:10336000002858D0002F1AD0E08F002817D02068EE
:103370008068800713D5E08F022807D3288821684A
:10338000C860AD1CE08F801EE08706E028782168C9
:1033900008736D1CE08F401EE08700200700462068
:1033A000205A002827D020688068C00723D54620EF
:1033B000205A022814D32068C0683080B61C4620EA
:1033C000205A801E462160524620205A022810D2E0
:1033D000206840688021490101432068416008E07D
:1033E0002068007B3070761C4620205A401E462103
:1033F0006052012007000A980021C9438842AAD0E0
:1034000000F00EFA0199401A0A998842A3D30320CA
:10341000694608700EE0019A0A99200000F0C6F88B
:10342000002801D020202066206E002802D0012034
:103430006946087001205D21605400205C216054C1
:103440006846007805B0F0BD01070000F4B504003F
:103450000F001D00069E206880683840B84201D1E8
:10346000012000E00020009988423FD00020C043A6
:103470008542F0D0002D04D000F0D2F9801BA84284
:10348000E9D320684068E02188432168486060688B
:103490008221490088420FD1A06880210902884218
:1034A00004D0A0688021C900884205D12068006846
:1034B0004021884321680860A06A802189018842F0
:1034C0000CD12068006838490140206801602068FC
:1034D00000688021890101432068016001205D218D
:1034E000605400205C216054032000E00020F2BD05
:1034F000F2B582B0040017001D00089E20688068A5
:1035000002990140B9424CD00298C021C9008842BA
:1035100007D1002F05D12068007B694608706846F6
:1035200000780020C0438542E8D0002D04D000F090
:1035300077F9801BA842E1D320684068E0218843E6
:103540002168486060688221490088420FD1A068E4
:1035500080210902884204D0A0688021C9008842E5
:1035600005D1206800684021884321680860A06A6E
:103570008021890188420CD1206800680A490140F5
:10358000206801602068006880218901014320686B
:10359000016001205D21605400205C216054032003
:1035A00000E00020FEBD0000FFDFFFFF70B582B02D
:1035B00004000D00160000962B000022C0214901D6
:1035C0002000FFF795FF002805D0206E2021014341
:1035D000216603201FE000962B000022802120009E
:1035E000FFF734FF002805D0206E2021014321661B
:1035F000032010E000962B000022C021C90020000B
:10360000FFF776FF002805D0206E202101432166B8
:10361000032000E0002076BD30B405004D400122BB
:10362000D20715404B180418240E2ED01B0E32D092
:10363000FF2C34D0FF2B3AD0E418000209021043CB
:103640001143000A090A9446C2B24A43000AC3B2AF
:103650004B43000A4843110A5B181A43D2B2190AB5
:10366000091801D44918641E080A7F3C23DBFE2C8C
:1036700008DAE4050906114363469941604128438D
:1036800030BC7047FF20C005F9E728001B0EFF2B58
:10369000F6D1D043F4E72800FF2CF1D1F9E740023E
:1036A000F7D1FF2B01D14902F3D1E005E7E7D805B7
:1036B0004902E4D0EDE743020020641CDFD15B1235
:1036C0009B1CDCD9D805DAE70122D20703004B4066
:1036D0002ED4431A01D2C01AC91830B44B1804189A
:1036E000240E1B0E22D0FF2C20D0E31A182B1DDC39
:1036F00009021143C40D641E0002104394461925AB
:10370000ED1A0A00AA40D940451801D36D08A41C3F
:10371000E405D209280A2D062A436546AA416041DC
:1037200003181B0EFF2B01D3C00DC00530BC704722
:10373000514001E05140CCE7431A03D2C01AC918E6
:103740005040514030B44B18090211430418240E64
:103750001B0E40D0FF2C3AD025009D410BD31ED824
:10376000C50D4002401A0BD3ED050100400AC90502
:1037700091416841DAE7C50D40024918401AD5D099
:1037800001214008491C0018FCD58C4204D36D1A55
:10379000000AED054019C9E7E8051040C6E7182DF5
:1037A000C4DCAC1C0D00E140E5414D40012D494118
:1037B000C40D00021043451A01D46D199543641ECF
:1037C000E405280A2D069541604130BC7047FF2B67
:1037D000ACD1D843AAE72442A8D10020A6E7FEE74F
:1037E0000122D2070118090E7F3910D449421F3136
:1037F0000FD4001805D2C0011043C84000D5D043F3
:103800007047C0011043C84005D4404270470020B3
:1038100070470042F3D510007047FEE77047FEE79F
:1038200001480068704700BF2807002010B586B027
:10383000040020686B49884258D16B480068802199
:103840008902014368480160674800688021890255
:103850000840009000986448006880218902014374
:10386000614801606048006880218902084000903A
:1038700000985D4800688021890201435A48016030
:1038800059480068802189020840009000987A48D1
:10389000006880214901014377480160764800684B
:1038A00080214901084000900098202001900220CA
:1038B000029000200390012004900020059001A9AF
:1038C0009020C005FEF7F4FA4020019000200590FA
:1038D00001A99020C005FEF7EBFA8020019000209E
:1038E000059001A99020C005FEF7E2FA06B010BDD0
:1038F00010B586B0040020686049884222D1604833
:103900000068022101435E4801605D4800680221B1
:103910000840009000988020019002200290002032
:103920000390002004900120059001A95548FEF75E
:10393000BFFA002204211020FEF74CFC1020FEF7F5
:1039400053FC4DE020685049884222D14C48006821
:103950008021490001434A480160494800688021AC
:103960004900084000900098082001900120029032
:10397000002003900020049001A94448FEF798FA23
:10398000002203211320FEF725FC1320FEF72CFC58
:1039900026E020683E49884222D1374800688021CD
:1039A00049020143344801603348006880214902DC
:1039B0000840009000988020C000019001200290F3
:1039C000002003900020049001A93048FEF770FA0F
:1039D000002203211420FEF7FDFB1420FEF704FC57
:1039E00006B010BD003001401410024010B50400B4
:1039F0002068224988420AD1207F022807D100206E
:103A000000F008F9082802D0002000F099FA206898
:103A10001D49884214D1207F012811D108211B485B
:103A2000FEF749FB012000F0F5F8082808D008212E
:103A30001648FEF728FB012802D1012000F080FA89
:103A400020681349884216D1207F012813D1802194
:103A5000C9000E48FEF72FFB022000F0DBF8082813
:103A600009D08021C9000948FEF70DFB012802D1C9
:103A7000022000F065FA10BD18100240000400405A
:103A80001C100240000800480020004000040048CC
:103A90000040014010B50400A4B28020C000844260
:103AA00001D100F08AF810BD10B50400FEF713FF35
:103AB000FA218900FEF795F9FEF79DFB002221000F
:103AC0000020C043FEF786FB002010BD70B4103A02
:103AD00003D378C9103A78C0FBD2530701D318C971
:103AE00018C001D508C908C0D20704D30B880380C9
:103AF000891C801C002A01D50B78037070BC7047AC
:103B000070477047704770477047704710B50400A2
:103B10004D48006800280AD04B480068806800289B
:103B200005D02000484909688968884702E0544860
:103B300000F016F810BD10B50400434800680028D6
:103B40000AD041480068C068002805D020003E49DE
:103B50000968C968884702E0554800F001F810BDBF
:103B600010B504003848006800280DD036480068B9
:103B7000F0214058002807D0200080B2324909685F
:103B8000F0228958884700E0FEE710BD38B50500EF
:103B90000C006048006800280AD05E480068006891
:103BA000002805D020005B4909680968884703E0C0
:103BB00080200001FFF7D4FF31BD80B522480068A6
:103BC000002809D0204800684069002804D01E4819
:103BD00000684069804702E05A48FFF7C1FF01BD15
:103BE00038B5040000251848006800280CD0164895
:103BF0000068C069002807D02000C0B212490968D7
:103C0000C9698847050002E05D48FFF7A9FF280061
:103C100080B232BD38B5040008250B480068002882
:103C20000CD009480068406A002807D02000C0B2C4
:103C300005490968496A8847050002E06D48FFF7B1
:103C40008FFF2800C0B232BD2407002038B5040021
:103C500000253048006800280CD02E480068806B92
:103C6000002807D02000C0B22A490968896B88471C
:103C7000050002E0A348FFF773FF280032BD0000F3
:103C80000208000010B504002248006800280BD08C
:103C900020480068C06B002806D02000C0B21D4933
:103CA0000968C96B884702E0A448FFF759FF10BDB7
:103CB0000308000010B504001648006800280BD067
:103CC00014480068006C002806D02000C0B21149DA
:103CD0000968096C884703E081200001FFF740FF75
:103CE00010BD000038B505000C000A480068002827
:103CF0000CD008480068406C002807D0210028003C
:103D0000C0B2044A1268526C904702E0A248FFF722
:103D100027FF31BD2407002010B504009F4800682C
:103D200000280BD09D480068806C002806D0200039
:103D3000C0B29A490968896C884702E0A348FFF736
:103D40000FFF10BD0508000070B504000E0015003F
:103D50009248006800280ED090480068C06C002887
:103D600009D02A003100C9B22000C0B28B4B1B68B9
:103D7000DB6C984702E09648FFF7F2FE70BD00004A
:103D80000708000038B505000C00844800680028CA
:103D90000DD082480068406D002808D02100C9B2CB
:103DA0002800C0B27D4A1268526D904702E0A648D2
:103DB000FFF7D6FE31BD000070B504000E000025EF
:103DC0007648006800280ED074480068806D00288E
:103DD00009D0310089B22000C0B2704A1268926DD9
:103DE0009047050002E09948FFF7BAFE2800C0B2EC
:103DF00070BD00000908000070B504000E00002529
:103E00006648006800280ED064480068C06D00282D
:103E100009D0310089B22000C0B2604A1268D26D68
:103E20009047050002E08A48FFF79AFE2800C0B2DA
:103E300070BD000010B504005848006800280BD081
:103E400056480068006E002806D02000C0B25349D2
:103E50000968096E884702E07E48FFF781FE10BDC1
:103E600010B504004D48006800280BD04B4800688E
:103E7000406E002806D02000C0B248490968496E4B
:103E8000884702E07448FFF76BFE10BD70B5040070
:103E90000E0000254148006800280ED03F48006809
:103EA000806E002809D0310089B22000C0B23B4AA0
:103EB0001268926E9047050002E06848FFF750FED6
:103EC0002800C0B270BD000070B504000E000025CF
:103ED0003248006800280ED030480068C06E0028C4
:103EE00009D0310089B22000C0B22C4A1268D26ECB
:103EF0009047050002E06A48FFF732FE2800C0B292
:103F000070BD00000E08000038B5040000252348ED
:103F1000006800280CD021480068006F002807D0F6
:103F20002000C0B21D490968096F8847050002E0FA
:103F30005C48FFF715FE2800C0B232BD0F08000034
:103F400010B504001548006800280BD0134800681D
:103F5000406F002806D02000C0B210490968496FA0
:103F6000884702E05048FFF7FBFD10BD10B5040084
:103F70000A48006800280BD008480068806F0028B5
:103F800006D02000C0B205490968896F884702E061
:103F90004648FFF7E5FD10BD11080000240700208A
:103FA00010B504004248006800280BD04048006863
:103FB000C06F002806D02000C0B23D490968C96F13
:103FC000884702E03B48FFF7CBFD10BD1208000018
:103FD0001308000070B504000E0000253448006886
:103FE00000280FD03248006884214058002809D0AA
:103FF00031002000C0B22E4A12688423D258904764
:10400000050002E02C48FFF7ABFD280070BD000062
:1040100038B5040000252648006800280ED0244842
:10402000006888214058002808D02000C0B22049EC
:104030000968882289588847050002E01F48FFF771
:104040008FFD280080B232BD150800001608000060
:104050001708000018080000190800001A080000DE
:1040600070B504000E00002511480068002810D02B
:104070000F480068A021405800280AD03100C9B27A
:104080002000C0B20A4A1268A023D2589047050007
:1040900002E00B48FFF764FD2800C0B270BD0000CD
:1040A0001B0800001C0800001D0800001E0800007E
:1040B000240700201F08000021080000220800003B
:1040C0002808000070B505000C003848058000265F
:1040D000ADB23748854204D1FCF721FA3549086072
:1040E0004AE0ADB2012D04D100F070F8314908600A
:1040F00042E0ADB23048854204D100F069F82D4964
:10410000086039E0ADB2C2204001854204D100F020
:1041100061F8284908602FE0ADB2DC2D04D100F031
:104120005BF82449086027E0ADB22448854203D0FB
:10413000ADB22348854204D100F050F81D49086013
:104140001AE0ADB21F48854203D0ADB21E48854289
:1041500004D100F045F8174908600DE0ADB2F02D2C
:1041600002D0ADB2FA2D04D100F03CF8114908603C
:1041700002E000200F4908600E480068002812D0B5
:104180000C480068A2214900405800280BD0E4B236
:10419000002C08D02000C0B206490968A2225200B3
:1041A0008958884706003000C0B270BD3007002033
:1041B0004A190000240700203E180000461900009C
:1041C00048190000501900005219000000207047E3
:1041D0000020704700207047002070470020704783
:1041E000002070470020704738B500F05BF900F000
:1041F0006AF90121A448FFF765FF0021A248FFF7F3
:10420000C5FCA248FFF797FCA148FFF77FFCFA2204
:10421000920101210020FFF797FD0020FFF7A6FE85
:10422000FA20C000FDF734FEFA229201002100209E
:10423000FFF78AFD0020FFF799FE0020FFF7FAFD47
:10424000FA20C000FDF724FE92490020FFF74AFD46
:104250000020FFF78BFE0020FFF7F8FC05008D48DB
:10426000854202D00B2000F00BF90020FFF7F8FD8B
:10427000FA20C000FDF70CFE0020FFF703FD002030
:10428000FFF774FE0020FFF7E1FC0500FA20C000F4
:10429000FDF7FEFDC82149010020FFF723FD0020A6
:1042A000FFF764FE0020FFF7D1FC0500FA20C000F4
:1042B000FDF7EEFD0020FFF7FDFC0020FFF756FEA6
:1042C0000020FFF7C3FC0500FA20C000FDF7E0FD69
:1042D00000210020FFF756FD6F48FDF7D9FD0020B3
:1042E000FFF77EFC0400962109010020FFF7CEFDB8
:1042F0006948FDF7CDFD0020FFF772FC0400962110
:10430000C9000020FFF7C2FD6348FDF7C1FD002092
:10431000FFF766FC0400F02149000020FFF74CFD88
:104320005D48FDF7B5FD962109010020FFF7AEFDC0
:104330005948FDF7ADFD0020FFF752FC0400A4B280
:1043400096200001844202D00A2000F099F8F02162
:1043500049000020FFF750FD4F48FDF799FD9621D9
:10436000C9000020FFF792FD4B48FDF791FD0020AA
:10437000FFF736FC04000020FFF7C6FD0020FFF722
:10438000F5FDFA20C000FDF783FD01210020FFF7B5
:10439000F9FC4148FDF77CFD0020FFF7BDFC002043
:1043A000FFF7E4FD0020FFF7FBFDFA20C000FDF75A
:1043B0006FFD3A490020FFF795FC3748FDF768FD8F
:1043C0000020FFF7A1FD0020FFF7D0FDFA20C0007C
:1043D000FDF75EFD1F210020FFF7FCFDFA204000E5
:1043E000FDF756FD00210020FFF73AFE6421002072
:1043F000FFF74CFD32210020FFF766FD0A21002067
:10440000FFF7DAFC0A210020FFF7F6FCC8210020A4
:10441000FFF768FC0020FFF7A9FD0020FFF716FC5E
:104420000500FA20C000FDF733FD04210020FFF74E
:1044300017FEC821C9000020FFF728FDC821890008
:104440000020FFF741FDA0210020FFF7B5FCA021CF
:104450000020FFF7D1FC0F490020FFF743FC0020AC
:10446000FFF784FDC82149010020FFF73BFC002035
:10447000FFF77CFDEFE780B50020FFF7C9FD01BD28
:1044800000B507490880FEE74A1900007744000894
:104490008144000800E7FFFF88130000204E000061
:1044A0002E07002080B5064800681021014304480B
:1044B00001600320FFF7F8FA00F004F8002002BDC5
:1044C00000200240704700B591B000200490022007
:1044D0000C9000200D9001200F90A02080030E90E2
:1044E00004A8FDF79BFE002802D00020FFF7C8FFBC
:1044F00007200090022001900020029000200390ED
:1045000001216846FEF7EEF8002802D00120FFF7EF
:10451000B7FF11B000BDFEE7194800680121014353
:1045200017480160174800681749014015480160A5
:10453000134800681549014011480160104800689F
:10454000134901400E4801600E48006811490140BE
:104550000C480160104800680F2188430E4908602C
:104560000E4800680E4901400C4801600D48006883
:10457000012188430B49086000200B4908607047FF
:1045800000100240041002400CB8FF08FFFFF6FEC6
:10459000FFFFFBFFFFFFC0FF2C1002403010024066
:1045A000ECFEFFFF3410024008100240704700B5D7
:1045B000FEE77047704780B500F01CF801BD80B57C
:1045C0008020C000FDF77CFD01BD80B50648FEF7E8
:1045D00063FA01BD80B50548FEF75EFA01BD80B5FE
:1045E0000348FEF759FA01BD840600204406002066
:1045F000C406002002480068401C0149086070475A
:104600002807002070B40121002213E00468001D77
:104610000C4202D04D466D1E64192260241D1B1FE2
:10462000042BFAD225009E0701D52280AD1C0B4039
:1046300000D02A700368001D002BE7D170BC7047C2
:1046400010B5074979441831064C7C44163404E00F
:10465000081D0A68891888470100A142F8D110BDD9
:1046600008000000240000009DFFFFFFD0010000B3
:1046700068050020000000009FD5FFFFB800000083
:104680008A0100000000002000F00BF8002801D093
:10469000FFF7D6FF002000BF00BFFFF7A5FD00F029
:1046A00002F80120704780B500F002F801BDFEE776
:1046B0000746384600F002F8FBE7FEE780B500BF8A
:1046C00000BF024A11001820ABBEFBE72600020023
:1046D00002030405060708090A0B0C0D0E0F101043
:1046E0000102030405060708090A0B0C0D0E0F1042
:1046F0000000000000000000010203040607080992
:104700000148804701480047194500081147000843
:1047100000BF00BF00BF00BFFFF7B6FFFEE7FEE728
:10472000FEE7FEE7FEE7FEE7FEE7FEE7FEE7FEE761
:10473000FEE7FEE7100BED030008F1070008B500E7
:104740000008BB0412000110072B0E0008610400D2
:1047500008DF0412ED0412FB0410031B05000823FC
:104760000412370412450412590412D30412E3044C
:10477000100303060008B904127548100325080049
:10478000086904131F095010060A0008390B0008B5
:10479000670412850412E5041007550C00089513F0
:1047A00000088D0812C17012D10412E10410030D2B
:1047B000020008BF0412CF0412F74812094412176E
:1047C0000412B50443050B98A101F3011F0714E17E
:1047D00001F301530524F30D0F0E3812459892C3CF
:1047E00038126D0CF30D0B0534124BA0126DF0F363
:0947F000067504280001127A008C
:040000050800471197
:00000001FF
