:020000040800F2
:100000009009002075020008B32800082517000891
:10001000B128000829060008712C00080000000023
:10002000000000000000000000000000712900082E
:100030008306000800000000B52800087B2900089E
:100040008F0200088F0200088F0200088F0200084C
:100050008F0200088F0200088F0200088F0200083C
:100060008F0200088F0200088F0200088F0200082C
:100070008F0200088F0200088F0200088F0200081C
:100080008F0200088F0200088F02000800000000A5
:100090000000000000000000000000008F020008C7
:1000A0008F0200088F0200088F0200088F020008EC
:1000B000612A00086D2A0008792A00088F020008CA
:1000C0008F0200088F0200088F0200088F020008CC
:1000D0008F0200088F0200088F0200080000000055
:1000E000850600088F0200088F020008000000004B
:1000F0000000000000000000000000008F02000867
:10010000000000008F0200088F0200088F02000824
:1001100000000000000000000000000000000000DF
:100120008F0200088F0200088F0200088F0200086B
:100130008F02000800000000000000000000000026
:100140000000000000000000000000008F02000816
:100150008F0200088F0200088F0200088F0200083B
:100160008F0200088F02000800000000000000005D
:10017000000000000000000000000000000000007F
:10018000000000008F0200080000000000000000D6
:100190008F02000800F002F800F05CF80AA090E876
:1001A000000C82448344AAF10107DA4501D100F032
:1001B00051F8AFF2090EBAE80F0013F0010F18BFA3
:1001C000FB1A43F001031847302B0000502B0000AE
:1001D0000A444FF0000C10F8013B13F0070408BF6D
:1001E00010F8014B1D1108BF10F8015B641E05D00B
:1001F00010F8016B641E01F8016BF9D113F0080FC0
:100200001EBF10F8014BAD1C0C1B09D16D1E58BF51
:1002100001F801CBFAD505E014F8016B01F8016B88
:100220006D1EF9D59142D6D37047000000230024FB
:1002300000250026103A28BF78C1FBD8520728BFF6
:1002400030C148BF0B6070471FB502F045FD1FBDB0
:1002500010B510BD00F031F81146FFF7F5FF02F0C0
:100260001DFD00F04FF803B4FFF7F2FF03BC00F0F0
:1002700057F800000948804709480047FEE7FEE7B5
:10028000FEE7FEE7FEE7FEE7FEE7FEE7FEE7FEE746
:1002900004480549054A064B704700000D2A00082E
:1002A000950100089003002090090020900500208F
:1002B00090050020704770477047754600F02CF895
:1002C000AE4605006946534620F00700854618B043
:1002D00020B5FFF7DDFFBDE820404FF000064FF0EE
:1002E00000074FF000084FF0000B21F00701AC466B
:1002F000ACE8C009ACE8C009ACE8C009ACE8C0098A
:100300008D46704710B50446AFF300802046BDE827
:100310001040FFF7A8BF00000048704730030020DE
:1003200001491820ABBEFEE726000200704700001E
:100330000449496811B1896801B1084740F60200D3
:1003400000F02EB8740100200346094810B540683B
:10035000002430B1D0F884201AB1184690470446E2
:1003600003E040F6210000F01BF8204610BD00001D
:10037000740100200246094810B54068002430B1DD
:10038000D0F8881019B110468847044603E040F6BB
:10039000220000F005F8204610BD00007401002086
:1003A0000349496819B1D1F8F01001B10847FEE7D7
:1003B000740100200448406810B1406900B1004752
:1003C00040F60500FFF7ECBF740100200246084824
:1003D00010B54068082428B1416A19B11046884711
:1003E000044603E040F60900FFF7DAFF204610BD9F
:1003F0007401002008460549496811B10A6802B134
:1004000010474FF40060FFF7CBBF000074010020DD
:10041000044B5B6813B1DB6C03B1184740F6130063
:10042000FFF7BEBF740100200549496819B1D1F832
:10043000981001B1084740F62600FFF7B1BF000051
:10044000740100200549496819B1D1F89C1001B127
:10045000084740F62700FFF7A3BF00007401002003
:100460000346094810B54068002430B1D0F8A020F8
:100470001AB118469047044603E040F62800FFF7FB
:100480008FFF204610BD000074010020034608487D
:1004900010B54068002428B1826E1AB11846904702
:1004A000044603E040F61A00FFF77AFF204610BD2D
:1004B000740100200346084810B54068002428B1A4
:1004C000C26E1AB118469047044603E040F61B007E
:1004D000FFF766FF204610BD7401002070B5264C62
:1004E0000E460025A0F5C85120804A3921D00128A8
:1004F00025D0A0F5C0513E391ED0B0F5C25F24D042
:10050000DC2825D0A0F5C85146391BD0A0F5C8512C
:10051000483917D0A0F5C85150391CD0A0F5C851A2
:10052000523918D0F02819D0FA2817D0002060606E
:100530001FE001F085FC13E001F0F5F810E002F097
:10054000BAF90DE002F0A5FB0AE001F0EEF807E0D1
:1005500002F00FFA04E002F09EFB01E002F00BFA59
:10056000606030B1D0F8441119B116B130468847F7
:100570000546284670BD0000740100200449496802
:1005800011B1496F01B1084740F61D00FFF708BFE0
:10059000740100200449496811B1896F01B108470D
:1005A00040F61E00FFF7FCBE7401002030B5044683
:1005B000194887B00022036843F004030360006811
:1005C000174B00F0040005901448C1B1012914D163
:1005D00030F8140000901348CDE9010253F82400CC
:1005E000694600F087F80D4D00222D1F0F21285776
:1005F00000F09CF9285700F08CF907B030BD30F8B6
:100600001400CDE9000202200290039053F8240068
:10061000694600F06FF8F0E730380240E62C000839
:100620008001002000002110FEE710B50020FFF738
:1006300009FF012000F038F80020FFF7F5FE012047
:1006400000F032F80020FFF795FE09210020FFF7A7
:100650007BFE2928EAD100210846FFF701FF082187
:100660000020FFF727FF08210020FFF70FFF0822D7
:1006700001210020FFF7CCFEBDE810400020FFF76D
:1006800089BF704710B54FF4806000F027F8BDE8CF
:1006900010404FF4005000F021B8000001490880DC
:1006A000FEE700009001002031B500F0F5F8009C55
:1006B0000546601C00D0641C00F0EEF8401BA04210
:1006C000FAD338BDB0F5806F04D0B0F5005F03D128
:1006D000FFF7ABBFFFF76EBE70470000044910B5CF
:1006E0000A68024202D00860FFF7ECFF10BD00006C
:1006F000143C01402DE9F84FDFF860B100224FF0C3
:1007000001084FF0030A4FF00F090BF1040E00BF70
:100710000B6808FA02F42340A3426ED14D68022D03
:1007200001D0122D0ED1D50800EB850CDCF820503D
:100730005607F70E09FA07F6B5430E69BE402E4379
:10074000CCF82060066855000F790AFA05FC07F01E
:10075000030726EA0C06AF40374307604E68012EB8
:1007600005D0022E03D0112E01D0122E0ED1866894
:10077000CF6826EA0C06AF40374387604668A64339
:100780000C79C4F30014944034434460C6688C6808
:1007900026EA0C06AC403443C4604C68E40056D5ED
:1007A0002F4C256845F480452560246822F0030518
:1007B00004F4804400942B4C2E19D6F80848950771
:1007C0002F0F09FA07F5AC43274DA84201D10025A8
:1007D00015E0264DA84201D1012510E0244DA84284
:1007E00001D102250BE0234DA84201D1032506E0EB
:1007F000214DA84202D1042501E028E00725BD4093
:100800002543C6F80858DBF800405D464E689C4317
:10081000F60300D51C432C60DEF8004075464E6898
:100820009C43B60300D51C432C600C4D08352C6846
:100830004E689C43F60200D51C432C60074D0C35D6
:100840002C684E689C43B60200D51C432C60521C99
:10085000102AFFF45DAFBDE8F88F0000003C0140B6
:1008600044380240003001400000024000040240D1
:1008700000080240000C02400010024000690840DD
:1008800000D00120704742694A40426170470AB176
:10089000816170470904FBE7014800687047000068
:1008A0008C01002002480168491C0160704700006B
:1008B0008C0100200B4810B5016841F40071016003
:1008C000016841F480610160016841F48071016058
:1008D000032000F04BF80F2000F006F800F018F8A5
:1008E000002010BD003C024010B5044607484FF4FC
:1008F0007A710068B0FBF1F000F097FC002221460D
:10090000501E00F013F8002010BD000088010020E8
:100910007047002809DB00F01F02012191404009C7
:10092000800000F1E020C0F800117047F0B40E4BD9
:100930001B680C46C3F30223C3F10705042D00D93D
:100940000425191D072901D2002300E0DB1E012622
:1009500006FA05F1491E214099409E40761E164038
:100960003143F0BC02F085B90CED00E0064900F01F
:10097000070208684FF6FF03184040EA0220034AC6
:1009800010430860704700000CED00E00000FA051D
:100990002DE9F047DFF8649105460F46D9F80000CD
:1009A00000F00F01F8B28046B94208D2014689F83A
:1009B0000010D9F8000000F00F00B84274D1287878
:1009C0004F4C800705D52068A96820F0F000084347
:1009D00020602878C00759D049496868083901283B
:1009E0001AD002281BD0032819D0096889070029CA
:1009F0005ADA216821F0030101432160FFF74CFF1F
:100A00006968064641F28830012911D002291DD0BB
:100A10000329824627D035E009688903E7E709689A
:100A20008901E4E7FFF738FF811B514501D926E032
:100A300082462068C0F381000128F3D126E000BF80
:100A4000FFF72AFF811B514501D918E08246206833
:100A5000C0F381000228F3D118E000BFFFF71CFFAC
:100A6000811B51450BD82068C0F381000328F5D1C4
:100A70000CE000BFFFF710FF811B514502D9032096
:100A8000BDE8F087206810F00C0FF3D1D9F8001002
:100A9000484601F00F01B94208D980F8008000688B
:100AA00000F00F00B84201D00120E9E728784007A4
:100AB00005D52068E96820F4E050084320602878D4
:100AC000000706D52068296920F4604040EAC1008B
:100AD000206000F01BF82168F02292FAA2F201F0E7
:100AE000F001B2FA82F2D140064A515CC840064990
:100AF00008600F20FFF7F8FE0020C1E7003C02402D
:100B000008380240E82C00088801002030B5194858
:100B1000006810F00C01184812D0184C04290ED0AF
:100B200008290DD11349091F0A6802F03F030A681A
:100B3000550247F6C07204D5B4FBF3F003E020463B
:100B400030BDB0FBF3F00B680968134092FAA2F2D3
:100B5000B2FA82F2D34058434FF4403292FAA2F2F2
:100B600001F44031B2FA82F2D140491C4900B0FB95
:100B7000F1F030BD083802400024F40040787D01D7
:100B80002DE9F84F0546DFF8FC920078A9F1040B37
:100B9000C007ABF1040449D0D9F800104846C1F3AE
:100BA0008101012908D00068C0F3810002280AD120
:100BB000DBF80000400206D52068800336D568685F
:100BC00000286ED032E06868B0F5803F10D0B0F5F4
:100BD000A02F206810D020F480302060206820F4FE
:100BE000802020606868A0B1FFF756FE06460CE042
:100BF000206840F48030F4E740F480202060F7E77C
:100C0000FFF74AFE801B642871D820688003F7D55F
:100C10000CE0FFF741FE064605E000BFFFF73CFE93
:100C2000801B6428F0D820688003F7D42878964F7A
:100C300080074FF0010A4FF0000841D5D9F80010A5
:100C4000484611F00C0F08D00068C0F3810002285C
:100C50000AD1DBF80000400206D42068800713D5D3
:100C6000E86801281DD10FE0E868D8B1C7F800A0F6
:100C7000FFF712FE064604E0FFF70EFE801B022877
:100C8000C2D820688007F7D52068F82292FAA2F22D
:100C90002969B2FA82F220F0F800914008432060FE
:100CA0000EE0ECE0C7F80080FFF7F6FD064604E032
:100CB000FFF7F2FD801B022819D820688007F7D4BF
:100CC0002878000724D57148696989B1C0F800A067
:100CD000FFF7E2FD064604E0FFF7DEFD801B022879
:100CE00005D868486C3000688007F5D510E07AE0D8
:100CF000C0F80080FFF7D0FD064604E0FFF7CCFD0A
:100D0000801B02286FD85F486C3000688007F5D4DC
:100D10002878400753D55B483830016841F080514E
:100D20000160006800F0805000905948016841F46B
:100D300080710160FFF7B0FD064604E0FFF7ACFDEF
:100D4000801B02284FD852480068C005F6D54D4E8A
:100D5000A868683601280FD00528306810D020F028
:100D600001003060306820F004003060A868B8B13D
:100D7000FFF792FD00900FE0306840F00100F4E7CB
:100D800040F004003060F7E7FFF786FD0099411A54
:100D900041F2883081426AD830688007F4D50EE08D
:100DA000FFF77AFD009007E0FFF776FD0099411A02
:100DB00041F2883081425AD830688007F4D4A8695B
:100DC000E8B3D9F80010C1F38101022957D00228F5
:100DD000C7F8608003D0FFF75FFD05464AE0FFF7E4
:100DE0005BFD064605E042E0FFF756FD801B02284A
:100DF0003DD820688001F7D4D5E90701084347F6BC
:100E0000C07292FAA2F2696AB2FA82F29140AA6AB8
:100E10004FF0FF3303EB52024FF4403393FAA3F346
:100E2000B3FA83F39A40114308434FF0706292FA89
:100E3000A2F2E96AB2FA82F29140084300E01CE0B3
:100E4000CBF80000C7F860A0FFF726FD054604E0D8
:100E5000FFF722FD401B022809D820688001F7D542
:100E60000BE000BFFFF718FD401B022802D903204A
:100E7000BDE8F88F20688001F4D40020F8E7012055
:100E8000F6E700000838024000004742800E474263
:100E90000070004070B5040004D094F851000025A3
:100EA00010B106E0012070BD84F85050204600F0DB
:100EB00037F8022084F851002068016821F04001D1
:100EC0000160D4E901010843D4E903121143084346
:100ED00061690843218B01F400710843E16908430B
:100EE000216A0843A16A084321680860A0690421B7
:100EF00001EA1040616A084321684860A06AB0F5C1
:100F0000005F02D12168E06A08612068C16921F4AC
:100F10000061C1616565012084F85100002070BD49
:100F200030B50068224987B088423FD1214800216E
:100F3000026842F001020260026802F001020592BA
:100F4000026842F001020260026802F001020592AA
:100F5000026842F001020260006800F001000590A2
:100F600014481430026842F480520260006805247C
:100F700000F480500590202000900220CDE901016E
:100F80000120CDE903040C4D69462846FFF7B2FB6A
:100F900040200090694604942846FFF7ABFB802070
:100FA0000090694604942846FFF7A4FB07B030BDC3
:100FB0000030014030380240000002402DE9F84F77
:100FC000044600200A9F9A4693460D46ADF800005D
:100FD000064694F850004FF0010901280ED0012078
:100FE00084F85000FFF758FC804694F8510061687F
:100FF00001280CD0B1F5827F07D102E00220BDE8C4
:10100000F88FA16809B9042801D0022605E155B17D
:10101000BBF1000F07D0BAF1000F04D094F85100D3
:10102000012802D004E00126F7E0052084F85100F1
:1010300000206065C4F838B0A4F83EA0A4F83CA035
:101040002563A4F836A0A4F834A020646064A06AE4
:101050004FF4005A50450AD1206801684DF6FF72DE
:10106000114001602068016841F40051016020686E
:101070000168490603D4016841F040010160E0685D
:10108000B0F5006F606804D0F0B3E08E012847D05F
:101090007FE010B1E08E01283BD1216835F8020BCA
:1010A000C860E08E401EE08633E000BFB9F1000F5B
:1010B00017D0E08EA8B120688168890711D535F86E
:1010C000021BC160E08E401EE086E08E4FF00009FA
:1010D00038B9A06A504504D12068016841F48051B4
:1010E0000160E08F58B120688168C90707D0C068E7
:1010F0002BF8020BE08F401EE0874FF00109781CAF
:1011000007D0FFF7C9FB00E00AE0A0EB0800B842F7
:1011100071D2E08E0028C9D1E08F0028C6D13EE010
:10112000216815F8010B0873E08E401EE08630E060
:10113000B9F1000F17D0E08EA8B120688168890747
:1011400011D515F8011B0173E08E401EE086E08E7C
:101150004FF0000938B9A06A504504D120680168F1
:1011600041F480510160E08F58B120688168C9075F
:1011700007D0C0680BF8010BE08F401EE0874FF0EE
:101180000109781C05D0FFF787FBA0EB0800B842E7
:1011900031D2E08E0028CBD1E08F0028C8D1A06AE0
:1011A000504513D101223B4611462046CDF8008020
:1011B00001F093FB20B1606D40F0020060651AE021
:1011C0002068C068ADF80000BDF8000020688168A4
:1011D000C90607D5616D41F0020161654FF6EF71F7
:1011E000816001263B46012202212046CDF8008085
:1011F00001F073FB08B103260FE042463946204652
:1012000001F05BFB18B101262020606505E0A068B5
:1012100018B92068C16880680090012084F85100E6
:10122000002084F850003046E9E610B5401EB0F1C9
:10123000807F01D3012010BD4FF0E02460610F21B9
:10124000601701F016FD0020A0610720206100203A
:1012500010BD7047704730B590F83820012A20D073
:10126000012280F83820022380F8393003685C6856
:1012700024F070045C6003685C680D682C435C605B
:1012800003689C6824F080049C6003689C6849683B
:101290000C439C6080F83920002180F83810084603
:1012A00030BD022030BD704770B50446006801694A
:1012B0004FF00005C943890715D4C168C9438907A0
:1012C00011D4E91E01610120207620688069800721
:1012D000204602D0FFF7E7FF04E000F098F8204630
:1012E00000F080F9257620680169C943490717D4C1
:1012F000C168C943490713D46FF00401016102209A
:1013000020762068806910F4407F204602D0FFF7E5
:10131000CAFF04E000F07BF8204600F063F9257670
:1013200020680169C943090716D4C168C943090780
:1013300012D46FF008010161042020762068C06992
:101340008007204602D0FFF7AEFF04E000F05FF810
:10135000204600F047F9257620680169C943C9068F
:1013600017D4C168C943C90613D46FF010010161D5
:10137000082020762068C06910F4407F204602D003
:10138000FFF791FF04E000F042F8204600F02AF950
:10139000257620680169C943C90708D1C168C943D6
:1013A000C90704D1891E0161204600F0B9F92068FF
:1013B0000169C943090609D4C168C943090605D4AE
:1013C0006FF0800101612046FFF743FF206801694B
:1013D000C943490609D4C168C943490605D46FF019
:1013E00040010161204600F09CF920680169C94371
:1013F00089060BD4C168C943890607D46FF0200160
:1014000001612046BDE87040FFF724BF70BD704702
:1014100070B5044690F838000D4601280DD001261D
:1014200084F83860022084F8390042B1042A18D0C8
:10143000082A2AD00C2A4DD139E0022070BD20683C
:1014400001F074FB2068816941F008018161206826
:10145000816921F004018161206881692A69114351
:1014600011E0206801F08AFB2068816941F4006185
:1014700081612068816921F48061816120688169CE
:101480002A6941EA0221816124E0206801F0A2FB7F
:101490002068C16941F00801C1612068C16921F07B
:1014A0000401C1612068C1692A69114311E0206803
:1014B00001F0BCFB2068C16941F40061C161206892
:1014C000C16921F48061C1612068C1692A6941EA6A
:1014D0000221C16184F83960002084F8380070BDB1
:1014E00010B5040003D094F8390010B107E00120D2
:1014F00010BD002084F83800204600F00DF80220CE
:1015000084F83900211D206801F0BCFA012084F81C
:101510003900002010BD000030B503682C480022BF
:101520002C49022487B0834218D1086840F0020099
:1015300008600868694600F002000590802000906D
:10154000CDE90142CDE903242348FFF7D3F8002277
:1015500004211D20FFF7EAF91D2035E001251F4871
:10156000B3F1804F19D01E4CA3422FD10B6843F02A
:1015700004030B60096801F0040105910115009155
:10158000CDE9015269460392FFF7B4F80022032126
:101590001E20FFF7CBF91E2016E00B6843F0010375
:1015A0000B60096801F00101059108210091CDE966
:1015B0000142CDE903256946FFF79CF8002204218A
:1015C0001C20FFF7B3F91C20FFF7A3F907B030BDCB
:1015D000000400404038024000080240000402407D
:1015E0000008004070B5044600681D4988420AD1D1
:1015F000207E022807D10020FEF7E8FE082802D04E
:101600000020FEF7BBFF2068B0F1804F0AD1207E9A
:10161000022824D10120FEF7D9FE082802D001209B
:10162000FEF7ACFF0F492068884218D1207E0428BD
:1016300015D104020C4D21462846FFF724F902205B
:10164000FEF7C4FE08280AD021462846FFF716F9FF
:10165000012804D1BDE870400220FEF78FBF70BDA5
:1016600000040040000800400004024010B5026879
:10167000044631B1042908D008291DD00C2908D10D
:101680001EE0D06840F0020002E0D06840F00400A4
:10169000D0600122206801F03DFA0B4920688842A1
:1016A00003D1416C41F4004141642068016841F07C
:1016B00001010160002010BDD06840F00800E7E79C
:1016C000D06840F01000E3E70000014010B5044688
:1016D0000068002201F01EFA104B41F2111120683F
:1016E0008A10984209D1036A0B4206D1036A134259
:1016F00003D1436C23F4004343642068036A0B4224
:1017000006D1016A114203D1016821F00101016093
:10171000012084F83900002010BD000000000140C5
:1017200070477047FEE700207047002070470000B8
:1017300042F21072022901D2022102E0914200D944
:1017400011460A4B00EB800203EBC202118430B158
:10175000012807D0022808D1084600F0B7B808468B
:1017600000F084B8084600F099B87047AC0100203A
:101770000149C860704700000000002001498860EE
:101780007047000000000020FEF78EBF72B6704761
:1017900062B67047F0B5314F002587B0012478B1AB
:1017A000012859D0022809D15FF010008DE83100DE
:1017B00069463846CDF80C40FEF79CFF07B0F0BDF7
:1017C0002748016841F004010160016801F004014B
:1017D0000591016841F001010160016801F001011A
:1017E0000591016841F00201016000681E4E00F0A1
:1017F000020005904FF4806000901A48CDE9010482
:10180000694630460394FEF775FF00220521282023
:10181000FFF78CF82820FFF77CF840208DE8310096
:10182000694638460394FEF765FF01224021384699
:10183000FFF72DF870158DE83100694630460394A6
:10184000FEF758FF002000F0ADF8B0158DE831002C
:10185000694630460394AFE72020A7E70004024022
:1018600030380240000021100000024010B504464C
:10187000FFF74CF9A102B0FBF1F00749401E0A68DE
:10188000D062C860096840088863BDE81040042140
:101890000148FFF7EBBE00007C02002010B50446B3
:1018A000FFF734F9A102B0FBF1F00749401E0A68C6
:1018B000D062C860096840088863BDE81040042110
:1018C0000148FFF7D3BE0000B802002010B504465F
:1018D000FFF71CF9E102B0FBF1F00749401E0A686E
:1018E000D062C86009684008C863BDE8104008219C
:1018F0000148FFF7BBBE0000F402002070B58AB0BB
:10190000012804D0022809D0144C154803E0134CD8
:101910004FF080403C340426206004E00F4C114816
:101920007834082620600025E56040F2FF3025610C
:1019300060602046FFF7D4FD6020CDE900050295E8
:101940003246694620460495FFF762FD079507A9D0
:1019500020460895FFF77FFC0AB070BD7C0200208E
:10196000000400400008004040B101280AD00228CD
:101970000CD10748082100BFFFF7A8BE0448042186
:101980007838F9E7024804213C38F5E77047000051
:10199000F4020020012251020148FEF778BF000046
:1019A0000000024000224FF400710148FEF76FBFB3
:1019B0000000024058B1094B012804D002280CD184
:1019C0000A46102101E00A462021184603E00A4693
:1019D0004FF480710248FEF75ABF7047000402407E
:1019E000000002400D480C49012201602021C16124
:1019F000426100218160022202610722C0E90A12CD
:101A0000C1604FF400720162826141624FF48271E1
:101A10004160FFF73FBA000000300140240200207F
:101A20002DE9F84FDFF848A0164688468146002287
:101A300040215046FEF72BFF00244FF480570DE065
:101A40000123424649460B480097FFF7B7FA0500C5
:101A500006D109F1010908F10108641CB442EFD371
:101A6000012240215046FEF712FF2846BDE8F88FBC
:101A70000004024024020020A82100F081BBB8210C
:101A800000F07EBB2DE9F05F314E8A46B178314DD2
:101A9000081A401EC7B200200AF0FF01834641F039
:101AA000200905F10C085C4686F800B008B1FFF784
:101AB0006FFE00200AE029182C54CC708C714C72F7
:101AC00008EB0001401CCC708C714C72B1788842DC
:101AD000F1D35046BAF1030F10D005DC01280DD028
:101AE000BAF1020F05D10DE018280BD0BAF1190F89
:101AF00008D0E919012081F8069007E005F8079061
:101B0000032003E0E919022081F803900446FFF75F
:101B10003DFE317801200029C5D1C4F1030407E05E
:101B200004EB440000EB0801284400F0AFFE641C05
:101B3000042CF5D308EB0700C17882790904407AB8
:101B400041EA02240443FFF723FE2046BDE8F09F4C
:101B500000000020940100202DE9F0411D4EB178D5
:101B60001D4D081A401EC7B20020044605F10C089E
:101B7000347008B1FFF70CFE002008E029182C543F
:101B8000CC708C7108EB0001401CCC708C71B1786A
:101B90008842F3D3D020E855FFF7F8FD31780120D3
:101BA0000029E5D15FF0000404EB440000EB0801DC
:101BB000284400F06BFE641C032CF5D308EB0700EF
:101BC0008179C07841EA0024FFF7E2FD2046BDE8B4
:101BD000F08100000000002094010020002100F0AE
:101BE000CFBA00002DE9F05F2D4D89461746A97840
:101BF000DFF8B0B0081A401EC6B20020C2F3072AB0
:101C000009F0FF0800242C7008B1FFF7C1FD002186
:101C1000584605E044544218491CD47094715472DB
:101C2000AA789142F6D34946B9F1010F19D0022999
:101C300020D0032915D0B9F1180F1BD08219012427
:101C400082F806800BEB06004772FFF79FFD2978AC
:101C500001200029D6D1134EC4F103045D460C3691
:101C600017E03A0C811900F80680CA7081F806A0C6
:101C70000324E7E78119022481F8038081F806A094
:101C8000E0E700BF04EB44008119284400F0FEFDAA
:101C9000641C042CF6D3BDE8F05FFFF779BD0000AB
:101CA000000000209401002000EB8002144810B5D1
:101CB00000EBC200C28B838B848B9B1A22445A4355
:101CC000038B448BB2FBF3F35B08B2FBF4F25208D4
:101CD0009C188C420FD9428B038B51431A44B1FBA1
:101CE000F2F2012A03D9511E02D1012100E00021A4
:101CF0008160026110BD8360891A491E016110BDB7
:101D0000AC010020810204D5C043401CC0F3150083
:101D1000404270470249C96801B10847FEE7000028
:101D20000000002010B5054CA068002804D0012157
:101D3000617080470020607010BD0000000000202E
:101D4000034900EB800001EBC000008B70470000EE
:101D5000AC01002010B50C46FFF794FE0F2C21D0EB
:101D600006DC012C0DD0032C0BD0092C04D10FE084
:101D7000102C17D0132C10D000EE100AB8EE400A29
:101D800010BDFFF7BFFF00EE100AB8EEC00A10BD8D
:101D9000BDE81040C0B200F065BDBDE81040C0B263
:101DA00000F060B9BDE81040C0B200F02FBD0000E7
:101DB000034900EB800001EBC000008C704700007D
:101DC000AC010020034900EB800001EBC000408B18
:101DD00070470000AC010020034900EB800001EBDC
:101DE000C00090F824007047AC010020034900EBCC
:101DF000800001EBC00090F823007047AC01002088
:101E0000004870470009010010B50321FFF73AFEB2
:101E1000BDE81040FFF776BF034900EB800001EBFF
:101E2000C000808B70470000AC010020034900EB2C
:101E3000800001EBC000C08B70470000AC010020A7
:101E4000004870471000002001488078704700006B
:101E50000000002010B50121FFF714FEBDE810407E
:101E6000FFF750BF10B51621FFF70CFE00F007007A
:101E700040F00800083805280ED2DFE800F003051E
:101E800007090B00002010BD012010BD022010BD6D
:101E9000032010BD042010BDFE2010BD034900EB3F
:101EA000800001EBC00090F825007047AC010020D5
:101EB000002100F00DB810B504460321FFF7E2FD44
:101EC000FFF720FF01462046BDE81040AFF3008039
:101ED00070B50E46054600EB8501174800EBC104BE
:101EE00094F82400082802D0284600F027F80121A1
:101EF0002846FFF7C7FDFFF705FF60606068311AED
:101F0000002904DB61614FF0010105D170BDC1F111
:101F1000000060614FF000014FF0010084F82200E2
:101F2000284600F065FA61692846FFF7BDFE28469D
:101F3000BDE8704000F080BBAC01002010B50D4939
:101F400000EB800201EBC20494F8251019B1BDE842
:101F5000104000F011B8FFF707FD082084F82400B6
:101F6000032084F822006FF0004044F8140F002092
:101F7000A08110BDAC01002010B50446FFF7F4FCB1
:101F80002046FFF779FD094804EB840200EBC2000C
:101F9000082180F82410032180F822106FF00041FE
:101FA00040F8141F0021818110BD0000AC01002009
:101FB00070B5134C05462079FFF7ECFBFFF712FDD7
:101FC00018B14FF40040FFF7A5FE2079FFF796FC0B
:101FD0002079FFF7DFFC0120FFF7D6FB207965B100
:101FE000294600F0BDF92079FFF746FD2079FFF77B
:101FF000B3FDA088401CA08070BD00F0D5F9F2E7C9
:10200000000000202DE9F0410F46064600EB860156
:102010001348154600EBC10494F82400082802D0A8
:102020003046FFF78BFF002D17D06561012084F843
:10203000220001463046FFF725FDFFF763FE606092
:102040003946304600F0D4F929463046FFF72CFED9
:102050003046BDE8F04100F0EFBABDE8F081000085
:10206000AC010020401C00EE100ADFED030AB8EEC0
:10207000400A20EE200A70470080BB43DFED070ACC
:102080009FED071A70EE600AB6EE000A00EE810AB4
:10209000BCEEC00A10EE100AC0B270470080BB430D
:1020A0000FB82E3B014880887047000000000020D8
:1020B00010B51921FFF7E6FC80B210BDFFF76ABC2E
:1020C000FFF770BC70B500240B4D10E02046FFF701
:1020D00053FF2046FFF766FC0120FFF755FB204623
:1020E000FFF758FC0120FFF74FFB641CE4B2A8780F
:1020F0008442EBD370BD00000000002070B50E4696
:10210000044600EB84010B4800EBC10595F8240060
:10211000082802D02046FFF711FF3146204600F084
:1021200067F9002085F822002046BDE8704000F0E5
:1021300083BA0000AC01002070B50546C1B1012989
:1021400018D0022918D0032918D00C24FFF714FF47
:1021500016212846FFF796FC00F0F80222431621CC
:102160002846FFF73FFD284600F052F9012070BDD8
:102170000824EBE70924E9E70A24E7E70B24E5E76D
:102180002DE9F041134C8846A278101A401E002514
:10219000C2B22570104EB71802E00D70FFF7F8FAC2
:1021A000002002E03118401C4D72A1788842F9D31A
:1021B00087F80980FFF7EAFA207821460028ECD159
:1021C00005491531A1F10C0000F060FBBDE8F041BC
:1021D000FFF7DEBA00000020940100200246002034
:1021E00000290ED002EB8203064A02EBC30292F8EA
:1021F0002430082B03D092F82230002B01D1118318
:1022000001207047AC01002070B501242DED028B38
:10221000B0EE408A0D46B5EEC08A0646F1EE10FAE1
:1022200003D2012D01D0032D7AD1092D51D008DC24
:10223000FCEEC88A012D2DD0022D09D0032D6FD1BF
:1022400028E00F2D59D0102D57D0132D68D14AE01A
:10225000B5EEC08AF1EE10FA17D018EE100A314927
:1022600088425DDC16210020FFF70CFC00F007001F
:10227000C0F107010120884000EE100AB8EEC00A44
:10228000B4EEC80AF1EE10FA4ADC18EE900AC0F378
:1022900008023CE018EE100AB0F14A4F40D818EEA0
:1022A000100A214988423BDCB5EEC08AF1EE10FAF3
:1022B00004DB18EE900AC0F3150228E0B1EE480ADC
:1022C000BCEEC00A10EE100AC0F31500C0F5800283
:1022D0001DE018EE100A1549884221DCB0EE480ACC
:1022E00000F0ACFA12E018EE100A1149884217DC2F
:1022F000B0EE480AFFF7C2FE08E018EE100AB0F18F
:10230000854F0DDCB0EE480A00F08AFA02462946F5
:102310003046FFF767FCBDEC028B204670BDFFE73F
:102320000024F8E70080FF43F8FFFF4900007A45EA
:102330000080BB450246002000290ED002EB82033C
:10234000064A02EBC30292F82430082B03D092F81D
:102350002230002B01D1518301207047AC010020B5
:1023600030B4104C00EB800504EBC5020B881383DE
:102370004B8853838B889383CB88D383002344F883
:10238000353042F8043F53609360D3601361938308
:10239000032393770123D377082382F8203030BCBE
:1023A00000F08EB8AC01002030B4104C00EB80037C
:1023B00004EBC301A0220A834A834FF4C8628A83D4
:1023C0005210CA83002244F8332041F8042F4A6097
:1023D0008A60CA600A618A8303228A770122CA77E7
:1023E000082281F8202030BC00F0B6B8AC010020F3
:1023F000064A00EB800302EBC30292F82430082B5C
:1024000003D182F82310FFF7D5BA7047AC01002042
:1024100000220121FFF7E6BB10B504460121FFF7BA
:1024200031FB02462046BDE810400321FFF7DABB2E
:1024300010B5024600208B1E42F20E74A34211D842
:1024400002EB8203084A02EBC302D38B8B4209D80A
:1024500092F82430082B03D092F82230002B01D1BF
:102460009183012010BD0000AC01002010B5024690
:1024700000208B1E42F20E74A34211D802EB82039D
:10248000084A02EBC302938B8B4209D392F82430A3
:10249000082B03D092F82230002B01D1D1830120E8
:1024A00010BD0000AC010020032805D8034900221C
:1024B0008A8088700120704700207047000000204B
:1024C00070B50C46054600220121FFF78BFB002268
:1024D00002212846FFF786FB002203212846FFF74A
:1024E00081FB94ED020A09212846FFF78DFE627DEB
:1024F000207D0E2102432846FFF774FB94ED060A67
:102500000F212846FFF780FE94ED070A1021284688
:10251000FFF77AFE94ED030A13212846FFF774FEB5
:10252000A27CE07C162102432846FFF75BFB1721C3
:102530002846A26AFFF756FB94F82420607C618C41
:102540000243207C08430243208C02432846BDE816
:1025500070401821FFF746BB70B5044600220121E8
:10256000FFF740FB002202212046FFF73BFB002241
:1025700003212046FFF736FB9FED200A4FF432552A
:102580001CB1012C01D0022C37D100F057F90246C2
:1025900009212046FFF726FB35220E212046FFF7B2
:1025A00021FBB0EE080A00F03BF902460F2120465D
:1025B000FFF718FBB3EE050A00F032F902461021CE
:1025C0002046FFF70FFB012213212046FFF70AFBED
:1025D0008C2216212046FFF705FBCF22172120462B
:1025E000FFF700FB2A4618212046FFF7FBFA20469A
:1025F000BDE87040002100F003B870BD00007A43D0
:10260000034A00EB800002EBC00080F82510704701
:10261000AC010020014601EB81020649002001EBDC
:10262000C20191F82420082A03D0022081F8220058
:1026300001207047AC01002070B50446FFF71FFA77
:102640000B4B04EB840003EBC0018D68002215B135
:1026500081F8242002E0022581F8245043F830203C
:10266000CA60C98B2046BDE87040FFF761B8000022
:10267000AC0100202DE9F05F624901224A70624DF1
:1026800000EB800205EBC201CB685B1CCB6091F8CC
:1026900024304FF002094FF0030A00244FF4803B2E
:1026A00023B1022B60D0032B5DD140E0CE68D1F87E
:1026B00008C00B8C0F8B91F822803F04B8F1020FF9
:1026C00008D091F82280B8F1000F06D0D1F8108020
:1026D000B04502D181F8249043E0B1F81C809845C0
:1026E00061D991F82280B8F1000F01D066455AD027
:1026F000002603B90123B7FBF3F755F832C067444E
:1027000045F832705F4608E055F83260A6F580362D
:1027100045F832605B1C9BB2012655F832C0BC45BF
:10272000F2D206B38A8B9A4264D28B8B62E0888B9A
:10273000CB6891F82260022ECCD091F8226016B1BD
:102740000E699E42C6D991F8223013B90B8C834290
:10275000C0D891F8223033B90B8C83424ED281F825
:10276000244045F8324049E0CE680B8C4F8B91F8FD
:1027700022C03F04BCF1020F03D1B1F81EC09C453A
:1027800008D291F822C0BCF1000F06D0D1F814C0D5
:10279000B44502D8FFF7D2FB30E091F822602EB9A1
:1027A0008E8B9E4202D381F824A027E0CE8B9E42DE
:1027B00024D2002603B90123B7FBF3F755F832C042
:1027C000674445F832705F460BE000BF55F8326051
:1027D000A6F5803645F83260012B01D95B1E9BB20D
:1027E000012655F832C0BC45F0D23EB1CA8B9A42A0
:1027F00000D9CB8B0B84098CFEF79AFF01484470FB
:10280000BDE8F09F00000020AC010020401C00EE5D
:10281000100AF6EE000AB8EE400A20EE200A7047D1
:10282000F6EE000AB0EE001A30EE600A40EE010A41
:10283000BCEEE00A10EE100AC0B27047DFED070AE6
:102840009FED071A70EE600AB6EE000A00EE810AEC
:10285000BCEEC00A10EE100AC0B270470000FA4188
:102860006F12033D401C00EE100ADFED030AB8EEC4
:10287000400A20EE200A70470000FA4100B50246E7
:102880001046FFF7A9FA0828FAD100BD10B5074C89
:10289000A278FFF7C5F818B148F20100FFF73AFA3D
:1028A0006078002801D00120207010BD00000020B9
:1028B000FEE7704770470020704738B50B4600921E
:1028C00004460022802100F008F8002804D0606D42
:1028D00040F020006065032038BD2DE9F0411D4621
:1028E00017460E460446DDF8188035E0681C33D0E4
:1028F0002DB1FDF7D1FFA0EB0800A8422CD3206832
:10290000416821F0E00141606068B0F5827F0BD141
:10291000A068B0F5004F02D0B0F5806F04D12068F8
:10292000016821F040010160A06AB0F5005F0AD1A2
:10293000206801684DF6FF7211400160206801684F
:1029400041F400510160012084F85100002084F816
:1029500050000320BDE8F0812068806836EA00005E
:1029600004D00020B842C1D10020F3E70120F9E7EC
:1029700070470020704700207047FDF793BF0000AC
:1029800030B5204893B00024016841F080510160C7
:10299000006800F0805011901B48016821F440410C
:1029A00041F4004101600068022500F440401190AC
:1029B000012003901020009506950490CDE9074072
:1029C0004FF4A870099004200A9007200B906846E5
:1029D000FEF7D6F810B10020FDF760FE0F20CDE91C
:1029E0000C054FF48050CDE90E4002210CA8109444
:1029F000FDF7CEFF002802D00120FDF74FFE13B0F7
:102A000030BD0000403802400070004010480168AE
:102A100041F4700101600F48016841F0010101605B
:102A20000C4A00210832116002680B4B1A40026008
:102A3000031D0A4A1A60026822F4802202600548D7
:102A40000C30016002495806803908607047000068
:102A500088ED00E000380240FFFFF6FE1030002451
:102A60000148FEF721BC0000B80200200148FEF733
:102A70001BBC00007C0200200148FEF715BC0000D2
:102A8000F4020020F0B502681B4B1C4C9F031C4D48
:102A90001C4E984207D0B84205D0A04203D0A842AD
:102AA00001D0B04204D122F0700C4A6842EA0C0214
:102AB000984210D0B8420ED0A0420CD0A8420AD002
:102AC000B04208D0104CA04205D0104CA04202D019
:102AD0000F4CA04203D122F44074CA682243026022
:102AE0008A68C2620A688262984201D109690163F8
:102AF00001214161F0BD00000000014000040040E0
:102B000000080040000C004000400140004401402B
:102B10000048014010B50123046A8B409C430462C5
:102B2000036A8A401343036210BD000030B5026A95
:102B300022F001020262026A4368846924F073058C
:102B40000C682C4322F002058A682A430A4DA842E9
:102B50000BD122F00805CA6823F440732A434D695B
:102B600022F004021D438B692B4343608461496852
:102B70004163026230BD00000000014030B5026ACE
:102B800022F010020262026A436884690D6824F42C
:102B9000E64444EA05248D6822F0200242EA051248
:102BA0000B4DA8420ED1CD6822F0800242EA0512F8
:102BB0004D6923F4406343EA85038D6922F04002A6
:102BC00043EA85034360846149688163026230BDE2
:102BD0000000014030B5026A22F480720262036A8A
:102BE0004268C46923F4007324F073050C682C4315
:102BF0008D6843EA05230C4DA8420ED1CD6823F41D
:102C0000006343EA05234D6922F4405242EA05126B
:102C10008D6923F4806342EA05124260C461496809
:102C2000C163036230BD00000000014030B5026A9C
:102C300022F480520262046A4268C3690D6823F478
:102C4000E64343EA05238D6824F4005444EA05343E
:102C5000064DA84204D14D6922F4804242EA851211
:102C60004260C36149680164046230BD00000140F4
:102C7000FEE70907090E002804DB00F1E02080F8D8
:102C80000014704700F00F0000F1E02080F8141DE0
:102C9000704700207047002070470000FDF70AFED3
:102CA000FFF76EFE41F64A1401212046FDF716FC9F
:102CB00000212046FDF79EFB0648FDF739FB002268
:102CC0001146501EFDF732FE01210020FDF76EFC7B
:102CD000FEE700009D0600084FF04070E1EE100A8C
:102CE00070472800200000200000000000000000C5
:102CF0000102030406070809182D0008000000203F
:102D000094010000D0010008D82D00089401002093
:102D1000FC0700002C020008011013B11F1408A5C5
:102D200020140871171B087D044113251D1B084141
:102D3000041AB1041AC5041AD90413011E1B080988
:102D4000041A19041A2D041A55041AB1041AB704E6
:102D50001AD1041A3D481A05481AC5041AFD04136D
:102D6000DD21140835231C0811243419041A3104F8
:102D70001A6D041315261B087504137D2814087991
:102D80001A1B087F041A85041B591B3419041AE501
:102D9000041AB1401ABD041AC1041A39481AF1487C
:102DA00001101A797001201A499801101A15CC01E6
:102DB0001C1A019C9A9D381A650C0A1DED341AA93B
:102DC000D81309220B1D085528211302403608028A
:082DD00040E8039324F4000025
:040000050800019559
:00000001FF
