:020000040800F2
:100000006805002051450008F1430008F34300084B
:10001000F5430008F7430008F9430008000000001A
:10002000000000000000000000000000FB4300088A
:10003000FD43000800000000FF43000801440008E1
:100040006D450008714500087545000879450008B0
:100050007D45000881450008854500088945000860
:100060008D45000891450008954500089945000810
:100070009D450008A1450008A5450008A9450008C0
:10008000AD450008B1450008B54500080000000076
:10009000000000000000000000000000B94500085A
:1000A000BD450008C1450008C5450008C945000810
:1000B000154400081F44000829440008CD450008E5
:1000C000D1450008D5450008D9450008DD450008A0
:1000D000E1450008E5450008E9450008000000008A
:1000E00009440008ED450008F14500080000000043
:1000F000000000000000000000000000F5450008BE
:1001000000000000F9450008FD4500080146000810
:1001100000000000000000000000000000000000DF
:1001200005460008094600080D460008114600086B
:10013000154600080000000000000000000000005C
:100140000000000000000000000000001946000848
:100150001D460008214600082546000829460008DB
:100160002D46000831460008000000000000000095
:10017000000000000000000000000000000000007F
:1001800000000000354600080000000000000000EC
:1001900039460008DFF8501D08607047DFF84C1D35
:1001A0000860704710B50400A8212000C0B200F01C
:1001B0008CFF10BD10B50400B8212000C0B200F0C3
:1001C00084FF10BD2DE9F04704000D005FF000082A
:1001D000DFF81C0D0078001BB0F101095FF0000A88
:1001E0000020DFF8101D08705FFA8AFABAF1000FDC
:1001F00003D001F0D7FC0020824600200600DFF883
:10020000F00C0078864223D20020DFF8EC1C8855E1
:100210000020DFF8E41C3144C8700020DFF8D81C4F
:10022000314488710020DFF8D01C3144487200202E
:10023000DFF8441D3144C8700020DFF83C1D314414
:1002400088710020DFF8301D31444872761CD6E7F3
:100250002800012808D0022811D0032804D018282B
:100260000DD019280BD015E055F02000DFF8881CC0
:100270005FFA89F901F809000320804614E055F07F
:100280002000DFF8741C5FFA89F94944C870022025
:10029000804609E055F02000DFF85C1C5FFA89F920
:1002A000494488710120804601F07AFC0120824691
:1002B000DFF8400C0078002892D15FFA88F8D8F176
:1002C00003000600042E0FD2DFF8AC0C032101FB63
:1002D00006F10144DFF8200C032202FB06F2104471
:1002E00001F02EFC761CEDE7DFF88C0C5FFA89F943
:1002F0004844C078DFF8801C5FFA89F9494489795D
:10030000090251EA0040DFF8701C5FFA89F949449C
:10031000497A0843070001F045FC3800BDE8F08742
:100320002DE9F0410400DFF8C80B0078001B471EE0
:100330005FF000080020DFF8BC1B08705FFA88F847
:10034000B8F1000F03D001F02DFC00208046002002
:100350000500DFF89C0B0078854219D20020DFF8F9
:10036000981B48550020DFF8901B2944C8700020D6
:10037000DFF8841B294488710020DFF8FC1B294426
:10038000C8700020DFF8F01B294488716D1CE0E77D
:10039000D020DFF8641BFFB2C85501F001FC01203A
:1003A0008046DFF8500B00780028C3D100200500FC
:1003B000032D0FD2DFF8C00B032101FB05F101442F
:1003C000DFF8340B032202FB05F2104401F0B8FB06
:1003D0006D1CEDE7DFF8A00BFFB23844C078DFF802
:1003E000981BFFB23944897951EA0020060001F0D8
:1003F000D9FB300080B2BDE8F08110B504000021C7
:100400002000C0B200F061FE10BD2DE9F0470400ED
:100410000D0016005FF00008DFF8D40A0078001B1A
:10042000B0F101095FF0000A0020DFF8C81A087077
:100430005FFA8AFABAF1000F03D001F0B3FB002093
:10044000824600200700DFF8A80A0078874214D20D
:100450000020DFF8A41AC8550020DFF89C1A3944A0
:10046000C8700020DFF8901A394488710020DFF846
:10047000881A394448727F1CE5E72800012806D015
:1004800002281BD0032802D0182817D026E0DFF856
:10049000680A5FFA89F900F80950300CDFF8581A39
:1004A0005FFA89F94944C870300ADFF84C1A5FFADC
:1004B00089F9494488710320804617E0DFF8380A3B
:1004C0005FFA89F94844C570300ADFF82C1A5FFAE0
:1004D00089F9494488710220804607E0DFF8180A4C
:1004E0005FFA89F94844857101208046DFF8080ADF
:1004F0005FFA89F94844467201F052FB01208246B6
:10050000DFF8F009007800288ED15FFA88F8D8F17A
:1005100003000700042F0FD2DFF85C0A032101FB60
:1005200007F10144DFF8D009032202FB07F210446F
:1005300001F006FB7F1CEDE701F034FBBDE8F0871E
:1005400010B50400DFF8100D0088C0B201F02CFBDC
:1005500001F0A2FC002803D04FF4004000F092FD0F
:10056000DFF8F40C0088C0B201F00CFCDFF8E80CF6
:100570000088C0B201F05EFC012001F00BFB002CF2
:1005800006D1DFF8D40C0088C0B200F069FE06E0A6
:100590002100DFF8C40C0088C0B200F0D4FDDFF801
:1005A000B80C0088C0B2FFF7FDFDDFF8AC0C008886
:1005B000C0B2FFF7B5FEDFF8A00C0088401CDFF8E2
:1005C000981C088010BDDFF8941CC0B2282250434C
:1005D0000844008B704738B52DED028B04000D00E8
:1005E00029002000C0B2FFF7EDFD08EE100A280038
:1005F00001280AD0032808D0092811D00F281FD0BD
:1006000010281DD0132813D022E018EE100A00F095
:100610002DFD00EE100AB8EEC00AF0EE408A1BE095
:1006200018EE100AC0B201F0A7FCF0EE408A13E009
:1006300018EE100AC0B201F0ADFCF0EE408A0BE0FB
:1006400018EE100AC0B201F0B3FCF0EE408A03E0ED
:10065000B8EE480AF0EE408AB0EE680ABDEC028BB4
:1006600031BDDFF8F81BC0B2282250430844008C8B
:100670007047DFF8E81BC0B2282250430844408B83
:100680007047DFF8D81BC0B228225043084490F8C6
:1006900024007047DFF8C41BC0B22822504308442E
:1006A00090F823007047DFF8CC0C7047DFF8C80CD7
:1006B000704710B5040003212000C0B2FFF782FD8F
:1006C00000F0D4FC10BDDFF8941BC0B228225043C8
:1006D0000844808B7047DFF8841BC0B22822504347
:1006E0000844C08B7047DFF808080078704710B5E1
:1006F000040001212000C0B2FFF764FD00F0B6FC49
:1007000010BD70B5040016212000C0B2FFF75AFDDD
:1007100010F0070050F008000600F6B2082E07D0CF
:1007200015D30A2E0AD006D30C2E0DD009D30EE015
:10073000002005000DE0012005000AE00220050070
:1007400007E00320050004E00420050001E0FE208E
:1007500005002800C0B270BDDFF8001BC0B228221F
:100760005043084490F82500704710B5040000215C
:100770002000C0B200F011F810BD38B5040003210C
:100780002000C0B2FFF71EFD00F070FC050029003C
:100790002000C0B200F001F831BDF8B504000D0032
:1007A000DFF8B80AE4B2282101FB04F1084490F80C
:1007B0002400082803D02000C0B200F054F8012122
:1007C0002000C0B2FFF7FEFC00F050FCDFF88C1AEE
:1007D000E4B2282202FB04F211444860DFF87C0AEC
:1007E000E4B2282101FB04F108444068281A0700FC
:1007F000002F0AD4DFF8640AE4B2282101FB04F1D7
:1008000008444761012006000AE07842DFF84C1AEC
:10081000E4B2282202FB04F21144486100200600E1
:10082000002F1FD00120DFF8341AE4B2282202FB87
:1008300004F2114481F822003100C9B22000C0B294
:1008400000F06BFADFF8140AE4B2282101FB04F18E
:10085000084441692000C0B200F090FB2000C0B203
:1008600000F0D8FEF1BD10B50400DFF8F009E4B2E5
:10087000282101FB04F1084490F8250000282BD121
:100880002000C0B201F0BDFA0820DFF8D019E4B2B0
:10089000282202FB04F2114481F824000320DFF82F
:1008A000BC19E4B2282202FB04F2114481F82200B0
:1008B0007FF00040DFF8A419E4B2282202FB04F222
:1008C000114448610020DFF89419E4B2282202FBA9
:1008D00004F21144088403E02000C0B200F001F8E3
:1008E00010BD10B504002000C0B201F08AFA20004B
:1008F000C0B2FFF757FC0820DFF86019E4B22822E5
:1009000002FB04F2114481F824000320DFF84C19A3
:10091000E4B2282202FB04F2114481F822007FF0A5
:100920000040DFF83819E4B2282202FB04F2114437
:1009300048610020DFF82419E4B2282202FB04F207
:100940001144088410BD70B504000D001600DFF8D6
:100950000C09E4B2282101FB04F1084490F82400BA
:10096000082803D02000C0B2FFF77DFF002E2FD053
:10097000DFF8E808E4B2282101FB04F108444661ED
:100980000120DFF8D818E4B2282202FB04F2114457
:1009900081F8220001212000C0B2FFF713FC00F013
:1009A00065FBDFF8B818E4B2282202FB04F2114418
:1009B00048602900C9B22000C0B200F0AEF9310091
:1009C0002000C0B200F0DAFA2000C0B200F022FE2F
:1009D00070BDDFF884080088704710B50400192145
:1009E0002000C0B2FFF7EEFB80B210BD10B50400CE
:1009F0002000C0B201F01EFA10BD10B504002000A6
:100A0000C0B201F020FA10BD10B500200400200093
:100A1000DFF8DC140978C0B2884213D22000C0B2DB
:100A2000FFF75FFF2000C0B2FFF7E7FF012001F0F2
:100A3000B1F82000C0B201F0FDF9012001F0AAF8E0
:100A4000641CE4E710BD38B504000D00DFF80C08A5
:100A5000E4B2282101FB04F1084490F8240008289E
:100A600003D02000C0B2FFF7FEFE2900C9B220006B
:100A7000C0B200F052F90020DFF8E017E4B22822FB
:100A800002FB04F2114481F822002000C0B200F001
:100A9000C1FD31BDF8B504000D00EDB2002D05D04B
:100AA000022D09D005D3032D09D00BE00820070043
:100AB0000AE00920070007E00A20070004E00B20F5
:100AC000070001E00C2007002000C0B2FFF709FF7B
:100AD00016212000C0B2FFF775FB10F0F8000600E9
:100AE000F6B2FFB257EA060216212000C0B2FFF7A5
:100AF0008CFC2000C0B200F02EF90120F2BD10B431
:100B00000200002089B200291FD0DFF85037D2B28E
:100B1000282404FB02F4234493F82430082B0AD041
:100B2000DFF83837D2B2282404FB02F4234493F8C8
:100B30002230002B09D1DFF82437D2B2282404FB5D
:100B400002F42344198301231800C0B210BC70477B
:100B50002DE9F0412DED028B04000D00B0EE408A2E
:100B60000127B5EE408AF1EE10FA06D5012D04D02A
:100B7000032D02D000200700A0E02800012838D073
:100B800002280AD0032834D009285CD00F287AD054
:100B9000102878D0132866D085E0B5EE408AF1EEB3
:100BA00010FA1ED09FEDBE0AB4EE408AF1EE10FAA4
:100BB00014DA5FF0010816210020FFF703FB10F0A4
:100BC0000700D0F1070018FA00F000EE100AB8EEA6
:100BD000C00AB4EE408AF1EE10FA02D500200700F8
:100BE00006E0BCEEC80A10EE100AC005C00D0600F3
:100BF0005BE09FEDBB0AB4EE408AF1EE10FA1FDB1A
:100C00009FEDB80AB4EE408AF1EE10FA18D5B5EEB1
:100C1000408AF1EE10FA07DBBCEEC80A10EE100AAB
:100C20008002800A06000DE0B1EE480ABCEEC00A60
:100C300010EE100A8002800AD0F58000060001E064
:100C40000020070031E09FEDC90AB4EE408AF1EEC2
:100C500010FA02DB0020070004E0B0EE480A01F0C1
:100C6000AFF9060021E09FEDC20AB4EE408AF1EE32
:100C700010FA02DB0020070004E0B0EE480A01F0A1
:100C8000B3F9060011E09FEDBB0AB4EE408AF1EE25
:100C900010FA02DB0020070004E0B0EE480A01F081
:100CA000B7F9060001E000200700FFB2002F05D0D1
:100CB000320029002000C0B2FFF7A7FB3800C0B205
:100CC000BDEC028BBDE8F08110B40200002089B2B7
:100CD00000291FD0DFF88435D2B2282404FB02F4A7
:100CE000234493F82430082B0AD0DFF87035D2B2B1
:100CF000282404FB02F4234493F82230002B09D16A
:100D0000DFF85835D2B2282404FB02F42344598377
:100D100001231800C0B210BC704738B504000D00A4
:100D2000DFF83805E4B2282101FB04F1084490F80B
:100D3000240008280ED1DFF82405E4B2282101FBA5
:100D400004F1084480F823502900C9B22000C0B241
:100D500001F082F831BD10B504000022012120000D
:100D6000C0B2FFF752FB10BD0100C9B2042908DA76
:100D70000020DFF8E4241080DFF8F40D017001207A
:100D800000E00020704738B5040001212000C0B207
:100D9000FFF718FA05002A0003212000C0B2FFF770
:100DA00034FB31BD30B40200002089B2022930DBAF
:100DB00089B242F2117399422BDA0B00DFF8B44D7D
:100DC000D2B2282505FB02F52C44E48B9BB2A3424A
:100DD0001FD3DFF8A03DD2B2282404FB02F4234441
:100DE00093F82430082B0AD0DFF8883DD2B22824AB
:100DF00004FB02F4234493F82230002B09D1DFF8DE
:100E0000743DD2B2282404FB02F4234499830123C5
:100E10001800C0B230BC704710B40200002089B284
:100E2000022930DB89B242F2117399422BDADFF8E2
:100E3000443DD2B2282404FB02F423449B8B0C00D3
:100E4000A4B2A3421FD3DFF82C3DD2B2282404FB66
:100E500002F4234493F82430082B0AD0DFF8143D21
:100E6000D2B2282404FB02F4234493F82230002B4E
:100E700009D1DFF8003DD2B2282404FB02F4234458
:100E8000D98301231800C0B210BC7047DFF8E42CEE
:100E9000C0B2282303FB00F31A4482F825107047E0
:100EA0000180FF4310B401000020DFF8C82CC9B254
:100EB000282303FB01F31A4492F82420082A0BD0BC
:100EC0000222DFF8B03CC9B2282404FB01F4234419
:100ED00083F8222001221000C0B210BC704700002D
:100EE000000000CAF9FFFF4908070020040700209E
:100EF0001A0700201B070020EC06002010B5040094
:100F00002000C0B2FFF7BDFB0828F9D110BD38B5ED
:100F100004000D00ADB2022D01DA02200500ADB2D1
:100F200042F21170854202DB42F210700500CB489C
:100F3000E4B2282101FB04F108440584E4B2002C4A
:100F400003D0022C0BD005D30EE0280080B200F0B5
:100F5000C8FE09E0280080B200F0DEFE04E02800B0
:100F600080B200F0F4FEFFE731BD000001007A45D9
:100F70000180BB4501008042F8060020F0B4B74C68
:100F8000C0B2282505FB00F52C44E48BB34DC0B25C
:100F9000282606FB00F63544AD8BA4B22D1B2A0093
:100FA000AE4DC0B2282606FB00F63544AD8BA4B288
:100FB00014FA85F56A431300A84DC0B2282606FB33
:100FC00000F635442D8BB2FBF5F25208A34DC0B2AA
:100FD000282606FB00F635446D8BB3FBF5F35B0862
:100FE0009D18A94230D29D4DC0B2282606FB00F6BE
:100FF00035446D8B994EC0B2282707FB00F73E445D
:10100000368B01FB05F715EB060CB7FBFCF73B0035
:10101000022B06D35F1E3A00002A04D101273A00B2
:1010200001E000273A008D4FC0B25FF0280C0CFBA6
:1010300000FC6744BA60894FC0B25FF0280C0CFB1B
:1010400000FC67443B610FE0844DC0B2282606FBDC
:1010500000F63544AA60CD1A6D1E804EC0B2282716
:1010600007FB00F73E443561F0BC704701008A027F
:1010700006D5C943491C8A02920A1000404200E08A
:101080000800704710B50400DFF8EC0A006800287B
:1010900006D0200080B2DFF8E01A0968884700E037
:1010A000FEE710BD80B5DFF8D40A006800280BD039
:1010B0000120DFF8CC1A0870DFF8C00A006880470A
:1010C0000020DFF8BC1A087001BD2DE9F0410400D2
:1010D0000D00DFF89C0A0078001B471E5FF0000837
:1010E0000020DFF8A01A08705FFA88F8B8F1000F46
:1010F00003D000F057FD0020804600200600DFF8F6
:10110000700A0078864206D20020DFF87C1A31444B
:101110004872761CF3E7DFF8700AFFB23844457274
:1011200000F03EFD01208046DFF8580A00780028D4
:10113000D6D1DFF8581ADFF8580A00F001FD00F0A8
:1011400031FDBDE8F08138B504000D002888DFF8D6
:10115000241AE4B2282202FB04F2114408836888AE
:10116000DFF8101AE4B2282202FB04F2114448838B
:10117000A888DFF8001AE4B2282202FB04F2114426
:101180008883E888DFF8EC19E4B2282202FB04F235
:101190001144C8830020DFF8DC19E4B2282202FBE6
:1011A00004F288500020DFF8CC19E4B2282202FBB8
:1011B00004F2114448600020DFF8B819E4B2282294
:1011C00002FB04F2114488600020DFF8A819E4B2A1
:1011D000282202FB04F21144C8600020DFF89419B1
:1011E000E4B2282202FB04F2114408610020DFF877
:1011F0008419E4B2282202FB04F211444861002061
:10120000DFF87019E4B2282202FB04F211440884CA
:101210000320DFF86019E4B2282202FB04F2114433
:1012200081F822000120DFF84C19E4B2282202FBE9
:1012300004F2114481F823000820DFF83819E4B2E1
:10124000282202FB04F2114481F824002900200026
:10125000C0B200F093F831BD1407002068050020EB
:1012600010B50400A020DFF80C19E4B2282202FB1C
:1012700004F211440883A020DFF8F818E4B2282211
:1012800002FB04F2114448834FF4C860DFF8E4180D
:10129000E4B2282202FB04F2114488834FF4487020
:1012A000DFF8D018E4B2282202FB04F21144C8830C
:1012B0000020DFF8C018E4B2282202FB04F28850B4
:1012C0000020DFF8B018E4B2282202FB04F2114437
:1012D00048600020DFF89C18E4B2282202FB04F2E8
:1012E000114488600020DFF88C18E4B2282202FB49
:1012F00004F21144C8600020DFF87818E4B2282214
:1013000002FB04F2114408610020DFF86818E4B21F
:10131000282202FB04F2114448610020DFF854182F
:10132000E4B2282202FB04F2114408840320DFF80F
:101330004418E4B2282202FB04F2114481F822008E
:101340000120DFF83018E4B2282202FB04F2114435
:1013500081F823000820DFF81C18E4B2282202FBE1
:1013600004F2114481F824002000C0B200F064F8B7
:1013700010BD0000000901000000002038B5040085
:101380000D00002201212000C0B2FFF73EF800222C
:1013900002212000C0B2FFF738F80022032120000C
:1013A000C0B2FFF732F895ED020A09212000C0B261
:1013B000FFF7CEFB687D297D51EA00020E21200057
:1013C000C0B2FFF722F895ED060A0F212000C0B247
:1013D000FFF7BEFB95ED070A10212000C0B2FFF712
:1013E000B7FB95ED030A13212000C0B2FFF7B0FB55
:1013F000A87CE97C51EA000216212000C0B2FFF768
:1014000004F8AA6A17212000C0B2FEF7FEFF95F883
:101410002400697C0843297C0843B5F9221089B26D
:101420000843B5F9201089B251EA000218212000C2
:10143000C0B2FEF7EAFF31BD10B504000022012161
:101440002000C0B2FEF7E1FF002202212000C0B25E
:10145000FEF7DBFF002203212000C0B2FEF7D5FF1C
:10146000E4B2002C04D0022C00F08E8046D3D0E0F1
:101470009FED8A0A00F0A4FDC0B2020009212000FD
:10148000C0B2FEF7C2FF35220E212000C0B2FEF727
:10149000BCFFB0EE080A00F0BBFD0200D2B20F2183
:1014A0002000C0B2FEF7B1FFB3EE050A00F0B0FDB8
:1014B000C0B2020010212000C0B2FEF7A6FF012238
:1014C00013212000C0B2FEF7A0FF8C2216212000BD
:1014D000C0B2FEF79AFFCF2217212000C0B2FEF75C
:1014E00094FF4FF4325218212000C0B2FEF78DFF56
:1014F00000212000C0B2FFF7C9FC8AE09FED670A17
:1015000000F05EFDC0B2020009212000C0B2FEF76B
:101510007CFF35220E212000C0B2FEF776FFB0EE30
:10152000080A00F075FDC0B202000F212000C0B211
:10153000FEF76BFFB3EE050A00F06AFDC0B20200D1
:1015400010212000C0B2FEF760FF0122132120000D
:10155000C0B2FEF75AFF8C2216212000C0B2FEF75F
:1015600054FFCF2217212000C0B2FEF74EFF4FF4E8
:10157000325218212000C0B2FEF747FF00212000A0
:10158000C0B2FFF783FC44E09FED440A00F018FD71
:10159000C0B2020009212000C0B2FEF736FF35229A
:1015A0000E212000C0B2FEF730FFB0EE080A00F0B6
:1015B0002FFDC0B202000F212000C0B2FEF725FFB0
:1015C000B3EE050A00F024FDC0B202001021200095
:1015D000C0B2FEF71AFF012213212000C0B2FEF7AD
:1015E00014FF8C2216212000C0B2FEF70EFFCF227E
:1015F00017212000C0B2FEF708FF4FF43252182125
:101600002000C0B2FEF701FF00212000C0B2FFF7AA
:101610003DFC10BD10B504002000C0B2FEF7CAFDAD
:10162000DFF85005E4B2282101FB04F1084480688A
:1016300000280AD00020DFF83C15E4B2282202FB83
:1016400004F2114481F8240009E00220DFF8241597
:10165000E4B2282202FB04F2114481F824000020A5
:10166000DFF81015E4B2282202FB04F288500020B3
:10167000DFF80015E4B2282202FB04F21144C8602E
:10168000DFF8F004E4B2282101FB04F10844C18B27
:101690002000C0B2FFF73BFC10BD000000007A4301
:1016A0002DE9F84304000120DFF8D4140870DFF8B6
:1016B000C404E4B2282101FB04F10844C068401CC2
:1016C000DFF8B014E4B2282202FB04F21144C8602F
:1016D000DFF8A004E4B2282101FB04F1084490F8EB
:1016E0002400002806D0022800F05681032800F0CC
:1016F000DC8020E2DFF87C04E4B2282101FB04F165
:101700000844C568DFF86C04E4B2282101FB04F149
:1017100008448668DFF85C04E4B2282101FB04F188
:101720000844078CDFF84C04E4B2282101FB04F1E3
:101730000844008B5FEA0048DFF83804E4B228214F
:1017400001FB04F1084490F82200022814D0DFF8CD
:101750002404E4B2282101FB04F1084490F822009B
:1017600000281CD0DFF80C04E4B2282101FB04F1AE
:1017700008440069854212D10220DFF8F813E4B270
:10178000282202FB04F2114481F824000020DFF833
:10179000E413E4B2282202FB04F2885084E038000B
:1017A000DFF8D013E4B2282202FB04F21144898B43
:1017B00080B288420CD2DFF8BC03E4B2282101FBDE
:1017C00004F1084490F8220000280CD0B5420AD158
:1017D0000320DFF8A013E4B2282202FB04F2114434
:1017E00081F8240060E05FF00009BFB2002F01D152
:1017F00001200700DFF87C03E4B2282101FB04F19B
:101800004058BFB2B8FBF7F10818DFF86813E4B22C
:10181000282202FB04F28850DFF85803E4B22821A2
:1018200001FB04F14058B0F5803F13D3D148E4B236
:10183000282101FB04F1405800F17F4010F57F00A2
:10184000CC49E4B2282202FB04F288507F1C01201C
:101850008146E1E75FFA89F9B9F1000F24D0C54864
:10186000E4B2282101FB04F10844808B390089B2DD
:10187000884207D2BF48E4B2282101FB04F10844A2
:10188000808B0700BB48E4B2282101FB04F1084427
:101890000784B848E4B2282101FB04F10844018C14
:1018A0002000C0B2FFF733FB45E1B248E4B2282183
:1018B00001FB04F10844808BAE49E4B2282202FB0C
:1018C00004F21144C968AB4AE4B2282303FB04F3D1
:1018D0001A4492F82220022A27D0A64AE4B22823EA
:1018E00003FB04F31A4492F82220002A08D0A14AEC
:1018F000E4B2282303FB04F31A441269914214D280
:101900009C4AE4B2282303FB04F31A4492F82220F1
:10191000002A1BD10200974BE4B2282505FB04F5F1
:101920002B441B8C92B29A4210D20222914BE4B209
:10193000282505FB04F52B4483F8242000228D4B39
:10194000E4B2282505FB04F55A5124E0894AE4B2A3
:10195000282303FB04F31A4492F82220002A1AD108
:10196000844AE4B2282303FB04F31A44128C0300D4
:101970009BB29A420FD200227E4BE4B2282505FB8F
:1019800004F52B4483F8242000227A4BE4B2282566
:1019900005FB04F55A51CEE07648E4B2282101FB5C
:1019A00004F10844C5687348E4B2282101FB04F13E
:1019B0000844068C6F48E4B2282101FB04F1084476
:1019C000408B07046B48E4B2282101FB04F1084472
:1019D00090F8220002280AD16648E4B2282101FBCF
:1019E00004F10844C08B310089B2884212D26148A8
:1019F000E4B2282101FB04F1084490F822000028F9
:101A00000DD05C48E4B2282101FB04F10844406990
:101A1000854204D32000C0B2FEF725FF8AE0554876
:101A2000E4B2282101FB04F1084490F822000028C8
:101A300014D15048E4B2282101FB04F10844808B02
:101A4000310089B2884209D303204A49E4B22822EE
:101A500002FB04F2114481F824006BE04548E4B233
:101A6000282101FB04F10844C08B310089B288426F
:101A700060D25FF00008B6B2002E01D1012006004E
:101A80003C48E4B2282101FB04F14058B6B2B7FB50
:101A9000F6F108183749E4B2282202FB04F2885014
:101AA0003448E4B2282101FB04F14058B0F5803FEE
:101AB00016D33048E4B2282101FB04F1405800F16C
:101AC0007F4010F57F002B49E4B2282202FB04F28C
:101AD0008850B6B2022E00DB761E01208046DFE77A
:101AE0005FFA88F8B8F1000F24D030002149E4B241
:101AF000282202FB04F21144C98B80B2884207D22B
:101B00001C48E4B2282101FB04F10844C08B060004
:101B10001848E4B2282101FB04F108440684154862
:101B2000E4B2282101FB04F10844018C2000C0B27A
:101B3000FFF7EDF9FFE7002011490870BDE8F183D8
:101B400038B504000D000A4802782900200000F092
:101B5000D1F9002803D048F20100FFF793FA0848B2
:101B60000078002802D001200649087031BD00002D
:101B70001A0700206805002008070020040700203D
:101B80001C0700201B070020EC0600200107002096
:101B9000F506002010B50400200000F049FA10BD41
:101BA00072B6704762B6704710B586B00400E4B2F2
:101BB000002C66D100200090DFF89003006850F000
:101BC0000400DFF888130860DFF88003006810F075
:101BD00004000090009800200090DFF87003006877
:101BE00050F00100DFF864130860DFF8600300685C
:101BF00010F001000090009800200090DFF84C03E6
:101C0000006850F00200D1490860D048006810F028
:101C10000200009000984FF480600190CC48029040
:101C2000012003900120049001A9CA4800F010FA95
:101C300000220521282000F0A4FB282000F0B4FB9E
:101C40004020019001200290002003900120049088
:101C500001A9C14800F0FCF901224021BE4800F072
:101C6000E6FA4FF4007001900120029000200390EA
:101C70000120049001A9B74800F0EAF9002000F023
:101C8000E2F8E4B2002C03D0022C1CD00ED326E0E4
:101C90004FF48070019001200290002003900120F9
:101CA000049001A9AB4800F0D3F918E0202001907E
:101CB00001200290002003900120049001A9A64871
:101CC00000F0C6F90BE010200190012002900020E6
:101CD00003900120049001A99F4800F0B9F906B0D3
:101CE00010BD70B5040000F04FFC0500A4B24FF425
:101CF000806000FB04F0B5FBF0F0461E97480068DA
:101D0000C6629648C66070089449096888630421D1
:101D1000924800F0E7FC70BD70B5040000F034FCA0
:101D20000500A4B24FF4806000FB04F0B5FBF0F0B6
:101D3000461E8B480068C6628948C660700888499C
:101D4000096888630421864800F0CCFC70BD70B53A
:101D5000040000F019FC0500A4B24FF4006000FB81
:101D600004F0B5FBF0F0461E7E480068C6627D4870
:101D7000C66070087B490968C8630821794800F08B
:101D8000B1FC70BD70B58AB00400E4B22000012837
:101D900008D002280ED0714805007348286004203E
:101DA00006000DE06E4805005FF0804028600420CA
:101DB000060005E06B4805006C4828600820060016
:101DC00040F2FF3068600020E860002028612800B1
:101DD00000F036FC60200290002003900020049068
:101DE00000200690320002A9280000F07AFD0020B1
:101DF0000090002001906946280000F01FFF0AB003
:101E000070BD10B50400E4B2002C03D0022C0BD03E
:101E100005D30EE00421514800F02EFC09E0042116
:101E20004F4800F029FC04E008214E4800F024FC53
:101E3000FFE710BD10B5040001224FF400714548C2
:101E400000F0F5F910BD10B5040000224FF4007148
:101E5000404800F0ECF910BD38B504000D00E4B2C4
:101E6000002C11D0022C01D007D314E02A00D2B2EA
:101E70001021394800F0DBF90DE02A00D2B2202110
:101E8000354800F0D4F906E02A00D2B24FF4807150
:101E9000304800F0CCF931BD10B5354835490860FF
:101EA00020203449C861002032498860012031492E
:101EB000486102202F49086100202E4988620720CE
:101EC0002C49C86200202B49C860002029490862BB
:101ED0004FF40070274988610020264948624FF47A
:101EE000827024494860234800F0D6FE0400200098
:101EF000C0B210BD2DE9F04182B004000D00160003
:101F000000224021144800F092F900208046F6B2E9
:101F1000B04511D24FF48050009001232A002100D7
:101F2000144800F008FF0700FFB2002F04D1641C22
:101F30006D1C18F10108EAE701224021064800F073
:101F400076F93800C0B2BDE8F681000030380240B2
:101F5000000021100000024000040240380600206A
:101F600074060020B0060020000400400008004075
:101F700000300140E0050020C0B2401C00EE100A15
:101F8000B8EEC00ADFED020A20EE200A704700BF5B
:101F90000000FA41C0B2401C00EE100AB8EEC00AC0
:101FA000DFED020A20EE200A704700BF0080BB432D
:101FB000C0B2401C00EE100ABAEEEF0A70470000F3
:101FC000DFED070A30EE200ADFED060AB6EE001A52
:101FD00000EE201ABDEEC10A10EE100AC0B2704722
:101FE0000000FAC16F12033DDFED070A30EE200A50
:101FF000DFED060AB6EE001A00EE201ABDEEC10AA9
:1020000010EE100AC0B270470080BBC30FB82E3B61
:10201000FEEE000A30EE200AF0EE000AB6EE001ADC
:1020200000EE201ABDEEC10A10EE100AC0B27047D1
:1020300031B501F05DF80400009D15F1010F00D0ED
:102040006D1C01F055F8001BA842FAD331BD000009
:10205000F8B400230024002500263200102A80F066
:10206000D8800126964033000E681E4034009C4202
:1020700040F0CD804E68022E02D04E68122E16D14E
:10208000D60800EB8606366A35000F2612F00707E1
:10209000FFB2BF00BE40B5430E6912F00707FFB2A2
:1020A000BF00BE403543D60800EB860635620668A1
:1020B000350003261700FFB27F00BE40B5430E79FE
:1020C00016F003061700FFB27F00BE4035430560DF
:1020D0004E68012E08D04E68022E05D04E68112E93
:1020E00002D04E68122E19D18668350003261700DB
:1020F000FFB27F00BE40B543CE681700FFB27F003D
:10210000BE40354385604668350001269640B5439C
:102110004E68C6F30016964035434560C6683500E4
:1021200003261700FFB27F00BE40B5438E6817003C
:10213000FFB27F00BE403543C5604E68F60066D5ED
:1021400000260096494E366856F48046474F3E605A
:10215000464E366816F480460096009E444E970818
:1021600056F8276035000F2612F00307FFB2BF00B4
:10217000BE40B5433F4EB04201D1002614E03E4E72
:10218000B04201D101260FE03C4EB04201D10226FF
:102190000AE03B4EB04201D1032605E0394EB04281
:1021A00001D1042600E00726F6B212F00307FFB2C1
:1021B000BF00BE4035432E4E970846F82750324E9A
:1021C00036683500A5434E68F60300D525432E4EEC
:1021D00035602E4E36683500A5434E68B60300D5EF
:1021E00025432A4E35602A4E36683500A5434E6891
:1021F000F60200D52543264E3560264E366835005A
:10220000A5434E68B60200D52543224E3560521CC8
:1022100024E7F1BC70470200136989B20B4202D077
:102220000123180001E000231800C0B27047D2B2A9
:10223000002A02D089B2816102E089B20B04836175
:102240007047426989B24A404261704710B5040044
:1022500011480068A4B2204206D0A4B20E4804601F
:10226000200080B201F076F810BD00004438024032
:10227000083801400000024000040240000802400B
:10228000000C024000100240003C0140043C0140B0
:10229000083C01400C3C0140143C014010F0070296
:1022A000DFF820311B6819004FF6FF031940DFF8F3
:1022B000183153EA02231943424B196070474148D1
:1022C0000068C0F30220704740B2002808D4012102
:1022D00010F01F0291403D4A40B2430942F82310DA
:1022E000704710B440B2002804D40A01384B40B201
:1022F0001A5407E00A01374B40B210F00F04234490
:1023000003F8042C10BC704770B4030013F00704EA
:10231000D4F10706052E01D3042001E0D4F1070013
:10232000261D072E01D2002500E0E51E012616FA23
:1023300000F0401E0840A8400121A940491E11405C
:10234000084370BC704710B50400601EB0F1807F78
:1023500001D301200EE0601E1F4908600F215FF0CD
:10236000FF30FFF7BEFF00201C49086007201C4912
:102370000860002010BD10B504002000FFF78EFF9C
:1023800010BDF8B504000D0016000027FFF797FFF9
:102390000700320029003800FFF7B6FF01002000D7
:1023A00040B2FFF79EFFF1BD10B50400200040B21F
:1023B000FFF78AFF10BD10B504002000FFF7C3FF30
:1023C00010BD00000CED00E00000FA0500E100E0A7
:1023D00000E400E018ED00E014E000E018E000E0A8
:1023E00010E000E070B504000D00002661480068B0
:1023F00010F00F00A84209D25E4805705D480068E1
:1024000010F00F00A84201D00120B2E02078800730
:1024100007D55948006830F0F000A16808435649D4
:1024200008602078C00769D56068012805D1534845
:102430000068800313D401209BE06068022802D06A
:102440006068032805D14D480068800107D4012049
:102450008FE04A480068800701D4012089E046489F
:10246000006880088000616808434349086000F004
:102470003FFE0600606801280ED13F48006810F05A
:102480000C0004283AD000F033FE801B41F2893161
:102490008842F2D303206CE0606802280ED13648EF
:1024A000006810F00C00082828D000F021FE801BE6
:1024B00041F289318842F2D303205AE06068032850
:1024C0000ED12D48006810F00C000C2816D000F03A
:1024D0000FFE801B41F289318842F2D3032048E08D
:1024E0002548006810F00C0F08D000F001FE801B9A
:1024F00041F289318842F3D303203AE01D48006855
:1025000010F00F00854209D21A480570194800687A
:1025100010F00F00A84201D001202AE020784007E7
:1025200007D51548006830F4E050E16808431249C7
:1025300008602078000708D50F48006830F4604034
:10254000216950EAC1000C49086000F01DF80A49F1
:1025500009680B4A11F0F0015FF07063B3FA83F37E
:10256000D940515CC840074908600F2000F0FCFECC
:10257000002070BD003C0240083802400038024094
:10258000404500086401002070B4002100220023AF
:102590000020264C246814F00C04002C04D0042CD9
:1025A00005D0082C06D03DE0214C20003CE0214C19
:1025B000200039E0204C246814F03F0421001E4C18
:1025C000246864020FD51C4C24681A4DB5FBF1F544
:1025D00047F6C0763440194EB6FA86F6F44004FB4E
:1025E00005F422000EE0144C2468114DB5FBF1F502
:1025F00047F6C0763440114EB6FA86F6F44004FB36
:1026000005F422000C4C246814F440344FF4404587
:10261000B5FA85F5EC40641C64002300B2FBF3F4CA
:10262000200001E0024C200070BC704708380240D6
:102630000024F40040787D01043802400000FE03CD
:1026400010B50400002C01D1012014E094F83900E9
:10265000002805D1002084F83800200000F0ADFDEE
:10266000022084F83900211D206800F0BAF9012009
:1026700084F83900002010BD38B504000D00002298
:102680002900206800F02FFA2068DFF8DC1088426B
:1026900011D12068006A41F2111108420BD1206863
:1026A000006A40F24441084205D12068406C30F491
:1026B0000040216848642068006A41F21111084214
:1026C0000BD12068006A40F24441084205D12068DD
:1026D00000684008400021680860012084F8390043
:1026E000002032BD38B504000D002800002806D0B7
:1026F00004280BD0082810D00C2815D01BE0206827
:10270000C06850F002002168C86014E02068C0680A
:1027100050F004002168C8600DE02068C06850F0E7
:1027200008002168C86006E02068C06850F010000A
:102730002168C860FFE701222900206800F0D3F972
:102740002068DFF82410884205D12068406C50F4DE
:102750000040216848642068006850F0010021684A
:102760000860002032BD00000000014010B50400E8
:102770002068006980071AD52068C068800716D5D0
:102780007FF00200216808610120207620688069BE
:1027900010F0030F03D0200000F0FAFD05E0200048
:1027A00000F0F7FD200000F086FD00202076206874
:1027B000006940071AD52068C068400716D57FF029
:1027C000040021680861022020762068806910F4E6
:1027D000407F03D0200000F0DBFD05E0200000F08A
:1027E000D8FD200000F067FD0020207620680069F9
:1027F00000071AD52068C068000716D57FF00800CA
:1028000021680861042020762068C06910F0030F59
:1028100003D0200000F0BCFD05E0200000F0B9FD71
:10282000200000F048FD0020207620680069C006E6
:102830001AD52068C068C00616D57FF01000216840
:102840000861082020762068C06910F4407F03D01A
:10285000200000F09DFD05E0200000F09AFD200022
:1028600000F029FD0020207620680069C0070AD505
:102870002068C068C00706D57FF0010021680861A4
:10288000200000F087FD2068006900060AD5206856
:10289000C068000606D57FF080002168086120002E
:1028A00000F079FD2068006940060AD52068C068FC
:1028B000400606D57FF0400021680861200000F046
:1028C0006BFD2068006980060AD52068C068800614
:1028D00006D57FF0200021680861200000F05DFD32
:1028E00010BD70B504000D00160094F838000128E2
:1028F00001D1022074E0012084F83800022084F81D
:1029000039003000002806D004281BD0082831D018
:102910000C2846D05DE02900206800F0F3F820681C
:10292000806950F00800216888612068806930F073
:10293000040021688861206880692969084321684A
:10294000886146E02900206800F098F820688069D6
:1029500050F40060216888612068806930F48060EC
:102960002168886120688069296950EA012021680E
:1029700088612EE02900206800F0F4F82068C06922
:1029800050F008002168C8612068C06930F0040078
:102990002168C8612068C069296908432168C86145
:1029A00017E02900206800F011F92068C06950F490
:1029B00000602168C8612068C06930F480602168C7
:1029C000C8612068C069296950EA01202168C8618E
:1029D000FFE7012084F83900002084F83800002047
:1029E00070BD002203681A00DFF8343298420CD020
:1029F000B0F1804F09D0DFF82C32984205D08A4BD5
:102A0000984202D0894B984201D1012300E0002373
:102A1000DBB2002B03D032F070024B681A43804BBC
:102A2000984214D0B0F1804F11D07E4B98420ED016
:102A30007D4B98420BD07D4B984208D07C4B9842FE
:102A400005D07C4B984202D07B4B984201D10123A8
:102A500000E00023DBB2002B03D032F44072CB68DD
:102A60001A4302608B68C3620B6883626C4B9842A6
:102A700001D10B69036301234361704730B4002225
:102A800000230024056A35F010050562056A2B0055
:102A900045682C0085692A0032F4E04232F4407225
:102AA0000D6852EA052233F020038D6853EA0513BE
:102AB0005B4DA84210D133F08003CD6853EA051373
:102AC00033F0400334F4806434F400644D6954EA14
:102AD00085048D6954EA8504446082614D6885638C
:102AE000036230BC704730B4002301248C402300C3
:102AF000046A9C430462046A12FA01F52C430462DE
:102B000030BC704730B4002200230024056A6D08F1
:102B10006D000562056A2B0045682C0085692A0056
:102B200032F07002920892000D682A4333F00203DB
:102B30008D682B433A4DA8420DD133F00803CD6880
:102B40002B4333F0040334F4807434F400744D697F
:102B50002C438D692C43446082614D684563036258
:102B600030BC704730B4002200230024056A35F4DD
:102B700080750562056A2B0045682C00C5692A002E
:102B800032F07002920892000D682A4333F4007309
:102B90008D6853EA0523224DA84210D133F4006317
:102BA000CD6853EA052333F4806334F4805434F45D
:102BB00000544D6954EA05148D6954EA05144460C3
:102BC000C2614D68C563036230BC704730B40022F7
:102BD00000230024056A35F480550562056A2B0040
:102BE00045682C00C5692A0032F4E04232F4407294
:102BF0000D6852EA052233F400538D6853EA053319
:102C0000074DA84204D134F480444D6954EA851438
:102C10004460C2614D680564036230BC70470000C7
:102C2000000001400004004000080040000C00408B
:102C3000004001400044014000480140020092F879
:102C40003800012801D1022024E0012082F8380058
:102C5000022082F839001068406830F07000136874
:102C60005860106840680B68184313685860106813
:102C7000806830F0800013689860106880684B6846
:102C8000184313689860012082F83900002082F808
:102C9000380000207047000010B50400002C01D15E
:102CA000012047E0606A0028A06AB0F5005F94F850
:102CB0005100002805D1002084F85000200000F0C9
:102CC0001DFA022084F851002068006830F04000AE
:102CD000216808606068A1680843E16808432169C9
:102CE000084361690843A16911F400710843E1696F
:102CF0000843216A0843A16A084321680860A06963
:102D0000000C10F00400616A084321684860A06A62
:102D1000B0F5005F02D1E06A216808612068C069EF
:102D200030F400602168C86100206065012084F8EB
:102D30005100002010BD2DE9F04F85B004008A46F7
:102D400093461D000E9E002002900020039000205C
:102D5000ADF8040000275FF001085FF0000994F867
:102D60005000012801D1022057E1012084F85000D1
:102D700000F0BEF9070094F85100029060680390DB
:102D8000029801280CD00398B0F5827F05D1A06885
:102D9000002802D10298042802D00220814634E1A2
:102DA000BAF1000F05D0BBF1000F02D0ADB2002D7B
:102DB00002D10120814628E194F85100012802D176
:102DC000052084F8510000206065C4F838B0E5871C
:102DD000A587C4F830A0E586A586002020640020E1
:102DE0006064A06AB0F5005F0CD1206800684DF601
:102DF000FF710840216808602068006850F40050A6
:102E00002168086020680068400605D420680068D2
:102E100050F0400021680860E068B0F5006F54D1C0
:102E20006068002802D0E08E012808D1BAF80000BE
:102E30002168C8601AF1020AE08E401EE086E08E2A
:102E4000002803D1E08F002800F09380B8F1000F34
:102E50001ED0E08E00281BD020688068800717D520
:102E6000BAF800002168C8601AF1020AE08E401E1C
:102E7000E08600208046E08E002809D1A06AB0F5E7
:102E8000005F05D12068006850F480502168086018
:102E9000E08F00280ED020688068C0070AD520681F
:102EA000C068ABF800001BF1020BE08F401EE0870A
:102EB0000120804616F1010FC1D000F019F9C01BA6
:102EC000B042BCD3032081469FE06068002802D056
:102ED000E08E012808D19AF80000216808731AF1E1
:102EE000010AE08E401EE086E08E002802D1E08FCD
:102EF00000283ED0B8F1000F1ED0E08E00281BD075
:102F000020688068800717D59AF800002168087348
:102F10001AF1010AE08E401EE08600208046E08E15
:102F2000002809D1A06AB0F5005F05D120680068CB
:102F300050F4805021680860E08F00280ED020688F
:102F40008068C0070AD52068C0688BF800001BF1B4
:102F5000010BE08F401EE0870120804616F1010F33
:102F6000C2D000F0C5F8C01BB042BDD303208146DB
:102F70004BE0A06AB0F5005F15D100973300012245
:102F80000121200000F04CF8002806D0606D50F0C0
:102F9000020060650320814637E02068C068ADF814
:102FA0000400BDF8040020688068C00609D5606D83
:102FB00050F0020060654FF6EF70216888600120D4
:102FC00081460097330001220221200000F028F8FA
:102FD000002802D00320814617E03A00310020008B
:102FE00000F06FF8002804D00120814620206065A1
:102FF0000BE0A068002808D1002000902068C0687D
:1030000000902068806800900098012084F85100AA
:10301000002084F850004846C0B205B0BDE8F08FEB
:103020002DE9F04104000D0016001F00DDF81880A6
:10303000206880682840A84201D1012000E00020DB
:10304000B0423BD017F1010FF2D0002F05D000F0B5
:103050004FF8B0EB0800B842EAD32068406830F07F
:10306000E000216848606068B0F5827F0DD1A068FB
:10307000B0F5004F03D0A068B0F5806F05D120688F
:10308000006830F0400021680860A06AB0F5005F79
:103090000CD1206800684DF6FF7108402168086077
:1030A0002068006850F4005021680860012084F80E
:1030B0005100002084F85000032000E00020BDE80B
:1030C000F08170B582B004000D00160000962B0050
:1030D000002280212000FFF7A3FF002805D0606DAB
:1030E00050F020006065032000E0002076BD000065
:1030F00001480068704700BF1007002010B586B077
:10310000040020688A49884255D1002000908948EF
:10311000006850F00100874908608648006810F098
:10312000010000900098002000908248006850F054
:103130000100804908607F48006810F0010000909D
:103140000098002000907B48006850F00100794909
:1031500008607848006810F0010000900098002096
:1031600000907548006850F48050734908607248B8
:10317000006810F4805000900098202001900220F8
:10318000029000200390012004900520059001A9E1
:103190006A48FEF75DFF402001900520059001A9D7
:1031A0006648FEF755FF802001900520059001A993
:1031B0006248FEF74DFF06B010BD10B586B00400A2
:1031C00020685F49884224D1002000905D48006853
:1031D00050F002005B4908605A48006810F0020095
:1031E000009000988020019002200290002003901F
:1031F000002004900220059001A95348FEF728FF03
:10320000002204211D20FFF7BCF81D20FFF7CCF899
:103210004FE02068B0F1804F24D100200090494851
:10322000006850F00100474908604648006810F007
:1032300001000090009808200190022002900020D8
:103240000390002004900120059001A93F48FEF75B
:10325000FFFE002204211C20FFF793F81C20FFF73B
:10326000A3F826E020683A49884222D10020009045
:103270003448006850F00400324908603148006862
:1032800010F00400009000984FF48060019001203D
:103290000290002003900020049001A92B48FEF723
:1032A000D7FE002203211E20FFF76BF81E20FFF738
:1032B0007BF806B010BD10B5040020682049884294
:1032C0000AD1207E022807D1002000F03DF908280D
:1032D00002D0002000F00CFB2068B0F1804F0AD132
:1032E000207E022807D1012000F02EF9082802D004
:1032F000012000F0FDFA20681549884216D1207E91
:10330000042813D14FF480611048FEF79AFF022081
:1033100000F01AF9082809D04FF480610B48FEF735
:103320007AFF012802D1022000F0E2FA10BD00006D
:103330000030014030380240443802400000024072
:1033400000040040403802400008024000040240EF
:103350000008004010B50400A4B2B4F5806F01D19C
:1033600000F081F810BD000010B5040007480068A7
:103370004FF47A71B0FBF1F0FFF71DF80022210045
:103380005FF0FF30FEF7FDFF002010BD640100205C
:1033900070477047704770477047704710B504001A
:1033A000DFF83C06006800280CD0DFF8340600681F
:1033B0008068002806D02000DFF824160968896894
:1033C000884703E040F6020000F01AF810BD10B57F
:1033D0000400DFF80C06006800280CD0DFF80006B7
:1033E0000068C068002806D02000DFF8F4150968DE
:1033F000C968884703E040F6030000F001F810BDFB
:1034000010B50400DFF8D805006800280FD0DFF8F9
:10341000D0050068D0F8F000002808D0200080B265
:10342000DFF8BC150968D1F8F010884700E0FEE726
:1034300010BD38B504000D00DFF8A40500680028B1
:103440000CD0DFF89C0500680068002806D0280032
:10345000DFF88C1509680968884703E04FF40060BD
:10346000FFF7CEFF31BD80B5DFF874050068002896
:103470000BD0DFF86C0500684069002805D0DFF844
:10348000600500684069804703E040F60500FFF7EB
:10349000B7FF01BD38B504000025DFF8440500681A
:1034A00000280ED0DFF8380500688069002808D0B1
:1034B0002000C0B2DFF8281509688969884705002F
:1034C00003E040F60600FFF79BFF280080B232BD04
:1034D00038B504000025DFF80805006800280ED084
:1034E000DFF8FC040068C069002808D02000C0B2E2
:1034F000DFF8EC140968C9698847050003E040F665
:103500000700FFF77DFF280080B232BD38B5040008
:103510000025DFF8CC04006800280ED0DFF8C004D6
:103520000068006A002808D02000C0B2DFF8B0149C
:103530000968096A8847050003E040F60800FFF7BC
:103540005FFF280080B232BD38B504000825DFF8DF
:103550009004006800280ED0DFF884040068406AF8
:10356000002808D02000C0B2DFF874140968496A46
:103570008847050003E040F60900FFF741FF2800F7
:10358000C0B232BD38B504000025DFF8540400682D
:1035900000280ED0DFF848040068006B002808D02F
:1035A0002000C0B2DFF838140968096B88470500AD
:1035B00003E040F60C00FFF723FF280080B232BD85
:1035C00038B504000025DFF81804006800280ED084
:1035D000DFF80C040068406B002808D02000C0B25F
:1035E000DFF8FC130968496B8847050003E040F6E3
:1035F0000D00FFF705FF280080B232BD38B504008A
:103600000025DFF8DC03006800280ED0DFF8D003C7
:103610000068806B002808D02000C0B2DFF8C0131B
:103620000968896B8847050003E040F60E00FFF744
:10363000E7FE280032BD10B50400DFF8A4030068DF
:1036400000280DD0DFF898030068C06B002807D071
:103650002000C0B2DFF888130968C96B884703E00F
:1036600040F60F00FFF7CCFE10BD10B50400DFF8E8
:103670007003006800280DD0DFF864030068006C58
:10368000002807D02000C0B2DFF854130968096C85
:10369000884703E04FF40160FFF7B2FE10BD38B574
:1036A00004000D00DFF83803006800280ED0DFF8B2
:1036B00030030068406C002808D029002000C0B208
:1036C000DFF81C231268526C904703E040F61100AB
:1036D000FFF796FE31BD10B50400DFF80403006863
:1036E00000280DD0DFF8F8020068806C002807D0B1
:1036F0002000C0B2DFF8E8120968896C884703E04F
:1037000040F61200FFF77CFE10BD38B504000D0036
:10371000DFF8CC02006800280FD0DFF8C402006890
:10372000406D002809D02900C9B22000C0B2DFF8DE
:10373000B0221268526D904703E040F61500FFF783
:103740005FFE31BD70B504000D000026DFF8900269
:103750000068002810D0DFF888020068806D00281B
:103760000AD0290089B22000C0B2DFF874221268A2
:10377000926D9047060003E040F61600FFF740FE0A
:103780003000C0B270BD70B504000D000026DFF837
:1037900050020068002810D0DFF844020068C06DB5
:1037A00000280AD0290089B22000C0B2DFF83022F8
:1037B0001268D26D9047060003E040F61700FFF74D
:1037C0001FFE3000C0B270BD10B50400DFF810025B
:1037D000006800280DD0DFF808020068006E00289D
:1037E00007D02000C0B2DFF8F8110968096E8847D9
:1037F00003E040F61800FFF703FE10BD10B504000B
:10380000DFF8DC01006800280DD0DFF8D401006883
:10381000406E002807D02000C0B2DFF8C41109684C
:10382000496E884703E040F61900FFF7E9FD10BD37
:1038300070B504000D000026DFF8A4010068002820
:1038400010D0DFF89C010068806E00280AD02900A3
:1038500089B22000C0B2DFF888211268926E9047CA
:10386000060003E040F61A00FFF7CAFD3000C0B2C0
:1038700070BD70B504000D000026DFF8640100681B
:10388000002810D0DFF858010068C06E00280AD068
:10389000290089B22000C0B2DFF844211268D26E3C
:1038A0009047060003E040F61B00FFF7A9FD30003B
:1038B000C0B270BD38B504000025DFF824010068EF
:1038C00000280ED0DFF818010068006F002808D02B
:1038D0002000C0B2DFF808110968096F88470500A9
:1038E00003E040F61C00FFF78BFD2800C0B232BD9C
:1038F00010B50400DFF8E800006800280DD0DFF8FC
:10390000E0000068406F002807D02000C0B2DFF858
:10391000D0100968496F884703E040F61D00FFF7A3
:103920006FFD10BD10B50400DFF8B400006800287A
:103930000DD0DFF8AC000068806F002807D02000B1
:10394000C0B2DFF89C100968896F884703E040F631
:103950001E00FFF755FD10BD38B504000025DFF847
:1039600080000068002810D0DFF874000068D0F8EC
:103970008800002809D02000C0B2DFF86410096870
:10398000D1F888108847050003E040F62200FFF7D1
:1039900037FD280080B232BD70B504000D0000264E
:1039A000DFF83C000068002812D0DFF8340000681F
:1039B000D0F8A00000280BD02900C9B22000C0B266
:1039C000DFF81C201268D2F8A0209047060003E020
:1039D00040F62800FFF714FD3000C0B270BD0000B3
:1039E0000C07002070B504000D003B480480002641
:1039F000A4B241F64A10844204D1FCF757FE35497F
:103A000008604EE0A4B2012C04D100F067F83149FF
:103A1000086046E0A4B241F63E00844204D100F0C2
:103A20005FF82C4908603CE0A4B2B4F5C25F04D151
:103A300000F058F82749086033E0A4B2DC2C04D128
:103A400000F052F8234908602BE0A4B241F646107A
:103A5000844204D0A4B241F64810844204D100F05C
:103A600045F81C4908601CE0A4B241F6501084429D
:103A700004D0A4B241F65210844204D100F038F8C8
:103A8000144908600DE0A4B2F02C02D0A4B2FA2CC4
:103A900004D100F02FF80F49086002E000200D4922
:103AA00008600C480068002810D00A480068D0F868
:103AB000440100280AD0EDB2002D07D02800C0B282
:103AC00004490968D1F84411884706003000C0B2A3
:103AD00070BD00000C070020180700200020704770
:103AE000002070470020704700207047002070477A
:103AF000002070470020704770B582B00400002598
:103B00002078C00768D5DFF87803006810F00C0053
:103B100004280BD0DFF86803006810F00C000828B8
:103B20000ED1DFF860030068400209D5DFF85803C2
:103B30000068800350D5606800284DD101209EE1C7
:103B40006068B0F5803F08D1DFF83C03006850F4AE
:103B50008030DFF8341308601FE06068B0F5A02FF4
:103B60000FD1DFF82403006850F48020DFF8181329
:103B70000860DFF81403006850F48030C249086020
:103B80000BE0C148006830F48030BF490860BE488F
:103B9000006830F48020BC490860606800280DD0BF
:103BA000FFF7A6FA0500B8480068800314D4FFF7B1
:103BB0009FFA401B6528F6D3032060E1FFF798FACF
:103BC0000500B1480068800306D5FFF791FA401B55
:103BD0006528F6D3032052E1207880075AD5A848FB
:103BE000006810F00C0F09D0A548006810F00C0018
:103BF00008281BD1A3480068400217D4A2480068D7
:103C0000800704D5E068012801D0012037E19E48F3
:103C100000685FF0F851B1FA81F130F0F8002269E4
:103C200012FA01F108439849086033E0E06800287F
:103C30001FD0012095490860FFF75AFA0500924805
:103C40000068800706D4FFF753FA401B0328F6D319
:103C5000032014E18C4800685FF0F851B1FA81F15B
:103C600030F0F800226912FA01F108438649086031
:103C700010E0002085490860FFF73AFA0500824805
:103C80000068800706D5FFF733FA401B0328F6D3F8
:103C90000320F4E02078000724D56069002810D0C4
:103CA00001207B490860FFF723FA05007948006886
:103CB000800717D4FFF71CFA401B0328F6D3032014
:103CC000DDE0002072490860FFF712FA0500714834
:103CD0000068800706D5FFF70BFA401B0328F6D3D0
:103CE0000320CCE0207840076AD5002000906A4885
:103CF000006850F08050684908606748006810F01C
:103D00008050009000986548006850F480706349C6
:103D10000860FFF7EDF9050060480068C00506D4AB
:103D2000FFF7E6F9401B0328F6D30320A7E0A068BD
:103D3000012806D15A48006850F00100584908602F
:103D40001BE0A06805280CD15548006850F004001D
:103D5000534908605248006850F00100504908601B
:103D60000BE04F480068400840004D4908604C484F
:103D7000006830F004004A490860A06800280FD0AD
:103D8000FFF7B6F9050046480068800718D4FFF72A
:103D9000AFF9401B41F289318842F4D303206EE031
:103DA000FFF7A6F905003E480068800708D5FFF731
:103DB0009FF9401B41F289318842F4D303205EE031
:103DC000A06900285AD02E48006810F00C0008287E
:103DD00052D0A06902283ED1002032490860FFF786
:103DE00087F9050028480068800106D5FFF780F9AB
:103DF000401B0328F6D3032041E02B48B0FA80F2A1
:103E00004FF44040B0FA80F0F021B1FA81F1E3695B
:103E1000266A3343666A16FA02F21A43A36A5B08FB
:103E20005B1E13FA00F01043E26A12FA01F1084334
:103E30001449086001201B490860FFF759F9050083
:103E400011480068800119D4FFF752F9401B03287C
:103E5000F6D3032013E0002012490860FFF748F969
:103E6000050009480068800108D5FFF741F9401BAB
:103E70000328F6D3032002E0012000E0002076BDF5
:103E8000083802400438024000380240000047422F
:103E9000800E4742743802404038024000700040B3
:103EA00070380240600047420000FE032DE9F041F7
:103EB00000F0B4F900F0D4F9032141F64A10FFF7FD
:103EC00091FD002141F64A10FFF7B3FA002141F6B7
:103ED0004A10FFF7AEFA002141F64A10FFF7A9FA9F
:103EE0000FF20930FFF773FA0FF21D30FFF756FAA1
:103EF0000020FFF769FC0120FFF766FC0220FFF7B6
:103F000063FC4FF448610020FFF7C9FB0020FFF776
:103F100009FD0020FFF772FB0400B4F5486F09D1DA
:103F20000020FFF76BFC21000120FFF7B8FB012008
:103F3000FFF7F8FC0120FFF761FB0400B4F5486FC0
:103F400006D121000220FFF7AAFB0220FFF7EAFCBE
:103F50000220FFF753FB04004FF47A70FEF768F875
:103F6000B4F5486F11D10020FFF765FB0120FFF782
:103F700062FB0220FFF75FFB0020FFF7D3FC01206C
:103F8000FFF7D0FC0220FFF7CDFC4FF47A70FEF76C
:103F90004FF89F490020FFF782FB0020FFF7C2FC8B
:103FA0000020FFF72BFB040014F5486F06D1210019
:103FB0000120FFF774FB0120FFF7B4FC0120FFF79D
:103FC0001DFB040014F5486F06D121000220FFF705
:103FD00066FB0220FFF7A6FC0220FFF70FFB0400A0
:103FE0004FF47A70FEF724F814F5486F14D10220CC
:103FF000FFF704FC0020FFF71EFB0120FFF71BFB6F
:104000000220FFF718FB0020FFF78CFC0120FFF7D0
:1040100089FC0220FFF786FC4FF47A70FEF708F85F
:104020000020FFF722FB0220FFF71FFB0020FFF715
:1040300079FC0220FFF776FC4FF47A70FDF7F8FF69
:1040400001210020FFF761FB0020FFF79BFA80466B
:104050000020FFF73DFA4045FAD1B8F5A078414677
:1040600089B20120FFF7E4FB01210120FFF74DFB9E
:104070000120FFF72DFA4045FAD1B8F5A078414666
:1040800089B20220FFF7D4FB01210220FFF73DFB9C
:104090000220FFF71DFA4045FAD140F6B830FDF78F
:1040A000C7FF0120FFF706FC0120FFF73BFC0020C3
:1040B000FFF711FB0220FFF70EFB0020FFF732FC99
:1040C0000220FFF72FFC0020FFF7B5FA0120FFF7D1
:1040D000B2FA0220FFF7AFFA0020FFF723FC01201D
:1040E000FFF720FC0220FFF71DFC0020FFF7D2F9AC
:1040F00006000020FFF70AFA07000020FFF742FA47
:1041000080460020FFF75CFA050003210120FFF73D
:1041100043FC5FEA580189B20120FFF789FB690877
:1041200089B20120FFF7A5FBB6B2022096FBF0F0A2
:10413000010089B20120FFF705FBBFB2022097FB07
:10414000F0F0010089B20120FFF71DFB00210220E1
:10415000FFF722FC5FEA181189B20220FFF768FB23
:10416000290989B20220FFF784FBB6B2102096FB22
:10417000F0F0010089B20220FFF7E4FABFB210208C
:1041800097FBF0F0010089B20220FFF7FCFA20490A
:104190000020FFF784FA4FF4C8610120FFF77FFA8F
:1041A0007FF0C7010220FFF77AFA0020FFF7BAFB81
:1041B0000120FFF7B7FB0220FFF7B4FB4FF4486183
:1041C0000020FFF76CFA13490120FFF768FAC821B5
:1041D0000220FFF764FA0020FFF7A4FB0120FFF79D
:1041E000A1FB0220FFF79EFBD1E7000010B50020E5
:1041F000FFF7B2FB04000120FFF7AEFB0400022032
:10420000FFF7AAFB040010BD03490880FEE7000089
:1042100080F3FFFFC0F9FFFF1607002080B50E48AE
:10422000006850F400700C4908600B48006850F4B6
:104230008060094908600848006850F480700649A9
:1042400008600320FEF797F80F20FFF78DF800F0C5
:1042500005F8002002BD0000003C0240704700004D
:1042600000B593B0002000902648006850F08050C0
:10427000244908602348006810F08050009000989E
:10428000002000902048006830F4404050F4004086
:104290001D4908601C48006810F4404000900098D8
:1042A000022006900120099010200A9002200C9014
:1042B00000200D9010200E904FF4A8700F90042055
:1042C00010900720119006A8FFF716FC002802D0D6
:1042D0000020FFF799FF0F2001900220029000209C
:1042E00003904FF48050049000200590022101A813
:1042F000FEF778F8002802D00120FFF785FF13B001
:1043000000BD00BF4038024000700040F0B40168BA
:1043100044688368014401EB5402E40748BF4B44FE
:10432000914202D1F0BC0C30704711F8015B15F0DE
:10433000030604BF11F8014BE61C2C090F2C07D112
:1043400011F8014B0F3403E011F8017B03F8017BF6
:10435000761EF9D1002CE3D0AD0811F8016B05F001
:104360000305032D08BF11F8015B06EB05256D421F
:10437000A41C1D44D4D015F8016B03F8016B641E16
:10438000F9D1CDE71248006850F470001049086078
:104390001048006850F001000E49086000200E49E6
:1043A00008600C4800680D4908400A4908600C483C
:1043B0000C4908600748006830F48020054908600F
:1043C0000020094908605FF00060084908607047F4
:1043D00088ED00E00038024008380240FFFFF6FE9A
:1043E00010300024043802400C38024008ED00E090
:1043F0007047FEE7FEE7FEE7FEE77047704770474D
:1044000080B500F01DF801BD80B54FF48060FDF768
:104410001DFF01BD80B50748FEF7A8F901BD80B5B5
:104420000548FEF7A3F901BD80B50448FEF79EF9E3
:1044300001BD00007406002038060020B0060020F0
:1044400002480068401C01490860704710070020BE
:1044500019E050F8041BCB0744BFA9F10103591818
:10446000121F0023042A41F8043BF9D25FEA827C40
:104470000B4604D54FF0000CA1F800C09B1CD107DF
:1044800044BF0021197050F8042B002AE1D1704775
:1044900010B5074979441831064C7C44163404E0C1
:1044A0000A68081D114488470146A142F8D110BD91
:1044B0002C000000480000004EF68851CEF20001AA
:1044C000086840F470000860BFF34F8FBFF36F8F30
:1044D0004FF00070E1EE100A7047000075FFFFFF1B
:1044E000B8010000680500200000000021FEFFFF69
:1044F0004C010000880100000000002000F00BF8D3
:10450000002801D0FFF7C4FF0020AFF30080FFF7C1
:10451000CDFC00F002F80120704700F001B8000067
:104520000746384600F002F8FBE7000080B5AFF31D
:104530000080024A11001820ABBEFBE726000200F3
:104540000000000000000000010203040607080943
:10455000014880470148004785430008614500083D
:10456000AFF30080FFF7A8FFFFF7C8FFFFF7FEBF1C
:10457000FFF7FEBFFFF7FEBFFFF7FEBFFFF7FEBF6F
:10458000FFF7FEBFFFF7FEBFFFF7FEBFFFF7FEBF5F
:10459000FFF7FEBFFFF7FEBFFFF7FEBFFFF7FEBF4F
:1045A000FFF7FEBFFFF7FEBFFFF7FEBFFFF7FEBF3F
:1045B000FFF7FEBFFFF7FEBFFFF7FEBFFFF7FEBF2F
:1045C000FFF7FEBFFFF7FEBFFFF7FEBFFFF7FEBF1F
:1045D000FFF7FEBFFFF7FEBFFFF7FEBFFFF7FEBF0F
:1045E000FFF7FEBFFFF7FEBFFFF7FEBFFFF7FEBFFF
:1045F000FFF7FEBFFFF7FEBFFFF7FEBFFFF7FEBFEF
:10460000FFF7FEBFFFF7FEBFFFF7FEBFFFF7FEBFDE
:10461000FFF7FEBFFFF7FEBFFFF7FEBFFFF7FEBFCE
:10462000FFF7FEBFFFF7FEBFFFF7FEBFFFF7FEBFBE
:10463000FFF7FEBFFFF7FEBFFFF7FEBF100B410500
:104640000008D3090008950100089D04120001101C
:1046500003A5100008C718100363060008730412AE
:10466000830412A70412B30412C70412D70412EF72
:104670000410036B0700087B04129B0410036708F7
:104680000008474813090A08110412FF041007C95B
:104690000C0008570D0008870412A50413190E0812
:1046A00011042003A1160008FD0C117012B50412AC
:1046B000C504100321030008FB0410030B040008C9
:1046C000DB4812ED0422FB981148431B0D98A10111
:1046D000F301E30814E101F301E70624F30D85106B
:1046E00038128D988359072412030CF30D95063464
:1046F0001269A017510B18F2060528000124F400D6
:040000050800456149
:00000001FF
