:020000040800F2
:10000000680500201D4C0008954A0008974A000822
:10001000994A00089B4A00089D4A00080000000019
:100020000000000000000000000000009F4A0008DF
:10003000A14A000800000000A34A0008A54A0008E1
:10004000394C00083D4C0008414C0008454C000864
:10005000494C00084D4C0008514C0008554C000814
:10006000594C00085D4C0008614C0008654C0008C4
:10007000694C00086D4C0008714C0008754C000874
:10008000794C00087D4C0008814C0008854C000824
:10009000894C00088D4C0008914C0008954C0008D4
:1000A000994C0008D54A00089D4C0008A14C000856
:1000B000C14A0008CB4A000800000000A54C000817
:1000C000A94C00080000000000000000AD4C000832
:1000D00000000000B14C0008B54C0008B94C000805
:1000E000AD4A0008BD4C0008000000000000000000
:1000F0000000000000000000000000000000000000
:1001000000000000000000000000000000000000EF
:100110000000000000000000C14C0008C54C0008B1
:1001200000000000000000000000000000000000CF
:1001300000000000000000000000000000000000BF
:10014000C94C0008CD4C000800000000D14C00084C
:10015000D54C0008D94C0008DD4C0008E14C0008E3
:10016000E54C0008E94C0008000000000000000019
:10017000000000000000000000000000000000007F
:1001800000000000ED4C0008DFF8501D08607047CB
:10019000DFF84C1D0860704710B50400A82120004E
:1001A000C0B200F08CFF10BD10B50400B8212000D3
:1001B000C0B200F084FF10BD2DE9F04704000D002F
:1001C0005FF00008DFF81C0D0078001BB0F101099A
:1001D0005FF0000A0020DFF8101D08705FFA8AFA4D
:1001E000BAF1000F03D001F0D7FC002082460020B6
:1001F0000600DFF8F00C0078864223D20020DFF8FA
:10020000EC1C88550020DFF8E41C3144C870002045
:10021000DFF8D81C314488710020DFF8D01C31444D
:1002200048720020DFF8441D3144C8700020DFF818
:100230003C1D314488710020DFF8301D3144487284
:10024000761CD6E72800012808D0022811D0032800
:1002500004D018280DD019280BD015E055F0200037
:10026000DFF8881C5FFA89F901F80900032080464D
:1002700014E055F02000DFF8741C5FFA89F9494456
:10028000C8700220804609E055F02000DFF85C1CB1
:100290005FFA89F9494488710120804601F07AFCAF
:1002A00001208246DFF8400C0078002892D15FFAE6
:1002B00088F8D8F103000600042E0FD2DFF8AC0C4A
:1002C000032101FB06F10144DFF8200C032202FBAD
:1002D00006F2104401F02EFC761CEDE7DFF88C0CE2
:1002E0005FFA89F94844C078DFF8801C5FFA89F921
:1002F00049448979090251EA0040DFF8701C5FFA2D
:1003000089F94944497A0843070001F045FC38005F
:10031000BDE8F0872DE9F0410400DFF8C80B007854
:10032000001B471E5FF000080020DFF8BC1B0870B0
:100330005FFA88F8B8F1000F03D001F02DFC00201F
:10034000804600200500DFF89C0B0078854219D21A
:100350000020DFF8981B48550020DFF8901B294447
:10036000C8700020DFF8841B294488710020DFF862
:10037000FC1B2944C8700020DFF8F01B2944887159
:100380006D1CE0E7D020DFF8641BFFB2C85501F018
:1003900001FC01208046DFF8500B00780028C3D113
:1003A00000200500032D0FD2DFF8C00B032101FB55
:1003B00005F10144DFF8340B032202FB05F210447F
:1003C00001F0B8FB6D1CEDE7DFF8A00BFFB238447D
:1003D000C078DFF8981BFFB23944897951EA0020D0
:1003E000060001F0D9FB300080B2BDE8F08110B505
:1003F000040000212000C0B200F061FE10BD2DE914
:10040000F04704000D0016005FF00008DFF8D40A82
:100410000078001BB0F101095FF0000A0020DFF84E
:10042000C81A08705FFA8AFABAF1000F03D001F017
:10043000B3FB0020824600200700DFF8A80A0078FE
:10044000874214D20020DFF8A41AC8550020DFF834
:100450009C1A3944C8700020DFF8901A394488711A
:100460000020DFF8881A394448727F1CE5E728002D
:10047000012806D002281BD0032802D0182817D044
:1004800026E0DFF8680A5FFA89F900F80950300CB5
:10049000DFF8581A5FFA89F94944C870300ADFF862
:1004A0004C1A5FFA89F9494488710320804617E0A5
:1004B000DFF8380A5FFA89F94844C570300ADFF876
:1004C0002C1A5FFA89F9494488710220804607E0B6
:1004D000DFF8180A5FFA89F94844857101208046DF
:1004E000DFF8080A5FFA89F94844467201F052FBC6
:1004F00001208246DFF8F009007800288ED15FFAEB
:1005000088F8D8F103000700042F0FD2DFF85C0A47
:10051000032101FB07F10144DFF8D009032202FBAC
:1005200007F2104401F006FB7F1CEDE701F034FBFD
:10053000BDE8F08710B50400DFF8100D0088C0B2E8
:1005400001F02CFB01F0A6FC002803D04FF4004082
:1005500000F092FDDFF8F40C0088C0B201F00BFC53
:10056000DFF8E80C0088C0B201F05FFC012001F068
:100570000BFB002C06D1DFF8D40C0088C0B200F0D1
:1005800069FE06E02100DFF8C40C0088C0B200F06C
:10059000D4FDDFF8B80C0088C0B2FFF7FDFDDFF82E
:1005A000AC0C0088C0B2FFF7B5FEDFF8A00C0088E5
:1005B000401CDFF8981C088010BDDFF8941CC0B206
:1005C000282250430844008B704738B52DED028B2C
:1005D00004000D0029002000C0B2FFF7EDFD08EE79
:1005E000100A280001280AD0032808D0092811D0B1
:1005F0000F281FD010281DD0132813D022E018EE8A
:10060000100A00F02DFD00EE100AB8EEC00AF0EE60
:10061000408A1BE018EE100AC0B201F0A9FCF0EE0F
:10062000408A13E018EE100AC0B201F0AFFCF0EE01
:10063000408A0BE018EE100AC0B201F0B5FCF0EEF3
:10064000408A03E0B8EE480AF0EE408AB0EE680A4D
:10065000BDEC028B31BDDFF8F81BC0B2282250433D
:100660000844008C7047DFF8E81BC0B228225043D2
:100670000844408B7047DFF8D81BC0B22822504393
:10068000084490F824007047DFF8C41BC0B2282249
:100690005043084490F823007047DFF8CC0C7047B3
:1006A000DFF8C80C704710B5040003212000C0B269
:1006B000FFF782FD00F0D4FC10BDDFF8941BC0B240
:1006C000282250430844808B7047DFF8841BC0B257
:1006D000282250430844C08B7047DFF80808007890
:1006E000704710B5040001212000C0B2FFF764FD7F
:1006F00000F0B6FC10BD70B5040016212000C0B299
:10070000FFF75AFD10F0070050F008000600F6B29F
:10071000082E07D015D30A2E0AD006D30C2E0DD0E2
:1007200009D30EE0002005000DE0012005000AE0DD
:100730000220050007E00320050004E00420050076
:1007400001E0FE2005002800C0B270BDDFF8001BEC
:10075000C0B228225043084490F82500704710B5D5
:10076000040000212000C0B200F011F810BD38B51F
:10077000040003212000C0B2FFF71EFD00F070FC52
:10078000050029002000C0B200F001F831BDF8B525
:1007900004000D00DFF8B80AE4B2282101FB04F1DF
:1007A000084490F82400082803D02000C0B200F0CC
:1007B00054F801212000C0B2FFF7FEFC00F050FC0D
:1007C000DFF88C1AE4B2282202FB04F211444860DC
:1007D000DFF87C0AE4B2282101FB04F108444068F8
:1007E000281A0700002F0AD4DFF8640AE4B228218F
:1007F00001FB04F108444761012006000AE0784249
:10080000DFF84C1AE4B2282202FB04F211444861DA
:1008100000200600002F1FD00120DFF8341AE4B2B8
:10082000282202FB04F2114481F822003100C9B2EF
:100830002000C0B200F06BFADFF8140AE4B22821FD
:1008400001FB04F1084441692000C0B200F090FBB4
:100850002000C0B200F0D8FEF1BD10B50400DFF8F2
:10086000F009E4B2282101FB04F1084490F82500C6
:1008700000282BD12000C0B201F0BEFA0820DFF81A
:10088000D019E4B2282202FB04F2114481F82400BA
:100890000320DFF8BC19E4B2282202FB04F2114461
:1008A00081F822007FF00040DFF8A419E4B228228A
:1008B00002FB04F2114448610020DFF89419E4B20D
:1008C000282202FB04F21144088403E02000C0B295
:1008D00000F001F810BD10B504002000C0B201F016
:1008E0008BFA2000C0B2FFF757FC0820DFF8601930
:1008F000E4B2282202FB04F2114481F82400032010
:10090000DFF84C19E4B2282202FB04F2114481F80A
:1009100022007FF00040DFF83819E4B2282202FB01
:1009200004F2114448610020DFF82419E4B22822BF
:1009300002FB04F21144088410BD70B504000D00E0
:100940001600DFF80C09E4B2282101FB04F1084489
:1009500090F82400082803D02000C0B2FFF77DFFE4
:10096000002E2FD0DFF8E808E4B2282101FB04F1C3
:10097000084446610120DFF8D818E4B2282202FBBF
:1009800004F2114481F8220001212000C0B2FFF7D7
:1009900013FC00F065FBDFF8B818E4B2282202FB74
:1009A00004F2114448602900C9B22000C0B200F02E
:1009B000AEF931002000C0B200F0DAFA2000C0B277
:1009C00000F022FE70BDDFF884080088704710B583
:1009D000040019212000C0B2FFF7EEFB80B210BD69
:1009E00010B504002000C0B201F01FFA10BD10B510
:1009F00004002000C0B201F022FA10BD10B50020A2
:100A000004002000DFF8DC140978C0B2884213D259
:100A10002000C0B2FFF75FFF2000C0B2FFF7E7FF82
:100A2000012001F0B1F82000C0B201F0FEF9012070
:100A300001F0AAF8641CE4E710BD38B504000D000D
:100A4000DFF80C08E4B2282101FB04F1084490F817
:100A50002400082803D02000C0B2FFF7FEFE2900C2
:100A6000C9B22000C0B200F052F90020DFF8E01750
:100A7000E4B2282202FB04F2114481F82200200093
:100A8000C0B200F0C1FD31BDF8B504000D00EDB2FB
:100A9000002D05D0022D09D005D3032D09D00BE080
:100AA000082007000AE00920070007E00A200700E5
:100AB00004E00B20070001E00C2007002000C0B27A
:100AC000FFF709FF16212000C0B2FFF775FB10F0F9
:100AD000F8000600F6B2FFB257EA0602162120001F
:100AE000C0B2FFF78CFC2000C0B200F02EF901204C
:100AF000F2BD10B40200002089B200291FD0DFF837
:100B00005037D2B2282404FB02F4234493F8243053
:100B1000082B0AD0DFF83837D2B2282404FB02F4BD
:100B2000234493F82230002B09D1DFF82437D2B2C6
:100B3000282404FB02F42344198301231800C0B2C3
:100B400010BC70472DE9F0412DED028B04000D0023
:100B5000B0EE408A0127B5EE408AF1EE10FA06D5D4
:100B6000012D04D0032D02D000200700A0E02800B2
:100B7000012838D002280AD0032834D009285CD0B4
:100B80000F287AD0102878D0132866D085E0B5EEEB
:100B9000408AF1EE10FA1ED09FEDBE0AB4EE408AF4
:100BA000F1EE10FA14DA5FF0010816210020FFF7C9
:100BB00003FB10F00700D0F1070018FA00F000EE78
:100BC000100AB8EEC00AB4EE408AF1EE10FA02D56F
:100BD0000020070006E0BCEEC80A10EE100AC005AF
:100BE000C00D06005BE09FEDBB0AB4EE408AF1EE5B
:100BF00010FA1FDB9FEDB80AB4EE408AF1EE10FA4E
:100C000018D5B5EE408AF1EE10FA07DBBCEEC80A43
:100C100010EE100A8002800A06000DE0B1EE480ACC
:100C2000BCEEC00A10EE100A8002800AD0F58000E7
:100C3000060001E00020070031E09FEDC90AB4EE94
:100C4000408AF1EE10FA02DB0020070004E0B0EE6B
:100C5000480A01F0B1F9060021E09FEDC20AB4EEA6
:100C6000408AF1EE10FA02DB0020070004E0B0EE4B
:100C7000480A01F0B5F9060011E09FEDBB0AB4EE99
:100C8000408AF1EE10FA02DB0020070004E0B0EE2B
:100C9000480A01F0B9F9060001E000200700FFB2A0
:100CA000002F05D0320029002000C0B2FFF7A7FBBB
:100CB0003800C0B2BDEC028BBDE8F08110B4020078
:100CC000002089B200291FD0DFF88435D2B2282451
:100CD00004FB02F4234493F82430082B0AD0DFF8F5
:100CE0007035D2B2282404FB02F4234493F8223056
:100CF000002B09D1DFF85835D2B2282404FB02F4C6
:100D00002344598301231800C0B210BC704738B582
:100D100004000D00DFF83805E4B2282101FB04F1DE
:100D2000084490F8240008280ED1DFF82405E4B226
:100D3000282101FB04F1084480F823502900C9B29E
:100D40002000C0B201F085F831BD10B504000022CA
:100D500001212000C0B2FFF752FB10BD0100C9B253
:100D6000042908DA0020DFF8E4241080DFF8F40D0D
:100D70000170012000E00020704738B50400012117
:100D80002000C0B2FFF718FA05002A000321200056
:100D9000C0B2FFF734FB31BD30B40200002089B28D
:100DA000022930DB89B242F2117399422BDA0B002F
:100DB000DFF8B44DD2B2282505FB02F52C44E48BB4
:100DC0009BB2A3421FD3DFF8A03DD2B2282404FB7C
:100DD00002F4234493F82430082B0AD0DFF8883D2E
:100DE000D2B2282404FB02F4234493F82230002BCF
:100DF00009D1DFF8743DD2B2282404FB02F4234465
:100E0000998301231800C0B230BC704710B40200AF
:100E1000002089B2022930DB89B242F21173994273
:100E20002BDADFF8443DD2B2282404FB02F4234439
:100E30009B8B0C00A4B2A3421FD3DFF82C3DD2B28F
:100E4000282404FB02F4234493F82430082B0AD00E
:100E5000DFF8143DD2B2282404FB02F4234493F8B3
:100E60002230002B09D1DFF8003DD2B2282404FB48
:100E700002F42344D98301231800C0B210BC704788
:100E8000DFF8E42CC0B2282303FB00F31A4482F8F5
:100E9000251070470180FF4310B401000020DFF8E7
:100EA000C82CC9B2282303FB01F31A4492F824206A
:100EB000082A0BD00222DFF8B03CC9B2282404FB78
:100EC00001F4234483F8222001221000C0B210BC98
:100ED00070470000000000CAF9FFFF49200700200A
:100EE0001C070020320700203307002004070020E1
:100EF00010B504002000C0B2FFF7BDFB0828F9D1EF
:100F000010BD38B504000D00ADB2022D01DA02208B
:100F10000500ADB242F21170854202DB42F2107060
:100F20000500CB48E4B2282101FB04F10844058404
:100F3000E4B2002C03D0022C0BD005D30EE0280025
:100F400080B200F0C7FE09E0280080B200F0DDFEAC
:100F500004E0280080B200F0F3FEFFE731BD00009E
:100F600001007A450180BB45010080421007002046
:100F7000F0B4B74CC0B2282505FB00F52C44E48B37
:100F8000B34DC0B2282606FB00F63544AD8BA4B2A3
:100F90002D1B2A00AE4DC0B2282606FB00F63544B4
:100FA000AD8BA4B214FA85F56A431300A84DC0B204
:100FB000282606FB00F635442D8BB2FBF5F25208CD
:100FC000A34DC0B2282606FB00F635446D8BB3FB5B
:100FD000F5F35B089D18A94230D29D4DC0B228267A
:100FE00006FB00F635446D8B994EC0B2282707FBEF
:100FF00000F73E44368B01FB05F715EB060CB7FBFB
:10100000FCF73B00022B06D35F1E3A00002A04D1F6
:1010100001273A0001E000273A008D4FC0B25FF08F
:10102000280C0CFB00FC6744BA60894FC0B25FF02B
:10103000280C0CFB00FC67443B610FE0844DC0B200
:10104000282606FB00F63544AA60CD1A6D1E804E98
:10105000C0B2282707FB00F73E443561F0BC70475B
:1010600001008A0206D5C943491C8A02920A10006F
:10107000404200E00800704710B50400DFF8EC0AB9
:101080000068002806D0200080B2DFF8E01A096866
:10109000884700E0FEE710BD80B5DFF8D40A00689D
:1010A00000280BD00120DFF8CC1A0870DFF8C00A46
:1010B000006880470020DFF8BC1A087001BD2DE9E8
:1010C000F04104000D00DFF89C0A0078001B471E69
:1010D0005FF000080020DFF8A01A08705FFA88F8B7
:1010E000B8F1000F03D000F057FD0020804600202B
:1010F0000600DFF8700A0078864206D20020DFF88A
:101100007C1A31444872761CF3E7DFF8700AFFB2AC
:101110003844457200F03EFD01208046DFF8580A51
:1011200000780028D6D1DFF8581ADFF8580A00F006
:1011300001FD00F031FDBDE8F08138B504000D007F
:101140002888DFF8241AE4B2282202FB04F21144B2
:1011500008836888DFF8101AE4B2282202FB04F240
:1011600011444883A888DFF8001AE4B2282202FB61
:1011700004F211448883E888DFF8EC19E4B22822ED
:1011800002FB04F21144C8830020DFF8DC19E4B24A
:10119000282202FB04F288500020DFF8CC19E4B2C8
:1011A000282202FB04F2114448600020DFF8B8193D
:1011B000E4B2282202FB04F2114488600020DFF828
:1011C000A819E4B2282202FB04F21144C8600020EE
:1011D000DFF89419E4B2282202FB04F211440861FA
:1011E0000020DFF88419E4B2282202FB04F2114443
:1011F00048610020DFF87019E4B2282202FB04F2F3
:10120000114408840320DFF86019E4B2282202FBAD
:1012100004F2114481F822000120DFF84C19E4B2F5
:10122000282202FB04F2114481F823000820DFF891
:101230003819E4B2282202FB04F2114481F8240098
:1012400029002000C0B200F093F831BD2C07002027
:101250006805002010B50400A020DFF80C19E4B2E6
:10126000282202FB04F211440883A020DFF8F818BA
:10127000E4B2282202FB04F2114448834FF4C86010
:10128000DFF8E418E4B2282202FB04F21144888358
:101290004FF44870DFF8D018E4B2282202FB04F2C1
:1012A0001144C8830020DFF8C018E4B2282202FBF2
:1012B00004F288500020DFF8B018E4B2282202FBC4
:1012C00004F2114448600020DFF89C18E4B22822A0
:1012D00002FB04F2114488600020DFF88C18E4B2AD
:1012E000282202FB04F21144C8600020DFF87818BD
:1012F000E4B2282202FB04F2114408610020DFF866
:101300006818E4B2282202FB04F21144486100206C
:10131000DFF85418E4B2282202FB04F211440884D6
:101320000320DFF84418E4B2282202FB04F211443F
:1013300081F822000120DFF83018E4B2282202FBF5
:1013400004F2114481F823000820DFF81C18E4B2ED
:10135000282202FB04F2114481F824002000C0B2CC
:1013600000F064F810BD000000090100000000203A
:1013700038B504000D00002201212000C0B2FFF7A3
:101380003EF8002202212000C0B2FFF738F8002208
:1013900003212000C0B2FFF732F895ED020A0921BF
:1013A0002000C0B2FFF7CEFB687D297D51EA000224
:1013B0000E212000C0B2FFF722F895ED060A0F219A
:1013C0002000C0B2FFF7BEFB95ED070A10212000F8
:1013D000C0B2FFF7B7FB95ED030A13212000C0B29E
:1013E000FFF7B0FBA87CE97C51EA0002162120003F
:1013F000C0B2FFF704F8AA6A17212000C0B2FEF7B6
:10140000FEFF95F82400697C0843297C0843B5F960
:10141000221089B20843B5F9201089B251EA0002BE
:1014200018212000C0B2FEF7EAFF31BD10B504005C
:10143000002201212000C0B2FEF7E1FF00220221BC
:101440002000C0B2FEF7DBFF002203212000C0B263
:10145000FEF7D5FFE4B2002C04D0022C00F08E8001
:1014600046D3D0E09FED8A0A00F0A6FDC0B202008C
:1014700009212000C0B2FEF7C2FF35220E21200054
:10148000C0B2FEF7BCFFB0EE080A00F0BDFD0200DE
:10149000D2B20F212000C0B2FEF7B1FFB3EE050AB1
:1014A00000F0B2FDC0B2020010212000C0B2FEF771
:1014B000A6FF012213212000C0B2FEF7A0FF8C225C
:1014C00016212000C0B2FEF79AFFCF22172120007C
:1014D000C0B2FEF794FF4FF4325218212000C0B280
:1014E000FEF78DFF00212000C0B2FFF7C9FC8AE0A3
:1014F0009FED670A00F060FDC0B2020009212000E4
:10150000C0B2FEF77CFF35220E212000C0B2FEF7EC
:1015100076FFB0EE080A00F077FDC0B202000F219E
:101520002000C0B2FEF76BFFB3EE050A00F06CFDC1
:10153000C0B2020010212000C0B2FEF760FF0122FD
:1015400013212000C0B2FEF75AFF8C221621200082
:10155000C0B2FEF754FFCF2217212000C0B2FEF721
:101560004EFF4FF4325218212000C0B2FEF747FF61
:1015700000212000C0B2FFF783FC44E09FED440A45
:1015800000F01AFDC0B2020009212000C0B2FEF72F
:1015900036FF35220E212000C0B2FEF730FFB0EE3C
:1015A000080A00F031FDC0B202000F212000C0B2D5
:1015B000FEF725FFB3EE050A00F026FDC0B20200DB
:1015C00010212000C0B2FEF71AFF012213212000D3
:1015D000C0B2FEF714FF8C2216212000C0B2FEF725
:1015E0000EFFCF2217212000C0B2FEF708FF4FF4F4
:1015F000325218212000C0B2FEF701FF0021200066
:10160000C0B2FFF73DFC10BD10B504002000C0B211
:10161000FEF7CAFDDFF85005E4B2282101FB04F112
:101620000844806800280AD00020DFF83C15E4B2A6
:10163000282202FB04F2114481F8240009E0022070
:10164000DFF82415E4B2282202FB04F2114481F8E9
:1016500024000020DFF81015E4B2282202FB04F277
:1016600088500020DFF80015E4B2282202FB04F2C3
:101670001144C860DFF8F004E4B2282101FB04F152
:101680000844C18B2000C0B2FFF73BFC10BD000036
:1016900000007A432DE9F84304000120DFF8D41458
:1016A0000870DFF8C404E4B2282101FB04F1084407
:1016B000C068401CDFF8B014E4B2282202FB04F238
:1016C0001144C860DFF8A004E4B2282101FB04F152
:1016D000084490F82400002806D0022800F0568123
:1016E000032800F0DC8020E2DFF87C04E4B228214B
:1016F00001FB04F10844C568DFF86C04E4B228215A
:1017000001FB04F108448668DFF85C04E4B2282198
:1017100001FB04F10844078CDFF84C04E4B22821F3
:1017200001FB04F10844008B5FEA0048DFF838044D
:10173000E4B2282101FB04F1084490F822000228B9
:1017400014D0DFF82404E4B2282101FB04F108449A
:1017500090F8220000281CD0DFF80C04E4B2282105
:1017600001FB04F108440069854212D10220DFF830
:10177000F813E4B2282202FB04F2114481F8240099
:101780000020DFF8E413E4B2282202FB04F28850C0
:1017900084E03800DFF8D013E4B2282202FB04F220
:1017A0001144898B80B288420CD2DFF8BC03E4B2CA
:1017B000282101FB04F1084490F8220000280CD0F5
:1017C000B5420AD10320DFF8A013E4B2282202FBBD
:1017D00004F2114481F8240060E05FF00009BFB218
:1017E000002F01D101200700DFF87C03E4B228219B
:1017F00001FB04F14058BFB2B8FBF7F10818DFF85D
:101800006813E4B2282202FB04F28850DFF8580380
:10181000E4B2282101FB04F14058B0F5803F13D316
:10182000D148E4B2282101FB04F1405800F17F4087
:1018300010F57F00CC49E4B2282202FB04F2885064
:101840007F1C01208146E1E75FFA89F9B9F1000FB9
:1018500024D0C548E4B2282101FB04F10844808B60
:10186000390089B2884207D2BF48E4B2282101FB7F
:1018700004F10844808B0700BB48E4B2282101FB37
:1018800004F108440784B848E4B2282101FB04F1BC
:101890000844018C2000C0B2FFF733FB45E1B24899
:1018A000E4B2282101FB04F10844808BAE49E4B284
:1018B000282202FB04F21144C968AB4AE4B228238F
:1018C00003FB04F31A4492F82220022A27D0A64AE6
:1018D000E4B2282303FB04F31A4492F82220002ADE
:1018E00008D0A14AE4B2282303FB04F31A44126986
:1018F000914214D29C4AE4B2282303FB04F31A4415
:1019000092F82220002A1BD10200974BE4B228252E
:1019100005FB04F52B441B8C92B29A4210D2022292
:10192000914BE4B2282505FB04F52B4483F82420D1
:1019300000228D4BE4B2282505FB04F55A5124E022
:10194000894AE4B2282303FB04F31A4492F82220C4
:10195000002A1AD1844AE4B2282303FB04F31A4470
:10196000128C03009BB29A420FD200227E4BE4B24B
:10197000282505FB04F52B4483F8242000227A4B0C
:10198000E4B2282505FB04F55A51CEE07648E4B2CE
:10199000282101FB04F10844C5687348E4B22821FA
:1019A00001FB04F10844068C6F48E4B2282101FBD6
:1019B00004F10844408B07046B48E4B2282101FB82
:1019C00004F1084490F8220002280AD16648E4B2E3
:1019D000282101FB04F10844C08B310089B2884200
:1019E00012D26148E4B2282101FB04F1084490F8C6
:1019F000220000280DD05C48E4B2282101FB04F14C
:101A000008444069854204D32000C0B2FEF725FF98
:101A10008AE05548E4B2282101FB04F1084490F81B
:101A20002200002814D15048E4B2282101FB04F11F
:101A30000844808B310089B2884209D303204A4987
:101A4000E4B2282202FB04F2114481F824006BE086
:101A50004548E4B2282101FB04F10844C08B310061
:101A600089B2884260D25FF00008B6B2002E01D180
:101A7000012006003C48E4B2282101FB04F1405853
:101A8000B6B2B7FBF6F108183749E4B2282202FBD8
:101A900004F288503448E4B2282101FB04F1405894
:101AA000B0F5803F16D33048E4B2282101FB04F1A1
:101AB000405800F17F4010F57F002B49E4B2282206
:101AC00002FB04F28850B6B2022E00DB761E012023
:101AD0008046DFE75FFA88F8B8F1000F24D03000C5
:101AE0002149E4B2282202FB04F21144C98B80B2DE
:101AF000884207D21C48E4B2282101FB04F10844C3
:101B0000C08B06001848E4B2282101FB04F1084408
:101B100006841548E4B2282101FB04F10844018C35
:101B20002000C0B2FFF7EDF9FFE70020114908706F
:101B3000BDE8F18338B504000D000A480278290099
:101B4000200000F0D6F9002803D048F20100FFF78A
:101B500093FA08480078002802D00120064908704E
:101B600031BD00003207002068050020200700205A
:101B70001C07002034070020330700200407002042
:101B8000190700200D07002010B50400200000F008
:101B90004BFA10BD72B6704762B6704710B586B08A
:101BA0000400E4B2002C64D1DFF89C03006850F418
:101BB0000020DFF894130860DFF88C03006810F44D
:101BC000002000900098DFF88003006850F4003097
:101BD000DFF874130860DFF87003006810F4003059
:101BE00000900098DFF86003006850F48020DFF870
:101BF00058130860DFF85003006810F4802000904C
:101C000000984FF480600190D0480290012003902A
:101C10000120049001A95FF0904000F015FA002225
:101C20000521282000F099FB282000F0A9FB402086
:101C3000019001200290002003900120049001A94E
:101C4000C34800F001FA01224021C14800F0E2FA45
:101C50004FF40070019001200290002003900120B9
:101C6000049001A95FF0904000F0EEF9002000F030
:101C7000E6F8E4B2002C03D0022C1DD00FD327E0ED
:101C80004FF4807001900120029000200390012009
:101C9000049001A95FF0904000F0D6F918E02020F0
:101CA000019001200290002003900120049001A9DE
:101CB000A74800F0C9F90BE0102001900120029024
:101CC000002003900120049001A9A14800F0BCF974
:101CD00006B010BD70B5040001F04BF80500A4B2C9
:101CE0004FF4806000FB04F0B5FBF0F0461E99480D
:101CF0000068C6629748C66070089649096888639C
:101D00000421944801F0F7F870BD70B5040001F0AB
:101D100030F80500A4B24FF4806000FB04F0B5FB7E
:101D2000F0F0461E8C480068C6628B48C66070089A
:101D30008949096888630421874801F0DCF870BD8F
:101D400070B5040001F015F80500A4B24FF400606E
:101D500000FB04F0B5FBF0F0461E80480068C66248
:101D60007E48C66070087D490968486300217B4849
:101D700001F0C1F870BD70B58AB00400E4B2200073
:101D8000012808D002280ED0724805007448286047
:101D9000042006000DE0704805005FF080402860D8
:101DA0000420060005E06D4805006E48286000200C
:101DB000060040F2FF3068600020A8600020E86064
:101DC00000202861280001F02FF8602003900020F7
:101DD00004900020059000200790320003A92800FD
:101DE00001F00EFB002000900020029069462800C0
:101DF00001F0B9FB0AB070BD10B50400E4B2002CCC
:101E000003D0022C0BD005D30EE00421514801F081
:101E100027F809E00421504801F022F804E00021ED
:101E20004E4801F01DF8FFE710BD10B50400012277
:101E30004FF400715FF0904000F0ECF910BD10B568
:101E4000040000224FF400715FF0904000F0E2F9CE
:101E500010BD38B504000D00E4B2002C11D0022CE6
:101E600001D007D315E02A00D2B21021384800F083
:101E7000D1F90EE02A00D2B22021354800F0CAF98B
:101E800007E02A00D2B24FF480715FF0904000F07A
:101E9000C1F931BD10B534483449086020203349B8
:101EA000C861002031498860012030494861022022
:101EB0002E49086100202D49886207202B49C862FD
:101EC0004FF4E0602949C8600020284908624FF4B7
:101ED0000070264988610020244948624FF48270CE
:101EE00022494860214801F0D5FB04002000C0B21F
:101EF00010BD2DE9F04182B004000D001600002253
:101F00004021134800F086F900208046F6B2B04523
:101F100011D24FF48050009001232A002100134871
:101F200001F01CFC0700FFB2002F04D1641C6D1CE3
:101F300018F10108EAE701224021054800F06AF99A
:101F40003800C0B2BDE8F681141002400000211034
:101F5000000400484406002084060020C406002037
:101F6000000400400044014000300140E005002032
:101F7000C0B2401C00EE100AB8EEC00ADFED020A43
:101F800020EE200A704700BF0000FA41C0B2401C9A
:101F900000EE100AB8EEC00ADFED020A20EE200AB9
:101FA000704700BF0080BB43C0B2401C00EE100A67
:101FB000BAEEEF0A70470000DFED070A30EE200AA4
:101FC000DFED060AB6EE001A00EE201ABDEEC10AD9
:101FD00010EE100AC0B270470000FAC16F12033D44
:101FE000DFED070A30EE200ADFED060AB6EE001A32
:101FF00000EE201ABDEEC10A10EE100AC0B2704702
:102000000080BBC30FB82E3BFEEE000A30EE200A64
:10201000F0EE000AB6EE001A00EE201ABDEEC10A7C
:1020200010EE100AC0B2704731B501F0BDFD0400DA
:10203000009D15F1010F00D06D1C01F0B5FD001BD6
:10204000A842FAD331BD000078B400220023002456
:102050000D68D540002D00F0CF800D680126964018
:1020600035402B00002B00F0C5804D68022D02D0BA
:102070004D68122D16D1D50800EB85052D6A2C0070
:102080000F2512F00706F6B2B600B540AC430D6955
:1020900012F00706F6B2B600B5402C43D50800EBA7
:1020A00085052C6205682C0003251600F6B2760023
:1020B000B540AC430D7915F003051600F6B2760075
:1020C000B5402C4304604D68012D08D04D68022DA9
:1020D00005D04D68112D02D04D68122D19D185689B
:1020E0002C0003251600F6B27600B540AC43CD684F
:1020F0001600F6B27600B5402C43846045682C008B
:1021000001259540AC434D68C5F3001595402C431F
:102110004460C5682C0003251600F6B27600B54071
:10212000AC438D681600F6B27600B5402C43C4600F
:102130004D68ED005ED5464D2D6855F00105444EC5
:102140003560434D2D6815F001050095009D414D0A
:10215000960855F826502C000F2512F00306F6B20B
:10216000B600B540AC43B0F1904F01D100250FE06F
:10217000394DA84201D101250AE0384DA84201D1CC
:10218000022505E0364DA84201D1032500E00525D2
:1021900012F00306F6B2B600B5402C432D4D96085A
:1021A00045F826402F4D2D682C009C434D68ED03CB
:1021B00000D51C432B4D2C602B4D2D682C009C43CF
:1021C0004D68AD0300D51C43274D2C60274D2D686D
:1021D0002C009C434D68ED0200D51C43234D2C6020
:1021E000234D2D682C009C434D68AD0200D51C4347
:1021F0001F4D2C60521C2BE771BC70470200136905
:1022000089B20B4202D00123180001E0002318001C
:10221000C0B27047D2B2002A02D089B2816101E017
:1022200089B281627047426989B24A40426170470F
:1022300010B504000F480068A4B2204206D0A4B232
:102240000C480460200080B201F0D2FD10BD0000F7
:10225000181002400800014000040048000800482F
:10226000000C00480004014004040140080401403F
:102270000C0401401404014010F00702474B1B6896
:1022800019004FF6FF031940454B53EA0223194347
:10229000424B1960704741480068C0F30220704704
:1022A00040B2002808D4012110F01F0291403D4A9D
:1022B00040B2430942F82310704710B440B20028DE
:1022C00004D40A01384B40B21A5407E00A01374BD4
:1022D00040B210F00F04234403F8042C10BC7047E4
:1022E00070B4030013F00704D4F10706052E01D3E0
:1022F000042001E0D4F10700261D072E01D200259D
:1023000000E0E51E012616FA00F0401E0840A84035
:102310000121A940491E1140084370BC704710B507
:102320000400601EB0F1807F01D301200EE0601E2A
:102330001F4908600F215FF0FF30FFF7BEFF00204C
:102340001C49086007201C490860002010BD10B51A
:1023500004002000FFF790FF10BDF8B504000D0049
:1023600016000027FFF797FF07003200290038000A
:10237000FFF7B6FF0100200040B2FFF79EFFF1BD5E
:1023800010B50400200040B2FFF78AFF10BD10B561
:1023900004002000FFF7C3FF10BD00000CED00E0BB
:1023A0000000FA0500E100E000E400E018ED00E0C4
:1023B00014E000E018E000E010E000E070B582B04A
:1023C000040000252078C00740F1EA80DFF81C0AED
:1023D000006810F00C0004280BD0DFF8100A006829
:1023E00010F00C0008282ED1DFF8000A0068C003A6
:1023F00029D54FF48040B0FA80F050F02000C0B2F0
:102400004009C0B2012803D1DFF8DC0900680AE006
:102410004FF48040B0FA80F04FF48040B0FA80F082
:10242000DFF8D80900684FF48041B1FA81F111F06A
:102430001F01C840C00740F1B3806068002840F029
:10244000AF80012076E36068B0F5803F08D1DFF807
:102450009809006850F48030DFF88C19086038E083
:102460006068002810D1DFF88009006830F48030FF
:10247000DFF874190860DFF87009006830F4802014
:10248000DFF86419086024E06068B0F5A02F10D16F
:10249000DFF85409006850F48020DFF84C19086018
:1024A000DFF84409006850F48030DFF83C19086018
:1024B0000FE0DFF83409006830F48030DFF82819C5
:1024C0000860DFF82409006830F48020DFF818196C
:1024D0000860DFF81C09006800090001A1680843D2
:1024E000DFF80C190860606800282CD001F05CFB54
:1024F00005004FF48040B0FA80F050F02000C0B2E8
:102500004009C0B2012803D1DFF8DC0800680AE006
:102510004FF48040B0FA80F04FF48040B0FA80F081
:10252000DFF8D80800684FF48041B1FA81F111F06A
:102530001F01C840C00733D401F036FB401B65289B
:10254000D7D30320F6E201F02FFB05004FF48040C3
:10255000B0FA80F050F02000C0B24009C0B20128AB
:1025600003D1DFF8840800680AE04FF48040B0FA35
:1025700080F04FF48040B0FA80F0DFF88008006807
:102580004FF48041B1FA81F111F01F01C840C0073A
:1025900006D501F009FB401B6528D7D30320C9E20B
:1025A0002078800740F1CD80DFF84008006810F007
:1025B0000C0F0BD0DFF83408006810F00C0008286E
:1025C0003DD1DFF828080068C00338D45FF08040B0
:1025D000B0FA80F050F02000C0B24009C0B201282B
:1025E00003D1DFF8040800680AE05FF08040B0FA29
:1025F00080F05FF08040B0FA80F0DFF800080068FB
:102600005FF08041B1FA81F111F01F01C840C007AD
:1026100004D52069012801D001208BE2DFF8C8072A
:1026200000685FF0F851B1FA81F130F0F8006269AA
:1026300012FA01F10843DFF8B017086081E0206961
:10264000002847D001205FF00041B1FA81F1DFF8A6
:10265000B02712EB8101086001F0A6FA05005FF0D7
:102660008040B0FA80F050F02000C0B24009C0B203
:10267000012803D1DFF8700700680AE05FF08040AE
:10268000B0FA80F05FF08040B0FA80F0DFF86C07BD
:1026900000685FF08041B1FA81F111F01F01C8407C
:1026A000C00706D401F080FA401B0328D7D30320CB
:1026B00040E2DFF8340700685FF0F851B1FA81F1C9
:1026C00030F0F800626912FA01F10843DFF81817D8
:1026D000086036E000205FF00041B1FA81F1DFF8D8
:1026E000202712EB8101086001F05EFA05005FF01F
:1026F0008040B0FA80F050F02000C0B24009C0B273
:10270000012803D1DFF8E00600680AE05FF08040AE
:10271000B0FA80F05FF08040B0FA80F0DFF8DC06BD
:1027200000685FF08041B1FA81F111F01F01C840EB
:10273000C00706D501F038FA401B0328D7D3032081
:10274000F8E1207800075AD5A06900282BD0012095
:102750005FF00041B1FA81F1DFF8A82612EB8101A8
:10276000086001F021FA05005FF08040B0FA80F0C7
:102770005FF08040B0FA80F05FF08040B0FA80F007
:10278000DFF8780600685FF08041B1FA81F111F05E
:102790001F01C840C00732D401F006FA401B0328CD
:1027A000E2D30320C6E100205FF00041B1FA81F1DD
:1027B000DFF8502612EB8101086001F0F5F9050001
:1027C0005FF08040B0FA80F05FF08040B0FA80F0B7
:1027D0005FF08040B0FA80F0DFF8200600685FF01C
:1027E0008041B1FA81F111F01F01C840C00706D540
:1027F00001F0DAF9401B0328E2D303209AE12078A4
:10280000400740F1E3800026DFF8FC050068C000C7
:1028100010D4DFF8F405006850F08050DFF8E815B8
:102820000860DFF8E405006810F080500090009820
:1028300001200600DFF8D4050068C00516D4DFF8D3
:10284000CC05006850F48070DFF8C015086001F016
:10285000ABF90500DFF8B4050068C00506D401F047
:10286000A3F9401B6528F5D3032063E1E068012844
:1028700008D1DFF89C05006850F00100DFF89015E2
:10288000086037E0E068002810D1DFF884050068B0
:1028900040084000DFF878150860DFF8740500682C
:1028A00030F00400DFF86815086023E0E0680528D0
:1028B00010D1DFF85C05006850F00400DFF8501517
:1028C0000860DFF84C05006850F00100DFF84015A3
:1028D00008600FE0DFF83805006840084000DFF8C6
:1028E00030150860DFF82805006830F00400DFF8D4
:1028F00020150860E06800282ED001F055F9050089
:102900005FF08040B0FA80F05FF08040B0FA80F075
:1029100050F04000C0B24009C0B2022803D1DFF835
:10292000F004006806E05FF08040B0FA80F0DFF865
:10293000CC0400685FF08041B1FA81F111F01F0111
:10294000C840C00737D401F02FF9401B41F289314C
:102950008842D5D30320EDE001F026F905005FF0B1
:102960008040B0FA80F05FF08040B0FA80F050F024
:102970004000C0B24009C0B2022803D1DFF8900481
:10298000006806E05FF08040B0FA80F0DFF86C0489
:1029900000685FF08041B1FA81F111F01F01C84079
:1029A000C00708D501F000F9401B41F28931884287
:1029B000D5D30320BEE0F6B2012E07D1DFF84804DC
:1029C000006830F08050DFF840140860E0690028AB
:1029D00000F0AF80DFF81404006810F00C00082845
:1029E00000F0A580E06902286FD100208021B1FAB3
:1029F00081F1DFF80C2412EB8101086001F0D4F8BA
:102A000005004020B0FA80F050F02000C0B240092C
:102A1000C0B2012803D1DFF8D003006808E04020ED
:102A2000B0FA80F04020B0FA80F0DFF8D003006800
:102A30004021B1FA81F111F01F01C840C00706D54D
:102A400001F0B2F8401B0328DBD3032072E0DFF86B
:102A50009C03006830F47410616A0843216A0843DB
:102A6000DFF88813086001208021B1FA81F1DFF8D6
:102A7000902312EB8101086001F096F805004020D8
:102A8000B0FA80F050F02000C0B24009C0B2012876
:102A900003D1DFF85403006808E04020B0FA80F06A
:102AA0004020B0FA80F0DFF8540300684021B1FA0A
:102AB00081F111F01F01C840C0073AD401F074F849
:102AC000401B0328DBD3032034E000208021B1FA2F
:102AD00081F1DFF82C2312EB8101086001F064F82A
:102AE00005004020B0FA80F050F02000C0B240094C
:102AF000C0B2012803D1DFF8F002006808E04020EE
:102B0000B0FA80F04020B0FA80F0DFF8F002006800
:102B10004021B1FA81F111F01F01C840C00708D56A
:102B200001F042F8401B0328DBD3032002E0012020
:102B300000E0002076BD70B504000D000026DFF82F
:102B4000D402006810F00700A84211D2DFF8C402D6
:102B50000068C008C0002843DFF8B8120860DFF83A
:102B6000B402006810F00700A84201D00120FFE085
:102B70002078800709D5DFF87402006830F0F00093
:102B8000A1680843DFF8641208602078C00740F1AC
:102B9000AF806068012824D14FF48040B0FA80F003
:102BA00050F02000C0B24009C0B2012803D1DFF8C4
:102BB000380200680AE04FF48040B0FA80F04FF429
:102BC0008040B0FA80F0DFF8340200684FF48041B2
:102BD000B1FA81F111F01F01C840C0074AD40120A9
:102BE000C6E06068022820D14020B0FA80F050F0A2
:102BF0002000C0B24009C0B2012803D1DFF8E801CB
:102C0000006808E04020B0FA80F04020B0FA80F080
:102C1000DFF8E80100684021B1FA81F111F01F01ED
:102C2000C840C00726D40120A2E05FF08040B0FA7F
:102C300080F050F02000C0B24009C0B2012803D19A
:102C4000DFF8A40100680AE05FF08040B0FA80F08D
:102C50005FF08040B0FA80F0DFF8A00100685FF01C
:102C60008041B1FA81F111F01F01C840C00701D4C1
:102C700001207DE0DFF87401006880088000616851
:102C800008435A49086000F08FFF06006068012879
:102C90000ED15648006810F00C00042828D000F02F
:102CA00083FF801B41F289318842F2D303205FE029
:102CB000606802280ED14D48006810F00C0008280A
:102CC00016D000F071FF801B41F289318842F2D3A7
:102CD00003204DE04548006810F00C0F08D000F0CC
:102CE00063FF801B41F289318842F3D303203FE028
:102CF0004848006810F0070085420ED24548006839
:102D0000C008C0002843434908604248006810F0EA
:102D10000700A84201D001202AE02078400707D50B
:102D20003248006830F4E060E16808432F490860E9
:102D30002078000708D52D48006830F460502169DC
:102D400050EAC1002949086000F013F827490968D2
:102D5000314A11F0F0015FF07063B3FA83F3D940A8
:102D6000515CC840244908600F2001F04BF8002056
:102D700070BDF0B4002100220023002400201B4D70
:102D80002D68290011F00C05042D02D0082D03D068
:102D900026E0184D280025E0204D11F470164FF460
:102DA0007057B7FA87F7FE40AD5D2C00104D2D68C7
:102DB0001B4E15F00F055FF07047B7FA87F7FD401F
:102DC000755D2A00CD0305D50A4DB5FBF2F56543C7
:102DD0002B0003E0134D05FB04F52B00180001E068
:102DE000044D2800F0BC704700100240041002405F
:102DF0002C10024000127A006401002024100240CE
:102E000000004242800442421C1002400070004018
:102E100020100240002002400C4C0008EC4B00083F
:102E2000FC4B000800093D0010B50400002C01D146
:102E3000012014E094F83D00002805D1002084F81A
:102E40003C00200000F010FF022084F83D00211D0E
:102E5000206800F077F9012084F83D00002010BDC3
:102E600038B504000D0000222900206800F0B8FAEF
:102E70002068DFF82C1188420ED02068DFF824117A
:102E8000884209D02068DFF82011884204D02068E9
:102E9000DFF81811884201D1012000E00020C0B203
:102EA000002811D02068006A41F2111108420BD1AC
:102EB0002068006A40F24441084205D12068406C15
:102EC00030F40040216848642068006A41F2111122
:102ED00008420BD12068006A40F24441084205D103
:102EE000206800684008400021680860012084F8DC
:102EF0003D00002032BD38B504000D002800002838
:102F000006D004280BD0082810D00C2815D01BE0C0
:102F10002068C06850F002002168C86014E0206892
:102F2000C06850F004002168C8600DE02068C068E7
:102F300050F008002168C86006E02068C06850F0C2
:102F400010002168C860FFE701222900206800F016
:102F500047FA2068DFF8481088420DD02068DFF873
:102F60004410884208D020680F49884204D0206865
:102F7000DFF83810884201D1012000E00020C0B203
:102F8000002805D02068406C50F400402168486457
:102F90002068006850F0010021680860002032BD00
:102FA000002C014000400140004401400048014025
:102FB00010B504002068006980071AD52068C06831
:102FC000800716D57FF00200216808610120207774
:102FD0002068806910F0030F03D0200000F026FF66
:102FE00005E0200000F023FF200000F0B5FE0020E7
:102FF00020772068006940071AD52068C06840071C
:1030000016D57FF00400216808610220207720682F
:10301000806910F4407F03D0200000F007FF05E036
:10302000200000F004FF200000F096FE0020207732
:103030002068006900071AD52068C068000716D507
:103040007FF0080021680861042020772068C069AB
:1030500010F0030F03D0200000F0E8FE05E0200090
:1030600000F0E5FE200000F077FE002020772068C9
:103070000069C0061AD52068C068C00616D57FF062
:10308000100021680861082020772068C06910F4CA
:10309000407F03D0200000F0C9FE05E0200000F0D2
:1030A000C6FE200000F058FE00202077206800694E
:1030B000C0070AD52068C068C00706D57FF00100A8
:1030C00021680861200000F0B3FE20680069000656
:1030D0000AD52068C068000606D57FF08000216808
:1030E0000861200000F0A5FE20680069C0050AD52F
:1030F0002068C068000606D57FF4807021680861EA
:10310000200000F097FE2068006940060AD520687C
:10311000C068400606D57FF04000216808612000A5
:1031200000F089FE2068006980060AD52068C06822
:10313000800606D57FF0200021680861200000F09D
:103140007BFE10BD002203681A00DFF87832984237
:1031500006D0B0F1804F03D0DFF86C32984203D133
:1031600032F070024B681A43DFF85832984212D09E
:10317000B0F1804F0FD0DFF8503298420BD0DFF81B
:103180004C32984207D0DFF84832984203D0DFF83B
:103190004432984203D132F44072CB681A4332F081
:1031A00080024B691A4302608B68C3620B688362BA
:1031B000844B984208D0854B984205D0844B984266
:1031C00002D0844B984201D10B6903630123436110
:1031D0007047000030B4002300240022056A6D0807
:1031E0006D000562056A2C0045682A0085692B0080
:1031F000794D2B409B089B000D682B4334F0020453
:103200008D682C436F4DA84208D0704DA84205D060
:103210006F4DA84202D06F4DA84205D134F008048A
:10322000CD682C4334F00404664DA84208D0674DA5
:10323000A84205D0664DA84202D0664DA84207D1EB
:1032400032F4807232F400724D692A438D692A4348
:10325000426083614D684563046230BC704730B49E
:10326000002300240022056A35F010050562056A76
:103270002C0045682A0085692B00584D2B4033F4FB
:1032800040730D6853EA052334F020048D6854EA36
:1032900005144C4DA84206D134F08004CD6854EAA0
:1032A000051434F04004474DA84208D0474DA842C9
:1032B00005D0474DA84202D0464DA84209D132F46C
:1032C000806232F400624D6952EA85028D6952EAE9
:1032D0008502426083614D688563046230BC70473B
:1032E00030B4002300240022056A35F4807505629D
:1032F000056A2C0045682A00C5692B00364D2B4015
:103300009B089B000D682B4334F400748D6854EACD
:1033100005242C4DA84206D134F40064CD6854EA4B
:10332000052434F48064274DA84208D0274DA842D4
:1033300005D0274DA84202D0264DA84209D132F42B
:10334000805232F400524D6952EA05128D6952EAF8
:1033500005124260C3614D68C563046230BC7047AA
:1033600030B4002300240022056A35F4805505623C
:10337000056A2C0045682A00C5692B00174D2B40B3
:1033800033F440730D6853EA052334F400548D6818
:1033900054EA05340B4DA84208D00C4DA84205D084
:1033A0000B4DA84202D00B4DA84204D132F480420A
:1033B0004D6952EA85124260C3614D68056404623A
:1033C00030BC7047002C0140000400400040014028
:1033D00000440140004801408FFFFEFFFF8FFFFEC9
:1033E00030B4002301248C402300046A9C4304620F
:1033F000046A12FA01F52C43046230BC70470000E5
:1034000070B504000D00160094F83C00012801D1AD
:103410000220A7E0012084F83C00022084F83D004F
:10342000300000280AD004281FD0082835D00C28E6
:103430004AD0102860D0142875D08CE0290020686C
:10344000FFF7C8FE2068806950F008002168886195
:103450002068806930F004002168886120688069F4
:10346000296908432168886175E029002068FFF711
:10347000F6FE2068806950F4006021688861206849
:10348000806930F4806021688861206880692969DA
:1034900050EA0120216888615DE029002068FFF77B
:1034A0001FFF2068C06950F008002168C8612068CB
:1034B000C06930F004002168C8612068C0692969CA
:1034C00008432168C86146E029002068FFF748FFEB
:1034D0002068C06950F400602168C8612068C06934
:1034E00030F480602168C8612068C069296950EAA9
:1034F00001202168C8612EE02900206800F05FF8F3
:103500002068406D50F00800216848652068406DD3
:1035100030F00400216848652068406D296908433F
:103520002168486517E02900206800F077F82068D6
:10353000406D50F40060216848652068406D30F4AB
:103540008060216848652068406D296950EA012043
:1035500021684865FFE7012084F83D00002084F8D9
:103560003C00002070BD30B4020092F83C000128FD
:1035700001D1022021E0012082F83C00106840685F
:1035800004001068806803001068DFF8F050A8425B
:1035900003D134F470044868044334F070040868BC
:1035A000044333F080038868034310684460106864
:1035B0008360002082F83C00002030BC704730B4AB
:1035C000002300240022056A35F480350562056A6F
:1035D0002C0045682A00456D2B00294D2B400D68B5
:1035E0002B4334F400348D6854EA0544234DA8423B
:1035F00008D0244DA84205D0234DA84202D0234D27
:10360000A84204D132F480324D6952EA0522426068
:1036100043654D688565046230BC704730B4002353
:1036200000240022056A35F480150562056A2C0025
:1036300045682A00456D2B00154D2B400D6853EA57
:10364000052334F400148D6854EA05540B4DA84248
:1036500008D00C4DA84205D00B4DA84202D00B4D0E
:10366000A84204D132F480224D6952EA8522426098
:1036700043654D68C565046230BC7047002C01404D
:103680008FFFFEFF00400140004401400048014020
:10369000FF8FFFFE38B50400002C01D101205CE053
:1036A000606A00280020A06294F85D00002805D11F
:1036B000002084F85C00200000F07CFA022084F8EE
:1036C0005D002068006830F0400021680860E06814
:1036D000B0F5E06F02D90020050002E04FF4805001
:1036E0000500E068B0F5706F05D0E068B0F5E06FF8
:1036F00001D00020A062206B002808D1E068B0F55E
:10370000E06F02D90220206301E00120206360689D
:10371000A16808432169084361690843A16911F45C
:1037200000710843E1690843216A0843A16A08431C
:1037300021680860A069000C10F00400616A084369
:10374000616B0843E1680843284321684860002012
:103750002066012084F85D00002032BD2DE9F04F85
:1037600083B004000D0016001F00DDF8308000203B
:103770000090002001905FF000095FF0010A5FF007
:10378000000B94F85C00012801D102202DE10120FA
:1037900084F85C0000F008FA814694F85D0000901F
:1037A00060680190009801280CD00198B0F5827FE4
:1037B00005D1A068002802D10098042802D0022078
:1037C00083460AE1002D04D0002E02D0BFB2002FA4
:1037D00002D10120834600E194F85D00042802D064
:1037E000052084F85D00002020662664A4F8467059
:1037F000A4F84470A563E787A7870020E064002051
:103800002065E068B0F5E06F03D8B4F84600022800
:1038100006D32068406830F480502168486005E095
:103820002068406850F48050216848602068006833
:10383000400605D42068006850F040002168086008
:10384000E068B0F5E06F46D96068002802D0E08FEC
:10385000012806D128882168C860AD1CE08F401E71
:10386000E087E08F002804D1B4F84600002800F07B
:10387000A680BAF1000F0FD0E08F00280CD020688E
:103880008068800708D528882168C860AD1CE08F53
:10389000401EE08700208246B4F8460000280ED083
:1038A00020688068C0070AD52068C0683080B61CD0
:1038B000B4F84600401EA4F846000120824618F1E4
:1038C000010FCED000F070F9B0EB09004045C8D32D
:1038D0000320834681E06068002802D0E08F012841
:1038E00011D1E08F022807D328882168C860AD1C59
:1038F000E08F801EE08706E02878216808736D1C41
:10390000E08F401EE087E08F002803D1B4F8460026
:10391000002854D0BAF1000F1AD0E08F002817D039
:1039200020688068800713D5E08F022807D3288895
:103930002168C860AD1CE08F801EE08706E0287813
:10394000216808736D1CE08F401EE08700208246CE
:10395000B4F84600002826D020688068C00722D529
:10396000B4F84600022813D32068C0683080B61C23
:10397000B4F84600801EA4F84600B4F846000228B9
:103980000FD22068406850F480502168486008E0F9
:103990002068007B3070761CB4F84600401EA4F806
:1039A00046000120824618F1010FACD000F0FCF86F
:1039B000B0EB09004045A6D3032083460DE04A46FC
:1039C0004146200000F0BAF8002801D020202066EF
:1039D000206E002801D001208346012084F85D007C
:1039E000002084F85C005846C0B2BDE8FE8F2DE987
:1039F000F04104000D0016001F00DDF8188020685B
:103A000080682840A84201D1012000E00020B04297
:103A10003AD017F1010FF2D0002F05D000F0C4F812
:103A2000B0EB0800B842EAD32068406830F0E0000C
:103A3000216848606068B0F5827F0DD1A068B0F55C
:103A4000004F03D0A068B0F5806F05D120680068F2
:103A500030F0400021680860A06AB0F5005F0BD12B
:103A60002068006830F40050216808602068006811
:103A700050F4005021680860012084F85D000020A7
:103A800084F85C00032000E00020BDE8F0812DE90F
:103A9000F04182B004000D0016001F00DDF8208008
:103AA000206880682840B04245D0B5F5C06F07D186
:103AB000002E05D12068007B8DF800009DF80000E5
:103AC00017F1010FECD0002F05D000F06DF8B0EB2E
:103AD0000800B842E4D32068406830F0E000216874
:103AE00048606068B0F5827F0DD1A068B0F5004FE6
:103AF00003D0A068B0F5806F05D12068006830F071
:103B0000400021680860A06AB0F5005F0BD1206812
:103B1000006830F40050216808602068006850F4A4
:103B2000005021680860012084F85D00002084F8BE
:103B30005C00032000E00020BDE8F68170B582B093
:103B400004000D00160000962B0000224FF4C05117
:103B50002000FFF79CFF002805D0206E50F02000C9
:103B6000206603201FE000962B0000228021200009
:103B7000FFF73DFF002805D0206E50F020002066A2
:103B8000032010E000962B0000224FF4C0612000BB
:103B9000FFF77DFF002805D0206E50F02000206642
:103BA000032000E0002076BD01480068704700BF98
:103BB0002807002010B586B0040020688449884298
:103BC00050D18448006850F4003082490860814830
:103BD000006810F40030009000987E48006850F4AF
:103BE00000307C4908607B48006810F40030009089
:103BF00000987848006850F40030764908607548AD
:103C0000006810F40030009000987348006850F489
:103C10008050714908607048006810F4805000902E
:103C200000982020019002200290002003900120A3
:103C300004900520059001A95FF09040FEF704FA7A
:103C4000402001900520059001A95FF09040FEF70B
:103C5000FBF9802001900520059001A95FF09040BC
:103C6000FEF7F2F906B010BD10B586B0040020686A
:103C70005A49884222D15A48006850F002005849F7
:103C800008605748006810F00200009000988020FB
:103C90000190022002900020039000200490022056
:103CA000059001A94F48FEF7CFF9002204211D20FD
:103CB000FEF753FB1D20FEF763FB4BE02068B0F1DD
:103CC000804F22D14648006850F001004449086006
:103CD0004348006810F0010000900098082001900F
:103CE0000220029000200390002004900120059003
:103CF00001A93D48FEF7A8F9002204211C20FEF787
:103D00002CFB1C20FEF73CFB24E02068374988424E
:103D100020D13148006850F400302F4908602E4807
:103D2000006810F40030009000984FF4806001901B
:103D300001200290002003900020049001A92A484D
:103D4000FEF782F9002203211920FEF706FB192055
:103D5000FEF716FB06B010BD10B5040020681F4921
:103D600088420AD1207F022807D1002000F03CF9C8
:103D7000082802D0002000F00BFB2068B0F1804F33
:103D80000AD1207F022807D1012000F02DF9082850
:103D900002D0012000F0FCFA20681449884216D1B4
:103DA000207F012813D14FF480610F48FEF73BFAC2
:103DB000022000F019F9082809D04FF480610A4860
:103DC000FEF71CFA012802D1022000F0E1FA10BD32
:103DD000003001401410024018100240000400405E
:103DE0001C10024000080048000400480044014044
:103DF00010B50400A4B2B4F5806F01D100F083F8CF
:103E000010BD000010B50400074800684FF47A7137
:103E1000B0FBF1F0FEF7BBFA002221005FF0FF30AB
:103E2000FEF79BFA002010BD640100207047704728
:103E300070477047704770477047000010B5040026
:103E4000DFF83C06006800280CD0DFF83406006874
:103E50008068002806D02000DFF8241609688968E9
:103E6000884703E040F6020000F01AF810BD10B5D4
:103E70000400DFF80C06006800280CD0DFF800060C
:103E80000068C068002806D02000DFF8F415096833
:103E9000C968884703E040F6030000F001F810BD50
:103EA00010B50400DFF8D805006800280FD0DFF84F
:103EB000D0050068D0F8F000002808D0200080B2BB
:103EC000DFF8BC150968D1F8F010884700E0FEE77C
:103ED00010BD38B504000D00DFF8A4050068002807
:103EE0000CD0DFF89C0500680068002806D0280088
:103EF000DFF88C1509680968884703E04FF4006013
:103F0000FFF7CEFF31BD80B5DFF8740500680028EB
:103F10000BD0DFF86C0500684069002805D0DFF899
:103F2000600500684069804703E040F60500FFF740
:103F3000B7FF01BD38B504000025DFF8440500686F
:103F400000280ED0DFF8380500688069002808D006
:103F50002000C0B2DFF82815096889698847050084
:103F600003E040F60600FFF79BFF280080B232BD59
:103F700038B504000025DFF80805006800280ED0D9
:103F8000DFF8FC040068C069002808D02000C0B237
:103F9000DFF8EC140968C9698847050003E040F6BA
:103FA0000700FFF77DFF280080B232BD38B504005E
:103FB0000025DFF8CC04006800280ED0DFF8C0042C
:103FC0000068006A002808D02000C0B2DFF8B014F2
:103FD0000968096A8847050003E040F60800FFF712
:103FE0005FFF280080B232BD38B504000825DFF835
:103FF0009004006800280ED0DFF884040068406A4E
:10400000002808D02000C0B2DFF874140968496A9B
:104010008847050003E040F60900FFF741FF28004C
:10402000C0B232BD38B504000025DFF85404006882
:1040300000280ED0DFF848040068006B002808D084
:104040002000C0B2DFF838140968096B8847050002
:1040500003E040F60C00FFF723FF280080B232BDDA
:1040600038B504000025DFF81804006800280ED0D9
:10407000DFF80C040068406B002808D02000C0B2B4
:10408000DFF8FC130968496B8847050003E040F638
:104090000D00FFF705FF280080B232BD38B50400DF
:1040A0000025DFF8DC03006800280ED0DFF8D0031D
:1040B0000068806B002808D02000C0B2DFF8C01371
:1040C0000968896B8847050003E040F60E00FFF79A
:1040D000E7FE280032BD10B50400DFF8A403006835
:1040E00000280DD0DFF898030068C06B002807D0C7
:1040F0002000C0B2DFF888130968C96B884703E065
:1041000040F60F00FFF7CCFE10BD10B50400DFF83D
:104110007003006800280DD0DFF864030068006CAD
:10412000002807D02000C0B2DFF854130968096CDA
:10413000884703E04FF40160FFF7B2FE10BD38B5C9
:1041400004000D00DFF83803006800280ED0DFF807
:1041500030030068406C002808D029002000C0B25D
:10416000DFF81C231268526C904703E040F6110000
:10417000FFF796FE31BD10B50400DFF804030068B8
:1041800000280DD0DFF8F8020068806C002807D006
:104190002000C0B2DFF8E8120968896C884703E0A4
:1041A00040F61200FFF77CFE10BD38B504000D008C
:1041B000DFF8CC02006800280FD0DFF8C4020068E6
:1041C000406D002809D02900C9B22000C0B2DFF834
:1041D000B0221268526D904703E040F61500FFF7D9
:1041E0005FFE31BD70B504000D000026DFF89002BF
:1041F0000068002810D0DFF888020068806D002871
:104200000AD0290089B22000C0B2DFF874221268F7
:10421000926D9047060003E040F61600FFF740FE5F
:104220003000C0B270BD70B504000D000026DFF88C
:1042300050020068002810D0DFF844020068C06D0A
:1042400000280AD0290089B22000C0B2DFF830224D
:104250001268D26D9047060003E040F61700FFF7A2
:104260001FFE3000C0B270BD10B50400DFF81002B0
:10427000006800280DD0DFF808020068006E0028F2
:1042800007D02000C0B2DFF8F8110968096E88472E
:1042900003E040F61800FFF703FE10BD10B5040060
:1042A000DFF8DC01006800280DD0DFF8D4010068D9
:1042B000406E002807D02000C0B2DFF8C4110968A2
:1042C000496E884703E040F61900FFF7E9FD10BD8D
:1042D00070B504000D000026DFF8A4010068002876
:1042E00010D0DFF89C010068806E00280AD02900F9
:1042F00089B22000C0B2DFF888211268926E904720
:10430000060003E040F61A00FFF7CAFD3000C0B215
:1043100070BD70B504000D000026DFF86401006870
:10432000002810D0DFF858010068C06E00280AD0BD
:10433000290089B22000C0B2DFF844211268D26E91
:104340009047060003E040F61B00FFF7A9FD300090
:10435000C0B270BD38B504000025DFF82401006844
:1043600000280ED0DFF818010068006F002808D080
:104370002000C0B2DFF808110968096F88470500FE
:1043800003E040F61C00FFF78BFD2800C0B232BDF1
:1043900010B50400DFF8E800006800280DD0DFF851
:1043A000E0000068406F002807D02000C0B2DFF8AE
:1043B000D0100968496F884703E040F61D00FFF7F9
:1043C0006FFD10BD10B50400DFF8B40000680028D0
:1043D0000DD0DFF8AC000068806F002807D0200007
:1043E000C0B2DFF89C100968896F884703E040F687
:1043F0001E00FFF755FD10BD38B504000025DFF89D
:1044000080000068002810D0DFF874000068D0F841
:104410008800002809D02000C0B2DFF864100968C5
:10442000D1F888108847050003E040F62200FFF726
:1044300037FD280080B232BD70B504000D000026A3
:10444000DFF83C000068002812D0DFF83400006874
:10445000D0F8A00000280BD02900C9B22000C0B2BB
:10446000DFF81C201268D2F8A0209047060003E075
:1044700040F62800FFF714FD3000C0B270BD000008
:104480002407002070B504000D003B48048000267E
:10449000A4B241F64A10844204D1FCF701F935492F
:1044A00008604EE0A4B2012C04D100F067F8314955
:1044B000086046E0A4B241F63E00844204D100F018
:1044C0005FF82C4908603CE0A4B2B4F5C25F04D1A7
:1044D00000F058F82749086033E0A4B2DC2C04D17E
:1044E00000F052F8234908602BE0A4B241F64610D0
:1044F000844204D0A4B241F64810844204D100F0B2
:1045000045F81C4908601CE0A4B241F650108442F2
:1045100004D0A4B241F65210844204D100F038F81D
:10452000144908600DE0A4B2F02C02D0A4B2FA2C19
:1045300004D100F02FF80F49086002E000200D4977
:1045400008600C480068002810D00A480068D0F8BD
:10455000440100280AD0EDB2002D07D02800C0B2D7
:1045600004490968D1F84411884706003000C0B2F8
:1045700070BD000024070020300700200020704795
:1045800000207047002070470020704700207047CF
:1045900000207047002070472DE9F04100F0B4F989
:1045A00000F0C7F9032141F64A10FFF76BFF002125
:1045B00041F64A10FFF78DFC002141F64A10FFF743
:1045C00088FC002141F64A10FFF783FC0FF2093006
:1045D000FFF74DFC0FF21D30FFF730FC0020FFF716
:1045E00043FE0120FFF740FE0220FFF73DFE4FF49F
:1045F00048610020FFF7A3FD0020FFF7E3FE002045
:10460000FFF74CFD0400B4F5486F09D10020FFF717
:1046100045FE21000120FFF792FD0120FFF7D2FEA9
:104620000120FFF73BFD0400B4F5486F06D12100DF
:104630000220FFF784FD0220FFF7C4FE0220FFF7EF
:104640002DFD04004FF47A70FDF7EEFCB4F5486FD1
:1046500011D10020FFF73FFD0120FFF73CFD0220B4
:10466000FFF739FD0020FFF7ADFE0120FFF7AAFE9E
:104670000220FFF7A7FE4FF47A70FDF7D5FC9F49A3
:104680000020FFF75CFD0020FFF79CFE0020FFF7F5
:1046900005FD040014F5486F06D121000120FFF745
:1046A0004EFD0120FFF78EFE0120FFF7F7FC04000E
:1046B00014F5486F06D121000220FFF740FD0220CB
:1046C000FFF780FE0220FFF7E9FC04004FF47A7048
:1046D000FDF7AAFC14F5486F14D10220FFF7DEFDA8
:1046E0000020FFF7F8FC0120FFF7F5FC0220FFF7A0
:1046F000F2FC0020FFF766FE0120FFF763FE0220B8
:10470000FFF760FE4FF47A70FDF78EFC0020FFF794
:10471000FCFC0220FFF7F9FC0020FFF753FE02200B
:10472000FFF750FE4FF47A70FDF77EFC0121002068
:10473000FFF73BFD0020FFF775FC80460020FFF7E8
:1047400017FC4045FAD1B8F5A078414689B201205E
:10475000FFF7BEFD01210120FFF727FD0120FFF734
:1047600007FC4045FAD1B8F5A078414689B202204D
:10477000FFF7AEFD01210220FFF717FD0220FFF732
:10478000F7FB4045FAD140F6B830FDF74DFC01206B
:10479000FFF7E0FD0120FFF715FE0020FFF7EBFC1F
:1047A0000220FFF7E8FC0020FFF70CFE0220FFF7D5
:1047B00009FE0020FFF78FFC0120FFF78CFC022090
:1047C000FFF789FC0020FFF7FDFD0120FFF7FAFD50
:1047D0000220FFF7F7FD0020FFF7ACFB06000020EA
:1047E000FFF7E4FB07000020FFF71CFC80460020D9
:1047F000FFF736FC050003210120FFF71DFE5FEAED
:10480000580189B20120FFF763FD690889B20120D0
:10481000FFF77FFDB6B2022096FBF0F0010089B2EF
:104820000120FFF7DFFCBFB2022097FBF0F0010090
:1048300089B20120FFF7F7FC00210220FFF7FCFD01
:104840005FEA181189B20220FFF742FD290989B2F7
:104850000220FFF75EFDB6B2102096FBF0F00100DB
:1048600089B20220FFF7BEFCBFB2102097FBF0F028
:10487000010089B20220FFF7D6FC20490020FFF793
:104880005EFC4FF4C8610120FFF759FC7FF0C701BF
:104890000220FFF754FC0020FFF794FD0120FFF7F2
:1048A00091FD0220FFF78EFD4FF448610020FFF7D5
:1048B00046FC13490120FFF742FCC8210220FFF704
:1048C0003EFC0020FFF77EFD0120FFF77BFD02206C
:1048D000FFF778FDD1E7000010B50020FFF78CFD51
:1048E00004000120FFF788FD04000220FFF784FD8B
:1048F000040010BD03490880FEE7000080F3FFFFBD
:10490000C0F9FFFF2E07002080B50848006850F06E
:104910001000064908600320FDF719FD0F20FFF77E
:1049200071FA00F005F8002002BD000000200240EE
:10493000704700B58FB00020059002200C90002039
:104940000D905FF460100E9005A8FDF737FD00286C
:1049500002D00020FFF7CEFF0F2000900220019030
:10496000002002904FF48060039000200490022108
:104970006846FEF7E0F8002802D00120FFF7BAFFF2
:104980000FB000BD1B48006850F470001949086062
:104990001948006850F0010017490860174800687E
:1049A0001749084015490860134800681549084030
:1049B000114908601048006830F480200E490860F2
:1049C0000E48006830F4FE000C4908600E4800688C
:1049D000000900010C4908600C4800680C490840B7
:1049E0000A49086000200B4908605FF000600A492E
:1049F0000860704788ED00E000100240041002409B
:104A00000CC07FF8FFFFF6FE2C1002403010024071
:104A1000CCFC00FF0810024008ED00E0F0B4016893
:104A200044688368014401EB5402E40748BF4B44E7
:104A3000914202D1F0BC0C30704711F8015B15F0C7
:104A4000030604BF11F8014BE61C2C090F2C07D1FB
:104A500011F8014B0F3403E011F8017B03F8017BDF
:104A6000761EF9D1002CE3D0AD0811F8016B05F0EA
:104A70000305032D08BF11F8015B06EB05256D4208
:104A8000A41C1D44D4D015F8016B03F8016B641EFF
:104A9000F9D1CDE77047FEE7FEE7FEE7FEE7704796
:104AA0007047704780B500F021F801BD80B54FF424
:104AB0008060FDF7BDFB4FF40050FDF7B9FB01BD71
:104AC00080B50748FEF774FA01BD80B50548FEF7CA
:104AD0006FFA01BD80B50448FEF76AFA01BD000017
:104AE0008406002044060020C40600200248006816
:104AF000401C0149086070472807002019E050F861
:104B0000041BCB0744BFA9F101035918121F00234E
:104B1000042A41F8043BF9D25FEA827C0B4604D5B3
:104B20004FF0000CA1F800C09B1CD10744BF00212E
:104B3000197050F8042B002AE1D1704710B50749CD
:104B400079441831064C7C44163404E00A68081D88
:104B5000114488470146A142F8D110BD2C00000045
:104B6000480000004EF68851CEF20001086840F47B
:104B700070000860BFF34F8FBFF36F8F4FF000706E
:104B8000E1EE100A7047000075FFFFFFD001000042
:104B9000680500200000000085FEFFFF54010000B2
:104BA000880100000000002000F00BF8002801D070
:104BB000FFF7C4FF0020AFF30080FFF7EDFC00F02B
:104BC00002F80120704700F001B80000074638469F
:104BD00000F002F8FBE7000080B5AFF30080024A66
:104BE00011001820ABBEFBE72600020002030405FB
:104BF000060708090A0B0C0D0E0F10100102030422
:104C000005060708090A0B0C0D0E0F100000000026
:104C1000000000000102030406070809014880475C
:104C200001480047854900082D4C0008AFF300807B
:104C3000FFF798FFFFF7B8FFFFF7FEBFFFF7FEBFD4
:104C4000FFF7FEBFFFF7FEBFFFF7FEBFFFF7FEBF98
:104C5000FFF7FEBFFFF7FEBFFFF7FEBFFFF7FEBF88
:104C6000FFF7FEBFFFF7FEBFFFF7FEBFFFF7FEBF78
:104C7000FFF7FEBFFFF7FEBFFFF7FEBFFFF7FEBF68
:104C8000FFF7FEBFFFF7FEBFFFF7FEBFFFF7FEBF58
:104C9000FFF7FEBFFFF7FEBFFFF7FEBFFFF7FEBF48
:104CA000FFF7FEBFFFF7FEBFFFF7FEBFFFF7FEBF38
:104CB000FFF7FEBFFFF7FEBFFFF7FEBFFFF7FEBF28
:104CC000FFF7FEBFFFF7FEBFFFF7FEBFFFF7FEBF18
:104CD000FFF7FEBFFFF7FEBFFFF7FEBFFFF7FEBF08
:104CE000FFF7FEBFFFF7FEBFFFF7FEBFFFF7FEBFF8
:104CF000100B35050008C709000889010008910458
:104D0000120001100399100008BB18100357060089
:104D1000086704127704129B0412A70412BB041242
:104D2000CB0412E30410035F0700086F04128F0422
:104D300010035B0800083B4812FD0410033B0A0007
:104D400008F3041007BD0C00084B0D00087B04128B
:104D50009904130D0E081104200395160008F10C98
:104D6000117012A90412B904100315030008EF040E
:104D700012FF0412CF4412E10422EF981148430FAE
:104D80000D98A101F301D70814E101F301DB06241A
:104D9000F30D791038128198834D072412F744F3EC
:104DA0000D890634125DA017450B18F20605280080
:044DB00001127A0072
:0400000508004C2D76
:00000001FF
