:020000040800F2
:1000000068050020593600083535000837350008E6
:1000100000000000000000000000000000000000E0
:10002000000000000000000000000000393500085A
:1000300000000000000000003B3500083D350008CE
:10004000E314000800000000331500086B160008D8
:10005000FF250008EF290008332C0008453500086B
:1000600000000000C334000837360008433600089B
:100070007536000877360008793600080000000061
:100080005B3500087B360008000000005135000891
:10009000653500087D3600087F3600088136000887
:1000A0008336000885360008873600088936000840
:1000B0008B360008BA4948627047B94908627047F0
:1000C00080B5A82100F0DCFC01BD80B5B82100F0AE
:1000D000D7FC01BDF2B584B0B14C217E081A401E98
:1000E000C0B2029002982518049820210143684666
:1000F000017101270026667602E0667600F0D0FFE7
:100100000020210022000F3209E00E70CE708E71A7
:100110004E721670D6709671401C521C491C237E7C
:100120009842F2D30498401E07D0401E0AD0401EC9
:1001300003D01538012805D909E0684600792870F0
:10014000009609E068460079E870009704E0684688
:100150000079A8710220009000F0A0FF607E0028C6
:10016000CBD1009804281DD241000818261835006C
:100170000C3504200099471A227E2900300001F036
:10018000B1F8002805D0616A080000D1FEE7B84840
:100190008847A07E002801D001206076F61CED1C67
:1001A0007F1EE9D102982518E87B0004A97C09028A
:1001B00001436C7D0C4300F073FF200005B0F0BDDF
:1001C000F8B5774C217E081A401EC0B22018009066
:1001D000D0250026667602E0667600F061FF0020FA
:1001E000210022000F3207E00E70CE708E71167063
:1001F000D670401C521C491C237E9842F4D30098B0
:10020000057000F04BFF607E0028E5D125000C351D
:1002100027000326227E2900380001F063F8002819
:1002200005D0616A080000D1FEE791488847A07EAA
:10023000002801D001206076FF1CED1C761EE9D15C
:100240000098C07B04020098807C044300F028FFE3
:100250002000F2BD80B5002100F012FC01BDF6B512
:1002600083B04F4C217E081A401EC0B2110C02917F
:100270000499090A0191251801270026667602E0F3
:10028000667600F00DFF0020210005E00E70CE70B4
:100290008E714E72401C491C227E9042F6D3039808
:1002A000012806D002280BD0032802D0182807D036
:1002B0000BE028700298E8700198A871009607E09A
:1002C000E8700198A871009702E0A87102200090E0
:1002D0000498687200F0E2FE607E0028D0D1009899
:1002E00004281DD241000818261835000C350420BA
:1002F0000099471A227E2900300000F0F3FF002801
:1003000005D0616A080000D1FEE759488847A07E01
:10031000002801D001206076F61CED1C7F1EE9D17B
:1003200000F0BEFE05B0F0BD38B504001C4DA88B32
:10033000C0B200F0B7FE00F0B9FF002806D0696A2D
:10034000080000D1FEE7802000028847A88BC0B2D9
:1003500000F04BFFA88BC0B200F086FF012000F038
:1003600099FEA88B002C03D1C0B200F0EBFB03E098
:100370002100C0B200F0C0FBA821A88BC0B200F0E1
:100380007FFBA88BC0B2FFF71BFFA88B401CA88384
:1003900031BDBB4982001018C0000818008B70479F
:1003A0000407002010B50C00FFF794FE641E09D06E
:1003B000A41E07D0A41F0FD0A41F012C18D9241FDE
:1003C00010D01EE0810204D5C143491C8902890A6C
:1003D000484200F0C1FF10BDC0B2401C00F0BCFF9D
:1003E000B5490BE0C0B2401C00F0B6FFB34905E0D0
:1003F000C0B2401C00F0B0FFFC21890500F0C7FF2F
:1004000010BD00F0B5FF10BD9D4982001018C0005E
:100410000818008C70479A4982001018C00008180C
:10042000408B7047964982001018C000081824219C
:10043000405C7047C14982001018C0000818232191
:10044000405C7047BE487047BE48704780B5032186
:1004500015E0BA4982001018C0000818808B704758
:10046000B64982001018C0000818C08B7047000001
:1004700001800000B448007E704780B50121FFF77D
:1004800029FE810204D5C143491C8902890A4842D8
:1004900002BD80B51621FFF71DFE4007400F082161
:1004A0000143082907D010D30A2908D005D30C2905
:1004B00009D006D309E0002002BD012002BD0220C0
:1004C00002BD032002BD042002BDFE2002BD9B49E7
:1004D00082001018C00008182521405C704780B5C4
:1004E000002100F012F801BD10B504000321FFF750
:1004F000F1FD810204D5C143491C8902890A4842A1
:100500000100200000F001F810BD70B504000E00DD
:100510008A48A1000919C90045182420285C082828
:1005200002D0200000F025F801212000FFF7D2FDC5
:10053000810204D5C143491C8902890A48422D1D04
:1005400028602868301A0122002803D42861114647
:1005500003D170BD414229610021AA77200000F03B
:10056000A1F92969200000F03FFA200000F0ABFC5F
:1005700070BD10B5424982001218D2008C18143494
:10058000617C00290AD100F05DFE08202074032060
:10059000A073B84820600020A08110BD00F001F8D1
:1005A00010BD10B5040000F04DFEA821200000F0A1
:1005B00067FA3348A1000919C9004018143008210E
:1005C000017403218173AB4901600021818110BD59
:1005D000F8B504000D0017002948A1000919C90049
:1005E00046182420305C082802D02000FFF7C1FF05
:1005F000002F1AD0361D37610120B077012120006D
:10060000FFF768FD810204D5C143491C8902890AAC
:10061000484230602900200000F044F939002000F1
:1006200000F0E2F9200000F04EFCF1BD4648808B5E
:10063000704780B51921FFF74DFD80B202BD80B52E
:1006400000F012FE01BD80B500F012FE01BD10B534
:1006500000240EE0FFF7A5FFE0B200F009FE012044
:1006600000F018FDE0B200F0FFFD012000F012FDE7
:10067000641C3549097EE0B28842EBD310BD00000E
:100680006805002070B504000E002C48A10009196F
:10069000C90045182235A878082802D02000FFF7A5
:1006A00068FF3100200000F0FDF8002028702000D5
:1006B00000F009FC70BD00000000FA410080BB435F
:1006C00038B50400002905D0022907D004D3032936
:1006D00006D007E0082506E0092504E00A2502E027
:1006E0000B2500E00C25FFF75CFF16212000FFF72B
:1006F000F1FCF82101400D432A0016212000FFF7EC
:10070000AEFD002201212000FFF7A9FD012032BD2E
:10071000020000200B0000D1704710B4074B94007A
:10072000A218D2009A181832137B082B02D0937AA1
:10073000002B01D11180012010BC704768050020FA
:10074000000901000000002004070020F0B583B07C
:1007500007000E001400012201252000002100F0F6
:10076000ADFE16D2012E01D0032E49D12000CA21A0
:10077000090600F0B7FE43D89A4900F09FFE3FD229
:10078000002100F0AFFE3DD800F0C0FE8002800ADC
:1007900015E0701EEAD0401E09D0401EE6D0801F32
:1007A0003DD0801F012859D9001F4CD028E02000DF
:1007B00000F0C0FE0BD100F0A9FEC005C00D020084
:1007C00031003800FFF74BFD280003B0F0BDA2490F
:1007D00000F088FE14D90192072000901621002015
:1007E000FFF778FC4107490F0098401A019A8240B0
:1007F000100000F0B1FD0100200000F05FFEDAD231
:100800000025E1E79005009080200006444020008C
:1008100000F07CFE8102890A0098401ACFE7200090
:10082000944900F05FFEEBD99348210000F092FE5E
:10083000924900F0ACFDFC21890500F08BFE00F030
:1008400015FFC0B2BBE72000A84900F04BFED7D986
:10085000A748210000F07EFEA649EAE72000B7493C
:1008600000F040FECCD9BF200006210000F072FE4F
:10087000A907DEE7FFFFFF7F020000200B0000D189
:10088000704710B4AE4B9400A218D2009A181A32D6
:10089000937A082B02D0137A002B01D1118001200A
:1008A00010BC7047A64A83001B18DB00D218233205
:1008B0005378082B00D0704780B5117000F0E1FC30
:1008C00001BD80B500220121FFF7C9FC01BD04284C
:1008D00005DAAD4900228A8308760120704700209E
:1008E000704710B504000121FFF7F4FB020003215B
:1008F0002000FFF7B4FC10BD10B4020000208B1ED6
:10090000A24CA34210D28E4B9400A218D2009A1887
:100910001C325488A14207D3137A082B02D0937952
:10092000002B01D11180012010BC704710B40200CF
:1009300000208B1E954CA34210D2814B9400A2182C
:10094000D2009A181C3213888B4207D3137A082BD3
:1009500002D09379002B01D15180012010BC704747
:10096000774A83001818C000101825228154704758
:1009700001000020724A8B005918C9005118223119
:100980008A78082A02D002200870012070476C493A
:1009900082001018C00008182421415C0829FBD1EE
:1009A000704780B5022901DA022103E0784B9942B1
:1009B00000DB591E624A83001B18DB00D218118429
:1009C000002803D0022809D004D301BD080000F09C
:1009D000DEFB01BD080000F0EBFB01BD080000F0EC
:1009E000F1FB01BDF9FFFF49F0B50C00544982004D
:1009F0001018C0000D18E88BA98B0F1AA98B0818C6
:100A000047433800298B00F04EFE46083800698BBA
:100A100000F049FE400831188C420FD2698B4C43DC
:100A200020002A8B511800F03EFE022803D3461EF8
:100A300002D1012600E00026AE6002E0AE60201A7E
:100A4000401E2861F0BD80B54F49496A0A0001D0B7
:100A5000884701BDFEE700000180FF4310B54A4C06
:100A6000206A010004D00121A17680470020A076F1
:100A700010BD000001007A450000FAC16F12033D6D
:100A8000F8B50F00404C217E081A401EC0B2251850
:100A90000026667602E0667600F002FB0020210068
:100AA000093102E00E70401C491C227E9042F9D3AD
:100AB0006F7200F0F3FA607E0028ECD1227E2100F4
:100AC00015312000093000F00DFC002805D0616AC6
:100AD000080000D1FEE72F488847A07E002801D0FB
:100AE0000120607600F0DCFAF1BD00000180BB451A
:100AF0000080BBC30FB82E3B10B5114A83001B18F2
:100B0000DB00D218131D0C889C824C88DC828C88F8
:100B10001C83CC885C83002414601C605C609C6037
:100B2000DC601C619C8303249C770124DC77082310
:100B30002424135500F032F810BD0000010080425B
:100B40006805002080B5144982001218D200891867
:100B50000A1DA0239382D382C823DB0013835B0882
:100B6000538300230B60136053609360D360136161
:100B70009383032393770123D37708222423CA5432
:100B800000F057F801BD0000040700200F27000007
:100B900011270000018000006805002038B505001D
:100BA0000C0000220121FFF75AFB0022022128003D
:100BB000FFF755FB002203212800FFF750FB083404
:100BC000226809212800FFF7C1FD607B227B0243D8
:100BD0000E212800FFF743FB22690F212800FFF7B1
:100BE000B5FD626910212800FFF7B0FD626813218E
:100BF0002800FFF7ABFDA07AE27A02431621280015
:100C0000FFF72DFB226A17212800FFF728FB207F22
:100C1000617A0143227A0A431A20205E80B202439D
:100C20001820205E80B2024318212800FFF717FB2E
:100C300031BDF8B5040000220121FFF710FB0022AE
:100C400002212000FFF70BFB002203212000FFF709
:100C500006FB002C03D0022C5AD02CD3F1BD072266
:100C600009210020FFF7FBFA35220E210020FFF7B3
:100C7000F6FA05220F210020FFF7F1FA29221021B0
:100C80000020FFF7ECFA012213210020FFF7E7FA1A
:100C90008C2216210020FFF7E2FACF221721002034
:100CA000FFF7DDFAB222920118210020FFF7D7FAF0
:100CB000002092492AE0072209210120FFF7CFFAFC
:100CC00035220E210120FFF7CAFA05220F2101204B
:100CD000FFF7C5FA292210210120FFF7C0FA0122EF
:100CE00013210120FFF7BBFA8C2216210120FFF708
:100CF000B6FACF2217210120FFF7B1FAB2229201F2
:100D000018210120FFF7ABFA00207D490870F1BDE2
:100D1000072209210220FFF7A2FA35220E21022024
:100D2000FFF79DFA05220F210220FFF798FA2922EA
:100D300010210220FFF793FA012213210220FFF76E
:100D40008EFA704D287EC01EC0B22E1800246C761C
:100D500002E06C7600F0A4F90020290005E00C7098
:100D6000CC708C714C72401C491C2A7E9042F6D388
:100D70001620B0718C20707200F090F9687E002807
:100D8000E7D12E001236AF1D022000902A7E3100DE
:100D9000380000F0A7FA002805D0696A080000D1E1
:100DA000FEE759488847A87E002801D001206876D0
:100DB000FF1CF61C0098401E0090E7D100F070F96F
:100DC000287EC01EC0B22E186C7602E06C7600F051
:100DD00067F90020290005E00C70CC708C714C7212
:100DE000401C491C2A7E9042F6D31720B071CF20B8
:100DF000707200F053F9687E0028E7D12E00123699
:100E0000AF1D022000902A7E3100380000F06AFAFF
:100E1000002805D0696A080000D1FEE73A488847F3
:100E2000A87E002801D001206876FF1CF61C0098DF
:100E3000401E0090E7D100F033F9287EC01EC0B2FA
:100E40002818009080272C266C7602E06C7600F043
:100E500027F90020290005E00C70CC708C714C72D1
:100E6000401C491C2A7E9042F6D318200099C87075
:100E7000009886710098477200F010F9687E00288B
:100E8000E4D12E000F36E81C009003272A7E3100A3
:100E9000009800F027FA002805D0696A080000D100
:100EA000FEE719488847A87E002801D0012068760F
:100EB0000098C01C0090F61C7F1EE7D100F0F0F8EF
:100EC0006F480470F1BD10B50400B821FFF7D8FDDC
:100ED0006C48A1000919C90040180100083100221E
:100EE0000B68002B01D00A7701E002230B77026028
:100EF0004A60C98A2000FFF754FD10BD8D0500200F
:100F0000B50500200407002001800000F1B582B083
:100F100001205D4988765B486946097A8A00511844
:100F2000C9004418250008356868401C6860287F9F
:100F3000002804D0022856D0032835D09BE06968E9
:100F40002A682F8B288A0004AB7E022B3DD0AB7E13
:100F5000002B02D0AB68994237D0AB8A9F425DDA52
:100F6000AB7E002B01D0914258D00026002F00D13B
:100F7000012721680091390000F095FB00990818BD
:100F800020604248414205E02268121822607F1C1E
:100F9000BFB2012622688A42F6D2002E6BD0A88A00
:100FA000B84262D2AF8A60E0A88A6968AA7E022A43
:100FB0000BD0AA7E002A02D0AA68914205D2A97E4F
:100FC000002906D1298B884203DA022028770020E5
:100FD00007E0A97E00294ED1298B81424BDA0020FF
:100FE0002877206047E069682F8B688A0004AA7E12
:100FF000022A02D1EA8ABA4205DAAA7E002A07D07A
:10100000EA68914204D36846007AFFF7B2FA32E008
:10101000A97E002905D1A98AB94202DB03202877DD
:1010200029E0E98AB94226DA0026002F00D10127FB
:1010300021680091390000F036FB00990818206003
:10104000134A1248414207E023681B182360022F0D
:1010500001DBBF18BFB2012623688B42F4D2002EF9
:1010600009D0E88A874200DAEF8A2F83298B684605
:10107000007AFFF796FC00200349887603B0F0BDA4
:10108000DD05002068050020040700200000FFFFA8
:10109000FFFF000080B500F05DFB01BD72B6704738
:1010A00062B67047F0B587B0010050D180210903C6
:1010B0009D4802680A43026002681140009100994D
:1010C0008021890202680A4302600268114000918F
:1010D00000998021C90202680A4302600068014049
:1010E000009100988020C000019090480290012457
:1010F000039404949027FF0501A9380000F03AFBFF
:1011000000220521072000F03EFC072000F03FFCF4
:10111000402001900294002503950494844E01A977
:10112000300000F027FB01224021300000F0EDFBF1
:101130006602019602940395049401A9380000F018
:1011400019FB00223100380000F0DFFB04E003D07F
:1011500002280FD00CD318E0802040000190012419
:10116000029400200390049401A99020C0050AE095
:10117000202000E010200190012402940020039020
:10118000049401A96A4800F0F5FA07B0F0BD10B563
:10119000040000F069FEA10200F085FA411E6548D6
:1011A0000268D162C160490802689163042119E0B4
:1011B00010B5040000F058FEE10200F074FA411E80
:1011C0005D4808E010B5040000F04EFEE10200F0BA
:1011D0006AFA411E59480268D162C1604908026832
:1011E0005163002100F0F3FE10BD70B58AB00128F4
:1011F00006D0022807D04F4D51482860042606E04B
:101200004D4D504801E04D4D4F48286000264F4855
:1012100068600024AC60EC602C61280000F0C2FE25
:1012200060200290039404940694320002A92800DE
:1012300001F06EF8009401946946280001F0BAF9B3
:101240000AB070BD80B5002803D0022807D003D3B0
:1012500001BD0421374804E00021374801E00021A6
:10126000364800F0B1FE01BD80B50122510203E015
:1012700080B50022802189009020C00500F045FB48
:1012800001BD80B500280BD0022801D004D301BDD8
:101290000A001021264808E00A002021244804E022
:1012A0000A00802149009020C005E7E780B5284862
:1012B000284901602021C161002181600122426131
:1012C0000222026181620722C2621202C2600162CE
:1012D000802292008261416282214900416001F0D6
:1012E0008FF902BDF8B505000C001700002240215F
:1012F0000F4800F00AFB38000ED08020400100901B
:10130000012322002900124801F0D6F9060003D17A
:101310006D1C641C7F1EF0D101224021044800F0A6
:10132000F4FAF0B2F2BD00001410024000002110E7
:10133000000400484406002084060020C406002063
:10134000000400400020004000400140FF03000076
:10135000E0050020003001409D2102000AD5F4463E
:10136000524200F007F80122D20710436047000004
:101370009D2102000AD002D4491E9218FCD5C9054D
:10138000100A1206524100D3012A4841704730B476
:1013900005004D400122D20715404B180418240EB9
:1013A0002ED01B0E32D0FF2C34D0FF2B3AD0E418B5
:1013B0000002090210431143000A090A9446C2B20E
:1013C0004A43000AC3B24B43000A4843110A5B1860
:1013D0001A43D2B2190A091801D44918641E080A1E
:1013E0007F3C23DBFE2C08DAE40509061143634643
:1013F00099416041284330BC7047FF20C005F9E7A0
:1014000028001B0EFF2BF6D1D043F4E72800FF2C59
:10141000F1D1F9E74002F7D1FF2B01D14902F3D115
:10142000E005E7E7D8054902E4D0EDE743020020F4
:10143000641CDFD15B129B1CDCD9D805DAE7F8B459
:101440000168421843685908511800918168DB0708
:1014500001D54B46C918009B9A4202D10C30F2BC10
:1014600070471378521C032403261E4002D11678BD
:10147000F61C521C1D090F2D07D115780F35521C73
:1014800003E01778521C0F70491C761EF9D1002D0D
:10149000E1D01678521C9B081C40032C01D1147813
:1014A000521C2302F3185C420B19AD1CD3D01C78DC
:1014B0005B1C0C70491C6D1ECDD0F8E70CB40122EA
:1014C00012060318DA4207D84B18DA4204D8020091
:1014D0000A43921802D288420CBC7047FCD0814269
:1014E000FAE7FEE70CB4012212060318DA4207D825
:1014F0004B18DA4204D802000A43921802D2814201
:101500000CBC7047FCD088420CBC704700180ED24F
:10151000010E7F390BD449421F3105D4C00101228D
:10152000D2071043C84070470020401E704700207B
:101530007047FEE7944602000A43921808D088429A
:1015400006D1012212060018D042084600D8804277
:10155000624670470122D20703004B402ED4431A43
:1015600001D2C01AC91830B44B180418240E1B0E2F
:1015700022D0FF2C20D0E31A182B1DDC09021143C6
:10158000C40D641E0002104394461925ED1A0A008A
:10159000AA40D940451801D36D08A41CE405D2091E
:1015A000280A2D062A436546AA41604103181B0EEE
:1015B000FF2B01D3C00DC00530BC7047514001E086
:1015C0005140CCE7431A03D2C01AC91850405140C9
:1015D00030B44B18090211430418240E1B0E40D0DE
:1015E000FF2C3AD025009D410BD31ED8C50D4002DB
:1015F000401A0BD3ED050100400AC905914168412D
:10160000DAE7C50D40024918401AD5D0012140083B
:10161000491C0018FCD58C4204D36D1A000AED0554
:101620004019C9E7E8051040C6E7182DC4DCAC1C1A
:101630000D00E140E5414D40012D4941C40D00023E
:101640001043451A01D46D199543641EE405280A18
:101650002D069541604130BC7047FF2BACD1D8437B
:10166000AAE72442A8D10020A6E7FEE70122D2077C
:101670000118090E7F3910D449421F310FD40018C8
:1016800005D2C0011043C84000D5D0437047C00107
:101690001043C84005D440427047002070470042C4
:1016A000F3D5100070470022030A8B420BD20309C6
:1016B0008B4219D243088B422ED2411A00D20146E6
:1016C000524110467047FF2209023FD012068B425A
:1016D00005D3121209028B4201D312120902030927
:1016E0008B4219D300E0090AC3098B4201D3CB0115
:1016F000C01A524183098B4201D38B01C01A524157
:1017000043098B4201D34B01C01A524103098B425A
:1017100001D30B01C01A5241C3088B4201D3CB0045
:10172000C01A524183088B4201D38B00C01A524128
:1017300043088B4201D34B00C01A5241884200D368
:10174000401A5241CFD201461046704708B501F009
:101750004DF908BD31B501F04BF90400009D0020A2
:10176000C043854200D06D1C01F042F9001BA84225
:10177000FAD331BDF0B485B000232FE00524AC408E
:101780003C43049D2C606B4C2568009EF44325402F
:101790004E68F60302D52E00009D3543654E356038
:1017A000756825404E68B60302D52E00009D35436E
:1017B000604E7560B56825404E68F60202D52E0071
:1017C000009D35435B4EB560F5682C404D68AD0219
:1017D00002D52500009C2C43F4605B1C0C6825009E
:1017E000DD4000D187E001259D400395254000950F
:1017F000009C002CF1D04C68022C01D0122C13D18B
:10180000DC08A4000419276A9E00BC461C27374048
:101810000F25BD406746AF430D69AC461C253540DA
:101820006646AE403E43266204685D006E463572F1
:101830000325367AB540EE430196354625400C79AE
:10184000A407A40F6E46367AB4402C4304604C685B
:10185000012C05D0022C03D0112C01D0122C11D157
:101860008568019C2C40CD686E46367AB54025438C
:1018700085604468039DAC434D68EE06F60F9E40BC
:1018800026434660C568019C2C408D686E46367ABA
:10189000B5402543C5604C68E4009ED5264C2468BD
:1018A00001252543244C25602468E507ED0F0195AB
:1018B000019C224C9D08AD006419049427689E0089
:1018C0000C2535400F24AC40A7439024E405A042EA
:1018D00001D1002453E71A4CA04201D101244EE764
:1018E000184CA04201D1022449E7174CA04200D075
:1018F00044E7032443E705B0F0BC704700690840A3
:10190000401E8041C043C00F7047002A01D0816152
:1019100070478162704742694A40426170470B4A92
:101920001368034000D1704780B5106001F066F97C
:1019300001BD0000000401401810024008000140F1
:101940000004004800080048000C0048140401404E
:1019500010B4C20018231340FF249C40E2438907BF
:10196000090E9940002801D4184B03E0184B0007DA
:10197000000F083880088000181803681A401143C7
:10198000016010BC704780B5FFF7E2FF01BD002881
:1019900005D40121C006C00E81400E480160704789
:1019A000401E80214904884201D3012070470A4922
:1019B00048600A4802681202120AC0231B06134339
:1019C00003600020886007220A60704700E400E09E
:1019D0001CED00E000E100E010E000E020ED00E0A0
:1019E000F0B583B00400AD4D2078C0074FD50C2072
:1019F00069680140042906D06968084008280AD1AE
:101A00006868C00307D52868800340D5606800284F
:101A10003DD1012091E16068012804D1286880212E
:101A20004902014315E0002801D128680BE0052890
:101A3000286808D18021C9020143296028688021D3
:101A40004902014305E0964901402960286895490B
:101A5000014029608027BF02606800280BD000F099
:101A6000C7FF06002868384011D100F0C1FF801B75
:101A70006528F7D35EE100F0BBFF06002868384018
:101A800005D000F0B5FF801B6528F7D352E102278F
:101A90002068384017D00C206968014006D069687A
:101AA0000840082825D16868C00322D42868384037
:101AB00002D0E0680128ACD12868F8218843216968
:101AC000C900014329602078000743D5E069002858
:101AD000686A30D001210143696200F089FF060085
:101AE000686A384036D100F083FF801B0328F7D3A3
:101AF00020E1E068002828680ED001210143296018
:101B000000F076FF060028683840D5D100F070FF5D
:101B1000801B0328F7D30DE101218843286000F0E2
:101B200067FF060028683840CDD000F061FF801BB9
:101B30000328F7D3FEE001218843686200F058FFD4
:101B40000600686A384005D000F052FF801B032869
:101B5000F7D3EFE02078400762D500200090F80628
:101B6000E969014008D1E9690143E961E96908408F
:101B7000019001980120009071480068C00512D4BE
:101B80006F480068A90D01436D48016000F030FF07
:101B900006006B480068C00505D400F029FF801BD3
:101BA0006528F6D3C6E0A068012809D0002801D135
:101BB000286A0AE00528286A07D10421014329621E
:101BC000286A01210143296206E001218843286235
:101BD000286A042188432862A06800280CD000F0FD
:101BE00007FF0600286A384013D100F001FF801B70
:101BF0009B498842F6D39DE000F0FAFE0600286A71
:101C0000384006D000F0F4FE801B95498842F6D398
:101C100090E00098002803D0E86992490140E9610A
:101C20002078C0061DD5606901283DD1686B04216C
:101C300001436963686B01210143696300F0D8FEC9
:101C40000600686B384005D100F0D2FE801B0328E7
:101C5000F7D36FE0686BF8218843A169C90001439D
:101C60006963206A002867D069680C220A40082A44
:101C700000D1CEE63F069349022828684DD10140A5
:101C8000296000F0B5FE06002868384027D000F033
:101C9000AFFE801B0328F7D34CE000BF00100240CA
:101CA000FFFFFEFFFFFFFBFF0421C9438842686B73
:101CB00002D101406963CDE7042101436963686B88
:101CC00001218843686300F093FE0600686B38408A
:101CD000C7D000F08DFE801B0328F7D32AE0E86A06
:101CE0000F218843E16A0143E9626868764901404F
:101CF000A06A0843616A0143696028687908014362
:101D0000296000F075FE06002868384014D100F004
:101D10006FFE801B0328F7D30CE00140296000F020
:101D200067FE06002868384006D000F061FE801B80
:101D30000328F7D3032000E0002003B0F0BD00002B
:101D400000700040F2B582B0040001255F4F386892
:101D50002840884209D23868A84302990143396073
:101D600038682840029988425FD1594E0220216884
:101D7000014005D07168F0229143A2680A43726065
:101D80002168294042D06168012902D1306880036E
:101D900003E0022903D13068800103D445E03268B2
:101DA000104042D07068032290430143716000F0FC
:101DB0001FFE0090606801280CD170680C21014062
:101DC000042923D000F014FE0099401A24498842C7
:101DD000F3D319E002280CD170680C2101400829C6
:101DE00014D000F005FE0099401A1D498842F3D333
:101DF0000AE070680C21014008D000F0F9FD00995C
:101E0000401A17498842F4D3032027E00298396822
:101E1000294088420BD23868A843029901433960AF
:101E2000386805400298854201D0012016E02078EC
:101E3000400705D5706827490140E0680843706095
:101E400000F012F8244972681206120F895CC8402B
:101E500022490860032000F0DAFE002003B0F0BD44
:101E600089130000FFFFFFEF10B588B004A800BF82
:101E70001EA1102200F0DEFE684600BF1FA1102246
:101E800000F0D8FE164908680C220240082A13D137
:101E90000F2204AB840C14401C5D6B46896A0A4017
:101EA000995CC00304D50F48FFF7FDFB604304E0D5
:101EB0000D484443200000E00A4808B010BD074820
:101EC00000687047FFFFFFFEFFFFC2FF00200240D7
:101ED00000100240FFF8FFFF2435000864010020D5
:101EE0000410024000127A0000093D0002030405BC
:101EF000060708090A0B0C0D0E0F1010010203044F
:101F000005060708090A0B0C0D0E0F100220687059
:101F1000206802681D49884202D01D4B984206D1B4
:101F200070239A431300A2681A4388420ED0184BBC
:101F300098420BD0174B984208D0174B984205D0C7
:101F4000164B984202D01F4B984203D1144B1340BA
:101F500022691A4380239A43A36913430360E2680A
:101F6000C26262688262884208D00B49884205D00A
:101F70000A49884202D01349884201D1616901634C
:101F8000012141616970002032BD0000002C014038
:101F90000004004000200040004001400044014097
:101FA000FFFCFFFF38B5040001D1012032BD250040
:101FB0003C356878002803D12870200000F064FDCB
:101FC000A4E700000048014030B40200AAE010B4C9
:101FD0000A0006D0042908D008290AD00C290CD000
:101FE00010E00268D36802240AE00268D36804247F
:101FF00006E00268D368082402E00268D36810246F
:102000001C43D4600268012001238B40116A99436C
:102010001162116A0B4313622F498A4208D02F497B
:102020008A4205D030498A4202D058498A4203D1B7
:10203000516CC3030B43536411680843106046E0BE
:1020400010B40A0006D0042908D008290AD00C29A7
:102050000CD010E00268D36802240AE00268D3685A
:10206000042406E00268D368082402E00268D3680A
:102070001024A343D3600268106A01238B40984365
:102080001062106A10621448824208D013488242DB
:1020900005D01548824202D03C4882420BD1106ADA
:1020A0000F49014007D1106A0E49014003D1506C1D
:1020B000374901405164106A0949014007D1106A4B
:1020C0000849014003D110680121884310600020B5
:1020D00010BC704700000000002C0140004001408F
:1020E00011110000440400000044014030B402001B
:1020F000080006D0042908D008290AD00C290CD0E1
:1021000010E01068C368254C0AE01068C368244CCE
:1021100006E01068C368234C02E01068C368224CD4
:102120001C40C46014680123256A0120884085434F
:102130002562206A206210681649884208D0164934
:10214000884205D01949884202D0104988420BD1F3
:10215000016A174C0C4007D1016A164C0C4003D1A0
:10216000416C0B4C0C4044641068016A104C0C40EC
:1021700006D1016A0F4C0C4002D1016899430160FD
:102180003D201354002030BC70470000004801403F
:10219000FF7FFFFF002C014000400140FFFDFFFFDB
:1021A000FFFBFFFFFFF7FFFFFFEFFFFF00440140D2
:1021B000111100004404000070B5040020680226DC
:1021C0000169314016D0C168314013D00221C943A2
:1021D0000161012121778069800703D0200000F090
:1021E00043FD05E0200000F040FD200000F0AFFCC2
:1021F00000202077206804250169294017D0C16894
:10220000294014D00421C943016126778069C02187
:102210008900014003D0200000F026FD05E02000E9
:1022200000F023FD200000F092FC002020772068C1
:1022300008260169314015D0C168314012D008210B
:10224000C94301612577C069800703D0200000F0F1
:102250000BFD05E0200000F008FD200000F077FCF9
:10226000002020772068102102690A4017D0C26838
:10227000114014D01021C94301612677C069C021E3
:102280008900014003D0200000F0EEFC05E02000B2
:1022900000F0EBFC200000F05AFC002020772068C2
:1022A000012102690A4008D0C268114005D001210D
:1022B000C9430161200000F0D9FC20688021026937
:1022C0000A4008D0C268114005D08021C94301618D
:1022D000200000F0CCFC2068402102690A4008D0B0
:1022E000C268114005D04021C9430161200000F0BF
:1022F000BFFC2068202102690A4008D0C268114052
:1023000005D02021C9430161200000F0B2FC70BD5E
:10231000F8B504000D0027003C373878012801D1BA
:102320000220F2BD01263E7002207870002A06D0FD
:10233000042A15D0082A27D00C2A36D048E0206875
:1023400000F04CF82068816908220A438261206805
:102350008169042291438161206881692A6910E0C2
:10236000206800F076F820688169F2020A438261F1
:1023700020688169184A0A408261206881692A6957
:1023800012020A43826123E0206800F097F8206877
:10239000C16908220A43C2612068C16904229143CD
:1023A000C1612068C1692A6910E0206800F0B9F8AD
:1023B0002068C169F2020A43C2612068C169064A05
:1023C0000A40C2612068C1692A6912020A43C261D7
:1023D0007E7000203870F2BDFFFBFFFF70B4026A10
:1023E00001239A430262046A4268856973239D430C
:1023F0000B682B430225AC438D6825435E4CA042FD
:1024000008D05E4EB04205D05D4EB04202D05D4E67
:10241000B0420ED10826B5432E00CD6835430426C0
:10242000B543A04208D0554CA04205D0544CA04220
:1024300002D0544CA04205D1534C14404E6926435F
:102440008A6932434260836149684163056270BCB6
:10245000704770B4026A10239A430262026A4368AA
:1024600084694A4D25400C6824022C432025AA4348
:102470008D682D011543404A904208D18022954332
:102480002E00CA68150135434022954308E03B4AB7
:10249000904205D03A4A904202D03A4A904206D140
:1024A0003B4A1A404B698E691E43B3001343436095
:1024B000846149688163056270BC704770B4026AC8
:1024C000344B13400362046A4268C56973239D4319
:1024D0000B682B43304D25408C6824022C43264D3D
:1024E000A84207D12D4D2540CC6826022E432C4C06
:1024F000344008E0214DA84205D0214DA84202D029
:10250000204DA84206D1274D15404A698E691643D1
:1025100032012A434260C3614968C163046270BCEE
:10252000704730B4026A204B13400362036A42686A
:10253000C469164D25400C6824022C431B4D1D40D8
:102540008B681B032B430C4DA84208D00B4DA842AF
:1025500005D00B4DA84202D00A4DA84204D1144D1B
:1025600015404A6992012A434260C4614968016486
:10257000036230BC70470000002C01400040014065
:102580000044014000480140FFFCFFFFFF8CFFFFBB
:10259000FFF3FFFFFFFEFFFFFFFDFFFFFFF7FFFF62
:1025A000FFFBFFFFFFCFFFFFFFEFFFFFFFDFFFFF9F
:1025B000FFBFFFFF70B402003C321378012B01D142
:1025C00002201AE001231370022454700468656825
:1025D0007026B5436560046865680E682E436660C2
:1025E0000468A5688026B543A560006884684968CA
:1025F0002143816053700020107070BC7047FEE76B
:10260000F8B5040001D10120F2BD0025A562260025
:102610005C367078002803D13570200000F0EEF9A8
:102620000220707021680A6840239A430A60E168BA
:102630001F4A914205D30023F0273F01B94204D13C
:1026400004E0C302571EB94200D0A562276B002FD9
:1026500003D1914200D2012020636068A168014348
:102660002069084361690143A069802292001040FB
:102670000843E1690143206A0843A16A01432068D5
:102680000160A069000C04210840616A0143606B8D
:102690000843E16801430B43206843602068C16937
:1026A000044A0A40C2617560012070700020F2BDCA
:1026B00001070000FFF7FFFFF8B584B004000D002C
:1026C0001600012000900020694608712700443759
:1026D000387E012801D1022013E10120387600F074
:1026E00087F90290787E01280BD06168822252001F
:1026F000914204D1A168002901D1042801D002200F
:10270000F7E0002D00D1F3E0002E00D1F0E06846A4
:10271000008A002800D1EBE0787E042801D0052053
:1027200078760020F86126646846008A78806846DA
:10273000008A3880A5636846008AE0876846008A78
:10274000A0870020B860F860004801E001070000A1
:10275000E168814202D27988022904D321684A685B
:10276000694B134004E021684A6880235B011343EE
:102770004B60216840220B68134002D10B681A435A
:102780000A606168E268824240D3002902D0E08F8B
:10279000012806D128882168C860AD1CE08F401E42
:1027A000E087E08F002803D17888002800D193E0EB
:1027B000009800280ED0E08F00280BD02068816898
:1027C000890707D52988C160AD1CE08F401EE087CE
:1027D00000200090788800280BD020688168C90705
:1027E00007D5C0683080B61C7888401E78800120EC
:1027F00000900A980021C9438842D2D000F0F8F82E
:102800000299401A0A998842CBD363E0002902D08A
:10281000E08F01280FD12068E18F022905D3298894
:10282000C160AD1CE08F801E04E0297801736D1C2F
:10283000E08F401EE087E08F002802D178880028D2
:102840004AD00098002817D0E08F002814D02068C4
:102850008168890710D5E18F022905D32988C160D5
:10286000AD1CE08F801E04E0297801736D1CE08FA1
:10287000401EE08700200090788800281ED0206845
:102880008168C9071AD5798802290FD3C0683080BA
:10289000B61C7888801E7880788802280CD2206840
:1028A0004168802252010A43426005E0007B30709B
:1028B000761C7888401E7880012000900A980021BC
:1028C000C9438842B7D000F093F80299401A0A9998
:1028D0008842B0D303200CE0029A0A99200000F04D
:1028E00015F8002801D02020F861F869002802D0EE
:1028F0000120694608710120787600203876684604
:10290000007905B0F0BD0000FFEFFFFFF4B582B025
:1029100005000C000027FF43C02676012868806868
:1029200030400AD0BC42F9D0002C29D000F060F829
:102930000299401AA042F1D322E02868806800067C
:102940000AD5BC42F9D0002C1AD000F051F80299F7
:10295000401AA042F1D313E028688168B2080A4007
:102960003FD0007B6946087068460078BC42F3D0CF
:10297000002C05D000F03CF80299401AA042EBD39D
:1029800028684168E02291434160686882214900DB
:1029900088420CD1A86880210902884202D04909E6
:1029A000884204D128680168402291430160802058
:1029B0008001A96A814208D129680A680A4B13403C
:1029C0000B6029680A681043086028005C30012108
:1029D000417000210170416820220A4342600320B7
:1029E00000E0002003B0F0BDFFDFFFFF7047FEE70F
:1029F00001480068704700BF34070020006877492D
:102A0000884200D0704730B587B080218902744871
:102A100002680A43026002680A400092009A026853
:102A20000A43026002680A400092009A02680A4360
:102A300002600268114000910099810C42680A43CB
:102A400042604068014000910098202001900220DF
:102A50000290002403940120049005949025ED0534
:102A600001A92800FEF786FE40200190059401A9E7
:102A70002800FEF77FFE80200190059401A9280020
:102A8000FEF778FE07B030BD00B587B00068554945
:102A900088421BD1544902204A6802434A6049686F
:102AA0000140009100998021019102900020039043
:102AB00004900120059001A94C48FEF75BFE00221E
:102AC00004211020FEF75FFF10203CE048498842B7
:102AD0001AD14549880D4A6802434A60496808404E
:102AE000009000980820019001200290002003909F
:102AF000049001A93F48FEF73DFE00220321132068
:102B0000FEF741FF13201EE03B4988421DD1802083
:102B1000400235490A6802430A600968084000908B
:102B200000988020C00001900120029000200390B6
:102B3000049001A92F48FEF71DFE00220321142056
:102B4000FEF721FF1420FEF722FF07B000BD38B5C5
:102B500004002068234988420AD1207F02283BD103
:102B6000002000F000F9082802D0002000F00EFA42
:102B700020681F49884214D1207F01282CD11D4D87
:102B800008212800FEF7C7FE012000F0ECF8082815
:102B900007D008212800FEF7B1FE012801D100F07E
:102BA000F5F920681449884216D1207F012813D1F5
:102BB0000C0D104D21002800FEF7ADFE022000F0A4
:102BC000D2F8082808D021002800FEF797FE012837
:102BD00002D1022000F0DAF931BD000000300140DE
:102BE0001410024000040040181002400008004881
:102BF0000020004000040048004001408021C9003E
:102C0000884200D0704780B500F06CF801BD10B567
:102C10000400FFF754F9FA218900FEF744FDFEF79E
:102C2000BFFE002221000020C043FEF7ACFE0020C2
:102C300010BDFEE770B4103A03D378C9103A78C0DB
:102C4000FBD2530701D318C918C001D508C908C061
:102C5000D20704D30B880380891C801C002A01D56D
:102C60000B78037070BC70477047704770477047AF
:102C70007047704780B57A494968002904D089684F
:102C80000A0001D0884701BD764800F00FF801BD69
:102C900080B573494968002904D0C9680A0001D089
:102CA000884701BD774800F001F801BD80B56C4947
:102CB0004968002905D0F02289580A0001D08847C8
:102CC00001BDFEE780B579484068002805D002685C
:102CD000100002D00800904701BD80200001FFF7DE
:102CE000E5FF01BD80B55E484068002804D040691A
:102CF000010001D0804701BD7D48FFF7D7FF01BD2E
:102D000010B5002456494968002905D089690A0090
:102D100002D08847040002E07D48FFF7C7FF20008B
:102D200010BD10B500244E494968002905D0C96975
:102D30000A0002D08847040002E07F48FFF7B6FF90
:102D4000200010BD10B5002445494968002905D070
:102D5000096A0A0002D08847040002E08048FFF7B1
:102D6000A5FF200010BD10B508243D494968002981
:102D700005D0496A0A0002D08847040002E0824870
:102D8000FFF794FF200010BD10B5002434494968B6
:102D9000002905D0096B0A0002D08847040002E030
:102DA0008848FFF783FF200010BD10B500242C4990
:102DB0004968002905D0496B0A0002D08847040001
:102DC00002E08148FFF772FF200010BD10B500241B
:102DD00023494968002905D0896B0A0002D0884739
:102DE000040002E07948FFF761FF200010BD80B5C4
:102DF0001B494968002904D0C96B0A0001D08847E3
:102E000001BD7C48FFF752FF01BD80B527494968E5
:102E1000002904D0096C0A0001D0884701BD812037
:102E20000001FFF743FF01BD80B50D4A5268002A3B
:102E300004D0526C130001D0904701BD6E48FFF7DB
:102E400035FF01BD80B506494968002904D0896C69
:102E50000A0001D0884701BD6848FFF727FF01BD80
:102E60002C0700200208000080B5104A5268002A92
:102E700004D0526D130001D0904701BD6048FFF7A8
:102E800015FF01BD0308000010B50024074A526871
:102E9000002A05D0926D130002D09047040002E092
:102EA0006148FFF703FF200010BD00002C07002041
:102EB00010B500245D4A5268002A05D0D26D130077
:102EC00002D09047040002E05948FFF7EFFE2000CF
:102ED00010BD80B555494968002904D0096E0A0023
:102EE00001D0884701BD5348FFF7E0FE01BD000057
:102EF0000508000080B54D494968002904D0496E95
:102F00000A0001D0884701BD4B48FFF7CFFE01BD45
:102F10000608000010B50024444A5268002A05D073
:102F2000926E130002D09047040002E04348FFF77E
:102F3000BDFE200010BD00000708000010B50024F1
:102F40003A4A5268002A05D0D26E130002D0904748
:102F5000040002E03A48FFF7A9FE200010BD00007F
:102F60000808000010B5002430494968002905D040
:102F7000096F0A0002D08847040002E03148FFF7D9
:102F800095FE200010BD00000908000080B527490B
:102F90004968002904D0496F0A0001D0884701BD63
:102FA0002948FFF783FE01BD80B520494968002903
:102FB00004D0896F0A0001D0884701BD2348FFF77C
:102FC00075FE01BD0C0800000D0800000E08000091
:102FD00010B5002415494968002906D0882289586F
:102FE0000A0002D08847040002E01948FFF75EFE9D
:102FF000200010BD0F08000011080000120800009A
:103000001508000010B50024084A5268002A06D0AE
:10301000A023D258130002D09047040002E00D48CC
:10302000FFF744FE200010BD160800002C0700200A
:103030001708000018080000190800001A0800000E
:103040001B0800001C0800001D0800001E080000EE
:10305000220800002808000070B502000C00234D73
:103060002A800020002622498A4202D1FDF7ECF98D
:103070002DE0012A02D100F041F828E01D498A42E2
:1030800002D100F03DF822E0891C8A4202D100F012
:1030900039F81CE0DC2A02D100F036F817E01649B6
:1030A0008A4202D0891C8A4202D100F02FF80EE039
:1030B00008318A4202D0891C8A4202D100F028F8E5
:1030C00005E0F02A01D0FA2A01D100F023F8686067
:1030D000002808D0A22149004158080003D0200050
:1030E00001D088470600300070BD00002C0700208A
:1030F0004A1900003E1800004619000000207047E1
:103100000020704700207047002070470020704763
:103110000020704700207047F8B500F09DF900F0DE
:10312000ACF9C54C03212000FFF796FF00212000D9
:10313000FFF7C8FD00212000FFF7C4FD002120009B
:10314000FFF7C0FDBD48FFF7A3FDBD48FFF792FDA7
:103150000020FFF7BEFE0120FFF7BBFE0220FFF7B5
:10316000B8FEC82109010020FFF75EFE0020FFF72E
:103170001BFF0020FFF72AFEC821090188420AD15F
:103180000020FFF7B7FEC82109010120FFF74CFE20
:103190000120FFF709FF0120FFF718FEC8210901F0
:1031A000884205D10220FFF73FFE0220FFF7FCFE18
:1031B0000220FFF70BFE0500FA24A4002000FEF712
:1031C000C9FAC8200001854211D10020FFF70FFE87
:1031D0000120FFF70CFE0220FFF709FE0020FFF799
:1031E000E3FE0120FFF7E0FE0220FFF7DDFE2000F6
:1031F000FEF7B0FA93490020FFF716FE0020FFF714
:10320000D3FE0020FFF7E2FD8E49884205D1012060
:10321000FFF70AFE0120FFF7C7FE0120FFF7D6FDEA
:103220008849884205D10220FFF7FEFD0220FFF702
:10323000BBFE0220FFF7CAFD05002000FEF78AFA58
:103240008048854214D10220FFF754FE0020FFF78A
:10325000CEFD0120FFF7CBFD0220FFF7C8FD0020C7
:10326000FFF7A2FE0120FFF79FFE0220FFF79CFE62
:103270002000FEF76FFA0020FFF7C7FD0220FFF7DE
:10328000C4FD0020FFF790FE0220FFF78DFE200016
:10329000FEF760FA01210020FFF7E6FD0020FFF7AE
:1032A00073FD05000020FFF73CFDA842FAD1664CF3
:1032B0002D19A9B20120FFF72DFE01210120FFF7F2
:1032C000D3FD0120FFF72DFDA842FAD12C19A1B2A0
:1032D0000220FFF71FFE01210220FFF7C5FD02209B
:1032E000FFF71FFDA042FAD15848FEF733FA01203C
:1032F000FFF738FE0120FFF757FE0020FFF7A2FD81
:103300000220FFF79FFD0020FFF74EFE0220FFF78F
:103310004BFE0020FFF76BFD0120FFF768FD022048
:10332000FFF765FD0020FFF73FFE0120FFF73CFEA1
:103330000220FFF739FE0020FFF7E2FC0700002023
:10334000FFF700FD06000020FFF71EFD040000202F
:10335000FFF72BFD050003210120FFF753FE610855
:103360000120FFF7D7FD69080120FFF7E7FD0020E6
:10337000C019C003010C0120FFF786FD0020801951
:10338000C003010C0120FFF793FD00210220FFF78D
:1033900039FE21090220FFF7BDFD29090220FFF7B0
:1033A000CDFD0020C0190003010C0220FFF76CFDC9
:1033B000002080190003010C0220FFF779FD244E44
:1033C000C724E44375421F490020FFF72DFD290063
:1033D0000120FFF729FD21000220FFF725FD002035
:1033E000FFF7E2FD0120FFF7DFFD0220FFF7DCFD24
:1033F00069000020FFF718FD31000120FFF714FDE0
:10340000C8210220FFF710FD0020FFF7CDFD0120AD
:10341000FFF7CAFD0220FFF7C7FDD4E780B5002003
:10342000FFF7D6FD0120FFF7D3FD0220FFF7D0FD07
:1034300001BD08490880FEE74A1900001D34000854
:103440003334000880F3FFFFC0FEFFFFB80B00001D
:10345000C0F9FFFF3807002080B506480168102238
:103460000A4302600320FFF7D2FB00F005F80020BA
:1034700002BD000000200240704730B591B000242A
:10348000049402250C950D9401200F90A020800338
:103490000E9004A8FEF7A4FA002802D00020FFF73F
:1034A000C8FF07200090019502940394012168460B
:1034B000FEF748FC002802D00120FFF7BAFF11B048
:1034C00030BDFEE71148016801220A4302604168ED
:1034D0000F4A0A40426001680E4A0A4002600168D1
:1034E0000D4A0A40026041680C4A0A404260C16AC3
:1034F0000F229143C162016B094A0A400263416B8A
:103500000122914341630021816070470010024015
:103510000CB8FF08FFFFF6FEFFFFFBFFFFFFC0FF39
:10352000ECFEFFFF000000000000000001020304A9
:10353000060708097047FEE77047704780B500F03E
:103540001DF801BD80B58020C000FEF7E8F901BD7F
:1035500080B50748FEF730FE01BD80B50548FEF78F
:103560002BFE01BD80B50448FEF726FE01BD00001C
:103570008406002044060020C4060020024801689A
:10358000491C0160704700BF3407002070B401215E
:10359000002213E00468001D0C4202D04D466D1E4F
:1035A00064192260241D1B1F042BFAD225009E07DC
:1035B00001D52280AD1C0B4000D02A700368001D8D
:1035C000002BE7D170BC704710B50749794418311A
:1035D000064C7C44163404E0081D0A6889188847A4
:1035E0000100A142F8D110BD080000002400000035
:1035F0009DFFFFFFD40100006805002000000000CF
:103600003FDEFFFF8800000088010000000000206E
:1036100000F00BF8002801D0FFF7D6FF002000BF14
:1036200000BFFFF779FD00F002F80120704780B578
:1036300000F002F801BDFEE70746384600F002F848
:10364000FBE7FEE780B500BF00BF024A110018206B
:10365000ABBEFBE726000200014880470148004757
:10366000C53400086936000800BF00BF00BF00BFB6
:10367000FFF7CEFFFEE7FEE7FEE7FEE7FEE7FEE729
:10368000FEE7FEE7FEE7FEE7FEE7FEE7100B290395
:1036900000082D060008B5000008BB041200011048
:1036A000035D0A00089318100309040008170412A8
:1036B0002504124504124D04125304126104127BB6
:1036C0000412DF0412E90410030B0500087304124E
:1036D000D104124F4C128504100711070008790815
:1036E0000008C30412E30412F90410032D090008B2
:1036F000710410030D0F00088F0812C17012CB0463
:1037000012D5041007C1010008550200085F041219
:103710003340123F0412470412C10443A50898A184
:1037200001F301A30514E101F301750424F30D472E
:103730000A3812619892CF3812930CF30D35043485
:1037400012CFA0124DF0F306A503280001127A0053
:040000050800366950
:00000001FF
